:020000022000DC
:106000000000042029EC030051EC030053EC0300D2
:1060100055EC030057EC030059EC030000000000AE
:106020000000000000000000000000005BEC030026
:106030005DEC0300000000005FEC030061EC030076
:1060400039BA030063EC0300B9EB030063EC03000F
:1060500063EC0300E1B60300D9AD030063EC030079
:1060600063EC030063EC030063EC030063EC0300E8
:1060700063EC0300F5BB030063EC030063EC030077
:1060800063EC03000D3D030063EC030063EC0300CD
:10609000AD3D030063EC0300A588030063EC03003F
:1060A00063EC030063EC030063EC0300E1BD030059
:1060B00063EC030063EC030000000000000000003C
:1060C00063EC030063EC030063EC030063EC030088
:1060D00063EC030063EC030063EC03000DDE0300DC
:1060E00063EC030063EC030065D1040000000000D2
:1060F0000000000063EC03000000000063EC0300FC
:10610000000000000000000000000000000000008F
:10611000000000000000000000000000000000007F
:10612000000000000000000000000000000000006F
:10613000000000000000000000000000000000005F
:10614000000000000000000000000000000000004F
:10615000000000000000000000000000000000003F
:10616000000000000000000000000000000000002F
:10617000000000000000000000000000000000001F
:10618000000000000000000000000000000000000F
:1061900000000000000000000000000000000000FF
:1061A00000000000000000000000000000000000EF
:1061B00000000000000000000000000000000000DF
:1061C00000000000000000000000000000000000CF
:1061D00000000000000000000000000000000000BF
:1061E00000000000000000000000000000000000AF
:1061F000000000000000000000000000000000009F
:1062000010B5054C237833B9044B13B10448AFF3F0
:1062100000800123237010BD183E00200000000004
:10622000CCFB050008B5034B1BB103490348AFF392
:10623000008008BD000000001C3E0020CCFB0500D3
:10624000154B002B08BF134B9D46A3F5803A002148
:106250008B460F461348144A121A2CF046FE0F4B79
:10626000002B00D098470E4B002B00D09847002001
:10627000002104000D000D48002802D00C48AFF3A7
:1062800000802CF0A7FD2000290018F0FFFD2CF065
:106290007BFD00BF0000080000000420000000009B
:1062A00000000000183E0020B8FB002000000000A5
:1062B0000000000072DF704773DF704770B504465E
:1062C00000F24A2681700D463046072200212CF04C
:1062D0000CFEE38813B1A378012B5FD0E379002B88
:1062E00059D194F84B32002B40F0848094F84C3212
:1062F000002B7FD194F84D32002B7BD194F84E3295
:10630000002B77D194F84F32002B73D194F8503290
:106310001A1C18BF01226B1E032B00F24F81DFE80D
:1063200003F002470A0DA379002B41D094F82430E2
:10633000002B3DD12AB9237A002B7BD1657A002D21
:1063400064D1A570002384F8533204F13C0518226F
:10635000002128462CF0C9FDE26A0121531E8B4220
:1063600084F83C103BD9042A94F82400A37826D062
:1063700084F8511000283FD084F85210002284F88D
:106380005020042B00F20981DFE813F07B00560057
:10639000DC00AE007F00A378022BA2D1636B002B40
:1063A00000F00981012284F851220820984798E7DB
:1063B000E379002BBFD0002ABDD00225C1E784F8C5
:1063C000512098B9002284F85020042B00F2E58077
:1063D000DFE813F057003200D400CE00C80094F874
:1063E000241084F85120A3780029EBD0A26A84F805
:1063F0005220C3E701228EE784F85000042B00F2FC
:10640000CC80DFE803F03E19BBB5AF000422636B1C
:10641000A270002B96D06279002A93D094F8522271
:10642000002A8FD1012184F8542284F853120720C6
:1064300098478AE70322EAE700230120022180220D
:10644000266484F83100C4F84432636484F83C1054
:10645000A4F8482000212A4604F15400FFF72AFF3F
:1064600000B170BD94F8301094F85400FFF724FF89
:106470000028F6D1636B13B194F8310098470020DF
:1064800070BD002384F83130F4E7D4E90721626459
:106490000622A4F8481084F83C206279002A72D0C1
:1064A00094F85222002A6ED194F85422002A6AD01D
:1064B000022384F850300122B4F83812D4F83402A0
:1064C00000F012FF08B10423037004F50D76314685
:1064D0002A4604F15400FFF7EDFE002866D106229B
:1064E000A37884F8312053E0D4E9052162640622C0
:1064F000A4F8481084F83C206279002A50D094F81F
:106500005222002A4CD194F85422002A48D0022367
:1065100084F850300122B4F83812D4F8340200F074
:10652000E3FE08B10423037004F50D7631462A46D4
:1065300004F15400FFF7BEFEC0BB0522A37884F827
:10654000312025E0022384F831300723D4E90321E8
:1065500084F83C3000232664A4F84810C4F8443280
:10656000626477E7D4E907126164A4F8482094E7ED
:10657000D4E905126164A4F84820BDE7022384F839
:1065800031300323E2E7042284F8312004F50D764C
:10659000C4F84462002B3FF46DAFD4F844125AE7BC
:1065A000032284F8312004F50D76F1E7A378002B5F
:1065B0003FF460AFF1E784F8513292E60025C0E67F
:1065C00080F83010704700BF00295AD0002858D0FA
:1065D000F8B591F87A301BB191F89830002B52D170
:1065E0004FF0000C80F802C001F1780604460F4617
:1065F0000FCE251D0FC50FCE0FC596E8070085E805
:10660000070084F830C0D7F8A4306363D7F8A83007
:10661000A3634FF6FF7504F50D73C4F84432614669
:10662000A4F84852072204F24A202CF05EFC23789A
:106630000BB984F8545094F82430002B14BFEE2387
:106640001F2304F15501A4F83832C4F8341204F5BC
:106650000E72384600F04AFC90B994F82430002BB2
:1066600014BFEE231F2304F2431107F13C00A4F8EA
:106670004032C4F83C1204F5107200F037FC20B12F
:10668000F8BD0E2070470720F8BDD4E90525012389
:10669000206484F850000146626484F8513084F824
:1066A0003C30A4F8485004F13C0204F15400FFF7D8
:1066B00001FE0028E4D12370F8BD00BFF8B50678CC
:1066C000002E73D0044600F24A27A1700D463846CA
:1066D000072200212CF009FCE38803BBE37913B106
:1066E000A378022B1ED094F84B3283B994F84C3225
:1066F0006BB994F84D3253B994F84E323BB994F8D3
:106700004F3223B994F85062003618BF01266B1E31
:10671000032B00F25681DFE803F00F161B1EA3784F
:10672000012BDBD1636B002B00F04881012284F840
:10673000512208209847D6E7A37923B194F8243052
:10674000002B00F02981E37913B1002E40F0118174
:10675000237A002B4CD1657AB5BBA570002384F851
:10676000533204F13C051822002128462CF0BDFBD1
:10677000E26A0121531E8B4284F83C1063D9042A3B
:1067800094F82400A37868D084F8511080B184F87C
:106790005210002284F85020042B00F2A980DFE878
:1067A00013F029003300D800AA0073000820F8BDB8
:1067B00084F85000042B00F29B80DFE813F01B00EC
:1067C0002500E200E700DC000422636BA270002BCE
:1067D000C4D06279002AC1D094F85222002ABDD1D7
:1067E000012184F8542284F8531207209847B8E70F
:1067F0000322EAE7002384F83130636B13B194F885
:10680000310098470020F8BD00230120022180229A
:10681000276484F83100C4F84432636484F83C107F
:10682000A4F8482000212A4604F15400FFF742FD55
:106830000028BCD194F8301094F85400FFF73CFDC8
:106840000028DAD0F8BD94F8241084F85120A378F9
:1068500039B1A26A84F852209BE784F851200028BD
:10686000F7D1002284F85020042B41D801A252F81D
:1068700023F000BFF5670200096802008369020087
:106880008D69020077690200D4E90721626406225B
:10689000A4F8481084F83C206279002A00F0868031
:1068A00094F85222002A40F0818094F85422002A61
:1068B0007CD0022384F850300122B4F83812D4F886
:1068C000340200F011FD08B10423037004F50D76C5
:1068D00031462A4604F15400FFF7ECFC00286BD146
:1068E0000622A37884F83120C4F84462002B84D0B7
:1068F000D4F8441297E7D4E9052162640622A4F88B
:10690000481084F83C206279002A49D094F8522239
:10691000002A45D194F85422002A41D0022384F859
:1069200050300122B4F83812D4F8340200F0DCFC04
:1069300008B10423037004F50D7631462A4604F1AC
:106940005400FFF7B7FCB8BB0522A37884F83120C8
:10695000CAE7022384F831300723D4E9032184F8FD
:106960003C3000232764A4F84810C4F84432626421
:1069700058E70225F1E6D4E907126164A4F848203B
:106980008AE7022384F831300323E6E7D4E90512CD
:106990006164A4F84820B6E7002E3FF4D9AEDCE6E7
:1069A000032284F8312004F50D769DE7042284F853
:1069B000312004F50D7697E7A37897E784F85132F4
:1069C00091E60025C9E600BF10B50388112B0C46DF
:1069D0000BD0262B1DD0102B00D010BDC37B012B5C
:1069E000FBD18388A1F8483210BD002381F85232D0
:1069F0008288B1F848329A42EFD10B79002BECD162
:106A00000B78EBB90820A36B002BE6D0BDE8104053
:106A10001847037A013B012BDFD80B78002BF1D00C
:106A20008A780B4B0132A3FB02139B0803EB830311
:106A3000D31AD9B22046FFF741FC0028E3D110BD9C
:106A400001212046FFF73AFC0028DCD110BD00BF31
:106A5000CDCCCCCC704700BFA8DF70472DE9F0410A
:106A60008CB00CA941F60A0321F82C3D0123044601
:106A7000C24A8DF806301846FFF7EEFF054600289B
:106A800040F0B6802688002E40F0B6802689002E81
:106A900040F02881268A002E40F04A81268B002E65
:106AA00040F07E81268C002E40F0D080268D002E76
:106AB00040F0F280236B002B39D01A688DF8082043
:106AC0001A6894F83C60120A8DF809205A888DF8EB
:106AD0000A20DA788DF80B205A688DF80C209B6814
:106AE0008DF80D30190A20221B0C8DF80E1004A809
:106AF00000218DF80F302CF0F8F99DF81D309F49DA
:106B00008DF8216043F0020308888DF81D3042F6AD
:106B100023274FF0081602AB994AADF8107004A96C
:106B2000CDE9056300F07CFF002840F08A80636BAC
:106B300043B31F681E7994F83C80002F00F0558104
:106B400016B9304611F05EFB2022002104A82CF07B
:106B5000CCF99DF81D3089498A4A0888ADF814603F
:106B600043F0020342F62A2C04A9ADF816600697FA
:106B70008DF821808DF81D30ADF810C000F050FF69
:106B800000285ED1A36B9BB31A788DF808205A8831
:106B90008DF80920120A8DF80A209A888DF80B20AA
:106BA000120A8DF80C20DB888DF80D3020221B0A8C
:106BB000002104A894F83C408DF80E302CF095F993
:106BC0009DF81D306D498DF8214043F0020308887F
:106BD0008DF81D3042F6502502AB6B4AADF81050CF
:106BE00004A94FF00714CDE9054300F019FF05464D
:106BF00028460CB0BDE8F081676894F83C80002F0F
:106C000000F0F7802022002104A82CF06EF99DF8F6
:106C10001D305A495D4A0888ADF8146043F00203FC
:106C200042F6292C04A9ADF8166006978DF821804C
:106C30008DF81D30ADF810C000F0F2FE00283FF4D2
:106C400025AF054628460CB0BDE8F081676A94F888
:106C50003C80002F00F0DC802022002104A82CF0D2
:106C600044F99DF81D304549494A0888ADF814603B
:106C700043F0020342F6262C04A9ADF816600697ED
:106C80008DF821808DF81D30ADF810C000F0C8FEE1
:106C900000283FF40BAFD4E7E76A94F83C80002F5C
:106CA00000F0BA802022002104A82CF01EF99DF8E3
:106CB0001D303249374A0888ADF8146043F00203AA
:106CC00042F6282C04A9ADF8166006978DF82180AD
:106CD0008DF81D30ADF810C000F0A2FE00283FF482
:106CE000E9AEAEE7E76894F83C80002F00F08480BE
:106CF0002022002104A82CF0F8F89DF81D301F492F
:106D0000254A0888ADF8146043F0020342F6242CAB
:106D100004A9ADF8166006978DF821808DF81D3016
:106D2000ADF810C000F07CFE00283FF4B3AE88E759
:106D3000676994F83C80002F62D02022002104A8CB
:106D40002CF0D3F89DF81D300C49144A0888ADF892
:106D5000146043F0020342F6252C04A9ADF8166036
:106D600006978DF821808DF81D30ADF810C000F029
:106D700057FE00283FF492AE63E700BF6C3E002050
:106D8000783E00205C3E0020543E0020443E00201F
:106D9000343E0020703E00204C3E0020643E002027
:106DA000E76994F83C807FB32022002104A82CF0EE
:106DB0009CF89DF81D301A491A4A0888ADF81460ED
:106DC00043F0020342F6272C04A9ADF8166006979B
:106DD0008DF821808DF81D30ADF810C000F020FE38
:106DE00000283FF45FAE05462CE7384611F00AFA5A
:106DF000A6E611F007FA05E7384611F003FA77E73F
:106E0000384611F0FFF998E7384611F0FBF9CBE767
:106E1000384611F0F7F91FE7384611F0F3F941E76A
:106E20006C3E00203C3E00206DDF704779DF7047EC
:106E30007DDF704764DF70472DE9F04F83B0048831
:106E40000C9EBDF83490B6F800A0002C39D09846BE
:106E5000002317468B4605461C4603E02A8801346A
:106E6000A24224DD6A6852F82400019000220DF14C
:106E7000030101A8FFF7DEFF20BB9DF80320BA4203
:106E8000ECD13288B91803B389452BDB42440DF1AC
:106E9000030101A80123FFF7CDFF98B931889DF8C0
:106EA00003200A4432802A880134A242DADC43B14A
:106EB0003388013BA3EB0A039BB2FF2B12D808F8DF
:106EC0000A30002003B0BDE8F08F0231013289455D
:106ED00092B207DB328008F802B03288013292B2F7
:106EE0003280D3E70C2003B0BDE8F08F2DE9F047E6
:106EF00000231788138090F82D3086B0144605467D
:106F00000E46002B40F0FB80AA78002A40F0FD805E
:106F1000EA78A2B1D91CB94200F2F3800221F154FF
:106F2000238801339BB201212380F15423880B4431
:106F30009BB22380F25423880B449BB223806A685F
:106F4000AAB1D91CB94200F2DC80022192F90020DA
:106F5000F154238801339BB20A212380F154238802
:106F600001339BB22380F2542388013323802B8981
:106F7000002B40F01B812B8A002B40F02F812B8BA4
:106F8000002B40F043812B6A002B44D02288911DB6
:106F9000B94200F2B6801988052940F203816FF4E6
:106FA000486801EB080080B24FF27D3C604540F23A
:106FB000F9805888052840F2F5806FF4486E8644C1
:106FC0001FFA8EFEE64540F2ED804FF6FF7C6145EC
:106FD00004D0604502D0814200F2E4800521B15422
:106FE0002288013292B212212280B15422880132C9
:106FF00092B222801988B1543244090A5170228811
:10700000023292B222805B88B35432441B0A53701E
:107010002388023323806B6A002B2FD09988B4F821
:1070200000C0881C0CF102020244BA4269D8FE2852
:1070300067D8033106F80C102288013292B2FF2182
:107040002280B1542288013292B222801988B15430
:107050003244090A51702088023080B220809A8818
:1070600062B199680393002900F09C8030442BF0B2
:1070700018FF039B9A8823881344238095F82C30AB
:10708000002B40F08A80287800283BD02B88012BE9
:1070900000F08880228802F1020CBC4531D801281A
:1070A00004D16B78023313449F422AD3BB1E9B1A30
:1070B00006A99BB221F8083D06EB0C00FFF7B8FECD
:1070C00000BB2978BDF81020022900F004816878FF
:1070D0009042C0F0FB809342C0F0F8800921FE2A64
:1070E0000FD82388501CF054238801339BB223808F
:1070F000F154238801331A442280002002E0082F33
:1071000023D80C2006B0BDE8F0870433BB42F8D882
:1071100004A8FFF78BFE0028F4D12388BDF81020C7
:107120000321F154238801339BB219212380F154A8
:10713000238801339BB2F1182380F254120A4A705B
:10714000238802339BB22380E2E604A8FFF76CFE9B
:107150000028D7D113880822CA54238801339BB250
:107160001B222380CA542088013080B2208006224E
:1071700008440DF111012BF094FE23889DF8102096
:1071800006339BB212F0FE0218BF01222380F25494
:10719000238801339BB22380B6E6D5F82880B8F166
:1071A000000F4CD1072006B0BDE8F08705F10808B4
:1071B0000222CDE90047404611463346FFF73CFE28
:1071C00000289FD1CDE900474046334610220621D2
:1071D000FFF732FE00283FF4CEAE93E705F110082A
:1071E000CDE900474046334602220321FFF724FE43
:1071F000002887D1CDE900474046334610220721B9
:10720000FFF71AFE00283FF4BAAE7BE705F1180835
:10721000CDE900474046334602221421FFF70CFE19
:1072200000287FF46FAFCDE9004740463346102277
:107230001521FFF701FE00283FF4A5AE62E7B8F87C
:1072400004200232FE2A3FF65CAF23884FF000098B
:107250004FF0160A0132F254238801339BB2238087
:1072600006F803A0238801339BB22380B8F80020DE
:10727000F2543344120A5A70238802339BB223809B
:10728000B8F80410F0180A4661B1D8F80830194669
:10729000002B87D02BF005FEB8F804202388134478
:1072A0009BB2238009F1010995F82C205FFA89F936
:1072B0004A4509EB49087FF6E6AEAA6A02EB880860
:1072C000B8F804200232FE2AC4D91AE7012906D0F0
:1072D0001A46082103E79342BFF400AFF8E7834260
:1072E000F6D302460821FAE6F8B130B44378934267
:1072F0001CD0B9B10024234601E0994212D9045DA3
:10730000013423449BB2C5181C466D789542F4D1D4
:10731000994207D9025D0233012A9BB202D0184478
:1073200030BC7047002030BC7047704700242346B3
:10733000EEE700BFF0B587B004460D4610461023B7
:1073400002AA0DF103018DF80330FFF773FD64B35A
:1073500058BB9DF80320042A5CD0102A28D0022AAA
:1073600024D140F20323ADF8043094F801C09DF815
:107370000400844553D0C5B1002301E09D421CD9CF
:10738000E15C01310B449BB2E11849788142F5D1AF
:107390009D4205D9E75C0233013F9EB2BFB236BBC6
:1073A0009DF80500604544D05DB9002007B0F0BDF0
:1073B00040F20763ADF80430D7E79DF8050060455B
:1073C00034D0002301E09D42EFD9E15C01310B4450
:1073D0009BB2E1181E4649788142F4D19D42E4D91E
:1073E000A75D0233013F9EB2BFB2002EDDD0002F59
:1073F000DBD0002505E09DF803201544ADB2BD4269
:10740000D3D2A819204402A92BF03CFD0028F2D1C8
:107410000120CBE740F20543ADF80430A5E7002D8D
:10742000BED02778013FBFB20226E0E700263346F0
:10743000D4E7002DF5D1B8E775DF704776DF7047E8
:107440007ADF70477BDF704730B51D4B1A8884B2F6
:10745000A24283B001D003B030BD1A4D187A297B07
:1074600088420FD32A7C00211972E2B96B69002B84
:10747000F1D00022ADF806408DF8042001A898470D
:1074800003B030BD104603F10A01FFF7D5FF28B164
:107490001128E0D0AB69002BF1D1DCE71A7A013278
:1074A0001A7203B030BD3B212046FFF7C7FF30F012
:1074B0000803DBD0AB69002BD8D09847D6E700BFD4
:1074C0009C3E0020803E0020F0B50288112A83B047
:1074D000034649D036D9122A08D0502A04D16C4D1F
:1074E000C188EA89914251D003B0F0BD694C8288CD
:1074F00021889142F8D1E1896589B1F5FA7F24BFED
:107500006FF4F9700E18588938BF002685424FD89D
:10751000A58985424CD39B89B34249D301F2F3112B
:10752000994245D35A4B5B694FF480712181002BFE
:10753000DAD00121ADF806208DF8041001A8984793
:1075400003B0F0BD102ACFD1C27B012ACCD1514C5F
:1075500021884FF6FF7291423CD04D4B9B69002B26
:10756000C2D004209847BFE74A4C828823889A42B9
:10757000BAD160680CF0A0FE18B1454B9B6903B10D
:1075800098474FF6FF73238003B0F0BD028A022AAA
:10759000AAD1404C86882788B742A5D1123000F086
:1075A00031FA002856D160680CF086FE70B99BE76E
:1075B000374D267A6068D5E90131002E08BF19469B
:1075C000002363720CF022FE00288DD0AB69002BE3
:1075D000B5D189E7304D8288228003CDC4F80E10E2
:1075E000E689C4F80A00B6F5FA7F28BF6FF4F9758A
:1075F0004FF00001588AB4F80AC0217228BF7119EF
:10760000234D8445EF8919D8B4F80CC0844515D3AF
:107610009B8A8B4212D306F2F3169E420ED30121AF
:107620006172002F7FF460AF6B69002B3FF45CAF99
:107630008DF80410ADF8062001A880E700236372DE
:10764000002F7FF451AF606869680CF0DFFD0028FF
:10765000BCD149E7637A63B9D5E90131267A60681C
:107660003A46002E08BF19460CF0D0FD0028ADD1D7
:107670003AE76B6900222272002B3FF435AF0122FA
:10768000ADF806608DF8042001A898472CE700BFEC
:10769000803E00209C3E0020B03E002000282FD0DD
:1076A000F8B5054606460FCD164F3C460FC4844636
:1076B00095E80700144B3B6084E80700BCF1000F1D
:1076C00018D06046FFF7BCFE98B932681068516860
:1076D00003C30E4B0E490F4A18464FF6FF7440F88D
:1076E000041F1C8000210CF07FFD002814BF032024
:1076F0000020F8BD1846FFF7A5FE0028E9D0F8BD28
:107700000E207047803E0020B03E00209C3E0020AE
:10771000B83E0020497402002DE9F0470388B0F814
:107720000490112B98B059D01A2B804647D0102BBB
:1077300002D018B0BDE8F087394A936818A8DB4337
:1077400040F8603D516806F071FF009B0193019B7A
:1077500063B300273C46214601A806F0F7FE28B196
:1077600018AB03EB4703013723F8284C0134142CE2
:10777000F1D10D970DAE0FCE02AC0FC40FCE0FC4DA
:1077800096E8070084E8070087B10DF10A0A254E44
:107790000AEB47073AF8025F234C20462946043497
:1077A00006F0CAFEA642F8D1BA45F3D1B9F1130FDB
:1077B0001BD9042010F026FD18B0BDE8F087047A2C
:1077C0001A482409012C494620D906F09BFE022CB8
:1077D000494617481ED006F095FEAAE749461548C7
:1077E00006F0AAFE18B0BDE8F0874946114806F039
:1077F00089FE49460C4806F085FE98F80F30012BAB
:1078000097D049460C4806F07DFE92E706F094FEBC
:107810000748494606F090FE18B0BDE8F08700BF63
:10782000D83E0020503F0020DC3E0020E83E0020F3
:10783000EC3E0020E03E0020E43E0020132801D969
:10784000002070470146014806F080BEDC3E002063
:10785000132801D90020704710B501460446074897
:1078600006F074FE08B9002010BD2146044806F059
:107870006DFE002814BF0220012010BDDC3E002058
:10788000E43E0020132801D90020704710B50146BE
:107890000446074806F05AFE08B9002010BD2146EC
:1078A000044806F053FE002814BF0220012010BD3A
:1078B000DC3E0020E03E0020132801D90020704764
:1078C00010B501460446064806F040FE08B90020FF
:1078D00010BD21460348BDE8104006F037BE00BF8A
:1078E000DC3E0020E83E0020132801D9002070472C
:1078F00010B501460446064806F028FE08B90020E7
:1079000010BD21460348BDE8104006F01FBE00BF71
:10791000DC3E0020EC3E002008B51821024806F0AD
:107920001FFEC0B208BD00BFD83E002070B50C4C91
:10793000054620460E4606F009FE08B1132D01D972
:10794000002070BD2946201D06F000FE0028F7D05B
:10795000B01D04EB80002946BDE8704006F0F6BD7E
:10796000D83E0020F8B50F4C0546204617460E4677
:1079700006F0ECFD08B1132D00D9F8BD2946201DF5
:1079800006F0E4FD0028F8D0B01D04EB8000294685
:107990001FB9BDE8F84006F0CFBDBDE8F84006F0DD
:1079A000B1BD00BFD83E0020F0B5144C054683B0F1
:1079B0000F4620462946164606F0C8FD18B9002590
:1079C000284603B0F0BD043504EB8504A368019399
:1079D000002FF4D0019B002BF1D000252C4621462E
:1079E00001A806F0B3FD314610B1A0B2B847013589
:1079F0000134142CF3D1284603B0F0BDD83E00204A
:107A0000AADF7047007800F00100704738B50446DF
:107A100008460D462BF041FE6560208038BD00BF52
:107A2000F0B58B7891B0002B0C460988ADF80C109E
:107A300008BF0123054616466846032200218DF83B
:107A40000E302BF052FA637C0022013B8DF80020AF
:107A5000042B09D8DFE813F00500D300D700DB00C2
:107A6000CF0011238DF80030A37C0022013B8DF85C
:107A70000120042B09D8DFE813F00500D200D6005E
:107A8000BA00CE0011238DF801309DF80230E77B5B
:107A9000227D207C217B67F3C303002A60F304135B
:107AA00014BF0222012261F3000362F3420309A81A
:107AB0001C2200218DF802302BF017FA637B13F0A3
:107AC000300F73D1627BA37B8DF824200021142218
:107AD00004A88DF825302BF008FAA368A288CDF809
:107AE00014D003A90491ADF81C201BB1E2880893BF
:107AF000ADF81820A369002B36D001AF0322002176
:107B000038462BF0F2F9A2691388ADF82C3053886F
:107B1000ADF82E3051680D97137B0A91013B00217F
:107B20008DF80410042B2DD8DFE803F0299D8D91EA
:107B3000990011238DF80530917A9DF8063061F394
:107B4000C3038DF80630D17A61F304138DF8063043
:107B5000117A927B002A61F3000314BF02220122F2
:107B600062F342038DF80630E36903B10C933346A8
:107B700004AA09A92846FFF743FF11B0F0BD11235D
:107B80008DF80430537B0021013B8DF80510042B48
:107B9000D2D801A151F823F0337B0200377C0200D8
:107BA0003F7C02002F7C0200577C0200032202A8C7
:107BB00000212BF09AF9E37C0022013B8DF809208B
:107BC000042B07D8DFE803F0035F5B575300112352
:107BD0008DF809309DF80A3002AA0E92012262F354
:107BE000420311228DF80A308DF808206AE712232B
:107BF0008DF8013049E722238DF8003034E7212346
:107C00008DF8003030E731238DF800302CE7122357
:107C10008DF8003028E722238DF8013035E7212345
:107C20008DF8013031E731238DF801302DE7122333
:107C30008DF8053080E721238DF805307CE731236E
:107C40008DF8053078E731238DF804309AE7122358
:107C50008DF8043096E722238DF805306CE7222357
:107C60008DF804308EE721238DF804308AE7222333
:107C70008DF80930AEE712238DF80930AAE73123D9
:107C80008DF80930A6E721238DF80930A2E700BF5F
:107C900090DF7047A5DF7047B5DF704770B5204BA8
:107CA000204CE41AE4080646240484B00D460A4633
:107CB00044F0040033461C490BF06AF800233046B8
:107CC0006A4602A9ADF80850ADF80A50ADF8043084
:107CD00003930093FFF7DCFF054610B9284604B074
:107CE00070BD0BF0DDFF44F0010403463246204630
:107CF0000E490BF04DF8BDF80020BDF8023002B976
:107D00001BB10B4920460BF043F8BDF80420002AB4
:107D1000E4D0204607490AF0BBFF284604B070BDF6
:107D2000C4FC0500FCFD0500A4470500D447050080
:107D30002048050060480500C0B170B40346FB222E
:107D400081614FF0F7160020094D0A4C1A71172176
:107D500041F6FB321E60C3F806509872D8729874D0
:107D6000D874DC6019829A8270BC70470E2070470C
:107D7000F7001700FB1BF70040B1A1F11703E02B40
:107D800002D8418000207047072070470E207047BE
:107D90002DE9F04F8488012C87B002D907B0BDE8E7
:107DA000F08F0388232B0D46064638D025D93A2B71
:107DB00000F09580552B4ED0242B00F0BD80E700BD
:107DC000EB199B7A002BE9D03D442046E988FFF768
:107DD00061FF0346002800F01D811128DED00BF062
:107DE0005FFFAB4AAB4BAC499B1ADB081B04024656
:107DF00043F001000AF04CFFD0E7102B00F0E080C8
:107E0000112BDCD101EBC404A44BC4F80630FB21D8
:107E100000231B2221736273A372E372BEE79C4BA3
:107E20009C4896F808809E49C01AC008E7000004E4
:107E300005EB070940F00400434622460AF0A8FF7C
:107E400099F80C10B088414528BF4146FFF726FF3E
:107E500099F80A30B6E78F4B8D4AB0F80680914901
:107E60009E1AF608360446F0040AE70005EB0709F7
:107E70005046434622460AF08BFF4246172AB9F87D
:107E80000630009438BF17229A4228BF1A460021B4
:107E9000504689F80A10A9F8082083490AF0FAFF29
:107EA000B9F806102046FFF7F7FE002840F0A98039
:107EB00099F80B30002BCBD1AB69002BC8D040F622
:107EC0007721B9F80820ADF81010ADF81240ADF8E0
:107ED000142004A92846984799F80A3072E701EB64
:107EE000C4077289FB88DFF8A8C16A486F499A42C3
:107EF00028BF1A46A0EB0C00172A4FEAD00038BF63
:107F00001722000423463A8140F004000AF040FFA3
:107F1000AB696BB1FA7A5AB140F677213A89ADF87C
:107F20001010ADF812402846ADF8142004A9984767
:107F30000023FB72BB7231E7564B554AB0F80890EC
:107F40008189B0F80AB0B0F80EA003919E1AF60825
:107F5000E700360405EB070846F004065FFA89F2ED
:107F60002346534988F80D2030460AF011FF5A463F
:107F7000304650490AF08CFE4A4630464E490AF0D7
:107F800087FE524630464D490AF082FE039A4C491C
:107F900030460AF07DFEAB697BB100204DF67A21B8
:107FA00098F80D20ADF81400ADF81010ADF812409F
:107FB0008DF8142004A92846984798F80A3001E75C
:107FC000E70001EB07080B7988F80C30C37B012B25
:107FD00013D0022B2ED0B8F80620B8F80830934200
:107FE0002CD398F80C1098F80D308B42E5D220462F
:107FF000FFF754FE98F80A30E4E60A88A8F806204D
:10800000EBE70BF04DFE2F49024646F001000AF067
:108010003FFE4DE71E4A1F48AB72801AC00801227E
:108020000004EA72234640F00400EA8826490AF078
:10803000AFFEB3E64A88A8F80620CEE7144B154EEB
:108040002249F61AF608360446F004094846234643
:108050000AF09EFEB8F806102046FFF71BFE18B97E
:10806000012388F80B30BCE7112808D00BF018FE6C
:108070000949024646F001000AF00AFEB1E7012371
:10808000484688F80A30224611490AF001FEA8E75E
:10809000C4FC0500FCFD05004C490500F700170075
:1080A000E04A0500BC490500F84905008049050083
:1080B000684A0500984A0500AC4A0500C04A050018
:1080C000D04A0500384A0500204B0500B848050095
:1080D000F8480500B0DF704766DF704760B159B1FE
:1080E0000378DE2B0AD00B684360DE224FF6FF7365
:1080F00002704380002070470E20704708207047B0
:1081000038B10378DE2B02D141800020704708206F
:1081100070470E20704700BF19B110B10B78DE2BED
:1081200000D0704730B505464B888088984285B0AE
:108130000C4606D02A88012A0DD0512A20D005B03D
:1081400030BD0B7A002B35D12B88112B48D0512B09
:108150004DD0012BF3D12B7A012BF0D162888242D2
:10816000EDD123720021FFF7B7FF00284ED0112870
:1081700008BF2372E3D063689847E0E76388A88864
:108180008342DCD1AA79022AD9D1A97B01F0FD0072
:1081900004282ED00529D2D100206946C1E9020069
:1081A000009048608DF800201846FFF793FF0028E4
:1081B000E1D1C4E70021FFF78FFF0346A8B11128E2
:1081C00012D0636898472B88112B05D0512BD5D03E
:1081D000012BB4D1A888BEE7AA8863889A42AED1A1
:1081E0004FF6FF736380AAE701232372EBE7034690
:1081F000C6E7694600204FF4C07548600090C1E9A9
:1082000002008DF80020ADF80450CDE7207296E70B
:108210008ADF70478BDF70478CDF7047FFF7FABF4C
:1082200038B3F8B50D4642620021082204462AF010
:108230005CFE05B32B7923722B7BA3742B688BB365
:10824000186859689A6804F1140607C69B89338038
:10825000AB68002B36D01A685B68C4F80E30C4F8DF
:108260000A2004F128021F23A264A4F84C30002045
:10827000F8BD0E207047237D658343F0040365F34A
:10828000C403A027502601204FF4C871237506228D
:108290001823E5812572E782268360752182628139
:1082A000A381DEE7227D638342F0040263F3C4020C
:1082B000A020012350212275E08221836375AB68E1
:1082C000002BC8D1034BC4F80A304FF0C873C4F870
:1082D0000E30C6E70600180010B586B058B3044645
:1082E0001422002101A82AF000FEFFF793FF237D4E
:1082F0001B0717D404F1480104F11400FFF788FFAD
:10830000134B02461348C01AC00832F008044FEA63
:10831000004014D140F004000F490AF00BFB204646
:1083200006B010BD636A002BE4D0012201A88DF8CD
:1083300004209847DEE70E24204606B010BD40F02A
:108340000100064914460AF0A3FC204606B010BD01
:10835000C4FC050034FD0500D84B0500B44B0500F6
:108360002DE9F04F0388103B8DB005460C4600F117
:108370000806102B46D8DFE813F0CC004500450076
:1083800045004500450045004500450045004500C5
:10839000AC004500600045004500480094F804B07A
:1083A000B5F824A0BBF1000F00F02981002A40F0AD
:1083B000D6800BF1FF3B5FFA8BF304F1040B0BEB60
:1083C000830B27463A465146286AFEF7B3FF043727
:1083D000002800F0BF809DF81030227A039643F009
:1083E000040300218DF810308DF80810A67C002AB7
:1083F00040F0D380636A0BB102A898474946002039
:10840000FFF706FF0DB0BDE8F08F142207A800218A
:108410002AF06BFD626A002AF4D030687168357A00
:1084200008AB03C3143405210B941D7007A88DF805
:108430001C1090470DB0BDE8F08F02A81422002157
:108440002AF053FD237D04F1140813F00803CDF83E
:10845000188004F1480971D0022302A88DF8083071
:108460000396636A984749460020FFF7D1FE237AB6
:10847000002BC7D0A67CFFF7CDFE1422002107A851
:108480002AF033FD334604F10A02414605F10A00A1
:10849000FFF7C2FE5B4D5C4B5C49ED1AED082D0405
:1084A00045F00405064628460AF044FA0623284605
:1084B0003246574908968DF81C300AF0E9FB002E29
:1084C000A0D0636A002B9DD007A898470DB0BDE8E7
:1084D000F08F07A8142200212AF007FD2B7A012B28
:1084E00090D1494B47484B49C01AC008000440F09E
:1084F00004000AF01FFA636A002B83D01434297A2F
:108500000B9404228DF8201007A88DF81C209847A2
:1085100078E7142207A800212AF0E7FC636AAA88FA
:10852000ADF824201434072208968DF81C200B94F3
:10853000002B3FF467AF07A89847C7E76179A27996
:1085400000297FF42BAF0396FAB90322636A8DF8F2
:10855000082050E7BB457FF435AF0396F5E71F468B
:1085600023461A465146286A0193FEF7E3FE019B13
:108570007A1C043300283ED15F45EED19DF81030BF
:10858000039643F004038DF81030237A00218DF810
:108590000810002B3FF42EAFA67CFFF73BFE142201
:1085A00007A82AF0A2FC334604F10A02414605F16D
:1085B0000A00FFF731FE134D134B1449ED1AED0875
:1085C0002D0445F00405064628460AF0B3F90623B3
:1085D000284632460E498DF81C3008960AF058FBA2
:1085E000636A002E3FF407AF002B3FF407AF07A8E4
:1085F0009847636AFFE6D7B2BB45B2D1BEE7002A0F
:10860000BCD1AAE734FD0500C4FC0500784B050089
:10861000844B05009C4B050010B5C24B9A7C82B17F
:108620005A7C002A00F08481DC68A042C0F0A68158
:108630001A7C00215974002A00F099814FF4A0247B
:1086400001E04FF0FF3493F82620AAB193F82520DB
:10865000002A00F050811A6A9042C0F0928193F88B
:108660002420002183F82510002A00F0D881B4F5D9
:10867000A02F28BF4FF4A02493F83A20AAB193F872
:108680003920002A00F021815A6B9042C0F082818B
:1086900093F83820002183F83910002A00F0C281B5
:1086A000B4F5A02F28BF4FF4A02493F84E20AAB110
:1086B00093F84D20002A00F0F1809A6C9042C0F0AF
:1086C0006F8193F84C20002183F84D10002A00F0B0
:1086D000AC81B4F5A02F28BF4FF4A02493F86220FA
:1086E000AAB193F86120002A00F0C180DA6D9042AF
:1086F000C0F07D8193F86020002183F86110002A8A
:1087000000F08781B4F5A02F28BF4FF4A02493F880
:108710007620AAB193F87520002A00F091801A6F94
:108720009042C0F06D8193F87420002183F8751099
:10873000002A00F07181B4F5A02F28BF4FF4A024C7
:1087400093F88A20002A56D093F88920002A39D03D
:10875000D3F884209042C0F0368193F8882000211D
:1087600083F88910002A00F0638193F89E20B4F505
:10877000A02F28BF4FF4A024002A00F05C8193F8BA
:108780009D20002A42D0D3F898209042C0F0148156
:1087900093F89C20002183F89D10002A00F0EB80C4
:1087A0000BF0C4FD604BB4F5A02F28BF4FF4A024FC
:1087B0001860224621465D480BF028FD002840F055
:1087C000C78010BD93F88810002900F00881D3F805
:1087D00080200244B2F5A02FC3F8802006D30139CF
:1087E000A2F5A02283F88810C3F88020C2F5A02249
:1087F000944228BF144693F89E20002ABFD10BF064
:1088000095FD494B1860631CD3D110BD93F89C2093
:10881000002A00F0B080D3F894100844B0F5A02FDF
:10882000C3F8940006D3013AA0F5A02083F89C2059
:10883000C3F89400C0F5A020844228BF0446DEE7B8
:1088400093F87410002900F0E180DA6E0244B2F56A
:10885000A02FDA6605D30139A2F5A02283F874109F
:10886000DA66C2F5A022944228BF144668E793F85E
:108870006010002900F0C1809A6D0244B2F5A02F6B
:108880009A6505D30139A2F5A02283F860109A6594
:10889000C2F5A022944228BF144638E793F84C1042
:1088A000002900F083805A6C0244B2F5A02F5A646C
:1088B00005D30139A2F5A02283F84C105A64C2F501
:1088C000A022944228BF144608E793F838100029E4
:1088D0006FD01A6B0244B2F5A02F1A6305D3013989
:1088E000A2F5A02283F838101A63C2F5A0229442A0
:1088F00028BF1446D9E693F82410002947D0DA6936
:108900000244B2F5A02FDA6105D30139A2F5A02205
:1089100083F82410DA61C2F5A022944228BF1446DD
:10892000AAE600BF503F002010400020F03F00208A
:108930001A7CE2B19C680444B4F5A02F9C6004D377
:10894000013AA4F5A0241A749C60C4F5A0247AE628
:108950000BF0A6F93A4A3B4B3B499B1ADB081B0438
:108960000246BDE8104043F002000AF091B99A7443
:108970004FF0FF3467E683F89E2040E7241ADC605E
:1089800061E6121A94421A6228BF144674E683F80C
:10899000261071E6121A94425A6328BF144684E6E0
:1089A000121A94429A6428BF144697E683F84E1030
:1089B00094E683F83A1078E6121A9442C3F89820A5
:1089C00028BF14461BE7121A9442C3F8842028BF1C
:1089D000144693F89E20002A3FF411AFCFE693F897
:1089E0009E2083F88A10002A3FF409AFC7E6121AC6
:1089F0009442DA6528BF144689E683F8621086E659
:108A0000121A94421A6728BF144699E683F8761022
:108A100096E683F862207AE683F8762090E683F87B
:108A2000262029E683F83A203FE683F84E2055E6D3
:108A300083F88A20DFE60BF079FC044B1860B8E677
:108A4000C4FC050034FE0500884C050010400020E1
:108A5000024A034800210BF0C7BB00BF1986020081
:108A6000A84C0500F0B583B06946054601F0A2FDAB
:108A700078B10BF015F9C34CC34BC449E41AE408B0
:108A8000240402462B4644F002000AF081F903B0A8
:108A9000F0BDBF480BF010FC074670B10BF000F9B9
:108AA000B84BB94ABB499B1ADB081B04024643F08A
:108AB00002000AF0EDF803B0F0BDB74EB74C0BF072
:108AC00035FC31680BF038FCA37C002B40F017819B
:108AD0004FF0FF3594F82630D3B194F82530002BB1
:108AE00040F0E58294F82420002A00F08D83E369A9
:108AF0000344B3F5A02FE36105D3013AA3F5A02306
:108B000084F82420E361C3F5A0239D4228BF1D46BD
:108B100094F83A30D3B194F83930002B40F0E58224
:108B200094F83820002A00F06C83236B0344B3F5DB
:108B3000A02F236305D3013AA3F5A02384F838209E
:108B40002363C3F5A0239D4228BF1D4694F84E30F1
:108B5000D3B194F84D30002B40F0EE8294F84C20C5
:108B6000002A00F07683636C0344B3F5A02F63649E
:108B700005D3013AA3F5A02384F84C206364C3F520
:108B8000A0239D4228BF1D4694F86230D3B194F8CB
:108B90006130002B40F0E18294F86020002A00F060
:108BA0005583A36D0344B3F5A02FA36505D3013A04
:108BB000A3F5A02384F86020A365C3F5A0239D42FC
:108BC00028BF1D4694F87630D3B194F87530002B49
:108BD00040F0D48294F87420002A00F03483E36ECD
:108BE0000344B3F5A02FE36605D3013AA3F5A02310
:108BF00084F87420E366C3F5A0239D4228BF1D4678
:108C000094F88A30EBB194F88930002B40F0C78299
:108C100094F88820002A00F01383D4F880300344AD
:108C2000B3F5A02FC4F8803006D3013AA3F5A023F2
:108C300084F88820C4F88030C3F5A0239D4228BF63
:108C40001D4694F89E30B3B194F89D30002B00F08F
:108C5000B782D4F898309842C0F0FE8294F89C30E5
:108C6000002284F89D20002B00F0C882B5F5A02FCB
:108C700028BF4FF4A0250BF059FBA77C3060002FD4
:108C800053D10127002694F82630002B40F0AF8105
:108C9000012694F83A30002B40F07981022694F8AE
:108CA0004E30002B40F04381032694F86230002BB5
:108CB00040F00D81042694F87630002B40F0D780E8
:108CC000052694F88A30002B6ED1062694F89E3043
:108CD000002B40F0BC81002F40F0D2816B1C3FF490
:108CE000D6AE2A4629462A480BF090FA00283FF4CF
:108CF000CEAE0AF0D5FF234B234A2949D3E6637C45
:108D0000002B40F0E681237C002B00F07382A568E5
:108D10000544B5F5A02FA56004D3013BA5F5A0251A
:108D20002374A560C5F5A025D4E606221D490DF1E2
:108D300001002AF0A7F8002840F05A82267C4FF460
:108D40007A6202FA06F3B3F57A4F03DA0136F6B225
:108D500002FA06F34FF400424FF4FA7000210027A4
:108D6000C2FB0301267400234FF47A72A7602BF034
:108D700081FB01238542E06028BF05466374082615
:108D800081E700BF34FE0500C4FC0500F04B050080
:108D9000F03F0020404C050010400020503F0020D4
:108DA000884C0500513F00200DF101000622D849F2
:108DB0002AF068F8002889D194F888304FF47A6155
:108DC00001FA03F2B2F57A4F03DA0133DBB201FAAA
:108DD00003F24FF400464FF4FA700021C6FB020183
:108DE000002684F888304FF47A720023C4F880603B
:108DF0002BF040FB94F89E30C4F884000122854299
:108E000028BF054684F88920002B3FF467AF0DF199
:108E100001000622BF492AF035F800287FF45EAF32
:108E200094F89C304FF47A6101FA03F2B2F57A4F6C
:108E300003DA0133DBB201FA03F24FF400464FF4D8
:108E4000FA700021C6FB0201002684F89C304FF422
:108E50007A720023C4F894602BF00CFB0123854246
:108E6000C4F8980028BF054684F89D3036E70622EE
:108E7000A9490DF101002AF005F800287FF421AF7F
:108E800094F874C04FF47A6202FA0CF3B3F57A4F97
:108E900005DA0CF1010C5FFA8CFC02FA0CF34FF4CA
:108EA00000424FF4FA7000210027C2FB030184F84E
:108EB00074C000234FF47A72E7662BF0DBFA0123CB
:108EC0008542206728BF054684F87530F9E60622FA
:108ED00092490DF1010029F0D5FF00287FF4EBAE97
:108EE00094F860C04FF47A6202FA0CF3B3F57A4F4B
:108EF00005DA0CF1010C5FFA8CFC02FA0CF34FF46A
:108F000000424FF4FA7000210027C2FB030184F8ED
:108F100060C000234FF47A72A7652BF0ABFA0123EF
:108F20008542E06528BF054684F86130C3E6062225
:108F30007B490DF1010029F0A5FF00287FF4B5AEB3
:108F400094F84CC04FF47A6202FA0CF3B3F57A4FFE
:108F500005DA0CF1010C5FFA8CFC02FA0CF34FF409
:108F600000424FF4FA7000210027C2FB030184F88D
:108F70004CC000234FF47A7267642BF07BFA012314
:108F80008542A06428BF054684F84D308DE6062250
:108F900064490DF1010029F075FF00287FF47FAED0
:108FA00094F838C04FF47A6202FA0CF3B3F57A4FB2
:108FB00005DA0CF1010C5FFA8CFC02FA0CF34FF4A9
:108FC00000424FF4FA7000210027C2FB030184F82D
:108FD00038C000234FF47A7227632BF04BFA012339
:108FE0008542606328BF054684F8393057E606227B
:108FF0004D490DF1010029F045FF00287FF449AEED
:1090000094F824C04FF47A6202FA0CF3B3F57A4F65
:1090100005DA0CF1010C5FFA8CFC02FA0CF34FF448
:1090200000424FF4FA7000210027C2FB030184F8CC
:1090300024C000234FF47A72E7612BF01BFA01235E
:109040008542206228BF054684F8253021E60622A5
:1090500030490DF1010029F015FF00283FF4E0AE82
:10906000002F3FF43BAE082E0BD1304B3048314936
:10907000C01AC008000440F0020009F05BFC2DE6B5
:10908000072606EB860604EB86046946072220467F
:1090900029F007FF4FF40031002201238D4228BF41
:1090A0000D46E1602274A2606374A37419E6236A1A
:1090B0009842C0F0D88094F82430002284F825200B
:1090C000002B00F0DF80B5F5A02F28BF4FF4A025BE
:1090D0001EE5E568A842C0F0D280237C6774002BAF
:1090E00000F088804FF4A025F4E4636B9842C0F050
:1090F000C08094F83830002284F83920002B00F02A
:10910000C480B5F5A02F28BF4FF4A0251EE500BFF1
:10911000C93F0020DD3F0020B53F0020A13F0020D7
:109120008D3F0020793F0020653F0020C4FC0500F2
:1091300034FE0500604C0500A36C98427AD394F885
:109140004C30002284F84D20002B00F0AA80B5F5A9
:10915000A02F28BF4FF4A02516E5E36D984263D3F6
:1091600094F86030002284F86120002B00F0968093
:10917000B5F5A02F28BF4FF4A02523E5236F984213
:109180004CD394F87430002284F87520002B00F042
:109190008280B5F5A02F28BF4FF4A02530E5D4F884
:1091A0008430984233D394F88830002284F88920A0
:1091B000002B6DD0B5F5A02F28BF4FF4A02540E5BA
:1091C00094F89C30D3B1D4F894201044B0F5A02F7B
:1091D000C4F8940006D3013BA0F5A02084F89C308D
:1091E000C4F89400C0F5A020854228BF054642E59A
:1091F000082648E5A3744FF0FF356BE484F89E30F1
:1092000039E584F83A20A1E484F8262080E41B1A8A
:109210009D42C4F8843028BF1D4612E51B1A9D42AA
:10922000236728BF1D46EBE41B1A9D42E36528BF58
:109230001D46C7E41B1A9D42A36428BF1D46A3E434
:1092400084F88A20FDE484F87620D9E484F862204A
:10925000B8E484F84E2097E41B1A9D42C4F8983075
:1092600028BF1D4607E51B1A9D42236228BF1D46E5
:109270004EE41B1A9D42636328BF1D4666E42D1A07
:10928000E56027E484F8263042E484F83A305DE46F
:1092900084F88A30D5E484F87630B1E484F862301A
:1092A00090E484F84E306FE430B583B069460546EB
:1092B00001F080F9002840F09D80574CA37CEBB969
:1092C00094F826304BBB94F83A30002B35D194F803
:1092D0004E30002B41D194F86230002B4DD194F8E0
:1092E0007630002B59D194F88A30002B65D194F850
:1092F0009E30002B71D1002003B030BD0622611CCE
:109300000DF1010029F0BEFD0028D9D1607C0028B4
:10931000F2D194F82630002BD5D006223F490DF12A
:10932000010029F0AFFD0028CDD194F825000028D8
:10933000E2D194F83A30002BC9D0062238490DF119
:10934000010029F09FFD0028C1D194F839000028C0
:10935000D2D194F84E30002BBDD0062231490DF108
:10936000010029F08FFD0028B5D194F84D000028A8
:10937000C2D194F86230002BB1D006222A490DF1F7
:10938000010029F07FFD0028A9D194F86100002890
:10939000B2D194F87630002BA5D0062223490DF1E6
:1093A000010029F06FFD00289DD194F87500002878
:1093B000A2D194F88A30002B99D006221C490DF1D5
:1093C000010029F05FFD002891D194F88900002860
:1093D00092D194F89E30002B8DD0062215490DF1C4
:1093E000010029F04FFD002885D194F89D00002848
:1093F00081D081E70AF054FC0F4C104B1049E41A5D
:10940000E408240402462B4644F0020009F0C0FCA4
:10941000012003B030BD00BF503F0020653F002059
:10942000793F00208D3F0020A13F0020B53F002064
:10943000C93F0020DD3F002034FE0500C4FC0500CC
:10944000F04B0500A0DF7047A1DF7047ADDF70472C
:10945000B3DF704730B583B004460422002168466C
:1094600029F043FD0C4B02AA1B6842F8043D42F66A
:10947000A625012369462046ADF800508DF802303C
:10948000FFF7E0FF28B905491A4620460978FEF79C
:1094900069FA03B030BD00BFC04C05001840002081
:1094A00070B5012186B005463A4805F09DF8BFF336
:1094B0005F8F08B106B070BD0446284600F0BAFDC3
:1094C000112806465FD012D986283CD043F2020309
:1094D000984214D1304B224628461978FEF742FABA
:1094E000BFF35F8F2B4B00221A6006B070BD30B9FE
:1094F000294B024619782846FEF734FADAE7304657
:109500000AF0CEFB254C264B2649E41AE408240435
:1095100002462B4644F0010009F03AFC00240723E0
:109520002846CDE900440296ADF80250CDE9034447
:1095300005948DF8003001F027F8ADF80400684676
:1095400003F00AFAC6E7164B144817490094C01AEC
:10955000C008000406232A4640F002008DF80030BF
:10956000ADF80250CDE90144CDE90344059409F07A
:109570008FFBBDF8020001F007F8ADF80400684663
:1095800003F0EAF9A6E7044B284619780122FEF712
:10959000E9F9A5E7144000201C4000203CFE05002E
:1095A000C4FC0500044D0500CC4C050070B54FF619
:1095B000FF728CB000249042CDE90044CDE9024412
:1095C000CDE90444ADF8020001D10CB070BD0546F0
:1095D00000F09AFD0B28064644D00FD911280BD075
:1095E00043F20203984218D122462B4B28461978A1
:1095F000FEF7B8F90CB070BD0122F6E768B90E238A
:10960000BDF802008DF8003000F0BEFFADF8040098
:10961000684603F0A1F93246E7E730460AF040FB1E
:109620001E4C1F4B1F49E41AE408240402462B4633
:1096300044F0010009F0ACFB002407232846CDE9E3
:10964000064408968DF81830ADF81A50CDE9094453
:109650000B9400F099FFADF81C0006A803F07CF90C
:109660002246C2E70E4B0D480F49C01AC00800043D
:109670000F232A4640F002008DF8003009F008FB65
:10968000BDF8020000F080FFADF80400684603F06A
:1096900063F92246A9E700BF1B4000203CFE0500FD
:1096A000C4FC0500E84E0500684E05002DE9F04FAA
:1096B0005B4E89B031780446FEF738F910B109B035
:1096C000BDE8F08F0546204600F08AFD08280746D1
:1096D00051D017D800287BD006281DD1204600F095
:1096E00053FF00F0ABFD00274E4B3A461978204659
:1096F000FEF738F92A4631782046FEF733F909B0EB
:10970000BDE8F08F43F2020398422DD043F20143AB
:1097100098422BD0112827D038460AF0C1FA424B84
:10972000424A4349A3EB020C4FEADC0C4FEA0C4CD3
:10973000024623464CF0010009F02AFB00230722D1
:109740002046CDE902330497CDE9053307938DF820
:109750000820ADF80A4000F017FFADF80C0002A891
:1097600003F0FAF80127BFE70127BDE72046FFF71E
:109770001DFF0127B8E701A8FFF76AFEBDF8043016
:10978000012BABD92F4601230DF106094FF002083A
:1097900042F6021B42F6052A07E05A452ED0013355
:1097A000BDF804209BB29A4298D902AA19462046D5
:1097B000CDE90289FFF74AFE00288FD1BDF80620C7
:1097C000002FEAD1A2EB0A07B7FA87F77F09E6E78D
:1097D00010232046CDE90255CDE90455CDE90655C3
:1097E0008DF80830ADF80A4000F0CEFE0125ADF846
:1097F0000C0002A803F0B0F82F4675E7013399B2C8
:1098000002AA0DF1020320460393FFF71FFE002872
:109810007FF464AFBDF80230002B3FF45FAF63E725
:109820001E4000201D4000203CFE0500C4FC050039
:109830003C4F050070B54FF6FF728CB0002490428B
:10984000CDE90044CDE90244CDE90444ADF802007D
:1098500001D10CB070BD054600F056FC0B28064641
:1098600044D00FD911280BD043F20203984218D1EB
:1098700022462B4B28461978FEF774F80CB070BDC1
:109880000122F6E768B90E23BDF802008DF800301A
:1098900000F07AFEADF80400684603F05DF8324649
:1098A000E7E730460AF0FCF91E4C1F4B1F49E41A4B
:1098B000E408240402462B4644F0010009F068FA4B
:1098C000002407232846CDE9064408968DF8183071
:1098D000ADF81A50CDE909440B9400F055FEADF8EF
:1098E0001C0006A803F038F82246C2E70E4B0D48CC
:1098F0000F49C01AC00800040F232A4640F0020096
:109900008DF8003009F0C4F9BDF8020000F03CFE0B
:10991000ADF80400684603F01FF82246A9E700BF2F
:109920001B4000203CFE0500C4FC0500E84E05007D
:10993000684E05002DE9F04104788CB014B10CB0EC
:10994000BDE8F081468800944FF6FF739E420546BD
:10995000ADF80260CDE90144CDE90344059426D178
:1099600006AF304600F026FC28B1494B3046197846
:109970000122FDF7F7FF6C88204600F005FE3A460D
:109980000023092101F0A4FA052826D0414B4249C1
:1099900018780022FEF708F802460028CFD13F4B86
:1099A0003F491878FEF700F80CB0BDE8F08130466A
:1099B00000F0AAFB0B28804650D015D911284AD0B8
:1099C00043F2020398421FD1224606AF354B304680
:1099D0001978FDF7C7FF6E88C3E7304B204619782A
:1099E0000122FDF7BFFFD1E770B90E23BDF80200D9
:1099F0008DF8003000F0C8FDADF80400684602F0B4
:109A0000ABFF06AF4246E1E740460AF049F9264C73
:109A1000264B2749E41AE4082404024606AF44F022
:109A20000100334609F0B4F90024072330460694B8
:109A3000CDF820808DF818307C60ADF81A60C7E949
:109A400003447C6100F0A0FDADF81C00384602F034
:109A500083FF2246BAE7012206AFB7E7134B12484D
:109A60001449C01AC00800040F23324640F0020017
:109A70008DF8003009F00CF9BDF8020000F084FD0B
:109A8000ADF80400684602F067FF06AF22469DE786
:109A90001D4000201C400020A1940200194000201D
:109AA000559402001B4000203CFE0500C4FC05004C
:109AB000E84E0500684E0500F0B50378082B83B02A
:109AC0000ED0304C207830490022FDF76DFF024661
:109AD00020B92E4B2E491878FDF766FF03B0F0BD74
:109AE000457A0446002DECD1067A072E22D0082EA6
:109AF0003ED0012EE5D16A463146808801F0A4FDB2
:109B000005460028DDD1019B1B78002BD9D0A08809
:109B100000F008FE4FF6FF739842D2D01D4F194C4B
:109B200039783246FDF71EFF2A4638781A49FDF784
:109B30003BFFC7E78088134C00F0F4FD4FF6FF733E
:109B400098420646BED001222178FDF70BFF304631
:109B500000F01AFD2B466A46092101F0B9F90528E3
:109B6000B0D10A4B304619780122FDF7FBFEA9E778
:109B70000A4B1A68012AA4D1BFF35F8F014C1D6004
:109B8000A0E700BF1C400020A19402001940002063
:109B9000559402001D400020AD96020014400020A4
:109BA0002DE9F843FDF7B8FE234C244D2070FDF756
:109BB000B3FE2870FDF7B0FE214E224F3070FDF746
:109BC000ABFE3870FDF7A8FEDFF89080DFF89090CC
:109BD00088F80000FDF7A0FE89F80000FDF79CFE64
:109BE0002378194A182B107019D02B78182B16D0FF
:109BF0003378182B13D03B78182B10D098F80030FE
:109C0000182B0CD099F80030182B08D0182806D043
:109C10000E4B00201860BFF35F8FBDE8F8830C4B3C
:109C20000C480D49C01AC008000440F0010008F0BB
:109C300081FE0320BDE8F8831C4000201B4000206B
:109C40001D4000201E4000201A400020144000202B
:109C5000C4FC05003CFE0500F84D0500194000203D
:109C60001840002070B503888588353B86B00446CF
:109C70001F2B28D8DFE813F05E00B900270027006B
:109C8000270027002700270027002700270027009C
:109C9000270027002700270027002700270027008C
:109CA0002700270027002700270027002700200083
:109CB0002700EA0027003500037B012B03D1827ABD
:109CC000012A00F0D3808F4C8F4B904918780022E6
:109CD000FDF76AFE20788E490022FDF765FE06B08A
:109CE00070BD002611232846CDE90066CDE9026645
:109CF0008DF80030ADF80250CDE9046600F044FC68
:109D0000ADF8040000F09AFA824B7E4C1978324686
:109D10002846FDF727FE324628462178FDF722FE29
:109D2000BDF8020000F030FCADF80400684602F017
:109D300013FEC9E7784E28463178FDF7F7FD002875
:109D4000C1D0002231782846FDF70CFEE288B2F53A
:109D5000857F1ED0002A40F0A4806289012A09D0A4
:109D60006E486F4B6F49C01AC008000440F00200F3
:109D700008F08EFFA389012B00F0B480684A674881
:109D80006949801AC00800041A4640F0020008F031
:109D90007FFF664B002401201978ADF800000923ED
:109DA00028462246CDF80240ADF806408DF8023034
:109DB000FDF7D8FD5E4B2846019300F0E5FB00223D
:109DC000694601F001F900283FF47DAF09F068FF12
:109DD000534A524B57494B4C9B1ADB081B04024613
:109DE00043F0020008F054FF6EE7534E28463178E6
:109DF000FDF79CFD00283FF466AF0022317828462D
:109E0000FDF7B0FDE28832BBE689012E54D043480D
:109E1000434B4549C01AC0080004324640F00200D6
:109E200008F036FF41490023CDF802301A46ADF85C
:109E300006302846092309788DF802300124ADF850
:109E40000040FDF78FFD3A4B2846B5E72846FFF75F
:109E5000ADFB2C4C38E7324B30483849C01AC008AB
:109E6000000440F0020008F013FFDBE7018942F62E
:109E7000021399427FF427AF314C28462178FDF731
:109E800071FD002220782F49FDF78EFD0246002843
:109E90007FF419AF254B2C4918781A4CFDF784FD37
:109EA00012E71F4B1D482549C01AC008000440F0A6
:109EB000020008F0EDFE6CE71C4BCDF8022019788B
:109EC000247CADF80620092328468DF80230ADF831
:109ED0000060FDF747FD1D4B154A2846002C08BFC2
:109EE000134669E7E18900222846FFF7ADFA00280A
:109EF0007FF44FAF104A034C117828461A46FDF7FD
:109F000031FDE1E61D4000201B4000203598020095
:109F1000AD9602001E400020184000203CFE0500C7
:109F2000C4FC0500804D0500BC4D05001940002013
:109F3000C44C05007C4F05001A400020444D05002C
:109F40001C400020A194020055940200C84C05005A
:109F5000AFDF7047B1DF7047B2DF7047B3DF7047E4
:109F6000F0B5254B254C93E80300238889B04FF6C4
:109F7000FF756E46AB4286E8030007D137E02088C4
:109F800001F096F8A8420346208030D018460022FF
:109F9000314601F019F807460028F0D00023228846
:109FA0001128CDE90233CDE90433CDE90633ADF80C
:109FB0000C201CD086281CD009F072FE104D114ACE
:109FC00023881149541BE4082404024644F001008C
:109FD00008F0DEFEBDF80C00049707238DF808306A
:109FE00000F0A0FBADF80A0002A802F0C9FC09B01D
:109FF000F0BD10460623F1E7F04F05002040002099
:10A00000C4FC050044FE05004C510500044B1A88B1
:10A010004FF6FF739A4201D0FFF7A2BF704700BF0F
:10A0200020400020024B4FF6FF721A80002070473C
:10A03000204000202DE9F04782B0804600F0A4FACD
:10A040004FF6FF73984253D02C4F2D4BDFF8B4A03E
:10A05000FF1AFF083F04064647F0010701224FF0B0
:10A0600003096B4608213046541C01F0F1FAA4B2F2
:10A070000546032358BB019A4046911D42F8049BB4
:10A08000FFF76AFF0821034648B30C2B304614D172
:10A0900001F05EFC08B92246E3E7012509F000FE65
:10A0A000324603465146384608F072FE002DF2D182
:10A0B0000325284602B0BDE8F0870821052B18BF0C
:10A0C0001D4601F045FC0028F3D00025E6E70728EF
:10A0D00014BF05460C25284602B0BDE8F08732467D
:10A0E000304601F0D1FC0546284602B0BDE8F087B5
:10A0F00043F20205284602B0BDE8F08744FE0500A1
:10A10000C4FC0500785005002DE9F04383B080467B
:10A1100000F03AFA4FF6FF73984229D100273E46E5
:10A1200003254FF001092B463A4631464046FFF7DA
:10A1300011FF042804460BD008280BD00B280BD0A5
:10A14000B9F1000F08BF0B24204603B0BDE8F0832F
:10A150001124F5E70024F3E715F0020506D196B1C6
:10A160002F462E4603254FF00009DCE70125FAE7CC
:10A170006A46082101F068FA0028CFD1019EB7880D
:10A1800035680636CDE717B137460325EBE7064BB2
:10A1900006480749C01AC0080004424640F00100C2
:10A1A00008F076FDD0E700BFC4FC050044FE0500C2
:10A1B0000050050000B585B00DF10703039300F0D2
:10A1C000E3F902AA012101F03FFA20B9039B1878B4
:10A1D00005B05DF804FB002005B05DF804FB00BF8E
:10A1E00038B5124B04461846FFF7B8FE78B91988FF
:10A1F00043F203054FF6FF722046FFF7A9FEA8427F
:10A2000000D038BD1988013189B21980F2E709F010
:10A2100047FD074A074B08499B1ADB081B04024607
:10A2200043F0010008F034FD032038BD2240002037
:10A23000C4FC050044FE0500F850050010B5074BAE
:10A24000044693E8030082B06B4683E803000022D3
:10A250001946204600F0B8FE02B010BDF84F0500C8
:10A2600046DF70470388102B00D0704770B5041D7F
:10A270000FCC9EB007AD0FC50FCC0FC594E80700FB
:10A280009DF8203003F0FE03062B85E8070014D16B
:10A29000BDF81C306B49089803EB83035B004FF655
:10A2A000FF74CC52CA18BDF824409DF826101172D4
:10A2B000C2F80200D4801EB070BD00F04FFE9DF8C1
:10A2C00020305B08012B13D9022BE1D105AD0DF134
:10A2D000060405E09DF8203003F0FE03042B4CD06B
:10A2E0002A462146072000F041FE0028F2D1CFE7A0
:10A2F00005AD0DF106042A462146072000F036FE82
:10A300000028C5D0069911F1110FF4D09DF8203026
:10A310004A7C534013F0FE0FEDD1123106220DF1AD
:10A32000210028F0AFFD0028E5D1BDF81C20454DE7
:10A33000BDF80610089802EB82035B00EC18E952A6
:10A34000A31CC4F80200BDF8240098804FF6FF70EB
:10A350009DF826409C718142ADD01EAC002304F8CC
:10A36000303D2046ADF84A20ADF84C1002F01CFB01
:10A370002046FFF7DFFA1EB070BD069E03220DF1E6
:10A38000210102A828F08DFD032209A904A828F0C4
:10A3900088FD337C8DF84830F37B8DF84930B37BF2
:10A3A0008DF84A30737B8DF84B30337B8DF84C3011
:10A3B000F37A8DF84D30B37A8DF84E30737A8DF88C
:10A3C0004F30337A8DF85030F3798DF85130B379BE
:10A3D0008DF8523073798DF8533033798DF85430CD
:10A3E000F3788DF85530B3788DF8563073788DF852
:10A3F00057300D22002116A828F077FD9DF8101087
:10A400009DF811209DF812308DF8671012A88DF874
:10A4100066208DF86530FFF723FF9DF877209DF8C3
:10A4200076609DF875308DF80C2003A9032202A8F0
:10A430008DF80D608DF80E3028F024FD00287FF493
:10A440004FAF72E724400020F8B5102204460D46B5
:10A450000130013104F1110628F014FD00284DD11E
:10A460006378F3B9A378E3B9E378D3B92379C3B9AF
:10A470006379B3B9A379A3B9E37993B9237A83B99B
:10A48000637A73B9A37A63B9E37A53B9237B43B987
:10A49000637B33B9A37B23B9E37B13B9277C002FFC
:10A4A0002DD06B78002B4DD1AB78002B4AD1EB78B7
:10A4B000002B47D12B79002B44D16B79002B41D154
:10A4C000AB79002B3ED1EB79002B3BD12B7A002BC3
:10A4D00038D16B7A002B35D1AB7A002B32D1EB7AA5
:10A4E00083BB2B7B73BB6B7B63BBAB7B53BBEB7BBC
:10A4F00043BB2F7C003718BF012700E00027637C97
:10A5000046B115F1110605D06A7C5A4012F0FE0FD3
:10A510000CD0002603F0FC03042B05D06B7C03F069
:10A52000FC03042B18BF37463846F8BD062205F158
:10A53000120104F1120028F0A5FCB0FA80F67609A9
:10A54000637CE7E70127DAE730B585B005460C46BE
:10A5500000F004FD03E0BDF80630A3420BD102AACF
:10A560000DF10601072000F001FD0028F3D14FF6A0
:10A57000FF7005B030BD03992846FFF765FF00283E
:10A58000EDD0BDF80600F4E713280DD810B5044649
:10A59000FDF754F928B104EB8403054A32F813009F
:10A5A00010BD4FF6FF7010BD4FF6FF70704700BF33
:10A5B00024400020132816D838B504460D46FDF770
:10A5C0003DF968B1094A04EB840302EB4303002020
:10A5D00053F8022F2A609A889B79AA80AB7138BD04
:10A5E00043F2020038BD43F20200704724400020CD
:10A5F00008B502887AB983786BB9C3785BB90379F7
:10A600004BB943793BB983792BB9C3791BB9037A29
:10A610000BB9437A13B10B88934201D0002008BDD7
:10A6200002310822023028F02DFCB0FA80F04009F7
:10A6300008BD00BF30B585B00446851C00F08EFC17
:10A6400002AA0DF10601072000F090FC00285AD064
:10A6500023880399002B35D1A278002A57D1E378BB
:10A66000002B49D12279002A46D16279002A43D1B0
:10A67000A279002A40D1E279002A3DD1227A002A2B
:10A680003AD1627A002A37D12379002B2FD162790F
:10A6900052B9A379002B2AD1E2792AB9237A002B67
:10A6A0003AD1627A002ACBD04A8D9A42C8D12C3155
:10A6B0000822284628F0E6FB0028C1D1BDF8060094
:10A6C00005B030BDB1F846209A42EDD1483108229C
:10A6D000284628F0D7FB0028F0D023880399002BC8
:10A6E000E2D1A278002ADFD1E378002BCCD04A8DCA
:10A6F00000239A42A4D1DAE7B1F84620002AE5D037
:10A70000002BC1D0F3E74FF6FF7005B030BDB1F8B4
:10A710004620002ADAD0C7E713464A8D9A428FD1E5
:10A72000C5E700BFF8B54FF6FF73984214D007464F
:10A730000B4D002401E0142C0ED02B88BB42A6B296
:10A7400005F10A0504F10104F5D13046FDF776F86C
:10A750000028F0D03046F8BD4FF6FF763046F8BD01
:10A7600024400020038893B9837883B9C37873B9F0
:10A77000037963B9437953B9837943B9C37933B959
:10A78000037A23B9407A003018BF012070470120B6
:10A79000704700BF132804D800EB8000014B23F85A
:10A7A0001010704724400020F8B54FF6FF73984210
:10A7B00003D1BDE8F84000F06BBE114F06460024FF
:10A7C0003D4602E00134142C14D02B88B342A0B2D1
:10A7D00005F10A05F6D1FDF731F80028F2D0304630
:10A7E00000F056FE28B904EB84044FF6FF7327F8F7
:10A7F0001430F8BD3046BDE8F84000F049BE00BF57
:10A800002440002081DF704784DF7047F0B5294B7A
:10A8100083B093F8812340260196002A46D193F80D
:10A820000537002B42D12448244C254A254F264980
:10A830001370241AE408240444F004003B7008F068
:10A8400079F8224B224A2349234805F007FB0546A5
:10A8500098B901AA21491D4805F0A2FB0546A8B9EF
:10A860001E4A1C483346114605F0BCFB0546B0B9EC
:10A87000012328463B7003B0F0BD44F001002A4696
:10A88000174908F005FA284603B0F0BD44F001006E
:10A890002A46144908F0FCF9284603B0F0BD44F0FC
:10A8A00001002A46104908F0F3F9ECE71125284683
:10A8B00003B0F0BD5C480020C4FC050004FE0500A8
:10A8C00014480020F0470020485205009C52002008
:10A8D000644F002094630500A44400201C4800201D
:10A8E0006052050098520500D052050038B54FF46B
:10A8F000E1620021184828F0F8FA08F081FF174BB0
:10A90000174A9B1ADB081C04E8B905F0FBFC054656
:10A9100088B944F004042046124908F00BF8204698
:10A92000114908F007F8114B114A1D701570BDE868
:10A930003840FFF76BBF44F001002A460D4908F08C
:10A94000A7F9284638BD05462A4644F001000A49C1
:10A9500008F09EF9284638BD5C48002004FE05003A
:10A96000C4FC0500145205002C520500F0470020DD
:10A97000EC400020EC510500C851050010B5084B13
:10A980001C780CB1074810BD074B08480849C01A8D
:10A99000C008000440F0010007F0CCFF204610BDC5
:10A9A000F04700201C480020C4FC050004FE050000
:10A9B00098530500534B1B78002B74D12DE9F041BF
:10A9C000514B5248524DC01AC00895F880330004CC
:10A9D00084B040F0020640F003043BB995F8043718
:10A9E000002B33D1002004B0BDE8F081494B1B7827
:10A9F0004FF02008CDF80C80002B57D095F881330C
:10AA00004BB103AB00934449444B45482A4605F0FB
:10AA100025FB002857D04349304607F08BFF202103
:10AA20003E4805F0A7FC002855D100223E492046AB
:10AA300008F02EF939490020FFF7E4FE002385F8DD
:10AA4000803385F881330028C8D0CCE7314B1B78A0
:10AA5000202703974BB395F805374BB103AB009311
:10AA6000324A2E4B2C492E4805F0F8FA00283FD0E8
:10AA700030462C4907F05EFF2021284805F07AFC7B
:10AA800000283DD120460122274908F001F9234939
:10AA90000120FFF7B7FE002385F8043785F8053756
:10AAA00000289FD09FE70320704701234FF4617275
:10AAB00002FB03550320002385F8803385F881339A
:10AAC00004B0BDE8F081154A19484346114605F027
:10AAD00089FA0028A9D000234FF4617202FB0355C4
:10AAE000002385F8803385F8813304B0BDE8F08118
:10AAF0000A4A0F483B46114605F074FA0028C1D0B7
:10AB00000123E9E7EC400020C4FC050004FE050039
:10AB10005C480020F0470020644F0020F4470020EC
:10AB200018410020DC53050010540500E04B0020C4
:10AB3000946305002DE9F04103888688112B90B0BD
:10AB400032D0182B2DD1374B374D3849ED1AED083F
:10AB500004462D0445F0040007F0ECFE237BDB07E0
:10AB60003BD4A16832486A46402305F03BFA0446CC
:10AB700038BBDFF8C0802E484FF4617707FB0687AB
:10AB80006A463946402305F0E9F9002841D10123FE
:10AB900087F881334FF4617000FB0680012380F851
:10ABA000803310B0BDE8F081224B4FF4617000FBA0
:10ABB0000630002380F8813380F8803310B0BDE880
:10ABC000F08102461C4945F0010008F061F81B4B7A
:10ABD00001221A7010B0BDE8F081194B194A1B7898
:10ABE0001268194F002B08BF002712B1304690475A
:10ABF000024639463046FFF707FE0028B1D002462C
:10AC0000124945F0010008F043F80C4B01221A707C
:10AC1000A7E702460E4945F0010008F039F887F829
:10AC20008143B7E7C4FC050004FE05000853050096
:10AC3000946305005C480020D0520500EC400020E1
:10AC40001448002018480020F04000202853050038
:10AC50005C530500F0B500238DB02A4F1946082239
:10AC600001A83B7028F041F94FF6FF7001F02AF877
:10AC70004FF6FF76B0421BD0044607E000F0C6FF57
:10AC8000204601F01FF8B042044611D0A4F58045DB
:10AC9000ADB2284601AA03A906F074FE0A28204690
:10ACA000ECD0284606F01AFD0828054602D02DB93A
:10ACB0000DB0F0BD01233B700DB0F0BD124B134839
:10ACC0001349C01AC008000423462A4640F0010078
:10ACD00008F05EF80726002301214FF6FF7206A850
:10ACE000CDE90633CDE9093308950B93ADF81C4047
:10ACF0008DF818608DF82410ADF81A2000F062FA73
:10AD00000DB0F0BD24560020C4FC050064FE050013
:10AD10003455050010B58289047886B002F580426A
:10AD2000002392B2611ECDE90033CDE90233ADF8C4
:10AD30000420CDE90433042911D8DFE801F03333CE
:10AD4000331703004368002B56D113224FF0FF3313
:10AD500068468DF80020CDF8023000F033FA304C10
:10AD600023780BB1FFF776FF06B010BD43F6FE73F4
:10AD70009A42F4D8C389002BF1D14368002B47D005
:10AD80000B21012202938DF800108DF80C20244C29
:10AD900001224FF6FF7368462270ADF8023000F0D2
:10ADA00011FADDE743F6FE739A42C1891ED8D0E955
:10ADB0000132A4F10304B4FA84F464098DF8081094
:10ADC0008DF809400392EBB99DF8103043F0010370
:10ADD0008DF8103008224FF6FF7368468DF800207A
:10ADE000ADF802300E4C00F0EDF9B9E701F5804204
:10ADF00092B29A42DBD9B2E701228DF80C2002937D
:10AE00001422A3E701228DF8142004930922E2E71B
:10AE10000A2310468DF8003000F0F8FEB7E700BFB7
:10AE20002456002030B5254889B006F0D3F8002814
:10AE300034D106F0E5F8054608BB00F0AFFE03A8E4
:10AE40000822294628F051F80DE005A806F0BAFAC4
:10AE5000019B9C8804F58044A4B205A806F0DAFAA8
:10AE6000204600F0A3FE05A903AA4CF2070006F055
:10AE70001BFD01A90028E8D0284609B030BD104BC1
:10AE800010481149C01AC00800042A4640F00100C9
:10AE900007F0FEFE8625284609B030BD084A094B5A
:10AEA0000A499B1ADB081B04024643F0010007F025
:10AEB000EFFE0325284609B030BD00BF15AD0200E6
:10AEC000C4FC050064FE05009C54050058540500B0
:10AED000F0B5FF2887B004D8012906D00C1F052C37
:10AEE00003D90724204607B0F0BD0D4604460021D3
:10AEF000174601A808221E4627F0F7FFA4F5804058
:10AF0000A5F5804180B201AB03AA89B206F05AFCD4
:10AF1000E0B901A903A806F055FA0446B0B9019BAF
:10AF2000BD705B883B800299A6B1368878689D0029
:10AF3000AE4228BF2E46324627F0B3FFB5420BD8AB
:10AF400003A806F067FA204607B0F0BD05242046A6
:10AF500007B0F0BD7960F3E70C24C3E708220021B5
:10AF6000014827F0C2BF00BF1C560020012804D0B2
:10AF7000031F052B01D90120704770B5044686B028
:10AF8000A0F5804015460E4680B203A90D4A06F092
:10AF90008BFC10B1002006B070BD01A903A806F01B
:10AFA00011FA0028F6D1019BAC705988029A2980C9
:10AFB0006A609B8803F5804303A8338006F02AFA71
:10AFC0000120E8E71C560020F0B5FF2889B005D81D
:10AFD0008C78012C06D0231F052B03D9072420468B
:10AFE00009B0F0BD4B680393A0F58046A4F58044FA
:10AFF0000B880493A4B2B6B2002117460546082276
:10B000006846ADF80A40ADF8086027F06EFF2146AB
:10B0100030466B4605AA06F0D5FB80B902A905A803
:10B0200006F0BCFA04460E2C1CD8DFE804F0141B12
:10B030001B1B1B1B1B120E1B1B1B1B1B0E0002A929
:10B0400005A806F00DFA0446EDE71124204609B0E4
:10B05000F0BD8624C3E7002FC1D0394605A806F00D
:10B06000FFFCBCE7064B07480749C01AC0080004AC
:10B0700022462B4640F0010007F08AFE0324AEE78B
:10B08000C4FC050064FE0500DC5405004FF6FF70AB
:10B0900000F08CBDFF2806D808B500F0A5FDFFF72D
:10B0A000D9FD002008BD0720704700BF00F0C2BDD9
:10B0B00000F0CABD00F006BE30B583B08278417A98
:10B0C000044600233948CDE900338DF8022001F011
:10B0D00079FE00285CD0237AA178019003EB8303EA
:10B0E0009B004A1EADF800308DF80210072A08D8E0
:10B0F000DFE802F01E070707071E042B1423ADF834
:10B1000000306946221D2088FFF75EFF07280DD01A
:10B1100012D9112830D086281DD1A37A244A03F0F1
:10B12000FD0343F001030121A372117003B030BD90
:10B130000123ADF80030E4E768B9A37A60F3410376
:10B1400060F30003A37203B030BD838809339B080A
:10B15000ADF80030D5E708F0A3FD164D164A238858
:10B160001649541BE4082404024644F0010007F089
:10B170000FFE032003B030BDA37A0D4A43F0020353
:10B180006FF3000301210020A372117003B030BDE2
:10B19000084B0948627A0A49C01AC008000440F006
:10B1A000010007F075FD0320C0E700BF6C570020C9
:10B1B00068570020C4FC05005CFE05003057050000
:10B1C000F05605002DE9F041754DC3686A68934259
:10B1D00086B0044600F0E0802A69934200F0DE80E9
:10B1E000EA69934200F0D280AA6A934208BF03261C
:10B1F00000F0CD8000262378092B00F0A180132BCE
:10B2000071D0082B42D0204601F064FA204602F0AB
:10B2100075FF644F2046FEF7F9FE2046FEF74CFC12
:10B220003B7813B906B0BDE8F08100233B700024E1
:10B230004FF001086600331905EB830318469B7A2B
:10B240009A0746D587F80080FFF736FF03460028A7
:10B2500043D03444A4004FF6FF72295BADF80410CC
:10B26000862BADF802207AD106238DF8003068468F
:10B2700001F030FA684602F041FF6846FEF7C6FE6C
:10B280006846FEF719FC06B0BDE8F081677A002F2A
:10B29000B9D1002EB7D0337A5BB1DFF81881717A5B
:10B2A0003944C9B2404601F0A7FD337A01379F42C5
:10B2B000F5D3B37A03F0FD036FF300034FF6FF728B
:10B2C000FF21B37200233280B270717233727360E7
:10B2D00099E7D90748BF87F800800134042CA9D129
:10B2E00006B0BDE8F081204601F0F4F9204602F0F6
:10B2F00005FF2C4F2046FEF789FE2046FEF7DCFBBB
:10B300003B78002B8ED000243C704FF00108660083
:10B31000331905EB83039B7A9A0701D4DB0709D520
:10B32000301905EB800087F80080FFF7C5FE034663
:10B3300000288ED10134042CE9D106B0BDE8F0819B
:10B34000637A002B7FF45FAF002E3FF45CAFB27ADC
:10B35000144F736042F00202B2723B7067E707213C
:10B360000022184602938DF800108DF80C200E4E26
:10B3700008F096FC0D4A2B5B0D49941BE40824044D
:10B38000024644F0010007F003FD70E7022606EBD9
:10B39000460605EB86062EE70026F8E70126F6E7C7
:10B3A0007C57002068570020C4FC05005CFE0500A7
:10B3B000B45505006C57002070B52E4C2E4BA27A68
:10B3C000A57D94F8221094F82E0002F0FD026FF390
:10B3D000000205F0FD05A272002262F30005FF26BF
:10B3E00001F0FD0100F0FD0062F3000162F30000D6
:10B3F00082B06672A57550260425CDE900562272EA
:10B400004FF6FF7562602275226184F82020E261A8
:10B4100084F82C20A26284F8221084F82E004FF4C5
:10B42000A072164916482580A570A581A57365757B
:10B430002583A57684F82150A58484F8265084F8C5
:10B440002D5001F061FC18B90346184602B070BDDA
:10B4500008F026FC0B4A0C4B0C499B1ADB081B041A
:10B46000024643F0010007F013FC0323184602B024
:10B4700070BD00BF7C570020AC570020285600202C
:10B480006C570020C4FC05005CFE050094550500C7
:10B490002DE9F047DFF8A091B9F800308342054666
:10B4A00000F0BE80B9F80C30834200F0BB80B9F8E0
:10B4B0001830834221D0B9F82430834208BF0326D4
:10B4C0001CD02846FFF7E6FD034608B1072802D145
:10B4D0001846BDE8F08708F0E3FB534C534B544942
:10B4E000E41AE408240403462A4644F0010007F065
:10B4F0004FFC03231846BDE8F087022606EB460200
:10B50000B9F824C0DFF83C814A4F09EB8202B9F850
:10B510000030AB4228D0B9F80C30AB427AD0B9F841
:10B520001830AB4273D0654577D0731C042BC8D05C
:10B5300003EB430239F82220AA425AD0B31C042B51
:10B54000BFD003EB430239F82220AA4251D0002E8B
:10B55000B7D1B9F824C06545B3D1B9F80030AB42D2
:10B560004FF003064246D6D1334C00219078A378A1
:10B5700083421AD04B1C042BD7D003EB430239F87B
:10B580002220AA423DD08B1C042BCED003EB4302D9
:10B5900039F82220AA4234D00029C6D16545C4D149
:10B5A00044460321A3788342E4D1A37A9B07E1D1E7
:10B5B0006368002BDED1227A5AB19A46617A5144EF
:10B5C000C9B2384601F018FC237A0AF1010A9A45FB
:10B5D000F4D3A37A03F0FD034FF6FF7100226FF35B
:10B5E0000003FF20A3722180A1706072227262604A
:10B5F0009BE703EB43021E4609EB8202B9F824C025
:10B6000085E703EB4304194609EB8404AFE70B4CD1
:10B610000221ABE70A4C0121A8E744460321A5E734
:10B6200000266BE7012669E75CFE0500C4FC050007
:10B63000145605006C5700207C57002094570020BA
:10B6400088570020A05700200023FFF741BC00BF0F
:10B650002DE9F04F83B001927BB3CC1F012C28D889
:10B66000541E032C25D8B44FB7F80090484500F07D
:10B670009080BC89844200F08E803C8B844220D034
:10B68000BC8C844200F089804FF6FF74A14500F025
:10B69000B980BD89A54200F031813D8BA54200F003
:10B6A0002B81BD8CA54200F0F680112003B0BDE8CF
:10B6B000F08F072003B0BDE8F08F0E2003B0BDE887
:10B6C000F08F0224BD8C04EB4408854207EB880808
:10B6D00066D098F802B0651C02344FEA450C66004B
:10B6E0008B450CEB050E06EB040A0FD0042DCBD0D6
:10B6F00037F82EE0864536D0042CC5D037F82A50CE
:10B700008542C1D1264407EB8608E2E798F80AB0E3
:10B710001BF0030FEAD1D8F80420002AE6D198F8EC
:10B720000800019A904221D10F4698F80910019D16
:10B73000FF291E461CD00024804888F8085001F0DC
:10B7400041FB002800F0998005EB8502120192B2BE
:10B7500092083280B77070600CB1082F14D00020AE
:10B7600003B0BDE8F08F2C466646CBE70F20A1E77B
:10B770002946724801F0DEFAFF28014688F80900E0
:10B7800000F0BE800124D7E79300063B83800020B1
:10B7900090E7002496E7012494E7032407F12408A6
:10B7A000DFF8A8C198F802508D421CD0651C042D0A
:10B7B0003FF46AAF05EB450637F8266086421BD09A
:10B7C000A51C042D3FF460AF05EB450637F8266055
:10B7D000864211D0002C7FF457AFE046032498F83E
:10B7E00002508D42E2D198F80A50AE07DED1D8F867
:10B7F0000450002DDAD192E705EB45082C4607EB03
:10B800008808CFE70024BD8C4FF6FF7A04EB44088C
:10B81000554507EB880841D098F80250661C023461
:10B820004FEA460E4FEA440CFF2D0EEB06090CEBD7
:10B83000040B12D0042E3FF438AF37F82950554589
:10B8400018D0042C3FF431AF37F82B5055457FF416
:10B850002CAFA44407EB8C08DEE798F80A50AD073C
:10B86000E8D1D8F80450002DE4D1A8F8000088F8F9
:10B87000021059E73446F446EBE7314B314898F86B
:10B8800009203149C01AC008000440F0010007F047
:10B89000FFF903200EE7DFF8B4800324DFF8ACC023
:10B8A0004FF6FF7698F80250FF2D1CD0651C042D32
:10B8B0003FF4FBAE05EB450E37F82EE0B64534D02D
:10B8C000A51C042D3FF4F1AE05EB450E37F82EE034
:10B8D000B6452AD0002C7FF4E8AEE046032498F861
:10B8E0000250FF2DE2D198F80A50AA07DED1D8F80D
:10B8F0000450002DDAD1B8E7022484E7012482E75E
:10B9000098F80A3088F8020003F0FD0300226FF374
:10B9100000034FF6FF7188F80A30A8F8001088F885
:10B920000820C8F804201120C4E605EB45082C4681
:10B9300007EB8808B6E700BF7C5700206C57002053
:10B94000C4FC05005CFE050068560500A0570020F9
:10B950002DE9F843494E3388834289460BD0B38999
:10B96000834259D0338B834258D0B38C834257D013
:10B970000520BDE8F8830023B28C03EB4305824227
:10B9800006EB85054FD095F802C05A1C02335700CC
:10B990005C00CC4507EB020E04EB03080FD0042A31
:10B9A000E6D036F82E50854230D0042BE0D036F861
:10B9B00028208242DCD11C4406EB8405E3E795F89D
:10B9C0000AC01CF0030FEAD169680029E7D12B7A7D
:10B9D0005BB12B4E0024697A2144C9B2304601F094
:10B9E0000BFA2B7A01349C42F5D3AB7A03F0FD03BA
:10B9F0004FF6FF7200206FF30003FF21AB722A8025
:10BA0000AA70697228726860BDE8F88313463C46E4
:10BA10001C4406EB8405B6E70123ADE70223ABE740
:10BA2000032306F12405174FAA784A4518D05A1C5B
:10BA3000042A9DD002EB420436F82440844216D0FA
:10BA40009A1C042A94D002EB420436F82440844223
:10BA50000DD0002B8CD13D460323AA784A45E6D170
:10BA6000AA7A9207E3D16A68002AE0D1AFE702EB35
:10BA70004205134606EB8505D6E700BF7C5700203C
:10BA80006C570020A0570020CB1F012B01D90720A5
:10BA900070472DE9F0478046104692468946FFF7E9
:10BAA00005FB78B13B490B8843450ED08B89434554
:10BAB00041D00B8B43453CD08B8C43453DD005207A
:10BAC000BDE8F0870720BDE8F08700238A8C03EBF0
:10BAD0004305424501EB850532D0AE785C1C02334C
