:020000022000DC
:106000000000042081D20300A9D20300ABD2030018
:10601000ADD20300AFD20300B1D2030000000000F4
:10602000000000000000000000000000B3D20300E8
:10603000B5D2030000000000B7D20300B9D20300BC
:1060400091A00300BBD2030011D20300BBD2030016
:10605000BBD20300399D030031940300BBD203007F
:10606000BBD20300BBD20300BBD20300BBD20300F0
:10607000BBD203004DA20300BBD20300BBD203007E
:10608000BBD2030061350300BBD20300BBD20300C7
:1060900001360300BBD20300FD6E0300BBD2030038
:1060A000BBD20300BBD20300BBD2030039A4030060
:1060B000BBD20300BBD203000000000000000000C0
:1060C000BBD20300BBD20300BBD20300BBD2030090
:1060D000BBD20300BBD20300BBD2030065C40300E4
:1060E000BBD20300BBD20300C59B0400000000002C
:1060F00000000000BBD2030000000000BBD2030080
:10610000000000000000000000000000000000008F
:10611000000000000000000000000000000000007F
:10612000000000000000000000000000000000006F
:10613000000000000000000000000000000000005F
:10614000000000000000000000000000000000004F
:10615000000000000000000000000000000000003F
:10616000000000000000000000000000000000002F
:10617000000000000000000000000000000000001F
:10618000000000000000000000000000000000000F
:1061900000000000000000000000000000000000FF
:1061A00000000000000000000000000000000000EF
:1061B00000000000000000000000000000000000DF
:1061C00000000000000000000000000000000000CF
:1061D00000000000000000000000000000000000BF
:1061E00000000000000000000000000000000000AF
:1061F000000000000000000000000000000000009F
:1062000010B5054C237833B9044B13B10448AFF3F0
:1062100000800123237010BD103E0020000000000C
:1062200014BB050008B5034B1BB103490348AFF38A
:10623000008008BD00000000143E002014BB0500D3
:10624000154B002B08BF134B9D46A3F5803A002148
:106250008B460F461348144A121A29F066FB0F4B5F
:10626000002B00D098470E4B002B00D09847002001
:10627000002104000D000D48002802D00C48AFF3A7
:10628000008029F0D3FA2000290017F02FF929F017
:10629000A7FA00BF00000800000004200000000072
:1062A00000000000103E002054EF0020000000001D
:1062B0000000000072DF704773DF704770B504465E
:1062C00000F24A2681700D4630460722002129F04F
:1062D0002CFBE38813B1A378012B5FD0E379002B6B
:1062E00059D194F84B32002B40F0848094F84C3212
:1062F000002B7FD194F84D32002B7BD194F84E3295
:10630000002B77D194F84F32002B73D194F8503290
:106310001A1C18BF01226B1E032B00F24F81DFE80D
:1063200003F002470A0DA379002B41D094F82430E2
:10633000002B3DD12AB9237A002B7BD1657A002D21
:1063400064D1A570002384F8533204F13C0518226F
:106350000021284629F0E9FAE26A0121531E8B4206
:1063600084F83C103BD9042A94F82400A37826D062
:1063700084F8511000283FD084F85210002284F88D
:106380005020042B00F20981DFE813F07B00560057
:10639000DC00AE007F00A378022BA2D1636B002B40
:1063A00000F00981012284F851220820984798E7DB
:1063B000E379002BBFD0002ABDD00225C1E784F8C5
:1063C000512098B9002284F85020042B00F2E58077
:1063D000DFE813F057003200D400CE00C80094F874
:1063E000241084F85120A3780029EBD0A26A84F805
:1063F0005220C3E701228EE784F85000042B00F2FC
:10640000CC80DFE803F03E19BBB5AF000422636B1C
:10641000A270002B96D06279002A93D094F8522271
:10642000002A8FD1012184F8542284F853120720C6
:1064300098478AE70322EAE700230120022180220D
:10644000266484F83100C4F84432636484F83C1054
:10645000A4F8482000212A4604F15400FFF72AFF3F
:1064600000B170BD94F8301094F85400FFF724FF89
:106470000028F6D1636B13B194F8310098470020DF
:1064800070BD002384F83130F4E7D4E90721626459
:106490000622A4F8481084F83C206279002A72D0C1
:1064A00094F85222002A6ED194F85422002A6AD01D
:1064B000022384F850300122B4F83812D4F83402A0
:1064C00000F012FF08B10423037004F50D76314685
:1064D0002A4604F15400FFF7EDFE002866D106229B
:1064E000A37884F8312053E0D4E9052162640622C0
:1064F000A4F8481084F83C206279002A50D094F81F
:106500005222002A4CD194F85422002A48D0022367
:1065100084F850300122B4F83812D4F8340200F074
:10652000E3FE08B10423037004F50D7631462A46D4
:1065300004F15400FFF7BEFEC0BB0522A37884F827
:10654000312025E0022384F831300723D4E90321E8
:1065500084F83C3000232664A4F84810C4F8443280
:10656000626477E7D4E907126164A4F8482094E7ED
:10657000D4E905126164A4F84820BDE7022384F839
:1065800031300323E2E7042284F8312004F50D764C
:10659000C4F84462002B3FF46DAFD4F844125AE7BC
:1065A000032284F8312004F50D76F1E7A378002B5F
:1065B0003FF460AFF1E784F8513292E60025C0E67F
:1065C00080F83010704700BF00295AD0002858D0FA
:1065D000F8B591F87A301BB191F89830002B52D170
:1065E0004FF0000C80F802C001F1780604460F4617
:1065F0000FCE251D0FC50FCE0FC596E8070085E805
:10660000070084F830C0D7F8A4306363D7F8A83007
:10661000A3634FF6FF7504F50D73C4F84432614669
:10662000A4F84852072204F24A2029F07EF9237880
:106630000BB984F8545094F82430002B14BFEE2387
:106640001F2304F15501A4F83832C4F8341204F5BC
:106650000E72384600F04AFC90B994F82430002BB2
:1066600014BFEE231F2304F2431107F13C00A4F8EA
:106670004032C4F83C1204F5107200F037FC20B12F
:10668000F8BD0E2070470720F8BDD4E90525012389
:10669000206484F850000146626484F8513084F824
:1066A0003C30A4F8485004F13C0204F15400FFF7D8
:1066B00001FE0028E4D12370F8BD00BFF8B50678CC
:1066C000002E73D0044600F24A27A1700D463846CA
:1066D0000722002129F029F9E38803BBE37913B1EC
:1066E000A378022B1ED094F84B3283B994F84C3225
:1066F0006BB994F84D3253B994F84E323BB994F8D3
:106700004F3223B994F85062003618BF01266B1E31
:10671000032B00F25681DFE803F00F161B1EA3784F
:10672000012BDBD1636B002B00F04881012284F840
:10673000512208209847D6E7A37923B194F8243052
:10674000002B00F02981E37913B1002E40F0118174
:10675000237A002B4CD1657AB5BBA570002384F851
:10676000533204F13C0518220021284629F0DDF8B7
:10677000E26A0121531E8B4284F83C1063D9042A3B
:1067800094F82400A37868D084F8511080B184F87C
:106790005210002284F85020042B00F2A980DFE878
:1067A00013F029003300D800AA0073000820F8BDB8
:1067B00084F85000042B00F29B80DFE813F01B00EC
:1067C0002500E200E700DC000422636BA270002BCE
:1067D000C4D06279002AC1D094F85222002ABDD1D7
:1067E000012184F8542284F8531207209847B8E70F
:1067F0000322EAE7002384F83130636B13B194F885
:10680000310098470020F8BD00230120022180229A
:10681000276484F83100C4F84432636484F83C107F
:10682000A4F8482000212A4604F15400FFF742FD55
:106830000028BCD194F8301094F85400FFF73CFDC8
:106840000028DAD0F8BD94F8241084F85120A378F9
:1068500039B1A26A84F852209BE784F851200028BD
:10686000F7D1002284F85020042B41D801A252F81D
:1068700023F000BFF5670200096802008369020087
:106880008D69020077690200D4E90721626406225B
:10689000A4F8481084F83C206279002A00F0868031
:1068A00094F85222002A40F0818094F85422002A61
:1068B0007CD0022384F850300122B4F83812D4F886
:1068C000340200F011FD08B10423037004F50D76C5
:1068D00031462A4604F15400FFF7ECFC00286BD146
:1068E0000622A37884F83120C4F84462002B84D0B7
:1068F000D4F8441297E7D4E9052162640622A4F88B
:10690000481084F83C206279002A49D094F8522239
:10691000002A45D194F85422002A41D0022384F859
:1069200050300122B4F83812D4F8340200F0DCFC04
:1069300008B10423037004F50D7631462A4604F1AC
:106940005400FFF7B7FCB8BB0522A37884F83120C8
:10695000CAE7022384F831300723D4E9032184F8FD
:106960003C3000232764A4F84810C4F84432626421
:1069700058E70225F1E6D4E907126164A4F848203B
:106980008AE7022384F831300323E6E7D4E90512CD
:106990006164A4F84820B6E7002E3FF4D9AEDCE6E7
:1069A000032284F8312004F50D769DE7042284F853
:1069B000312004F50D7697E7A37897E784F85132F4
:1069C00091E60025C9E600BF10B50388112B0C46DF
:1069D0000BD0262B1DD0102B00D010BDC37B012B5C
:1069E000FBD18388A1F8483210BD002381F85232D0
:1069F0008288B1F848329A42EFD10B79002BECD162
:106A00000B78EBB90820A36B002BE6D0BDE8104053
:106A10001847037A013B012BDFD80B78002BF1D00C
:106A20008A780B4B0132A3FB02139B0803EB830311
:106A3000D31AD9B22046FFF741FC0028E3D110BD9C
:106A400001212046FFF73AFC0028DCD110BD00BF31
:106A5000CDCCCCCC704700BFA8DF70472DE9F0410A
:106A60008CB00CA941F60A0321F82C3D0123044601
:106A7000C24A8DF806301846FFF7EEFF054600289B
:106A800040F0B6802688002E40F0B6802689002E81
:106A900040F02881268A002E40F04A81268B002E65
:106AA00040F07E81268C002E40F0D080268D002E76
:106AB00040F0F280236B002B39D01A688DF8082043
:106AC0001A6894F83C60120A8DF809205A888DF8EB
:106AD0000A20DA788DF80B205A688DF80C209B6814
:106AE0008DF80D30190A20221B0C8DF80E1004A809
:106AF00000218DF80F3028F018FF9DF81D309F49B8
:106B00008DF8216043F0020308888DF81D3042F6AD
:106B100023274FF0081602AB994AADF8107004A96C
:106B2000CDE9056300F0FAFE002840F08A80636B2F
:106B300043B31F681E7994F83C80002F00F0558104
:106B400016B930460FF08AFE2022002104A828F052
:106B5000ECFE9DF81D3089498A4A0888ADF814601A
:106B600043F0020342F62A2C04A9ADF816600697FA
:106B70008DF821808DF81D30ADF810C000F0CEFEEC
:106B800000285ED1A36B9BB31A788DF808205A8831
:106B90008DF80920120A8DF80A209A888DF80B20AA
:106BA000120A8DF80C20DB888DF80D3020221B0A8C
:106BB000002104A894F83C408DF80E3028F0B5FE72
:106BC0009DF81D306D498DF8214043F0020308887F
:106BD0008DF81D3042F6502502AB6B4AADF81050CF
:106BE00004A94FF00714CDE9054300F097FE0546D0
:106BF00028460CB0BDE8F081676894F83C80002F0F
:106C000000F0F7802022002104A828F08EFE9DF8D5
:106C10001D305A495D4A0888ADF8146043F00203FC
:106C200042F6292C04A9ADF8166006978DF821804C
:106C30008DF81D30ADF810C000F070FE00283FF454
:106C400025AF054628460CB0BDE8F081676A94F888
:106C50003C80002F00F0DC802022002104A828F0D6
:106C600064FE9DF81D304549494A0888ADF8146016
:106C700043F0020342F6262C04A9ADF816600697ED
:106C80008DF821808DF81D30ADF810C000F046FE63
:106C900000283FF40BAFD4E7E76A94F83C80002F5C
:106CA00000F0BA802022002104A828F03EFE9DF8C2
:106CB0001D303249374A0888ADF8146043F00203AA
:106CC00042F6282C04A9ADF8166006978DF82180AD
:106CD0008DF81D30ADF810C000F020FE00283FF404
:106CE000E9AEAEE7E76894F83C80002F00F08480BE
:106CF0002022002104A828F018FE9DF81D301F490D
:106D0000254A0888ADF8146043F0020342F6242CAB
:106D100004A9ADF8166006978DF821808DF81D3016
:106D2000ADF810C000F0FAFD00283FF4B3AE88E7DC
:106D3000676994F83C80002F62D02022002104A8CB
:106D400028F0F3FD9DF81D300C49144A0888ADF871
:106D5000146043F0020342F6252C04A9ADF8166036
:106D600006978DF821808DF81D30ADF810C000F029
:106D7000D5FD00283FF492AE63E700BF643E0020DB
:106D8000703E0020543E00204C3E00203C3E00203F
:106D90002C3E0020683E0020443E00205C3E002047
:106DA000E76994F83C807FB32022002104A828F0F2
:106DB000BCFD9DF81D301A491A4A0888ADF81460C8
:106DC00043F0020342F6272C04A9ADF8166006979B
:106DD0008DF821808DF81D30ADF810C000F09EFDBB
:106DE00000283FF45FAE05462CE738460FF036FD2D
:106DF000A6E60FF033FD05E738460FF02FFD77E7E5
:106E000038460FF02BFD98E738460FF027FDCBE70B
:106E100038460FF023FD1FE738460FF01FFD41E70E
:106E2000643E0020343E00206DDF704779DF7047FC
:106E30007DDF704764DF70472DE9F04F83B0048831
:106E40000C9EBDF83490B6F800A0002C39D09846BE
:106E5000002317468B4605461C4603E02A8801346A
:106E6000A24224DD6A6852F82400019000220DF14C
:106E7000030101A8FFF7DEFF20BB9DF80320BA4203
:106E8000ECD13288B91803B389452BDB42440DF1AC
:106E9000030101A80123FFF7CDFF98B931889DF8C0
:106EA00003200A4432802A880134A242DADC43B14A
:106EB0003388013BA3EB0A039BB2FF2B12D808F8DF
:106EC0000A30002003B0BDE8F08F0231013289455D
:106ED00092B207DB328008F802B03288013292B2F7
:106EE0003280D3E70C2003B0BDE8F08F2DE9F047E6
:106EF00000231788138090F82D3086B0144605467D
:106F00000E46002B40F0FB80AA78002A40F0FD805E
:106F1000EA78A2B1D91CB94200F2F3800221F154FF
:106F2000238801339BB201212380F15423880B4431
:106F30009BB22380F25423880B449BB223806A685F
:106F4000AAB1D91CB94200F2DC80022192F90020DA
:106F5000F154238801339BB20A212380F154238802
:106F600001339BB22380F2542388013323802B8981
:106F7000002B40F01B812B8A002B40F02F812B8BA4
:106F8000002B40F043812B6A002B44D02288911DB6
:106F9000B94200F2B6801988052940F203816FF4E6
:106FA000486801EB080080B24FF27D3C604540F23A
:106FB000F9805888052840F2F5806FF4486E8644C1
:106FC0001FFA8EFEE64540F2ED804FF6FF7C6145EC
:106FD00004D0604502D0814200F2E4800521B15422
:106FE0002288013292B212212280B15422880132C9
:106FF00092B222801988B1543244090A5170228811
:10700000023292B222805B88B35432441B0A53701E
:107010002388023323806B6A002B2FD09988B4F821
:1070200000C0881C0CF102020244BA4269D8FE2852
:1070300067D8033106F80C102288013292B2FF2182
:107040002280B1542288013292B222801988B15430
:107050003244090A51702088023080B220809A8818
:1070600062B199680393002900F09C80304428F0B5
:1070700038FC039B9A8823881344238095F82C308E
:10708000002B40F08A80287800283BD02B88012BE9
:1070900000F08880228802F1020CBC4531D801281A
:1070A00004D16B78023313449F422AD3BB1E9B1A30
:1070B00006A99BB221F8083D06EB0C00FFF7B8FECD
:1070C00000BB2978BDF81020022900F004816878FF
:1070D0009042C0F0FB809342C0F0F8800921FE2A64
:1070E0000FD82388501CF054238801339BB223808F
:1070F000F154238801331A442280002002E0082F33
:1071000023D80C2006B0BDE8F0870433BB42F8D882
:1071100004A8FFF78BFE0028F4D12388BDF81020C7
:107120000321F154238801339BB219212380F154A8
:10713000238801339BB2F1182380F254120A4A705B
:10714000238802339BB22380E2E604A8FFF76CFE9B
:107150000028D7D113880822CA54238801339BB250
:107160001B222380CA542088013080B2208006224E
:1071700008440DF1110128F0B4FB23889DF810207C
:1071800006339BB212F0FE0218BF01222380F25494
:10719000238801339BB22380B6E6D5F82880B8F166
:1071A000000F4CD1072006B0BDE8F08705F10808B4
:1071B0000222CDE90047404611463346FFF73CFE28
:1071C00000289FD1CDE900474046334610220621D2
:1071D000FFF732FE00283FF4CEAE93E705F110082A
:1071E000CDE900474046334602220321FFF724FE43
:1071F000002887D1CDE900474046334610220721B9
:10720000FFF71AFE00283FF4BAAE7BE705F1180835
:10721000CDE900474046334602221421FFF70CFE19
:1072200000287FF46FAFCDE9004740463346102277
:107230001521FFF701FE00283FF4A5AE62E7B8F87C
:1072400004200232FE2A3FF65CAF23884FF000098B
:107250004FF0160A0132F254238801339BB2238087
:1072600006F803A0238801339BB22380B8F80020DE
:10727000F2543344120A5A70238802339BB223809B
:10728000B8F80410F0180A4661B1D8F80830194669
:10729000002B87D028F025FBB8F80420238813445E
:1072A0009BB2238009F1010995F82C205FFA89F936
:1072B0004A4509EB49087FF6E6AEAA6A02EB880860
:1072C000B8F804200232FE2AC4D91AE7012906D0F0
:1072D0001A46082103E79342BFF400AFF8E7834260
:1072E000F6D302460821FAE6F8B130B44378934267
:1072F0001CD0B9B10024234601E0994212D9045DA3
:10730000013423449BB2C5181C466D789542F4D1D4
:10731000994207D9025D0233012A9BB202D0184478
:1073200030BC7047002030BC7047704700242346B3
:10733000EEE700BF75DF704776DF70477ADF704792
:107340007BDF704730B51D4B1A8884B2A24283B0F0
:1073500001D003B030BD1A4D187A297B88420FD373
:107360002A7C00211972E2B96B69002BF1D000224E
:10737000ADF806408DF8042001A8984703B030BD51
:10738000104603F10A01FFF7D5FF28B11128E0D01C
:10739000AB69002BF1D1DCE71A7A01321A7203B023
:1073A00030BD3B212046FFF7C7FF30F00803DBD09C
:1073B000AB69002BD8D09847D6E700BF943E002099
:1073C000783E0020F0B50288112A83B0034649D0E8
:1073D00036D9122A08D0502A04D16C4DC188EA89C6
:1073E000914251D003B0F0BD694C8288218891420E
:1073F000F8D1E1896589B1F5FA7F24BF6FF4F9709E
:107400000E18588938BF002685424FD8A589854275
:107410004CD39B89B34249D301F2F311994245D32E
:107420005A4B5B694FF480712181002BDAD0012126
:10743000ADF806208DF8041001A8984703B0F0BD00
:10744000102ACFD1C27B012ACCD1514C21884FF6D2
:10745000FF7291423CD04D4B9B69002BC2D004205F
:107460009847BFE74A4C828823889A42BAD160681D
:107470000CF04CFB18B1454B9B6903B198474FF694
:10748000FF73238003B0F0BD028A022AAAD1404CC8
:1074900086882788B742A5D1123000F031FA00283B
:1074A00056D160680CF032FB70B99BE7374D267AF5
:1074B0006068D5E90131002E08BF194600236372C8
:1074C0000CF0CEFA00288DD0AB69002BB5D189E73E
:1074D000304D8288228003CDC4F80E10E689C4F8AE
:1074E0000A00B6F5FA7F28BF6FF4F9754FF0000176
:1074F000588AB4F80AC0217228BF7119234D8445F7
:10750000EF8919D8B4F80CC0844515D39B8A8B42F7
:1075100012D306F2F3169E420ED301216172002FA0
:107520007FF460AF6B69002B3FF45CAF8DF8041003
:10753000ADF8062001A880E700236372002F7FF4D6
:1075400051AF606869680CF08BFA0028BCD149E73C
:10755000637A63B9D5E90131267A60683A46002E2C
:1075600008BF19460CF07CFA0028ADD13AE76B69E8
:1075700000222272002B3FF435AF0122ADF80660E5
:107580008DF8042001A898472CE700BF783E002022
:10759000943E0020A83E002000282FD0F8B50546D4
:1075A00006460FCD164F3C460FC4844695E80700AB
:1075B000144B3B6084E80700BCF1000F18D0604614
:1075C000FFF7BCFE98B932681068516803C30E4BD0
:1075D0000E490F4A18464FF6FF7440F8041F1C80EE
:1075E00000210CF02BFA002814BF03200020F8BD66
:1075F0001846FFF7A5FE0028E9D0F8BD0E20704719
:10760000783E0020A83E0020943E0020B03E00209E
:10761000457302002DE9F0470388B0F80490112B60
:1076200098B059D01A2B804647D0102B02D018B0F2
:10763000BDE8F087394A936818A8DB4340F8603DFD
:10764000516806F061FD009B0193019B63B3002725
:107650003C46214601A806F0E7FC28B118AB03EB35
:107660004703013723F8284C0134142CF1D10D972E
:107670000DAE0FCE02AC0FC40FCE0FC496E80700BC
:1076800084E8070087B10DF10A0A254E0AEB470787
:107690003AF8025F234C20462946043406F0BAFC2F
:1076A000A642F8D1BA45F3D1B9F1130F1BD9042082
:1076B0000FF0D4F818B0BDE8F087047A1A4824090E
:1076C000012C494620D906F08BFC022C494617486C
:1076D0001ED006F085FCAAE74946154806F09AFC3C
:1076E00018B0BDE8F0874946114806F079FC4946D4
:1076F0000C4806F075FC98F80F30012B97D04946DE
:107700000C4806F06DFC92E706F084FC07484946F9
:1077100006F080FC18B0BDE8F08700BFD03E002026
:10772000483F0020D43E0020E03E0020E43E002000
:10773000D83E0020DC3E0020132801D900207047ED
:107740000146014806F070BCD43E0020132801D940
:107750000020704710B501460446074806F064FC57
:1077600008B9002010BD2146044806F05DFC002841
:1077700014BF0220012010BDD43E0020DC3E0020BA
:10778000132801D90020704710B501460446074868
:1077900006F04AFC08B9002010BD2146044806F056
:1077A00043FC002814BF0220012010BDD43E00205D
:1077B000D83E0020132801D90020704710B501469B
:1077C0000446064806F030FC08B9002010BD2146EA
:1077D0000348BDE8104006F027BC00BFD43E00209F
:1077E000E03E0020132801D90020704710B5014663
:1077F0000446064806F018FC08B9002010BD2146D2
:107800000348BDE8104006F00FBC00BFD43E002086
:10781000E43E002008B51821024806F00FFCC0B273
:1078200008BD00BFD03E002070B50C4C0546204678
:107830000E4606F0F9FB08B1132D01D9002070BDEA
:107840002946201D06F0F0FB0028F7D0B01D04EB00
:1078500080002946BDE8704006F0E6BBD03E00201F
:10786000F8B50F4C0546204617460E4606F0DCFBE1
:1078700008B1132D00D9F8BD2946201D06F0D4FB10
:107880000028F8D0B01D04EB800029461FB9BDE8E0
:10789000F84006F0BFBBBDE8F84006F0A1BB00BF52
:1078A000D03E0020F0B5144C054683B00F4620466C
:1078B0002946164606F0B8FB18B90025284603B03D
:1078C000F0BD043504EB8504A3680193002FF4D0C8
:1078D000019B002BF1D000252C46214601A806F083
:1078E000A3FB314610B1A0B2B84701350134142CC6
:1078F000F3D1284603B0F0BDD03E0020AADF704788
:10790000007800F00100704738B5044608460D467F
:1079100028F0D4FB6560208038BD00BFF0B58B78BF
:1079200091B0002B0C460988ADF80C1008BF01235C
:10793000054616466846032200218DF80E3027F0D2
:10794000F4FF637C0022013B8DF80020042B09D852
:10795000DFE813F00500D300D700DB00CF001123D0
:107960008DF80030A37C0022013B8DF80120042B10
:1079700009D8DFE813F00500D200D600BA00CE0027
:1079800011238DF801309DF80230E77B227D207CA9
:10799000217B67F3C303002A60F3041314BF0222A0
:1079A000012261F3000362F3420309A81C220021B3
:1079B0008DF8023027F0B9FF637B13F0300F73D1DD
:1079C000627BA37B8DF824200021142204A88DF86B
:1079D000253027F0AAFFA368A288CDF814D003A908
:1079E0000491ADF81C201BB1E2880893ADF8182073
:1079F000A369002B36D001AF03220021384627F0BF
:107A000094FFA2691388ADF82C305388ADF82E305E
:107A100051680D97137B0A91013B00218DF80410EA
:107A2000042B2DD8DFE803F0299D8D9199001123B7
:107A30008DF80530917A9DF8063061F3C3038DF817
:107A40000630D17A61F304138DF80630117A927BF7
:107A5000002A61F3000314BF0222012262F34203F1
:107A60008DF80630E36903B10C93334604AA09A9E3
:107A70002846FFF743FF11B0F0BD11238DF8043005
:107A8000537B0021013B8DF80510042BD2D801A1B6
:107A900051F823F02F7A0200337B02003B7B020077
:107AA0002B7B0200537B0200032202A8002127F057
:107AB0003CFFE37C0022013B8DF80920042B07D812
:107AC000DFE803F0035F5B57530011238DF80930A3
:107AD0009DF80A3002AA0E92012262F3420311229B
:107AE0008DF80A308DF808206AE712238DF80130EE
:107AF00049E722238DF8003034E721238DF8003048
:107B000030E731238DF800302CE712238DF8003058
:107B100028E722238DF8013035E721238DF8013045
:107B200031E731238DF801302DE712238DF8053030
:107B300080E721238DF805307CE731238DF805306F
:107B400078E731238DF804309AE712238DF804305A
:107B500096E722238DF805306CE722238DF8043058
:107B60008EE721238DF804308AE722238DF809302F
:107B7000AEE712238DF80930AAE731238DF80930DA
:107B8000A6E721238DF80930A2E700BF90DF7047F8
:107B9000A5DF7047B5DF704770B5204B204CE41A65
:107BA000E4080646240484B00D460A4644F0040066
:107BB00033461C490AF064FE002330466A4602A997
:107BC000ADF80850ADF80A50ADF8043003930093B7
:107BD000FFF7DCFF054610B9284604B070BD0BF076
:107BE00089FC44F001040346324620460E490AF05F
:107BF00047FEBDF80020BDF8023002B91BB10B49A9
:107C000020460AF03DFEBDF80420002AE4D02046BC
:107C100007490AF0B5FD284604B070BD04BC050054
:107C20001CBD0500B40F0500E40F05003010050071
:107C300070100500C0B170B40346FB2281614FF0A3
:107C4000F7160020094D0A4C1A71172141F6FB3234
:107C50001E60C3F806509872D8729874D874DC60AD
:107C600019829A8270BC70470E207047F700170087
:107C7000FB1BF7002DE9F04F8488012C87B002D957
:107C800007B0BDE8F08F0388232B0D46064638D099
:107C900025D93A2B00F09580552B4ED0242B00F09F
:107CA000BD80E700EB199B7A002BE9D03D442046CC
:107CB000E988FFF76DFF0346002800F01D811128B9
:107CC000DED00BF017FCAB4AAB4BAC499B1ADB0880
:107CD0001B04024643F001000AF052FDD0E7102BCE
:107CE00000F0E080112BDCD101EBC404A44BC4F8FC
:107CF0000630FB2100231B2221736273A372E372FF
:107D0000BEE79C4B9C4896F808809E49C01AC00864
:107D1000E700000405EB070940F004004346224653
:107D20000AF0AEFD99F80C10B088414528BF4146D5
:107D3000FFF732FF99F80A30B6E78F4B8D4AB0F85B
:107D4000068091499E1AF608360446F0040AE700B8
:107D500005EB07095046434622460AF091FD42468C
:107D6000172AB9F80630009438BF17229A4228BF64
:107D70001A460021504689F80A10A9F808208349BC
:107D80000AF000FEB9F806102046FFF703FF0028AE
:107D900040F0A98099F80B30002BCBD1AB69002BB8
:107DA000C8D040F67721B9F80820ADF81010ADF82A
:107DB0001240ADF8142004A92846984799F80A30D3
:107DC00072E701EBC4077289FB88DFF8A8C16A4833
:107DD0006F499A4228BF1A46A0EB0C00172A4FEAB7
:107DE000D00038BF1722000423463A8140F0040037
:107DF0000AF046FDAB696BB1FA7A5AB140F67721C9
:107E00003A89ADF81010ADF812402846ADF81420AC
:107E100004A998470023FB72BB7231E7564B554AC1
:107E2000B0F808908189B0F80AB0B0F80EA00391BC
:107E30009E1AF608E700360405EB070846F004062C
:107E40005FFA89F22346534988F80D2030460AF03C
:107E500017FD5A46304650490AF092FC4A463046D1
:107E60004E490AF08DFC524630464D490AF088FCD6
:107E7000039A4C4930460AF083FCAB697BB1002081
:107E80004DF67A2198F80D20ADF81400ADF81010D9
:107E9000ADF812408DF8142004A92846984798F8A8
:107EA0000A3001E7E70001EB07080B7988F80C308E
:107EB000C37B012B13D0022B2ED0B8F80620B8F8C4
:107EC000083093422CD398F80C1098F80D308B4260
:107ED000E5D22046FFF760FE98F80A30E4E60A880B
:107EE000A8F80620EBE70BF005FB2F49024646F009
:107EF00001000AF045FC4DE71E4A1F48AB72801A8C
:107F0000C00801220004EA72234640F00400EA8817
:107F100026490AF0B5FCB3E64A88A8F80620CEE761
:107F2000144B154E2249F61AF608360446F0040999
:107F3000484623460AF0A4FCB8F806102046FFF78E
:107F400027FE18B9012388F80B30BCE7112808D0A8
:107F50000BF0D0FA0949024646F001000AF010FC85
:107F6000B1E70123484688F80A30224611490AF051
:107F700007FCA8E704BC05001CBD05005C1105005A
:107F8000F7001700F0120500CC11050008120500DB
:107F90009011050078120500A8120500BC1205001A
:107FA000D0120500E012050048120500301305004C
:107FB000C810050008110500B0DF704766DF704784
:107FC00060B159B10378DE2B0AD00B684360DE2222
:107FD0004FF6FF7302704380002070470E207047F9
:107FE0000820704738B10378DE2B02D14180002091
:107FF0007047082070470E20704700BF19B110B1BC
:108000000B78DE2B00D0704730B505464B88808852
:10801000984285B00C4606D02A88012A0DD0512AF4
:1080200020D005B030BD0B7A002B35D12B88112B19
:1080300048D0512B4DD0012BF3D12B7A012BF0D10D
:1080400062888242EDD123720021FFF7B7FF00283A
:108050004ED0112808BF2372E3D063689847E0E749
:108060006388A8888342DCD1AA79022AD9D1A97B66
:1080700001F0FD0004282ED00529D2D10020694648
:10808000C1E90200009048608DF800201846FFF713
:1080900093FF0028E1D1C4E70021FFF78FFF0346DB
:1080A000A8B1112812D0636898472B88112B05D0EE
:1080B000512BD5D0012BB4D1A888BEE7AA886388FC
:1080C0009A42AED14FF6FF736380AAE70123237271
:1080D000EBE70346C6E7694600204FF4C0754860E9
:1080E0000090C1E902008DF80020ADF80450CDE702
:1080F000207296E710B5C24B9A7C82B15A7C002A56
:1081000000F08481DC68A042C0F0A6811A7C0021C6
:108110005974002A00F099814FF4A02401E04FF037
:10812000FF3493F82620AAB193F82520002A00F006
:1081300050811A6A9042C0F0928193F82420002165
:1081400083F82510002A00F0D881B4F5A02F28BFAD
:108150004FF4A02493F83A20AAB193F83920002ACA
:1081600000F021815A6B9042C0F0828193F8382050
:10817000002183F83910002A00F0C281B4F5A02F45
:1081800028BF4FF4A02493F84E20AAB193F84D20B5
:10819000002A00F0F1809A6C9042C0F06F8193F851
:1081A0004C20002183F84D10002A00F0AC81B4F57A
:1081B000A02F28BF4FF4A02493F86220AAB193F80F
:1081C0006120002A00F0C180DA6D9042C0F07D810C
:1081D00093F86020002183F86110002A00F0878165
:1081E000B4F5A02F28BF4FF4A02493F87620AAB1AD
:1081F00093F87520002A00F091801A6F9042C0F029
:108200006D8193F87420002183F87510002A00F026
:108210007181B4F5A02F28BF4FF4A02493F88A20D1
:10822000002A56D093F88920002A39D0D3F8842028
:108230009042C0F0368193F88820002183F889109D
:10824000002A00F0638193F89E20B4F5A02F28BF88
:108250004FF4A024002A00F05C8193F89D20002AAE
:1082600042D0D3F898209042C0F0148193F89C201B
:10827000002183F89D10002A00F0EB800BF080FCB9
:10828000604BB4F5A02F28BF4FF4A02418602246FD
:1082900021465D480BF0E4FB002840F0C78010BD8C
:1082A00093F88810002900F00881D3F88020024458
:1082B000B2F5A02FC3F8802006D30139A2F5A02281
:1082C00083F88810C3F88020C2F5A022944228BF0A
:1082D000144693F89E20002ABFD10BF051FC494B65
:1082E0001860631CD3D110BD93F89C20002A00F0C5
:1082F000B080D3F894100844B0F5A02FC3F89400D0
:1083000006D3013AA0F5A02083F89C20C3F894007E
:10831000C0F5A020844228BF0446DEE793F874101D
:10832000002900F0E180DA6E0244B2F5A02FDA668F
:1083300005D30139A2F5A02283F87410DA66C2F5DC
:10834000A022944228BF144668E793F860100029E1
:1083500000F0C1809A6D0244B2F5A02F9A6505D352
:108360000139A2F5A02283F860109A65C2F5A02217
:10837000944228BF144638E793F84C10002900F0C7
:1083800083805A6C0244B2F5A02F5A6405D3013998
:10839000A2F5A02283F84C105A64C2F5A0229442A0
:1083A00028BF144608E793F8381000296FD01A6BDD
:1083B0000244B2F5A02F1A6305D30139A2F5A02219
:1083C00083F838101A63C2F5A022944228BF1446DD
:1083D000D9E693F82410002947D0DA690244B2F5AF
:1083E000A02FDA6105D30139A2F5A02283F8241069
:1083F000DA61C2F5A022944228BF1446AAE600BF63
:10840000483F002008400020E83F00201A7CE2B1ED
:108410009C680444B4F5A02F9C6004D3013AA4F5F1
:10842000A0241A749C60C4F5A0247AE60BF062F8CC
:108430003A4A3B4B3B499B1ADB081B040246BDE80A
:10844000104043F002000AF09BB99A744FF0FF34D9
:1084500067E683F89E2040E7241ADC6061E6121A82
:1084600094421A6228BF144674E683F8261071E617
:10847000121A94425A6328BF144684E6121A944290
:108480009A6428BF144697E683F84E1094E683F862
:108490003A1078E6121A9442C3F8982028BF14467E
:1084A0001BE7121A9442C3F8842028BF144693F89D
:1084B0009E20002A3FF411AFCFE693F89E2083F868
:1084C0008A10002A3FF409AFC7E6121A9442DA650F
:1084D00028BF144689E683F8621086E6121A944291
:1084E0001A6728BF144699E683F8761096E683F853
:1084F00062207AE683F8762090E683F8262029E643
:1085000083F83A203FE683F84E2055E683F88A2028
:10851000DFE60BF035FB044B1860B8E604BC050041
:1085200054BD05002C14050008400020024A0348F1
:1085300000210BF083BA00BFF58002004C14050047
:10854000F0B583B06946054601F0A2FD78B10AF0A6
:10855000D1FFC34CC34BC449E41AE40824040246C7
:108560002B4644F002000AF08BF903B0F0BDBF487F
:108570000BF0CCFA074670B10AF0BCFFB84BB94A11
:10858000BB499B1ADB081B04024643F002000AF0B9
:10859000F7F803B0F0BDB74EB74C0BF0F1FA316805
:1085A0000BF0F4FAA37C002B40F017814FF0FF355D
:1085B00094F82630D3B194F82530002B40F0E582B2
:1085C00094F82420002A00F08D83E3690344B3F576
:1085D000A02FE36105D3013AA3F5A02384F824205A
:1085E000E361C3F5A0239D4228BF1D4694F83A30AD
:1085F000D3B194F83930002B40F0E58294F838205C
:10860000002A00F06C83236B0344B3F5A02F23638F
:1086100005D3013AA3F5A02384F838202363C3F5DA
:10862000A0239D4228BF1D4694F84E30D3B194F844
:108630004D30002B40F0EE8294F84C20002A00F0E0
:108640007683636C0344B3F5A02F636405D3013ACA
:10865000A3F5A02384F84C206364C3F5A0239D42B6
:1086600028BF1D4694F86230D3B194F86130002BD6
:1086700040F0E18294F86020002A00F05583A36D59
:108680000344B3F5A02FA36505D3013AA3F5A023B6
:1086900084F86020A365C3F5A0239D4228BF1D4632
:1086A00094F87630D3B194F87530002B40F0D48232
:1086B00094F87420002A00F03483E36E0344B3F589
:1086C000A02FE36605D3013AA3F5A02384F8742014
:1086D000E366C3F5A0239D4228BF1D4694F88A3067
:1086E000EBB194F88930002B40F0C78294F88820D1
:1086F000002A00F01383D4F880300344B3F5A02F90
:10870000C4F8803006D3013AA3F5A02384F888206A
:10871000C4F88030C3F5A0239D4228BF1D4694F8BD
:108720009E30B3B194F89D30002B00F0B782D4F89E
:1087300098309842C0F0FE8294F89C30002284F871
:108740009D20002B00F0C882B5F5A02F28BF4FF464
:10875000A0250BF015FAA77C3060002F53D101271C
:10876000002694F82630002B40F0AF81012694F8C3
:108770003A30002B40F07981022694F84E30002BDD
:1087800040F04381032694F86230002B40F00D81C5
:10879000042694F87630002B40F0D780052694F814
:1087A0008A30002B6ED1062694F89E30002B40F0C4
:1087B000BC81002F40F0D2816B1C3FF4D6AE2A461C
:1087C00029462A480BF04CF900283FF4CEAE0AF0B7
:1087D00091FE234B234A2949D3E6637C002B40F0CA
:1087E000E681237C002B00F07382A5680544B5F573
:1087F000A02FA56004D3013BA5F5A0252374A56097
:10880000C5F5A025D4E606221D490DF1010027F08B
:1088100059F8002840F05A82267C4FF47A6202FA16
:1088200006F3B3F57A4F03DA0136F6B202FA06F32D
:108830004FF400424FF4FA7000210027C2FB0301FD
:10884000267400234FF47A72A76028F01BFA0123E4
:108850008542E06028BF05466374082681E700BFB3
:1088600054BD050004BC050094130500E83F00203A
:10887000E413050008400020483F00202C140500A8
:10888000493F00200DF101000622D84927F01AF8CF
:10889000002889D194F888304FF47A6101FA03F204
:1088A000B2F57A4F03DA0133DBB201FA03F24FF487
:1088B00000464FF4FA700021C6FB0201002684F83E
:1088C00088304FF47A720023C4F8806028F0DAF917
:1088D00094F89E30C4F884000122854228BF0546E2
:1088E00084F88920002B3FF467AF0DF101000622C8
:1088F000BF4926F0E7FF00287FF45EAF94F89C3074
:108900004FF47A6101FA03F2B2F57A4F03DA0133D8
:10891000DBB201FA03F24FF400464FF4FA70002183
:10892000C6FB0201002684F89C304FF47A720023C3
:10893000C4F8946028F0A6F901238542C4F8980091
:1089400028BF054684F89D3036E70622A9490DF177
:10895000010026F0B7FF00287FF421AF94F874C01F
:108960004FF47A6202FA0CF3B3F57A4F05DA0CF1A0
:10897000010C5FFA8CFC02FA0CF34FF400424FF446
:10898000FA7000210027C2FB030184F874C00023A1
:108990004FF47A72E76628F075F901238542206763
:1089A00028BF054684F87530F9E6062292490DF194
:1089B000010026F087FF00287FF4EBAE94F860C03A
:1089C0004FF47A6202FA0CF3B3F57A4F05DA0CF140
:1089D000010C5FFA8CFC02FA0CF34FF400424FF4E6
:1089E000FA7000210027C2FB030184F860C0002355
:1089F0004FF47A72A76528F045F901238542E065B6
:108A000028BF054684F86130C3E606227B490DF194
:108A1000010026F057FF00287FF4B5AE94F84CC053
:108A20004FF47A6202FA0CF3B3F57A4F05DA0CF1DF
:108A3000010C5FFA8CFC02FA0CF34FF400424FF485
:108A4000FA7000210027C2FB030184F84CC0002308
:108A50004FF47A72676428F015F901238542A06407
:108A600028BF054684F84D308DE6062264490DF195
:108A7000010026F027FF00287FF47FAE94F838C06D
:108A80004FF47A6202FA0CF3B3F57A4F05DA0CF17F
:108A9000010C5FFA8CFC02FA0CF34FF400424FF425
:108AA000FA7000210027C2FB030184F838C00023BC
:108AB0004FF47A72276328F0E5F80123854260635A
:108AC00028BF054684F8393057E606224D490DF196
:108AD000010026F0F7FE00287FF449AE94F824C088
:108AE0004FF47A6202FA0CF3B3F57A4F05DA0CF11F
:108AF000010C5FFA8CFC02FA0CF34FF400424FF4C5
:108B0000FA7000210027C2FB030184F824C000236F
:108B10004FF47A72E76128F0B5F8012385422062AC
:108B200028BF054684F8253021E6062230490DF19C
:108B3000010026F0C7FE00283FF4E0AE002F3FF40E
:108B40003BAE082E0BD1304B30483149C01AC0081B
:108B5000000440F0020009F065FC2DE6072606EB54
:108B6000860604EB860469460722204626F0B9FEF5
:108B70004FF40031002201238D4228BF0D46E160F1
:108B80002274A2606374A37419E6236A9842C0F049
:108B9000D88094F82430002284F82520002B00F09F
:108BA000DF80B5F5A02F28BF4FF4A0251EE5E568AE
:108BB000A842C0F0D280237C6774002B00F088802C
:108BC0004FF4A025F4E4636B9842C0F0C08094F8A1
:108BD0003830002284F83920002B00F0C480B5F52D
:108BE000A02F28BF4FF4A0251EE500BFC13F0020E5
:108BF000D53F0020AD3F0020993F0020853F002059
:108C0000713F00205D3F002004BC050054BD0500FD
:108C100004140500A36C98427AD394F84C300022D7
:108C200084F84D20002B00F0AA80B5F5A02F28BFB6
:108C30004FF4A02516E5E36D984263D394F86030B5
:108C4000002284F86120002B00F09680B5F5A02F5B
:108C500028BF4FF4A02523E5236F98424CD394F806
:108C60007430002284F87520002B00F08280B5F566
:108C7000A02F28BF4FF4A02530E5D4F884309842C7
:108C800033D394F88830002284F88920002B6DD0EB
:108C9000B5F5A02F28BF4FF4A02540E594F89C30EF
:108CA000D3B1D4F894201044B0F5A02FC4F89400A8
:108CB00006D3013BA0F5A02084F89C30C4F89400B2
:108CC000C0F5A020854228BF054642E5082648E5B4
:108CD000A3744FF0FF356BE484F89E3039E584F8D7
:108CE0003A20A1E484F8262080E41B1A9D42C4F8AF
:108CF000843028BF1D4612E51B1A9D42236728BFFA
:108D00001D46EBE41B1A9D42E36528BF1D46C7E4E0
:108D10001B1A9D42A36428BF1D46A3E484F88A2041
:108D2000FDE484F87620D9E484F86220B8E484F87D
:108D30004E2097E41B1A9D42C4F8983028BF1D4668
:108D400007E51B1A9D42236228BF1D464EE41B1AED
:108D50009D42636328BF1D4666E42D1AE56027E443
:108D600084F8263042E484F83A305DE484F88A30AE
:108D7000D5E484F87630B1E484F8623090E484F885
:108D80004E306FE430B583B06946054601F080F996
:108D9000002840F09D80574CA37CEBB994F8263016
:108DA0004BBB94F83A30002B35D194F84E30002B61
:108DB00041D194F86230002B4DD194F87630002BDD
:108DC00059D194F88A30002B65D194F89E30002B4D
:108DD00071D1002003B030BD0622611C0DF10100ED
:108DE00026F070FD0028D9D1607C0028F2D194F8DB
:108DF0002630002BD5D006223F490DF1010026F088
:108E000061FD0028CDD194F825000028E2D194F826
:108E10003A30002BC9D0062238490DF1010026F066
:108E200051FD0028C1D194F839000028D2D194F81E
:108E30004E30002BBDD0062231490DF1010026F045
:108E400041FD0028B5D194F84D000028C2D194F816
:108E50006230002BB1D006222A490DF1010026F024
:108E600031FD0028A9D194F861000028B2D194F80E
:108E70007630002BA5D0062223490DF1010026F003
:108E800021FD00289DD194F875000028A2D194F806
:108E90008A30002B99D006221C490DF1010026F0E2
:108EA00011FD002891D194F88900002892D194F8FE
:108EB0009E30002B8DD0062215490DF1010026F0C1
:108EC00001FD002885D194F89D00002881D081E71C
:108ED0000AF010FB0F4C104B1049E41AE40824046C
:108EE00002462B4644F0020009F0CAFC012003B000
:108EF00030BD00BF483F00205D3F0020713F002093
:108F0000853F0020993F0020AD3F0020C13F002059
:108F1000D53F002054BD050004BC05009413050096
:108F2000A0DF7047A1DF7047ADDF7047B3DF704748
:108F300030B583B0044604220021684626F0F5FCD3
:108F40000C4B02AA1B6842F8043D42F6A6250123F9
:108F500069462046ADF800508DF80230FFF7E0FF7B
:108F600028B905491A4620460978FEF779FC03B06E
:108F700030BD00BF641405001040002070B5012111
:108F800086B005463A4805F09DF8BFF35F8F08B1FB
:108F900006B070BD0446284600F0BAFD112806460A
:108FA0005FD012D986283CD043F20203984214D1F4
:108FB000304B224628461978FEF752FCBFF35F8FEC
:108FC0002B4B00221A6006B070BD30B9294B024607
:108FD00019782846FEF744FCDAE730460AF08AFAA8
:108FE000254C264B2649E41AE408240402462B4665
:108FF00044F0010009F044FC002407232846CDE991
:1090000000440296ADF80250CDE9034405948DF872
:10901000003001F027F8ADF80400684603F00AFAC2
:10902000C6E7164B144817490094C01AC00800043C
:1090300006232A4640F002008DF80030ADF80250B9
:10904000CDE90144CDE90344059409F099FBBDF84D
:10905000020001F007F8ADF80400684603F0EAF9F1
:10906000A6E7044B284619780122FEF7F9FBA5E78D
:109070000C400020144000205CBD050004BC05002D
:10908000A81405007014050070B54FF6FF728CB07F
:1090900000249042CDE90044CDE90244CDE90444E6
:1090A000ADF8020001D10CB070BD054600F09AFD8C
:1090B0000B28064644D00FD911280BD043F20203E7
:1090C000984218D122462B4B28461978FEF7C8FB48
:1090D0000CB070BD0122F6E768B90E23BDF802009E
:1090E0008DF8003000F0BEFFADF80400684603F0D4
:1090F000A1F93246E7E730460AF0FCF91E4C1F4B57
:109100001F49E41AE408240402462B4644F00100F7
:1091100009F0B6FB002407232846CDE9064408964B
:109120008DF81830ADF81A50CDE909440B9400F0D1
:1091300099FFADF81C0006A803F07CF92246C2E7AF
:109140000E4B0D480F49C01AC00800040F232A46D1
:1091500040F002008DF8003009F012FBBDF802006B
:1091600000F080FFADF80400684603F063F9224682
:10917000A9E700BF134000205CBD050004BC05004A
:109180008C1605000C1605002DE9F04F5B4E89B0DA
:1091900031780446FEF748FB10B109B0BDE8F08F06
:1091A0000546204600F08AFD0828074651D017D80A
:1091B00000287BD006281DD1204600F053FF00F088
:1091C000ABFD00274E4B3A4619782046FEF748FB88
:1091D0002A4631782046FEF743FB09B0BDE8F08F00
:1091E00043F2020398422DD043F2014398422BD020
:1091F000112827D038460AF07DF9424B424A4349AC
:10920000A3EB020C4FEADC0C4FEA0C4C024623465F
:109210004CF0010009F034FB002307222046CDE981
:1092200002330497CDE9053307938DF80820ADF894
:109230000A4000F017FFADF80C0002A803F0FAF89E
:109240000127BFE70127BDE72046FFF71DFF0127E4
:10925000B8E701A8FFF76AFEBDF80430012BABD9CF
:109260002F4601230DF106094FF0020842F6021BBA
:1092700042F6052A07E05A452ED00133BDF80420F6
:109280009BB29A4298D902AA19462046CDE9028992
:10929000FFF74AFE00288FD1BDF80620002FEAD143
:1092A000A2EB0A07B7FA87F77F09E6E71023204603
:1092B000CDE90255CDE90455CDE906558DF80830C4
:1092C000ADF80A4000F0CEFE0125ADF80C0002A872
:1092D00003F0B0F82F4675E7013399B202AA0DF1F9
:1092E000020320460393FFF71FFE00287FF464AFBC
:1092F000BDF80230002B3FF45FAF63E7164000205B
:10930000154000205CBD050004BC0500E01605000A
:1093100070B54FF6FF728CB000249042CDE9004446
:10932000CDE90244CDE90444ADF8020001D10CB00E
:1093300070BD054600F056FC0B28064644D00FD9F8
:1093400011280BD043F20203984218D122462B4B2E
:1093500028461978FEF784FA0CB070BD0122F6E7B2
:1093600068B90E23BDF802008DF8003000F07AFED7
:10937000ADF80400684603F05DF83246E7E7304692
:109380000AF0B8F81E4C1F4B1F49E41AE4082404E5
:1093900002462B4644F0010009F072FA002407232C
:1093A0002846CDE9064408968DF81830ADF81A50D5
:1093B000CDE909440B9400F055FEADF81C0006A859
:1093C00003F038F82246C2E70E4B0D480F49C01A89
:1093D000C00800040F232A4640F002008DF8003038
:1093E00009F0CEF9BDF8020000F03CFEADF8040033
:1093F000684603F01FF82246A9E700BF134000208B
:109400005CBD050004BC05008C1605000C160500AB
:109410002DE9F04104788CB014B10CB0BDE8F081B6
:10942000468800944FF6FF739E420546ADF80260F1
:10943000CDE90144CDE90344059426D106AF304679
:1094400000F026FC28B1494B304619780122FEF77E
:1094500007FA6C88204600F005FE3A4600230921F1
:1094600001F0A4FA052826D0414B42491878002281
:10947000FEF718FA02460028CFD13F4B3F49187833
:10948000FEF710FA0CB0BDE8F081304600F0AAFB00
:109490000B28804650D015D911284AD043F2020338
:1094A00098421FD1224606AF354B30461978FEF759
:1094B000D7F96E88C3E7304B204619780122FEF7B2
:1094C000CFF9D1E770B90E23BDF802008DF8003056
:1094D00000F0C8FDADF80400684602F0ABFF06AF2F
:1094E0004246E1E740460AF005F8264C264B27495C
:1094F000E41AE4082404024606AF44F001003346AF
:1095000009F0BEF90024072330460694CDF82080E8
:109510008DF818307C60ADF81A60C7E903447C61AF
:1095200000F0A0FDADF81C00384602F083FF224693
:10953000BAE7012206AFB7E7134B12481449C01A25
:10954000C00800040F23324640F002008DF80030BE
:1095500009F016F9BDF8020000F084FDADF8040032
:10956000684602F067FF06AF22469DE715400020DF
:10957000144000207D8F020011400020318F020036
:10958000134000205CBD050004BC05008C160500DE
:109590000C160500F0B50378082B83B00ED0304CC4
:1095A000207830490022FEF77DF9024620B92E4B83
:1095B0002E491878FEF776F903B0F0BD457A0446D7
:1095C000002DECD1067A072E22D0082E3ED0012E97
:1095D000E5D16A463146808801F0A4FD05460028A1
:1095E000DDD1019B1B78002BD9D0A08800F008FEAC
:1095F0004FF6FF739842D2D01D4F194C397832463E
:10960000FEF72EF92A4638781A49FEF74BF9C7E7D4
:109610008088134C00F0F4FD4FF6FF739842064625
:10962000BED001222178FEF71BF9304600F01AFD6A
:109630002B466A46092101F0B9F90528B0D10A4B39
:10964000304619780122FEF70BF9A9E70A4B1A6890
:10965000012AA4D1BFF35F8F014C1D60A0E700BFBA
:10966000144000207D8F020011400020318F020045
:1096700015400020899102000C4000202DE9F8439C
:10968000FEF7C8F8234C244D2070FEF7C3F828706D
:10969000FEF7C0F8214E224F3070FEF7BBF838704D
:1096A000FEF7B8F8DFF89080DFF8909088F80000B7
:1096B000FEF7B0F889F80000FEF7ACF82378194AF5
:1096C000182B107019D02B78182B16D03378182B34
:1096D00013D03B78182B10D098F80030182B0CD0F2
:1096E00099F80030182B08D0182806D00E4B00200F
:1096F0001860BFF35F8FBDE8F8830C4B0C480D4931
:10970000C01AC008000440F0010008F08BFE0320DE
:10971000BDE8F883144000201340002015400020CD
:1097200016400020124000200C40002004BC050020
:109730005CBD05009C150500114000201040002074
:1097400070B503888588353B86B004461F2B28D822
:10975000DFE813F05E00B90027002700270027008C
:1097600027002700270027002700270027002700C1
:1097700027002700270027002700270027002700B1
:109780002700270027002700270020002700EA00E5
:1097900027003500037B012B03D1827A012A00F0D8
:1097A000D3808F4C8F4B904918780022FEF77AF8BF
:1097B00020788E490022FEF775F806B070BD0026AD
:1097C00011232846CDE90066CDE902668DF8003008
:1097D000ADF80250CDE9046600F044FCADF8040099
:1097E00000F09AFA824B7E4C197832462846FEF7F2
:1097F00037F8324628462178FEF732F8BDF80200E5
:1098000000F030FCADF80400684602F013FEC9E732
:10981000784E28463178FEF707F80028C1D000229C
:1098200031782846FEF71CF8E288B2F5857F1ED015
:10983000002A40F0A4806289012A09D06E486F4B4B
:109840006F49C01AC008000440F0020008F098FFF9
:10985000A389012B00F0B480684A67486949801ADF
:10986000C00800041A4640F0020008F089FF664B69
:10987000002401201978ADF800000923284622466B
:10988000CDF80240ADF806408DF80230FDF7E8FF54
:109890005E4B2846019300F0E5FB0022694601F08B
:1098A00001F900283FF47DAF09F024FE534A524BE2
:1098B00057494B4C9B1ADB081B04024643F002003D
:1098C00008F05EFF6EE7534E28463178FDF7ACFF97
:1098D00000283FF466AF002231782846FDF7C0FF2C
:1098E000E28832BBE689012E54D04348434B4549B8
:1098F000C01AC0080004324640F0020008F040FFE1
:1099000041490023CDF802301A46ADF8063028460A
:10991000092309788DF802300124ADF80040FDF7E5
:109920009FFF3A4B2846B5E72846FFF7ADFB2C4C86
:1099300038E7324B30483849C01AC008000440F0BC
:10994000020008F01DFFDBE7018942F6021399428D
:109950007FF427AF314C28462178FDF781FF0022A4
:1099600020782F49FDF79EFF024600287FF419AFAB
:10997000254B2C4918781A4CFDF794FF12E71F4B22
:109980001D482549C01AC008000440F0020008F034
:10999000F7FE6CE71C4BCDF802201978247CADF85B
:1099A0000620092328468DF80230ADF80060FDF747
:1099B00057FF1D4B154A2846002C08BF134669E780
:1099C000E18900222846FFF7ADFA00287FF44FAF67
:1099D000104A034C117828461A46FDF741FFE1E68C
:1099E00015400020134000201193020089910200CD
:1099F00016400020104000205CBD050004BC05009E
:109A000024150500601505001140002068140500AC
:109A10002017050012400020E81405001440002023
:109A20007D8F0200318F02006C140500AFDF70479C
:109A3000B1DF7047B2DF7047B3DF7047F0B5254B39
:109A4000254C93E80300238889B04FF6FF756E46D6
:109A5000AB4286E8030007D137E0208801F096F892
:109A6000A8420346208030D018460022314601F03B
:109A700019F807460028F0D0002322881128CDE9E4
:109A80000233CDE90433CDE90633ADF80C201CD008
:109A900086281CD009F02EFD104D114A238811494B
:109AA000541BE4082404024644F0010008F0E8FED8
:109AB000BDF80C00049707238DF8083000F0A0FBD8
:109AC000ADF80A0002A802F0C9FC09B0F0BD1046CA
:109AD0000623F1E7941705001840002004BC050098
:109AE00064BD0500F0180500044B1A884FF6FF739B
:109AF0009A4201D0FFF7A2BF704700BF1840002074
:109B0000024B4FF6FF721A80002070471840002069
:109B10002DE9F04782B0804600F0A4FA4FF6FF73BB
:109B2000984253D02C4F2D4BDFF8B4A0FF1AFF08FA
:109B30003F04064647F0010701224FF003096B4638
:109B400008213046541C01F0F1FAA4B20546032363
:109B500058BB019A4046911D42F8049BFFF76AFFEB
:109B60000821034648B30C2B304614D101F05EFCAB
:109B700008B92246E3E7012509F0BCFC324603465A
:109B80005146384608F07CFE002DF2D103252846C8
:109B900002B0BDE8F0870821052B18BF1D4601F073
:109BA00045FC0028F3D00025E6E7072814BF05464A
:109BB0000C25284602B0BDE8F0873246304601F059
:109BC000D1FC0546284602B0BDE8F08743F2020505
:109BD000284602B0BDE8F08764BD050004BC05005E
:109BE0001C1805002DE9F04383B0804600F03AFAD6
:109BF0004FF6FF73984229D100273E4603254FF0C8
:109C000001092B463A4631464046FFF711FF04282A
:109C100004460BD008280BD00B280BD0B9F1000F4D
:109C200008BF0B24204603B0BDE8F0831124F5E7FC
:109C30000024F3E715F0020506D196B12F462E4613
:109C400003254FF00009DCE70125FAE76A46082101
:109C500001F068FA0028CFD1019EB7883568063632
:109C6000CDE717B137460325EBE7064B0648074912
:109C7000C01AC0080004424640F0010008F080FD10
:109C8000D0E700BF04BC050064BD0500A4170500B3
:109C900000B585B00DF10703039300F0E3F902AAC4
:109CA000012101F03FFA20B9039B187805B05DF857
:109CB00004FB002005B05DF804FB00BF38B5124B73
:109CC00004461846FFF7B8FE78B9198843F2030531
:109CD0004FF6FF722046FFF7A9FEA84200D038BD1C
:109CE0001988013189B21980F2E709F003FC074AAB
:109CF000074B08499B1ADB081B04024643F001008E
:109D000008F03EFD032038BD1A40002004BC0500C9
:109D100064BD05009C18050010B5074B044693E888
:109D2000030082B06B4683E80300002219462046F8
:109D300000F0B8FE02B010BD9C17050046DF70476A
:109D40000388102B00D0704770B5041D0FCC9EB057
:109D500007AD0FC50FCC0FC594E807009DF8203064
:109D600003F0FE03062B85E8070014D1BDF81C3074
:109D70006B49089803EB83035B004FF6FF74CC52EA
:109D8000CA18BDF824409DF826101172C2F80200CE
:109D9000D4801EB070BD00F04FFE9DF820305B08EF
:109DA000012B13D9022BE1D105AD0DF1060405E01D
:109DB0009DF8203003F0FE03042B4CD02A462146A8
:109DC000072000F041FE0028F2D1CFE705AD0DF1EC
:109DD00006042A462146072000F036FE0028C5D09A
:109DE000069911F1110FF4D09DF820304A7C5340B0
:109DF00013F0FE0FEDD1123106220DF1210025F0F6
:109E000061FD0028E5D1BDF81C20454DBDF80610C8
:109E1000089802EB82035B00EC18E952A31CC4F81B
:109E20000200BDF8240098804FF6FF709DF8264090
:109E30009C718142ADD01EAC002304F8303D204619
:109E4000ADF84A20ADF84C1002F01CFB2046FFF79D
:109E5000DFFA1EB070BD069E03220DF1210102A89B
:109E600025F03FFD032209A904A825F03AFD337C23
:109E70008DF84830F37B8DF84930B37B8DF84A304C
:109E8000737B8DF84B30337B8DF84C30F37A8DF843
:109E90004D30B37A8DF84E30737A8DF84F30337A77
:109EA0008DF85030F3798DF85130B3798DF8523008
:109EB00073798DF8533033798DF85430F3788DF809
:109EC0005530B3788DF8563073788DF857300D22B1
:109ED000002116A825F029FD9DF810109DF81120ED
:109EE0009DF812308DF8671012A88DF866208DF855
:109EF0006530FFF723FF9DF877209DF876609DF889
:109F000075308DF80C2003A9032202A88DF80D608E
:109F10008DF80E3025F0D6FC00287FF44FAF72E7A5
:109F20001C400020F8B5102204460D4601300131D6
:109F300004F1110625F0C6FC00284DD16378F3B971
:109F4000A378E3B9E378D3B92379C3B96379B3B913
:109F5000A379A3B9E37993B9237A83B9637A73B9FF
:109F6000A37A63B9E37A53B9237B43B9637B33B9EB
:109F7000A37B23B9E37B13B9277C002F2DD06B780B
:109F8000002B4DD1AB78002B4AD1EB78002B47D179
:109F90002B79002B44D16B79002B41D1AB79002B6D
:109FA0003ED1EB79002B3BD12B7A002B38D16B7A49
:109FB000002B35D1AB7A002B32D1EB7A83BB2B7BD4
:109FC00073BB6B7B63BBAB7B53BBEB7B43BB2F7C1C
:109FD000003718BF012700E00027637C46B115F168
:109FE000110605D06A7C5A4012F0FE0F0CD00026F4
:109FF00003F0FC03042B05D06B7C03F0FC03042B63
:10A0000018BF37463846F8BD062205F1120104F1A3
:10A01000120025F057FCB0FA80F67609637CE7E77A
:10A020000127DAE730B585B005460C4600F004FD9F
:10A0300003E0BDF80630A3420BD102AA0DF10601E0
:10A04000072000F001FD0028F3D14FF6FF7005B0A6
:10A0500030BD03992846FFF765FF0028EDD0BDF815
:10A060000600F4E713280DD810B50446FDF764FB8D
:10A0700028B104EB8403054A32F8130010BD4FF6F3
:10A08000FF7010BD4FF6FF70704700BF1C400020EE
:10A09000132816D838B504460D46FDF74DFB68B1B8
:10A0A000094A04EB840302EB4303002053F8022F18
:10A0B0002A609A889B79AA80AB7138BD43F202006E
:10A0C00038BD43F2020070471C40002008B50288EA
:10A0D0007AB983786BB9C3785BB903794BB94379A3
:10A0E0003BB983792BB9C3791BB9037A0BB9437A8E
:10A0F00013B10B88934201D0002008BD0231082221
:10A10000023025F0DFFBB0FA80F0400908BD00BF47
:10A1100030B585B00446851C00F08EFC02AA0DF116
:10A120000601072000F090FC00285AD023880399EC
:10A13000002B35D1A278002A57D1E378002B49D1E2
:10A140002279002A46D16279002A43D1A279002AD5
:10A1500040D1E279002A3DD1227A002A3AD1627AAE
:10A16000002A37D12379002B2FD1627952B9A379F4
:10A17000002B2AD1E2792AB9237A002B3AD1627ACC
:10A18000002ACBD04A8D9A42C8D12C3108222846C9
:10A1900025F098FB0028C1D1BDF8060005B030BD00
:10A1A000B1F846209A42EDD148310822284625F0E0
:10A1B00089FB0028F0D023880399002BE2D1A278F4
:10A1C000002ADFD1E378002BCCD04A8D00239A42BD
:10A1D000A4D1DAE7B1F84620002AE5D0002BC1D09F
:10A1E000F3E74FF6FF7005B030BDB1F84620002A06
:10A1F000DAD0C7E713464A8D9A428FD1C5E700BF30
:10A20000F8B54FF6FF73984214D007460B4D002463
:10A2100001E0142C0ED02B88BB42A6B205F10A0532
:10A2200004F10104F5D13046FDF786FA0028F0D09C
:10A230003046F8BD4FF6FF763046F8BD1C40002092
:10A24000038893B9837883B9C37873B9037963B901
:10A25000437953B9837943B9C37933B9037A23B9BD
:10A26000407A003018BF012070470120704700BFBE
:10A27000132804D800EB8000014B23F8101070471E
:10A280001C400020F8B54FF6FF73984203D1BDE89B
:10A29000F84000F06BBE114F064600243D4602E038
:10A2A0000134142C14D02B88B342A0B205F10A0556
:10A2B000F6D1FDF741FA0028F2D0304600F056FE04
:10A2C00028B904EB84044FF6FF7327F81430F8BD67
:10A2D0003046BDE8F84000F049BE00BF1C400020F9
:10A2E00081DF704784DF7047F0B5294B83B093F866
:10A2F000812340260196002A46D193F80537002B8A
:10A3000042D12448244C254A254F26491370241A4B
:10A31000E408240444F004003B7008F083F8224B66
:10A32000224A2349234805F011FB054698B901AAA2
:10A3300021491D4805F0ACFB0546A8B91E4A1C483A
:10A340003346114605F0C6FB0546B0B90123284641
:10A350003B7003B0F0BD44F001002A46174908F0F5
:10A360000FFA284603B0F0BD44F001002A46144914
:10A3700008F006FA284603B0F0BD44F001002A4672
:10A38000104908F0FDF9ECE71125284603B0F0BDAF
:10A390005448002004BC050024BD05000C480020E2
:10A3A000E8470020EC190500945200205C4F002083
:10A3B000382B05009C44002014480020041A050096
:10A3C0003C1A0500741A050038B54FF4E16200210B
:10A3D000184825F0AAFA08F03DFE174B174A9B1AB9
:10A3E000DB081C04E8B905F005FD054688B944F012
:10A3F00004042046124908F015F82046114908F0D7
:10A4000011F8114B114A1D701570BDE83840FFF767
:10A410006BBF44F001002A460D4908F0B1F9284607
:10A4200038BD05462A4644F001000A4908F0A8F95B
:10A43000284638BD5448002024BD050004BC050052
:10A44000B8190500D0190500E8470020E4400020B5
:10A45000901905006C19050010B5084B1C780CB15B
:10A46000074810BD074B08480849C01AC008000437
:10A4700040F0010007F0D6FF204610BDE84700205D
:10A480001448002004BC050024BD05003C1B050049
:10A49000534B1B78002B74D12DE9F041514B52489E
:10A4A000524DC01AC00895F88033000484B040F0C3
:10A4B000020640F003043BB995F80437002B33D172
:10A4C000002004B0BDE8F081494B1B784FF0200814
:10A4D000CDF80C80002B57D095F881334BB103ABEE
:10A4E00000934449444B45482A4605F02FFB002879
:10A4F00057D04349304607F095FF20213E4805F0EC
:10A50000B1FC002855D100223E49204608F038F918
:10A5100039490020FFF7E4FE002385F8803385F8F1
:10A5200081330028C8D0CCE7314B1B782027039714
:10A530004BB395F805374BB103AB0093324A2E4B22
:10A540002C492E4805F002FB00283FD030462C490C
:10A5500007F068FF2021284805F084FC00283DD141
:10A5600020460122274908F00BF923490120FFF773
:10A57000B7FE002385F8043785F8053700289FD0FB
:10A580009FE70320704701234FF4617202FB0355DC
:10A590000320002385F8803385F8813304B0BDE8BB
:10A5A000F081154A19484346114605F093FA0028F0
:10A5B000A9D000234FF4617202FB0355002385F8F4
:10A5C000803385F8813304B0BDE8F0810A4A0F4832
:10A5D0003B46114605F07EFA0028C1D00123E9E789
:10A5E000E440002004BC050024BD050054480020C0
:10A5F000E84700205C4F0020EC470020104100207D
:10A60000801B0500B41B0500D84B0020382B05002B
:10A610002DE9F04103888688112B90B032D0182B99
:10A620002DD1374B374D3849ED1AED0804462D042E
:10A6300045F0040007F0F6FE237BDB073BD4A1685E
:10A6400032486A46402305F045FA044638BBDFF835
:10A65000C0802E484FF4617707FB06876A4639466B
:10A66000402305F0F3F9002841D1012387F8813315
:10A670004FF4617000FB0680012380F8803310B036
:10A68000BDE8F081224B4FF4617000FB06300023DF
:10A6900080F8813380F8803310B0BDE8F081024645
:10A6A0001C4945F0010008F06BF81B4B01221A70A1
:10A6B00010B0BDE8F081194B194A1B781268194F88
:10A6C000002B08BF002712B130469047024639469A
:10A6D0003046FFF707FE0028B1D00246124945F088
:10A6E000010008F04DF80C4B01221A70A7E7024652
:10A6F0000E4945F0010008F043F887F88143B7E7B9
:10A7000004BC050024BD0500AC1A0500382B05006B
:10A7100054480020741A0500E44000200C48002032
:10A7200010480020E8400020CC1A0500001B05005E
:10A73000F0B500238DB02A4F1946082201A83B70BE
:10A7400025F0F3F84FF6FF7001F02AF84FF6FF7688
:10A75000B0421BD0044607E000F0C6FF204601F0DF
:10A760001FF8B042044611D0A4F58045ADB228468A
:10A7700001AA03A906F07EFE0A282046ECD028464E
:10A7800006F024FD0828054602D02DB90DB0F0BD15
:10A7900001233B700DB0F0BD124B13481349C01A92
:10A7A000C008000423462A4640F0010008F068F87B
:10A7B0000726002301214FF6FF7206A8CDE90633D4
:10A7C000CDE9093308950B93ADF81C408DF818605E
:10A7D0008DF82410ADF81A2000F062FA0DB0F0BD2B
:10A7E0001C56002004BC050084BD0500D81C0500D3
:10A7F00010B58289047886B002F58042002392B2B7
:10A80000611ECDE90033CDE90233ADF80420CDE976
:10A810000433042911D8DFE801F033333317030080
:10A820004368002B56D113224FF0FF3368468DF852
:10A830000020CDF8023000F033FA304C23780BB111
:10A84000FFF776FF06B010BD43F6FE739A42F4D8C8
:10A85000C389002BF1D14368002B47D00B21012283
:10A8600002938DF800108DF80C20244C01224FF635
:10A87000FF7368462270ADF8023000F011FADDE790
:10A8800043F6FE739A42C1891ED8D0E90132A4F181
:10A890000304B4FA84F464098DF808108DF80940B3
:10A8A0000392EBB99DF8103043F001038DF810309E
:10A8B00008224FF6FF7368468DF80020ADF802308D
:10A8C0000E4C00F0EDF9B9E701F5804292B29A42E0
:10A8D000DBD9B2E701228DF80C2002931422A3E702
:10A8E00001228DF8142004930922E2E70A2310467E
:10A8F0008DF8003000F0F8FEB7E700BF1C560020CE
:10A9000030B5254889B006F0DDF8002834D106F0CE
:10A91000EFF8054608BB00F0AFFE03A80822294661
:10A9200025F003F80DE005A806F0C4FA019B9C8809
:10A9300004F58044A4B205A806F0E4FA204600F02D
:10A94000A3FE05A903AA4CF2070006F025FD01A904
:10A950000028E8D0284609B030BD104B10481149F6
:10A96000C01AC00800042A4640F0010007F008FFA2
:10A970008625284609B030BD084A094B0A499B1A6A
:10A98000DB081B04024643F0010007F0F9FE032533
:10A99000284609B030BD00BFF1A7020004BC050085
:10A9A00084BD0500401C0500FC1B0500F0B5FF2818
:10A9B00087B004D8012906D00C1F052C03D9072421
:10A9C000204607B0F0BD0D4604460021174601A8F9
:10A9D00008221E4624F0A9FFA4F58040A5F5804179
:10A9E00080B201AB03AA89B206F064FCE0B901A908
:10A9F00003A806F05FFA0446B0B9019BBD705B88FE
:10AA00003B800299A6B1368878689D00AE4228BF87
:10AA10002E46324624F065FFB5420BD803A806F057
:10AA200071FA204607B0F0BD0524204607B0F0BDFE
:10AA30007960F3E70C24C3E708220021014824F0E1
:10AA400074BF00BF14560020012804D0031F052B3B
:10AA500001D90120704770B5044686B0A0F580404A
:10AA600015460E4680B203A90D4A06F095FC10B1BA
:10AA7000002006B070BD01A903A806F01BFA00284B
:10AA8000F6D1019BAC705988029A29806A609B8834
:10AA900003F5804303A8338006F034FA0120E8E789
:10AAA00014560020F0B5FF2889B005D88C78012C09
:10AAB00006D0231F052B03D90724204609B0F0BD7B
:10AAC0004B680393A0F58046A4F580440B8804935B
:10AAD000A4B2B6B200211746054608226846ADF872
:10AAE0000A40ADF8086024F020FF214630466B464E
:10AAF00005AA06F0DFFB80B902A905A806F0C6FA90
:10AB000004460E2C1CD8DFE804F0141B1B1B1B1B77
:10AB10001B120E1B1B1B1B1B0E0002A905A806F017
:10AB200017FA0446EDE71124204609B0F0BD86244B
:10AB3000C3E7002FC1D0394605A806F009FDBCE7E0
:10AB4000064B07480749C01AC008000422462B4696
:10AB500040F0010007F094FE0324AEE704BC0500BA
:10AB600084BD0500801C05004FF6FF7000F08CBD11
:10AB7000FF2806D808B500F0A5FDFFF7D9FD002095
:10AB800008BD0720704700BF00F0C2BD00F0CABD7D
:10AB900000F006BE30B583B08278417A04460023C7
:10ABA0003948CDE900338DF8022001F079FE002804
:10ABB0005CD0237AA178019003EB83039B004A1EAB
:10ABC000ADF800308DF80210072A08D8DFE802F04F
:10ABD0001E070707071E042B1423ADF80030694633
:10ABE000221D2088FFF75EFF07280DD012D91128FB
:10ABF00030D086281DD1A37A244A03F0FD0343F008
:10AC000001030121A372117003B030BD0123ADF81F
:10AC10000030E4E768B9A37A60F3410360F300030E
:10AC2000A37203B030BD838809339B08ADF80030B0
:10AC3000D5E708F05FFC164D164A23881649541BC9
:10AC4000E4082404024644F0010007F019FE032042
:10AC500003B030BDA37A0D4A43F002036FF3000343
:10AC600001210020A372117003B030BD084B0948C8
:10AC7000627A0A49C01AC008000440F0010007F0D7
:10AC80007FFD0320C0E700BF64570020605700200D
:10AC900004BC05007CBD0500D41E0500941E050003
:10ACA0002DE9F041754DC3686A68934286B0044649
:10ACB00000F0E0802A69934200F0DE80EA69934266
:10ACC00000F0D280AA6A934208BF032600F0CD802C
:10ACD00000262378092B00F0A180132B71D0082BBC
:10ACE00042D0204601F064FA204602F075FF644F1E
:10ACF0002046FEF7F9FE2046FEF74CFC3B7813B9E0
:10AD000006B0BDE8F08100233B7000244FF001083D
:10AD10006600331905EB830318469B7A9A0746D5DC
:10AD200087F80080FFF736FF0346002843D03444FD
:10AD3000A4004FF6FF72295BADF80410862BADF826
:10AD400002207AD106238DF80030684601F030FAEF
:10AD5000684602F041FF6846FEF7C6FE6846FEF709
:10AD600019FC06B0BDE8F081677A002FB9D1002E3A
:10AD7000B7D0337A5BB1DFF81881717A3944C9B240
:10AD8000404601F0A7FD337A01379F42F5D3B37AED
:10AD900003F0FD036FF300034FF6FF72FF21B37260
:10ADA00000233280B27071723372736099E7D907F1
:10ADB00048BF87F800800134042CA9D106B0BDE853
:10ADC000F081204601F0F4F9204602F005FF2C4FF7
:10ADD0002046FEF789FE2046FEF7DCFB3B78002B81
:10ADE0008ED000243C704FF001086600331905EB4B
:10ADF00083039B7A9A0701D4DB0709D5301905EB49
:10AE0000800087F80080FFF7C5FE034600288ED13A
:10AE10000134042CE9D106B0BDE8F081637A002B3F
:10AE20007FF45FAF002E3FF45CAFB27A144F7360D3
:10AE300042F00202B2723B7067E707210022184617
:10AE400002938DF800108DF80C200E4E08F052FB86
:10AE50000D4A2B5B0D49941BE4082404024644F080
:10AE6000010007F00DFD70E7022606EB460605EB34
:10AE700086062EE70026F8E70126F6E7745700203D
:10AE80006057002004BC05007CBD0500581D05006E
:10AE90006457002070B52E4C2E4BA27AA57D94F8F5
:10AEA000221094F82E0002F0FD026FF3000205F06C
:10AEB000FD05A272002262F30005FF2601F0FD01EC
:10AEC00000F0FD0062F3000162F3000082B06672E0
:10AED000A57550260425CDE9005622724FF6FF7560
:10AEE00062602275226184F82020E26184F82C20BF
:10AEF000A26284F8221084F82E004FF4A072164942
:10AF000016482580A570A581A57365752583A5764E
:10AF100084F82150A58484F8265084F82D5001F03F
:10AF200061FC18B90346184602B070BD08F0E2FA99
:10AF30000B4A0C4B0C499B1ADB081B04024643F0DE
:10AF4000010007F01DFC0323184602B070BD00BFCE
:10AF500074570020A457002020560020645700207A
:10AF600004BC05007CBD0500381D05002DE9F04737
:10AF7000DFF8A091B9F800308342054600F0BE80AA
:10AF8000B9F80C30834200F0BB80B9F81830834226
:10AF900021D0B9F82430834208BF03261CD02846AC
:10AFA000FFF7E6FD034608B1072802D11846BDE8C1
:10AFB000F08708F09FFA534C534B5449E41AE408C5
:10AFC000240403462A4644F0010007F059FC0323F9
:10AFD0001846BDE8F087022606EB4602B9F824C001
:10AFE000DFF83C814A4F09EB8202B9F80030AB42EE
:10AFF00028D0B9F80C30AB427AD0B9F81830AB424F
:10B0000073D0654577D0731C042BC8D003EB430283
:10B0100039F82220AA425AD0B31C042BBFD003EB2C
:10B02000430239F82220AA4251D0002EB7D1B9F8F4
:10B0300024C06545B3D1B9F80030AB424FF00306E8
:10B040004246D6D1334C00219078A37883421AD05F
:10B050004B1C042BD7D003EB430239F82220AA4221
:10B060003DD08B1C042BCED003EB430239F82220B9
:10B07000AA4234D00029C6D16545C4D14446032133
:10B08000A3788342E4D1A37A9B07E1D16368002BC4
:10B09000DED1227A5AB19A46617A5144C9B2384611
:10B0A00001F018FC237A0AF1010A9A45F4D3A37A35
:10B0B00003F0FD034FF6FF7100226FF30003FF2042
:10B0C000A3722180A1706072227262609BE703EB21
:10B0D00043021E4609EB8202B9F824C085E703EB60
:10B0E0004304194609EB8404AFE70B4C0221ABE79C
:10B0F0000A4C0121A8E744460321A5E700266BE797
:10B10000012669E77CBD050004BC0500B81D0500EB
:10B1100064570020745700208C570020805700206F
:10B12000985700200023FFF741BC00BF2DE9F04FE6
:10B1300083B001927BB3CC1F012C28D8541E032C62
:10B1400025D8B44FB7F80090484500F09080BC89EE
:10B15000844200F08E803C8B844220D0BC8C8442A0
:10B1600000F089804FF6FF74A14500F0B980BD89D9
:10B17000A54200F031813D8BA54200F02B81BD8CB2
:10B18000A54200F0F680112003B0BDE8F08F072043
:10B1900003B0BDE8F08F0E2003B0BDE8F08F0224AD
:10B1A000BD8C04EB4408854207EB880866D098F80C
:10B1B00002B0651C02344FEA450C66008B450CEB6F
:10B1C000050E06EB040A0FD0042DCBD037F82EE085
:10B1D000864536D0042CC5D037F82A508542C1D1D7
:10B1E000264407EB8608E2E798F80AB01BF0030F45
:10B1F000EAD1D8F80420002AE6D198F80800019A8C
:10B20000904221D10F4698F80910019DFF291E4652
:10B210001CD00024804888F8085001F041FB002829
:10B2200000F0998005EB8502120192B292083280FB
:10B23000B77070600CB1082F14D0002003B0BDE8C7
:10B24000F08F2C466646CBE70F20A1E729467248CF
:10B2500001F0DEFAFF28014688F8090000F0BE8000
:10B260000124D7E79300063B8380002090E7002469
:10B2700096E7012494E7032407F12408DFF8A8C126
:10B2800098F802508D421CD0651C042D3FF46AAF23
:10B2900005EB450637F8266086421BD0A51C042D19
:10B2A0003FF460AF05EB450637F82660864211D0C3
:10B2B000002C7FF457AFE046032498F802508D42EB
:10B2C000E2D198F80A50AE07DED1D8F80450002D2C
:10B2D000DAD192E705EB45082C4607EB8808CFE763
:10B2E0000024BD8C4FF6FF7A04EB4408554507EB6C
:10B2F000880841D098F80250661C02344FEA460E86
:10B300004FEA440CFF2D0EEB06090CEB040B12D098
:10B31000042E3FF438AF37F82950554518D0042C87
:10B320003FF431AF37F82B5055457FF42CAFA44490
:10B3300007EB8C08DEE798F80A50AD07E8D1D8F89B
:10B340000450002DE4D1A8F8000088F8021059E755
:10B350003446F446EBE7314B314898F8092031493F
:10B36000C01AC008000440F0010007F009FA0320E9
:10B370000EE7DFF8B4800324DFF8ACC04FF6FF76A9
:10B3800098F80250FF2D1CD0651C042D3FF4FBAE35
:10B3900005EB450E37F82EE0B64534D0A51C042D3C
:10B3A0003FF4F1AE05EB450E37F82EE0B6452AD056
:10B3B000002C7FF4E8AEE046032498F80250FF2DFD
:10B3C000E2D198F80A50AA07DED1D8F80450002D2F
:10B3D000DAD1B8E7022484E7012482E798F80A303A
:10B3E00088F8020003F0FD0300226FF300034FF61C
:10B3F000FF7188F80A30A8F8001088F80820C8F80B
:10B4000004201120C4E605EB45082C4607EB88080C
:10B41000B6E700BF745700206457002004BC050045
:10B420007CBD05000C1E0500985700202DE9F8434F
:10B43000494E3388834289460BD0B389834259D021
:10B44000338B834258D0B38C834257D00520BDE85C
:10B45000F8830023B28C03EB4305824206EB85059B
:10B460004FD095F802C05A1C023357005C00CC45FF
:10B4700007EB020E04EB03080FD0042AE6D036F8DF
:10B480002E50854230D0042BE0D036F8282082425E
:10B49000DCD11C4406EB8405E3E795F80AC01CF0F8
:10B4A000030FEAD169680029E7D12B7A5BB12B4EF3
:10B4B0000024697A2144C9B2304601F00BFA2B7A94
:10B4C00001349C42F5D3AB7A03F0FD034FF6FF72D3
:10B4D00000206FF30003FF21AB722A80AA7069720B
:10B4E00028726860BDE8F88313463C461C4406EBAE
:10B4F0008405B6E70123ADE70223ABE7032306F19A
:10B500002405174FAA784A4518D05A1C042A9DD002
:10B5100002EB420436F82440844216D09A1C042AD6
:10B5200094D002EB420436F8244084420DD0002B24
:10B530008CD13D460323AA784A45E6D1AA7A9207E0
:10B54000E3D16A68002AE0D1AFE702EB4205134677
:10B5500006EB8505D6E700BF74570020645700202E
:10B5600098570020CB1F012B01D9072070472DE9E8
:10B57000F0478046104692468946FFF705FB78B1B2
:10B580003B490B8843450ED08B89434541D00B8BFB
:10B5900043453CD08B8C43453DD00520BDE8F0872A
:10B5A0000720BDE8F08700238A8C03EB4305424562
:10B5B00001EB850532D0AE785C1C02334FEA440CB7
:10B5C00058004E450CEB040700EB030E0FD0042C83
:10B5D000E3D031F82760464516D0042BDDD031F892
:10B5E0002E404445D9D1C51801EB8505E3E7AA7A79
:10B5F0009607ECD16A68002AE9D1A5F800A0284690
:10B60000BDE8F047FFF7C6BA23466046EBE70223E2
:10B61000CAE70123C8E7032301F12405154CAA78E2
:10B620004A4518D05A1C042AB7D002EB420031F820
:10B630002000404516D09A1C042AAED002EB4200EE
:10B6400031F8200040450DD0002BA6D1254603231C
:10B65000AA784A45E6D1AA7A9207E3D16A68002A15
:10B66000E0D1CAE702EB4205134601EB8505D6E7B8
:10B67000745700209857002040220021014824F0F0
:10B6800054B900BFA85700204FF6FF73984210B579
:10B6900009D0FF2804460FD80146094802F0AAFC49
:10B6A00050B9204610BD4FF48071054802F0C6FC29
:10B6B00080B2B0F5807FF5D14FF6FF7010BD00BFAE
:10B6C000A857002008B54FF6FF73984208D0FF280E
:10B6D00006D80146034802F08DFC08B9012008BDD8
:10B6E000002008BDC8570020FF2800D9704710B5BA
:10B6F00001460446044802F08DFC21460348BDE89B
:10B70000104002F087BC00BFA8570020C857002097
:10B71000FF2801D9002070470146014802F084BC8F
:10B72000A85700204FF6FF7398422DE9F04130D022
:10B73000013086B2FF2E27D8174C03E09EB2B6F533
:10B74000807F21D03146204602F06EFC731C002819
:10B75000F4D0DFF84880A8F120073146404602F0D7
:10B7600063FC98B1741CA4B2B4F5807F0CD0A5B270
:10B770002146384602F058FC01342E46A5B2002876
:10B78000EBD1B5F5807FF3D14FF6FF763046BDE8BB
:10B79000F0810026D0E700BFA8570020C85700203E
:10B7A00038B54FF6FF73984216D0013084B2FF2CA3
:10B7B0000ED80A4D03E09CB2B4F5807F08D0214634
:10B7C000284602F031FC631C0028F4D0204638BD26
:10B7D0004FF6FF74204638BD0024EAE7C857002022
:10B7E00076DF7047F0B5027885B00446142A00F27F
:10B7F0001E81DFE812F024002400A3006100240071
:10B8000024008700CD002400E200FE00BB007B0086
:10B8100015002400D40024002400240024009300F8
:10B82000806807F067FE9A4B9A4A9B499B1ADB088F
:10B830001B04024643F0010006F0A2FF227822B169
:10B84000072A00F0E38005B0F0BD648803A9204614
:10B8500000F0D8FE43F20202904202D008B10AF092
:10B86000FDFF9DF80C1011F00201ECD1204600F014
:10B87000B7FE06460028E6D01128E4D0844D854B5B
:10B88000ED1AED080D284FEA054500F0DC800B2885
:10B8900000F0F78043F20203984200F0EB8007F0DB
:10B8A00029FE234602467D4945F0010006F0E8FFE7
:10B8B00030460AF0D3FFC6E74088764EFBF746FFD6
:10B8C000734B774A257A52F820207649981BC00896
:10B8D00051F825506189638801910004009540F07A
:10B8E0000300714907F0D6F82278A8E7694B684849
:10B8F0006E49C01AC008000440F0030006F092FD33
:10B9000022789CE7634B62486949C01AC00800046A
:10B9100040F0020006F086FD227890E7806807F08C
:10B92000E9FD5C4A5A4B63499B1ADB081B0402463B
:10B9300043F0020006F024FF227880E74088554E4D
:10B94000FBF704FF524B564A257A52F820205549FE
:10B95000981BC00851F8251063880091000440F03E
:10B960000300554907F00EF8227868E78068A6883A
:10B97000474D07F0BFFD474B5049ED1AED082D0428
:10B980000346324645F0010006F07AFF227856E77A
:10B99000806807F0AFFD3E4B3E4A494946E73C48C8
:10B9A0003C4D6288A3884749401BC008000440F012
:10B9B000020006F065FF227841E7057A427A4249A3
:10B9C000424B006951F8256053F82270A58807F0B2
:10B9D00091FD304B2E490190C91AC90809042A4625
:10B9E00041F0020000973346394907F053F82278B6
:10B9F00025E7284B2648A2883649C01AC00800040B
:10BA000040F0010006F0BCFE227818E7214B2048E8
:10BA10003149C01AC008000440F0010006F002FDE0
:10BA2000A06800283FF40FAF0AF018FF0BE7194B8E
:10BA300017482A49C01AC008000440F0020006F066
:10BA40009FFE2278FBE645F002052846244922465F
:10BA500006F096FE13212046FFF7C2FE00283FF4B1
:10BA6000F2AE07F047FD234602461E49284606F07F
:10BA700007FFE8E6224645F002001B4906F080FE7B
:10BA8000E1E6224645F00200184906F079FEDAE6C2
:10BA90006CBD050004BC0500842105008C23050055
:10BAA000341F0500401F05003420050070210500EB
:10BAB00088200500E4210500F41F05004021050051
:10BAC000A0200500A82105000C1F0500041F05008B
:10BAD000CC20050018210500C8230500142205000C
