:020000022000DC
:106000000000042081B40300A9B40300ABB4030072
:10601000ADB40300AFB40300B1B40300000000004E
:10602000000000000000000000000000B3B4030006
:10603000B5B4030000000000B7B40300B9B4030016
:1060400091820300BBB4030011B40300BBB403008E
:10605000BBB40300397F030031760300BBB40300F7
:10606000BBB40300BBB40300BBB40300BBB4030068
:10607000BBB403004D840300BBB40300BBB40300F6
:10608000BBB4030079190300BBB40300BBB4030025
:10609000191A0300BBB40300FD500300BBB4030096
:1060A000BBB40300BBB40300BBB4030039860300D8
:1060B000BBB40300BBB403000000000000000000FC
:1060C000BBB40300BBB40300BBB40300BBB4030008
:1060D000BBB40300BBB40300BBB4030065A603005C
:1060E000BBB40300BBB40300B960040000000000AF
:1060F00000000000BBB4030000000000BBB40300BC
:10610000000000000000000000000000000000008F
:10611000000000000000000000000000000000007F
:10612000000000000000000000000000000000006F
:10613000000000000000000000000000000000005F
:10614000000000000000000000000000000000004F
:10615000000000000000000000000000000000003F
:10616000000000000000000000000000000000002F
:10617000000000000000000000000000000000001F
:10618000000000000000000000000000000000000F
:1061900000000000000000000000000000000000FF
:1061A00000000000000000000000000000000000EF
:1061B00000000000000000000000000000000000DF
:1061C00000000000000000000000000000000000CF
:1061D00000000000000000000000000000000000BF
:1061E00000000000000000000000000000000000AF
:1061F000000000000000000000000000000000009F
:1062000010B5054C237833B9044B13B10448AFF3F0
:1062100000800123237010BD183E00200000000004
:10622000A42E050008B5034B1BB103490348AFF387
:10623000008008BD000000001C3E0020A42E0500C8
:10624000154B002B08BF134B9D46A3F5803A002148
:106250008B460F461348144A121A25F0E0FD0F4BE7
:10626000002B00D098470E4B002B00D09847002001
:10627000002104000D000D48002802D00C48AFF3A7
:10628000008025F04DFD2000290015F02FFA25F0A3
:1062900021FD00BF000008000000042000000000F5
:1062A00000000000183E0020081901200000000036
:1062B0000000000072DF704773DF704770B504465E
:1062C00000F24A2681700D4630460722002125F053
:1062D000A6FDE38813B1A378012B5FD0E379002BEF
:1062E00059D194F84B32002B40F0848094F84C3212
:1062F000002B7FD194F84D32002B7BD194F84E3295
:10630000002B77D194F84F32002B73D194F8503290
:106310001A1C18BF01226B1E032B00F24F81DFE80D
:1063200003F002470A0DA379002B41D094F82430E2
:10633000002B3DD12AB9237A002B7BD1657A002D21
:1063400064D1A570002384F8533204F13C0518226F
:106350000021284625F063FDE26A0121531E8B428D
:1063600084F83C103BD9042A94F82400A37826D062
:1063700084F8511000283FD084F85210002284F88D
:106380005020042B00F20981DFE813F07B00560057
:10639000DC00AE007F00A378022BA2D1636B002B40
:1063A00000F00981012284F851220820984798E7DB
:1063B000E379002BBFD0002ABDD00225C1E784F8C5
:1063C000512098B9002284F85020042B00F2E58077
:1063D000DFE813F057003200D400CE00C80094F874
:1063E000241084F85120A3780029EBD0A26A84F805
:1063F0005220C3E701228EE784F85000042B00F2FC
:10640000CC80DFE803F03E19BBB5AF000422636B1C
:10641000A270002B96D06279002A93D094F8522271
:10642000002A8FD1012184F8542284F853120720C6
:1064300098478AE70322EAE700230120022180220D
:10644000266484F83100C4F84432636484F83C1054
:10645000A4F8482000212A4604F15400FFF72AFF3F
:1064600000B170BD94F8301094F85400FFF724FF89
:106470000028F6D1636B13B194F8310098470020DF
:1064800070BD002384F83130F4E7D4E90721626459
:106490000622A4F8481084F83C206279002A72D0C1
:1064A00094F85222002A6ED194F85422002A6AD01D
:1064B000022384F850300122B4F83812D4F83402A0
:1064C00000F012FF08B10423037004F50D76314685
:1064D0002A4604F15400FFF7EDFE002866D106229B
:1064E000A37884F8312053E0D4E9052162640622C0
:1064F000A4F8481084F83C206279002A50D094F81F
:106500005222002A4CD194F85422002A48D0022367
:1065100084F850300122B4F83812D4F8340200F074
:10652000E3FE08B10423037004F50D7631462A46D4
:1065300004F15400FFF7BEFEC0BB0522A37884F827
:10654000312025E0022384F831300723D4E90321E8
:1065500084F83C3000232664A4F84810C4F8443280
:10656000626477E7D4E907126164A4F8482094E7ED
:10657000D4E905126164A4F84820BDE7022384F839
:1065800031300323E2E7042284F8312004F50D764C
:10659000C4F84462002B3FF46DAFD4F844125AE7BC
:1065A000032284F8312004F50D76F1E7A378002B5F
:1065B0003FF460AFF1E784F8513292E60025C0E67F
:1065C00080F83010704700BF00295AD0002858D0FA
:1065D000F8B591F87A301BB191F89830002B52D170
:1065E0004FF0000C80F802C001F1780604460F4617
:1065F0000FCE251D0FC50FCE0FC596E8070085E805
:10660000070084F830C0D7F8A4306363D7F8A83007
:10661000A3634FF6FF7504F50D73C4F84432614669
:10662000A4F84852072204F24A2025F0F8FB237808
:106630000BB984F8545094F82430002B14BFEE2387
:106640001F2304F15501A4F83832C4F8341204F5BC
:106650000E72384600F04AFC90B994F82430002BB2
:1066600014BFEE231F2304F2431107F13C00A4F8EA
:106670004032C4F83C1204F5107200F037FC20B12F
:10668000F8BD0E2070470720F8BDD4E90525012389
:10669000206484F850000146626484F8513084F824
:1066A0003C30A4F8485004F13C0204F15400FFF7D8
:1066B00001FE0028E4D12370F8BD00BFF8B50678CC
:1066C000002E73D0044600F24A27A1700D463846CA
:1066D0000722002125F0A3FBE38803BBE37913B174
:1066E000A378022B1ED094F84B3283B994F84C3225
:1066F0006BB994F84D3253B994F84E323BB994F8D3
:106700004F3223B994F85062003618BF01266B1E31
:10671000032B00F25681DFE803F00F161B1EA3784F
:10672000012BDBD1636B002B00F04881012284F840
:10673000512208209847D6E7A37923B194F8243052
:10674000002B00F02981E37913B1002E40F0118174
:10675000237A002B4CD1657AB5BBA570002384F851
:10676000533204F13C0518220021284625F057FB3E
:10677000E26A0121531E8B4284F83C1063D9042A3B
:1067800094F82400A37868D084F8511080B184F87C
:106790005210002284F85020042B00F2A980DFE878
:1067A00013F029003300D800AA0073000820F8BDB8
:1067B00084F85000042B00F29B80DFE813F01B00EC
:1067C0002500E200E700DC000422636BA270002BCE
:1067D000C4D06279002AC1D094F85222002ABDD1D7
:1067E000012184F8542284F8531207209847B8E70F
:1067F0000322EAE7002384F83130636B13B194F885
:10680000310098470020F8BD00230120022180229A
:10681000276484F83100C4F84432636484F83C107F
:10682000A4F8482000212A4604F15400FFF742FD55
:106830000028BCD194F8301094F85400FFF73CFDC8
:106840000028DAD0F8BD94F8241084F85120A378F9
:1068500039B1A26A84F852209BE784F851200028BD
:10686000F7D1002284F85020042B41D801A252F81D
:1068700023F000BFF5670200096802008369020087
:106880008D69020077690200D4E90721626406225B
:10689000A4F8481084F83C206279002A00F0868031
:1068A00094F85222002A40F0818094F85422002A61
:1068B0007CD0022384F850300122B4F83812D4F886
:1068C000340200F011FD08B10423037004F50D76C5
:1068D00031462A4604F15400FFF7ECFC00286BD146
:1068E0000622A37884F83120C4F84462002B84D0B7
:1068F000D4F8441297E7D4E9052162640622A4F88B
:10690000481084F83C206279002A49D094F8522239
:10691000002A45D194F85422002A41D0022384F859
:1069200050300122B4F83812D4F8340200F0DCFC04
:1069300008B10423037004F50D7631462A4604F1AC
:106940005400FFF7B7FCB8BB0522A37884F83120C8
:10695000CAE7022384F831300723D4E9032184F8FD
:106960003C3000232764A4F84810C4F84432626421
:1069700058E70225F1E6D4E907126164A4F848203B
:106980008AE7022384F831300323E6E7D4E90512CD
:106990006164A4F84820B6E7002E3FF4D9AEDCE6E7
:1069A000032284F8312004F50D769DE7042284F853
:1069B000312004F50D7697E7A37897E784F85132F4
:1069C00091E60025C9E600BF10B50388112B0C46DF
:1069D0000BD0262B1DD0102B00D010BDC37B012B5C
:1069E000FBD18388A1F8483210BD002381F85232D0
:1069F0008288B1F848329A42EFD10B79002BECD162
:106A00000B78EBB90820A36B002BE6D0BDE8104053
:106A10001847037A013B012BDFD80B78002BF1D00C
:106A20008A780B4B0132A3FB02139B0803EB830311
:106A3000D31AD9B22046FFF741FC0028E3D110BD9C
:106A400001212046FFF73AFC0028DCD110BD00BF31
:106A5000CDCCCCCC704700BFA8DF70472DE9F0410A
:106A60008CB00CA941F60A0321F82C3D0123044601
:106A7000C24A8DF806301846FFF7EEFF054600289B
:106A800040F0B6802688002E40F0B6802689002E81
:106A900040F02881268A002E40F04A81268B002E65
:106AA00040F07E81268C002E40F0D080268D002E76
:106AB00040F0F280236B002B39D01A688DF8082043
:106AC0001A6894F83C60120A8DF809205A888DF8EB
:106AD0000A20DA788DF80B205A688DF80C209B6814
:106AE0008DF80D30190A20221B0C8DF80E1004A809
:106AF00000218DF80F3025F092F99DF81D309F4947
:106B00008DF8216043F0020308888DF81D3042F6AD
:106B100023274FF0081602AB994AADF8107004A96C
:106B2000CDE9056300F0FAFE002840F08A80636B2F
:106B300043B31F681E7994F83C80002F00F0558104
:106B400016B930460EF042F82022002104A825F0A4
:106B500066F99DF81D3089498A4A0888ADF81460A5
:106B600043F0020342F62A2C04A9ADF816600697FA
:106B70008DF821808DF81D30ADF810C000F0CEFEEC
:106B800000285ED1A36B9BB31A788DF808205A8831
:106B90008DF80920120A8DF80A209A888DF80B20AA
:106BA000120A8DF80C20DB888DF80D3020221B0A8C
:106BB000002104A894F83C408DF80E3025F02FF900
:106BC0009DF81D306D498DF8214043F0020308887F
:106BD0008DF81D3042F6502502AB6B4AADF81050CF
:106BE00004A94FF00714CDE9054300F097FE0546D0
:106BF00028460CB0BDE8F081676894F83C80002F0F
:106C000000F0F7802022002104A825F008F99DF863
:106C10001D305A495D4A0888ADF8146043F00203FC
:106C200042F6292C04A9ADF8166006978DF821804C
:106C30008DF81D30ADF810C000F070FE00283FF454
:106C400025AF054628460CB0BDE8F081676A94F888
:106C50003C80002F00F0DC802022002104A825F0D9
:106C6000DEF89DF81D304549494A0888ADF81460A2
:106C700043F0020342F6262C04A9ADF816600697ED
:106C80008DF821808DF81D30ADF810C000F046FE63
:106C900000283FF40BAFD4E7E76A94F83C80002F5C
:106CA00000F0BA802022002104A825F0B8F89DF851
:106CB0001D303249374A0888ADF8146043F00203AA
:106CC00042F6282C04A9ADF8166006978DF82180AD
:106CD0008DF81D30ADF810C000F020FE00283FF404
:106CE000E9AEAEE7E76894F83C80002F00F08480BE
:106CF0002022002104A825F092F89DF81D301F499C
:106D0000254A0888ADF8146043F0020342F6242CAB
:106D100004A9ADF8166006978DF821808DF81D3016
:106D2000ADF810C000F0FAFD00283FF4B3AE88E7DC
:106D3000676994F83C80002F62D02022002104A8CB
:106D400025F06DF89DF81D300C49144A0888ADF8FF
:106D5000146043F0020342F6252C04A9ADF8166036
:106D600006978DF821808DF81D30ADF810C000F029
:106D7000D5FD00283FF492AE63E700BF6C3E0020D3
:106D8000783E00205C3E0020543E0020443E00201F
:106D9000343E0020703E00204C3E0020643E002027
:106DA000E76994F83C807FB32022002104A825F0F5
:106DB00036F89DF81D301A491A4A0888ADF8146053
:106DC00043F0020342F6272C04A9ADF8166006979B
:106DD0008DF821808DF81D30ADF810C000F09EFDBB
:106DE00000283FF45FAE05462CE738460DF0EEFE76
:106DF000A6E60DF0EBFE05E738460DF0E7FE77E777
:106E000038460DF0E3FE98E738460DF0DFFECBE79D
:106E100038460DF0DBFE1FE738460DF0D7FE41E7A0
:106E20006C3E00203C3E00206DDF704779DF7047EC
:106E30007DDF704764DF70472DE9F04F83B0048831
:106E40000C9EBDF83490B6F800A0002C39D09846BE
:106E5000002317468B4605461C4603E02A8801346A
:106E6000A24224DD6A6852F82400019000220DF14C
:106E7000030101A8FFF7DEFF20BB9DF80320BA4203
:106E8000ECD13288B91803B389452BDB42440DF1AC
:106E9000030101A80123FFF7CDFF98B931889DF8C0
:106EA00003200A4432802A880134A242DADC43B14A
:106EB0003388013BA3EB0A039BB2FF2B12D808F8DF
:106EC0000A30002003B0BDE8F08F0231013289455D
:106ED00092B207DB328008F802B03288013292B2F7
:106EE0003280D3E70C2003B0BDE8F08F2DE9F047E6
:106EF00000231788138090F82D3086B0144605467D
:106F00000E46002B40F0FB80AA78002A40F0FD805E
:106F1000EA78A2B1D91CB94200F2F3800221F154FF
:106F2000238801339BB201212380F15423880B4431
:106F30009BB22380F25423880B449BB223806A685F
:106F4000AAB1D91CB94200F2DC80022192F90020DA
:106F5000F154238801339BB20A212380F154238802
:106F600001339BB22380F2542388013323802B8981
:106F7000002B40F01B812B8A002B40F02F812B8BA4
:106F8000002B40F043812B6A002B44D02288911DB6
:106F9000B94200F2B6801988052940F203816FF4E6
:106FA000486801EB080080B24FF27D3C604540F23A
:106FB000F9805888052840F2F5806FF4486E8644C1
:106FC0001FFA8EFEE64540F2ED804FF6FF7C6145EC
:106FD00004D0604502D0814200F2E4800521B15422
:106FE0002288013292B212212280B15422880132C9
:106FF00092B222801988B1543244090A5170228811
:10700000023292B222805B88B35432441B0A53701E
:107010002388023323806B6A002B2FD09988B4F821
:1070200000C0881C0CF102020244BA4269D8FE2852
:1070300067D8033106F80C102288013292B2FF2182
:107040002280B1542288013292B222801988B15430
:107050003244090A51702088023080B220809A8818
:1070600062B199680393002900F09C80304424F0B9
:10707000B2FE039B9A8823881344238095F82C3012
:10708000002B40F08A80287800283BD02B88012BE9
:1070900000F08880228802F1020CBC4531D801281A
:1070A00004D16B78023313449F422AD3BB1E9B1A30
:1070B00006A99BB221F8083D06EB0C00FFF7B8FECD
:1070C00000BB2978BDF81020022900F004816878FF
:1070D0009042C0F0FB809342C0F0F8800921FE2A64
:1070E0000FD82388501CF054238801339BB223808F
:1070F000F154238801331A442280002002E0082F33
:1071000023D80C2006B0BDE8F0870433BB42F8D882
:1071100004A8FFF78BFE0028F4D12388BDF81020C7
:107120000321F154238801339BB219212380F154A8
:10713000238801339BB2F1182380F254120A4A705B
:10714000238802339BB22380E2E604A8FFF76CFE9B
:107150000028D7D113880822CA54238801339BB250
:107160001B222380CA542088013080B2208006224E
:1071700008440DF1110124F02EFE23889DF8102003
:1071800006339BB212F0FE0218BF01222380F25494
:10719000238801339BB22380B6E6D5F82880B8F166
:1071A000000F4CD1072006B0BDE8F08705F10808B4
:1071B0000222CDE90047404611463346FFF73CFE28
:1071C00000289FD1CDE900474046334610220621D2
:1071D000FFF732FE00283FF4CEAE93E705F110082A
:1071E000CDE900474046334602220321FFF724FE43
:1071F000002887D1CDE900474046334610220721B9
:10720000FFF71AFE00283FF4BAAE7BE705F1180835
:10721000CDE900474046334602221421FFF70CFE19
:1072200000287FF46FAFCDE9004740463346102277
:107230001521FFF701FE00283FF4A5AE62E7B8F87C
:1072400004200232FE2A3FF65CAF23884FF000098B
:107250004FF0160A0132F254238801339BB2238087
:1072600006F803A0238801339BB22380B8F80020DE
:10727000F2543344120A5A70238802339BB223809B
:10728000B8F80410F0180A4661B1D8F80830194669
:10729000002B87D024F09FFDB8F8042023881344E6
:1072A0009BB2238009F1010995F82C205FFA89F936
:1072B0004A4509EB49087FF6E6AEAA6A02EB880860
:1072C000B8F804200232FE2AC4D91AE7012906D0F0
:1072D0001A46082103E79342BFF400AFF8E7834260
:1072E000F6D302460821FAE6F8B130B44378934267
:1072F0001CD0B9B10024234601E0994212D9045DA3
:10730000013423449BB2C5181C466D789542F4D1D4
:10731000994207D9025D0233012A9BB202D0184478
:1073200030BC7047002030BC7047704700242346B3
:10733000EEE700BF75DF704776DF70477ADF704792
:107340007BDF704730B51D4B1A8884B2A24283B0F0
:1073500001D003B030BD1A4D187A297B88420FD373
:107360002A7C00211972E2B96B69002BF1D000224E
:10737000ADF806408DF8042001A8984703B030BD51
:10738000104603F10A01FFF7D5FF28B11128E0D01C
:10739000AB69002BF1D1DCE71A7A01321A7203B023
:1073A00030BD3B212046FFF7C7FF30F00803DBD09C
:1073B000AB69002BD8D09847D6E700BF9C3E002091
:1073C000803E0020F0B50288112A83B0034649D0E0
:1073D00036D9122A08D0502A04D16C4DC188EA89C6
:1073E000914251D003B0F0BD694C8288218891420E
:1073F000F8D1E1896589B1F5FA7F24BF6FF4F9709E
:107400000E18588938BF002685424FD8A589854275
:107410004CD39B89B34249D301F2F311994245D32E
:107420005A4B5B694FF480712181002BDAD0012126
:10743000ADF806208DF8041001A8984703B0F0BD00
:10744000102ACFD1C27B012ACCD1514C21884FF6D2
:10745000FF7291423CD04D4B9B69002BC2D004205F
:107460009847BFE74A4C828823889A42BAD160681D
:107470000AF058FD18B1454B9B6903B198474FF688
:10748000FF73238003B0F0BD028A022AAAD1404CC8
:1074900086882788B742A5D1123000F031FA00283B
:1074A00056D160680AF03EFD70B99BE7374D267AE9
:1074B0006068D5E90131002E08BF194600236372C8
:1074C0000AF0DAFC00288DD0AB69002BB5D189E732
:1074D000304D8288228003CDC4F80E10E689C4F8AE
:1074E0000A00B6F5FA7F28BF6FF4F9754FF0000176
:1074F000588AB4F80AC0217228BF7119234D8445F7
:10750000EF8919D8B4F80CC0844515D39B8A8B42F7
:1075100012D306F2F3169E420ED301216172002FA0
:107520007FF460AF6B69002B3FF45CAF8DF8041003
:10753000ADF8062001A880E700236372002F7FF4D6
:1075400051AF606869680AF097FC0028BCD149E730
:10755000637A63B9D5E90131267A60683A46002E2C
:1075600008BF19460AF088FC0028ADD13AE76B69DC
:1075700000222272002B3FF435AF0122ADF80660E5
:107580008DF8042001A898472CE700BF803E00201A
:107590009C3E0020B03E002000282FD0F8B50546C4
:1075A00006460FCD164F3C460FC4844695E80700AB
:1075B000144B3B6084E80700BCF1000F18D0604614
:1075C000FFF7BCFE98B932681068516803C30E4BD0
:1075D0000E490F4A18464FF6FF7440F8041F1C80EE
:1075E00000210AF037FC002814BF03200020F8BD5A
:1075F0001846FFF7A5FE0028E9D0F8BD0E20704719
:10760000803E0020B03E00209C3E0020B83E00207E
:10761000457302002DE9F0470388B0F80490112B60
:1076200098B059D01A2B804647D0102B02D018B0F2
:10763000BDE8F087394A936818A8DB4340F8603DFD
:10764000516805F077FD009B0193019B63B3002710
:107650003C46214601A805F0FDFC28B118AB03EB20
:107660004703013723F8284C0134142CF1D10D972E
:107670000DAE0FCE02AC0FC40FCE0FC496E80700BC
:1076800084E8070087B10DF10A0A254E0AEB470787
:107690003AF8025F234C20462946043405F0D0FC1A
:1076A000A642F8D1BA45F3D1B9F1130F1BD9042082
:1076B0000DF08CFA18B0BDE8F087047A1A48240956
:1076C000012C494620D905F0A1FC022C4946174857
:1076D0001ED005F09BFCAAE74946154805F0B0FC12
:1076E00018B0BDE8F0874946114805F08FFC4946BF
:1076F0000C4805F08BFC98F80F30012B97D04946C9
:107700000C4805F083FC92E705F09AFC07484946CF
:1077100005F096FC18B0BDE8F08700BFD83E002009
:10772000503F0020DC3E0020E83E0020EC3E0020E0
:10773000E03E0020E43E0020132801D900207047DD
:107740000146014805F086BCDC3E0020132801D923
:107750000020704710B501460446074805F07AFC42
:1077600008B9002010BD2146044805F073FC00282C
:1077700014BF0220012010BDDC3E0020E43E0020AA
:10778000132801D90020704710B501460446074868
:1077900005F060FC08B9002010BD2146044805F042
:1077A00059FC002814BF0220012010BDDC3E00203F
:1077B000E03E0020132801D90020704710B5014693
:1077C0000446064805F046FC08B9002010BD2146D5
:1077D0000348BDE8104005F03DBC00BFDC3E002082
:1077E000E83E0020132801D90020704710B501465B
:1077F0000446064805F02EFC08B9002010BD2146BD
:107800000348BDE8104005F025BC00BFDC3E002069
:10781000EC3E002008B51821024805F025FCC0B256
:1078200008BD00BFD83E002070B50C4C0546204670
:107830000E4605F00FFC08B1132D01D9002070BDD4
:107840002946201D05F006FC0028F7D0B01D04EBEA
:1078500080002946BDE8704005F0FCBBD83E002002
:10786000F8B50F4C0546204617460E4605F0F2FBCC
:1078700008B1132D00D9F8BD2946201D05F0EAFBFB
:107880000028F8D0B01D04EB800029461FB9BDE8E0
:10789000F84005F0D5BBBDE8F84005F0B7BB00BF28
:1078A000D83E0020F0B5144C054683B00F46204664
:1078B0002946164605F0CEFB18B90025284603B028
:1078C000F0BD043504EB8504A3680193002FF4D0C8
:1078D000019B002BF1D000252C46214601A805F084
:1078E000B9FB314610B1A0B2B84701350134142CB0
:1078F000F3D1284603B0F0BDD83E0020AADF704780
:10790000007800F00100704738B5044608460D467F
:1079100024F04EFE6560208038BD00BFF0B58B7846
:1079200091B0002B0C460988ADF80C1008BF01235C
:10793000054616466846032200218DF80E3024F0D5
:107940006EFA637C0022013B8DF80020042B09D8DD
:10795000DFE813F00500D300D700DB00CF001123D0
:107960008DF80030A37C0022013B8DF80120042B10
:1079700009D8DFE813F00500D200D600BA00CE0027
:1079800011238DF801309DF80230E77B227D207CA9
:10799000217B67F3C303002A60F3041314BF0222A0
:1079A000012261F3000362F3420309A81C220021B3
:1079B0008DF8023024F033FA637B13F0300F73D16B
:1079C000627BA37B8DF824200021142204A88DF86B
:1079D000253024F024FAA368A288CDF814D003A996
:1079E0000491ADF81C201BB1E2880893ADF8182073
:1079F000A369002B36D001AF03220021384624F0C2
:107A00000EFAA2691388ADF82C305388ADF82E30E9
:107A100051680D97137B0A91013B00218DF80410EA
:107A2000042B2DD8DFE803F0299D8D9199001123B7
:107A30008DF80530917A9DF8063061F3C3038DF817
:107A40000630D17A61F304138DF80630117A927BF7
:107A5000002A61F3000314BF0222012262F34203F1
:107A60008DF80630E36903B10C93334604AA09A9E3
:107A70002846FFF743FF11B0F0BD11238DF8043005
:107A8000537B0021013B8DF80510042BD2D801A1B6
:107A900051F823F02F7A0200337B02003B7B020077
:107AA0002B7B0200537B0200032202A8002124F05A
:107AB000B6F9E37C0022013B8DF80920042B07D89E
:107AC000DFE803F0035F5B57530011238DF80930A3
:107AD0009DF80A3002AA0E92012262F3420311229B
:107AE0008DF80A308DF808206AE712238DF80130EE
:107AF00049E722238DF8003034E721238DF8003048
:107B000030E731238DF800302CE712238DF8003058
:107B100028E722238DF8013035E721238DF8013045
:107B200031E731238DF801302DE712238DF8053030
:107B300080E721238DF805307CE731238DF805306F
:107B400078E731238DF804309AE712238DF804305A
:107B500096E722238DF805306CE722238DF8043058
:107B60008EE721238DF804308AE722238DF809302F
:107B7000AEE712238DF80930AAE731238DF80930DA
:107B8000A6E721238DF80930A2E700BF90DF7047F8
:107B9000A5DF7047B5DF7047C0B170B40346FB2264
:107BA00081614FF0F7160020094D0A4C1A71172118
:107BB00041F6FB321E60C3F806509872D872987472
:107BC000D874DC6019829A8270BC70470E207047AE
:107BD000F7001700FB1BF7002DE9F0418588012D08
:107BE00084B002D904B0BDE8F0810288232A0C4693
:107BF00027D015D93A2A76D0552A3CD0242A5CD0F1
:107C0000EE00A3199B7A002BECD034442846E1887F
:107C1000FFF7BEFF0028E5D10122A072E272E1E782
:107C2000102A7ED0112AEBD101EBC501574BC1F8C8
:107C30000630FB2000231B2208734A738B72CB7221
:107C4000D0E7EE0001EB0608037A98F80C20934287
:107C500028BF134600276A4602A92846ADF8083017
:107C6000ADF80A30ADF8047003970097FFF78EFF68
:107C700098F80A30C7E7EE00C3888F19172BF988E8
:107C800038BF17238B4228BF0B4600223B81BA72B4
:107C90002846FFF77FFFFB7A1BBBA3690BB340F6B7
:107CA00077213A89ADF80810ADF80A50ADF80C20EC
:107CB00002A920469847BB7AA5E7EE008F19027A01
:107CC0007A738B696BB100204DF67A21ADF80C0008
:107CD000ADF80810ADF80A508DF80C2002A9204626
:107CE0009847BB7A8FE701EBC5064389F288934238
:107CF00028BF1346172B38BF172333818A6962B117
:107D0000F17A51B140F67721ADF80810ADF80A507C
:107D1000ADF80C30204602A990470023F372B372ED
:107D200060E7EE008B190A791A73C27B012A1AD018
:107D3000022A1BD0D9881A898A421AD31A7B597B06
:107D400091420ED291B20027ADF80810ADF80A109A
:107D50006A4602A92846ADF8047003970097FFF71A
:107D600015FF9B7A4FE70988D980E4E74988D980D5
:107D7000E1E72846FFF70CFF10B90122DA72DDE7D0
:107D8000112804BF01229A72D8E700BFF70017003C
:107D9000B0DF704766DF704760B159B10378DE2B02
:107DA0000AD00B684360DE224FF6FF7302704380F7
:107DB000002070470E2070470820704738B10378C4
:107DC000DE2B02D1418000207047082070470E2032
:107DD000704700BF19B110B10B78DE2B00D070478F
:107DE00030B505464B888088984285B00C4606D051
:107DF0002A88012A0DD0512A20D005B030BD0B7A37
:107E0000002B35D12B88112B48D0512B4DD0012B75
:107E1000F3D12B7A012BF0D162888242EDD123720B
:107E20000021FFF7B7FF00284ED0112808BF2372AA
:107E3000E3D063689847E0E76388A8888342DCD191
:107E4000AA79022AD9D1A97B01F0FD0004282ED0FD
:107E50000529D2D100206946C1E90200009048609E
:107E60008DF800201846FFF793FF0028E1D1C4E702
:107E70000021FFF78FFF0346A8B1112812D06368D5
:107E800098472B88112B05D0512BD5D0012BB4D17D
:107E9000A888BEE7AA8863889A42AED14FF6FF73DE
:107EA0006380AAE701232372EBE70346C6E769462E
:107EB00000204FF4C07548600090C1E902008DF8C1
:107EC0000020ADF80450CDE7207296E710B5C74BFF
:107ED0009A7C82B15A7C002A00F06081DC68A04262
:107EE000C0F091811A7C00215974002A00F087812A
:107EF0004FF4A02401E04FF0FF3493F82620AAB1FC
:107F000093F82520002A00F033811A6A9042C0F0CD
:107F10007D8193F82420002183F82510002A00F0A9
:107F2000BD81B4F5A02F28BF4FF4A02493F83A20C8
:107F3000AAB193F83920002A00F004815A6B9042CC
:107F4000C0F06D8193F83820002183F83910002AA1
:107F500000F0A781B4F5A02F28BF4FF4A02493F818
:107F60004E20AAB193F84D20002A00F0D4809A6CDC
:107F70009042C0F05D8193F84C20002183F84D10B1
:107F8000002A00F09781B4F5A02F28BF4FF4A02459
:107F900093F86220AAB193F86120002A00F0A4802F
:107FA000DA6D9042C0F04D8193F86020002183F893
:107FB0006110002A00F07881B4F5A02F28BF4FF49B
:107FC000A02493F87620A2B193F87520002A74D0EB
:107FD0001A6F9042C0F05C8193F87420002183F8FE
:107FE0007510002A00F06381B4F5A02F28BF4FF46C
:107FF000A02493F88A20002A54D093F88920C2B391
:10800000D3F884209042C0F0258193F88820002185
:1080100083F88910002A00F0508193F89E20B4F56F
:10802000A02F28BF4FF4A024002A00F0498193F824
:108030009D20002A00F0C280D3F898209042C0F022
:108040001D8193F89C20002183F89D10002A00F0E8
:10805000D38009F0A1FF664BB4F5A02F28BF4FF4E1
:10806000A0241860224621466248BDE8104009F06D
:1080700003BF93F88810002900F0F880D3F880201F
:108080000244B2F5A02FC3F8802006D30139A2F52F
:10809000A02283F88810C3F88020C2F5A022944261
:1080A00028BF144693F89E20002AC0D109F074FF1F
:1080B0004F4B1860631CD5D110BD93F87410002984
:1080C00000F0C580DA6E0244B2F5A02FDA6605D35F
:1080D0000139A2F5A02283F87410DA66C2F5A02255
:1080E000944228BF144684E793F86010002900F0FA
:1080F000CC809A6D0244B2F5A02F9A6505D3013960
:10810000A2F5A02283F860109A65C2F5A0229442DD
:1081100028BF144655E793F84C10002900F08E80D4
:108120005A6C0244B2F5A02F5A6405D30139A2F566
:10813000A02283F84C105A64C2F5A022944228BFB2
:10814000144625E793F8381000296ED01A6B0244C4
:10815000B2F5A02F1A6305D30139A2F5A02283F846
:1081600038101A63C2F5A022944228BF1446F6E6DE
:1081700093F8241000294FD0DA690244B2F5A02FF9
:10818000DA6105D30139A2F5A02283F82410DA615F
:10819000C2F5A022944228BF1446C7E61A7C72B3E7
:1081A0009C680444B4F5A02F9C6004D3013AA4F564
:1081B000A0241A749C60C4F5A0249EE693F89C2029
:1081C000D2B1D3F894100844B0F5A02FC3F89400AE
:1081D00006D3013AA0F5A02083F89C20C3F89400B0
:1081E000C0F5A020844228BF04465FE7503F00202E
:1081F00010400020F03F002083F89E2056E79A743C
:108200004FF0FF3479E6241ADC6076E6121A9442C5
:108210001A6228BF144689E683F8261086E6121AE9
:1082200094425A6328BF144699E683F83A1096E6BA
:10823000121A94429A6428BF1446A9E683F84E1095
:10824000A6E6121A9442DA6528BF1446B9E683F806
:108250007610CEE6121A9442C3F8842028BF144642
:1082600093F89E20002A3FF421AFE0E693F89E2089
:1082700083F88A10002A3FF419AFD8E6121A944204
:10828000C3F8982028BF144610E783F8621098E6D8
:10829000121A94421A6728BF1446AAE683F82620C9
:1082A00044E683F83A205AE683F8622089E683F8A8
:1082B00076209EE683F84E206AE683F88A20F1E66F
:1082C00009F06AFE014B1860CCE600BF10400020A8
:1082D000024A0348002109F0BDBD00BFCD7E020067
:1082E000C0D404002DE9F04182B0694601F0DAFB08
:1082F00010B102B0BDE8F081C94809F013FE06468E
:108300000028F6D1DFF82083C64C09F045FED8F8E6
:10831000001009F047FEA37CABB1637C002B40F05A
:10832000A981237C002B00F05A83A5680544B5F58C
:10833000A02FA56004D3013BA5F5A0252374A5605B
:10834000C5F5A02501E04FF0FF3594F82630D3B1F4
:1083500094F82530002B40F07B8194F82420002AEB
:1083600000F08883E3690344B3F5A02FE36105D3EC
:10837000013AA3F5A02384F82420E361C3F5A023E8
:108380009D4228BF1D4694F83A30D3B194F8393055
:10839000002B40F04B8194F83820002A00F06D83C8
:1083A000236B0344B3F5A02F236305D3013AA3F550
:1083B000A02384F838202363C3F5A0239D4228BF5F
:1083C0001D4694F84E30D3B194F84D30002B40F058
:1083D000158194F84C20002A00F05283636C03440A
:1083E000B3F5A02F636405D3013AA3F5A02384F865
:1083F0004C206364C3F5A0239D4228BF1D4694F81A
:108400006230D3B194F86130002B40F0E58094F8ED
:108410006020002A00F00583A36D0344B3F5A02F6C
:10842000A36505D3013AA3F5A02384F86020A365D2
:10843000C3F5A0239D4228BF1D4694F87630D3B1E2
:1084400094F87530002B40F0A28094F87420002A34
:1084500000F01983E36E0344B3F5A02FE36605D360
:10846000013AA3F5A02384F87420E366C3F5A023A2
:108470009D4228BF1D4694F88A30EBB194F88930AC
:10848000002B40F0968094F88820002A00F0CC82DF
:10849000D4F880300344B3F5A02FC4F8803006D35D
:1084A000013AA3F5A02384F88820C4F88030C3F5EE
:1084B000A0239D4228BF1D4694F89E30E3B194F856
:1084C0009D30002B57D194F89C30002B00F0848213
:1084D000D4F894201044B0F5A02FC4F8940006D32B
:1084E000013BA0F5A02084F89C30C4F89400C0F5AE
:1084F000A020854228BF054609F04EFDA77CC8F89C
:108500000000002F40F02D820127002694F826302D
:10851000002B40F0F681012694F83A30002B40F011
:10852000C081022694F84E30002B40F08A81032649
:1085300094F86230002B40F05481042694F8763091
:10854000002B40F01E81052694F88A30002B40F065
:10855000B480062694F89E30002B40F02D82002F28
:1085600040F094806B1C3FF4C4AE2A4629462C4848
:1085700009F082FCBDE6D4F89830984280F044823D
:108580001B1A9D42C4F8983028BF1D46B4E7236FDC
:108590009842C0F05D8294F87430002284F875200F
:1085A000002B00F08082B5F5A02F28BF4FF4A02546
:1085B00061E7D4F884309842C0F0688294F888303B
:1085C000002284F88920002B00F06A82B5F5A02FE4
:1085D00028BF4FF4A0256FE7E36D9842C0F03E82BC
:1085E00094F86030002284F86120002B00F05E8255
:1085F000B5F5A02F28BF4FF4A0251EE7A36C984225
:10860000C0F0F38194F84C30002284F84D20002B08
:1086100000F04F82B5F5A02F28BF4FF4A025EEE65D
:10862000F03F0020503F002010400020636B984234
:10863000C0F0E18194F83830002284F83920002B12
:1086400000F03A82B5F5A02F28BF4FF4A025B8E678
:10865000236A9842C0F0088294F82430002284F8FB
:108660002520002B00F01982B5F5A02F28BF4FF46C
:10867000A02588E6E568A842C0F0C381237C667423
:10868000002B00F0AC814FF4A0255EE6072606EB38
:10869000860604EB860469460722204623F09BFBEE
:1086A0004FF40031002201238D4228BF0D46E160C6
:1086B0002274A2606374A37457E70DF101000622CF
:1086C000DB4923F079FB00287FF444AF94F888302D
:1086D0004FF47A6101FA03F2B2F57A4F03DA01330B
:1086E000DBB201FA03F24FF400464FF4FA700021B6
:1086F000C6FB0201002684F888304FF47A7200230A
:10870000C4F8806024F036FD94F89E30C4F88400EC
:108710000122854228BF054684F88920002B3FF4BA
:1087200021AF0DF101000622C24923F045FB0028CC
:108730007FF418AF94F89C304FF47A6101FA03F299
:10874000B2F57A4F03DA0133DBB201FA03F24FF4E8
:1087500000464FF4FA700021C6FB0201002684F89F
:108760009C304FF47A720023C4F8946024F002FD28
:1087700001238542C4F8980028BF054684F89D303F
:10878000F0E60622AC490DF1010023F015FB0028AC
:108790007FF4DAAE94F874C04FF47A6202FA0CF304
:1087A000B3F57A4F05DA0CF1010C5FFA8CFC02FA92
:1087B0000CF34FF400424FF4FA7000210027C2FB83
:1087C000030184F874C000234FF47A72E76624F042
:1087D000D1FC01238542206728BF054684F8753007
:1087E000B2E6062295490DF1010023F0E5FA0028D2
:1087F0007FF4A4AE94F860C04FF47A6202FA0CF3EE
:10880000B3F57A4F05DA0CF1010C5FFA8CFC02FA31
:108810000CF34FF400424FF4FA7000210027C2FB22
:10882000030184F860C000234FF47A72A76524F036
:10883000A1FC01238542E06528BF054684F861302C
:108840007CE606227E490DF1010023F0B5FA0028EE
:108850007FF46EAE94F84CC04FF47A6202FA0CF3D7
:10886000B3F57A4F05DA0CF1010C5FFA8CFC02FAD1
:108870000CF34FF400424FF4FA7000210027C2FBC2
:10888000030184F84CC000234FF47A72676424F02B
:1088900071FC01238542A06428BF054684F84D3051
:1088A00046E6062267490DF1010023F085FA00280B
:1088B0007FF438AE94F838C04FF47A6202FA0CF3C1
:1088C000B3F57A4F05DA0CF1010C5FFA8CFC02FA71
:1088D0000CF34FF400424FF4FA7000210027C2FB62
:1088E000030184F838C000234FF47A72276324F020
:1088F00041FC01238542606328BF054684F8393076
:1089000010E6062250490DF1010023F055FA002827
:108910007FF402AE94F824C04FF47A6202FA0CF3AA
:10892000B3F57A4F05DA0CF1010C5FFA8CFC02FA10
:108930000CF34FF400424FF4FA7000210027C2FB01
:10894000030184F824C000234FF47A72E76124F015
:1089500011FC01238542206228BF054684F825309A
:10896000DAE5062239490DF1010023F025FA002845
:1089700039D1267C4FF47A6202FA06F3B3F57A4FC6
:1089800003DA0136F6B202FA06F34FF400424FF46E
:10899000FA7000210027C2FB0301267400234FF464
:1089A0007A72A76024F0E6FB01238542E06028BFCD
:1089B000054663740826A9E506221E490DF101004B
:1089C00023F0FAF900283FF4B5AE002F3FF4CAAD0A
:1089D000082E3FF4C7AD5AE684F89E308CE5A374A8
:1089E0004FF0FF35B1E4082690E51B1A9D42A364C1
:1089F00028BF1D4603E51B1A9D42636328BF1D4621
:108A0000DFE42D1AE560A0E494F89C30002284F89D
:108A10009D20002BE0D0B5F5A02F28BF4FF4A02556
:108A20006AE584F8622008E584F88A2044E500BFFE
:108A3000C93F0020DD3F0020B53F0020A13F0020BE
:108A40008D3F0020793F0020653F0020513F0020EE
:108A50001B1A9D42236728BF1D460CE51B1A9D4229
:108A6000E36528BF1D46E8E41B1A9D42236228BF28
:108A70001D4688E484F8262085E484F83A20A0E4A2
:108A800084F84E20BBE484F87620F4E41B1A9D425F
:108A9000C4F8843028BF1D460EE584F8263072E401
:108AA00084F88A3008E584F87630E4E484F86230AB
:108AB000C3E484F84E30A2E484F83A3081E400BF85
:108AC00010B582B0694600F0EDFF00282CD1454C6E
:108AD000A37C63BB94F82630002B34D194F83A3051
:108AE000002B3DD194F84E30002B46D194F86230E3
:108AF000002B4FD194F87630002B58D194F88A305F
:108B0000002B61D194F89E3013B9002002B010BD43
:108B1000062235490DF1010023F04EF90028F4D169
:108B200094F89D30002BF0D0012002B010BD062239
:108B3000611C0DF1010023F03FF90028CAD1637CCC
:108B4000002BC7D0F0E7062228490DF1010023F0E1
:108B500033F90028C2D194F82530002BBED0E3E7CA
:108B6000062223490DF1010023F026F90028B9D18E
:108B700094F83930002BB5D0D6E706221D490DF107
:108B8000010023F019F90028B0D194F84D30002BE2
:108B9000ACD0C9E7062218490DF1010023F00CF909
:108BA0000028A7D194F86130002BA3D0BCE706229F
:108BB00012490DF1010023F0FFF800289ED194F82E
:108BC0007530002B9AD0AFE706220D490DF1010058
:108BD00023F0F2F8002895D194F88930002B91D039
:108BE000A2E700BF503F0020DD3F0020653F00208E
:108BF000793F00208D3F0020A13F0020B53F00209D
:108C0000C93F0020A0DF7047A1DF7047ADDF70478C
:108C1000B3DF704730B583B00446042200216846B4
:108C200023F0FDF80C4B02AA1B6842F8043D42F603
:108C3000A625012369462046ADF800508DF8023084
:108C4000FFF7E0FF28B905491A4620460978FEF7E4
:108C500007FE03B030BD00BFD8D404001840002088
:108C600030B5012187B005462D4804F041FABFF325
:108C70005F8F08B107B030BD0446284600F094FC71
:108C80001128034644D012D986282DD043F202027F
:108C9000904214D1234B224628461978FEF7E0FD76
:108CA000BFF35F8F1E4B00221A6007B030BD30B992
:108CB0001C49024609782846FEF7D2FDDAE700246F
:108CC00007222846CDE900440293ADF80250CDE9D1
:108CD000034405948DF8002000F0CEFEADF80400AA
:108CE000684602F033FDD5E706232846CDE9004467
:108CF000CDE90244ADF80250CDE904448DF80030CE
:108D000000F0BAFEADF80400684602F01FFDC1E7AE
:108D1000044B284619780122FEF7A2FDC0E700BFE8
:108D2000144000201C40002070B54FF6FF728CB03C
:108D300000249042CDE90044CDE90244CDE9044449
:108D4000ADF8020001D10CB070BD054600F07AFC10
:108D50000B28064635D00FD911280BD043F2020359
:108D6000984218D122461E4B28461978FEF778FD06
:108D70000CB070BD0122F6E768B90E23BDF8020001
:108D80008DF8003000F078FEADF80400684602F07F
:108D9000DDFC3246E7E7002407232846CDE90644F8
:108DA00008968DF81830ADF81A50CDE909440B94A7
:108DB00000F062FEADF81C0006A802F0C7FC2246D7
:108DC000D1E70F23BDF802008DF8003000F054FE0B
:108DD000ADF80400684602F0B9FC2246C3E700BFC4
:108DE0001B4000202DE9F04F524E89B031780446E7
:108DF000FEF71AFD10B109B0BDE8F08F0546204618
:108E000000F078FC08283FD017D8002869D0062841
:108E10001DD1204600F030FE00F088FC0027464BB4
:108E20003A4619782046FEF71BFD2A46317820463F
:108E3000FEF716FD09B0BDE8F08F43F20203984239
:108E40001BD043F20143984219D0112815D00023BA
:108E5000072204902046CDE90233CDE9053307937C
:108E60008DF80820ADF80A4000F006FEADF80C00C1
:108E700002A802F06BFC0127D1E70127CFE72046CB
:108E8000FFF752FF0127CAE701A8FFF7C1FEBDF8AF
:108E90000430012BBDD92F4601230DF106094FF0F7
:108EA000020842F6021B42F6052A07E05A452ED078
:108EB0000133BDF804209BB29A42AAD902AA1946EE
:108EC0002046CDE90289FFF7A1FE0028A1D1BDF817
:108ED0000620002FEAD1A2EB0A07B7FA87F77F092D
:108EE000E6E710232046CDE90255CDE90455CDE94A
:108EF00006558DF80830ADF80A4000F0BDFD01259B
:108F0000ADF80C0002A802F021FC2F4687E70133E0
:108F100099B202AA0DF1020320460393FFF776FEF1
:108F200000287FF476AFBDF80230002B3FF471AF1C
:108F300075E700BF1E4000201D40002070B54FF6B1
:108F4000FF728CB000249042CDE90044CDE9024488
:108F5000CDE90444ADF8020001D10CB070BD054666
:108F600000F070FB0B28064635D00FD911280BD026
:108F700043F20203984218D122461E4B2846197824
:108F8000FEF76EFC0CB070BD0122F6E768B90E2347
:108F9000BDF802008DF8003000F06EFDADF8040061
:108FA000684602F0D3FB3246E7E700240723284651
:108FB000CDE9064408968DF81830ADF81A50CDE981
:108FC00009440B9400F058FDADF81C0006A802F00F
:108FD000BDFB2246D1E70F23BDF802008DF800301B
:108FE00000F04AFDADF80400684602F0AFFB2246EF
:108FF000C3E700BF1B4000202DE9F04104788CB08E
:1090000014B10CB0BDE8F081468800944FF6FF73B0
:109010009E420546ADF80260CDE90144CDE9034426
:10902000059426D106AF304600F04EFB28B13C4BEC
:10903000304619780122FEF713FC6C88204600F0B8
:109040001BFD3A460023092101F0B0F8052826D07F
:10905000344B354918780022FEF724FC02460028DC
:10906000CFD1324B32491878FEF71CFC0CB0BDE86A
:10907000F081304600F0E6FA0B28804641D015D941
:1090800011283BD043F2020398421FD1224606AF7B
:10909000284B30461978FEF7E3FB6E88C3E7234B75
:1090A000204619780122FEF7DBFBD1E770B90E23C9
:1090B000BDF802008DF8003000F0DEFCADF80400D1
:1090C000684602F043FB06AF4246E1E706AF0024E4
:1090D000072330460694CDF820808DF818307C6048
:1090E000ADF81A60C7E903447C6100F0C5FCADF837
:1090F0001C00384602F02AFB2246C9E7012206AFCF
:10910000C6E70F23BDF802008DF8003000F0B4FC74
:10911000ADF80400684602F019FB06AF2246B7E737
:109120001D4000201C400020618C020019400020DE
:10913000158C02001B400020F0B50378082B83B08B
:109140000ED0304C207830490022FEF7ABFB0246AF
:1091500020B92E4B2E491878FEF7A4FB03B0F0BDC2
:10916000457A0446002DECD1067A072E22D0082E2F
:109170003ED0012EE5D16A463146808801F058FB89
:1091800005460028DDD1019B1B78002BD9D0A08893
:1091900000F040FD4FF6FF739842D2D01D4F194C9E
:1091A00039783246FEF75CFB2A4638781A49FEF7D2
:1091B00079FBC7E78088134C00F02CFD4FF6FF7356
:1091C00098420646BED001222178FEF749FB304680
:1091D00000F052FC2B466A46092100F0E7FF052803
:1091E000B0D10A4B304619780122FEF739FBA9E7C6
:1091F0000A4B1A68012AA4D1BFF35F8F014C1D608E
:10920000A0E700BF1C400020618C02001940002034
:10921000158C02001D400020E58D02001440002046
:109220002DE9F843FEF7F6FA1E4C1F4D2070FEF7AD
:10923000F1FA2870FEF7EEFA1C4E1D4F3070FEF763
:10924000E9FA3870FEF7E6FADFF87080DFF8709020
:1092500088F80000FEF7DEFA89F80000FEF7DAFA77
:109260002378144A182B107019D02B78182B16D08D
:109270003378182B13D03B78182B10D098F8003087
:10928000182B0CD099F80030182B08D0182806D0CD
:10929000094B00201860BFF35F8FBDE8F8830320FF
:1092A000BDE8F8831C4000201B4000201D4000202A
:1092B0001E4000201A4000201440002019400020C9
:1092C0001840002070B503888588353B86B0044679
:1092D0001F2B3AD8DFE803F07010393939393939A2
:1092E00039393939393939393939393939393939EE
:1092F0003939399B39BA39476C4E28463178FEF7EF
:1093000093FA10B3317800222846FEF7A9FAE388D1
:10931000002B00F0A080664B19780023CDF80230B6
:109320001A46ADF806300124092328468DF802308C
:10933000ADF80040FEF794FA5E4B0193284600F02A
:109340009BFB0022694600F0ADFF5B4C5B4B5C4928
:1093500018780022FEF7A6FA20785A490022FEF774
:10936000A1FA06B070BD002611232846CDE900669B
:10937000CDE902668DF80030ADF80250CDE9046603
:1093800000F07AFBADF8040000F0D0F94E4B4A4CE7
:10939000197832462846FEF763FA32462846217885
:1093A000FEF75EFABDF8020000F066FBADF80400BF
:1093B000684602F0CBF9C9E7444E28463178FEF7FB
:1093C00033FA0028C1D0002231782846FEF748FA47
:1093D000E288002A59D0364B374C197800260123F1
:1093E0003246ADF8003028460923CDF80260ADF8CA
:1093F00006608DF80230FEF733FA2E4B01932846B3
:1094000000F03AFB3246694600F04CFF9EE7037BD2
:10941000012B9AD1827A012A97D1018942F602134F
:10942000994292D12A4C28462178FEF719FA002257
:1094300020782849FEF736FA0246002885D11C4BD1
:10944000254918781C4CFEF72DFA7FE72846FFF7D0
:109450006BFC194C7AE7E089154A012811787FF4F2
:109460005CAF1A46CDF80230ADF80630ADF800001A
:1094700009232846247C8DF80230FEF7F1F90D4BC4
:10948000164A002C18BF134657E7A389012BA2D117
:10949000E1892846FFF7B8FB00289CD1034A064C17
:1094A000117828461A46FEF7DBF94FE71A400020EC
:1094B00019400020DCD404001D4000201B40002087
:1094C0003D8F0200E58D02001E4000201840002064
:1094D0001C400020618C0200158C0200E0D40400C6
:1094E000AFDF7047B1DF7047B2DF7047B3DF70475F
:1094F00070B5214B214C93E80300238888B04FF6C8
:10950000FF756E46AB4286E8030006D126E000F008
:109510002BFFA8420346208020D018460022314667
:1095200000F0C0FE03462088002BF0D00022112B53
:10953000CDE90222CDE90422CDE90622ADF80C00E6
:109540000CD0862B0CD0072204938DF8082000F055
:1095500061FBADF80A0002A802F00CF908B070BD7A
:1095600006238DF8083000F055FBADF80A0002A87C
:1095700002F000F908B070BDF8D4040020400020CB
:10958000044B1A884FF6FF739A4201D0FFF7B0BF21
:10959000704700BF20400020024B4FF6FF721A8038
:1095A00000207047204000202DE9F04182B007469E
:1095B00000F062FA4FF6FF7398423CD00646012451
:1095C0004FF003086B4622460821304601F034F97B
:1095D00003230546F0B9019A3846911D42F8048BE1
:1095E000FFF782FF013403460821D8B10C2830462A
:1095F00003D1A4B201F08AFAE4E70821052B18BFD1
:109600001D4601F083FA002818BF0325284602B042
:10961000BDE8F081072814BF05460C25284602B096
:10962000BDE8F0813246304601F00CFB0546284685
:1096300002B0BDE8F08143F20205284602B0BDE861
:10964000F08100BF2DE9F04182B0074600F014FA26
:109650004FF6FF73984227D10026354603244FF07A
:1096600001082346324629463846FFF73BFF0428C7
:109670000AD008280AD00B280AD0B8F1000F08BF7A
:109680000B2002B0BDE8F0811120F6E70020F4E7DE
:1096900014F0020406D195B12646254603244FF066
:1096A0000008DEE70124FAE76A46082101F0C0F865
:1096B0000028D1D1019DAE882C680635CFE7002E59
:1096C000DFD02E460324EAE700B585B00DF107038D
:1096D000039300F0D1F902AA012101F0A9F820B901
:1096E000039B187805B05DF804FB002005B05DF819
:1096F00004FB00BF38B50C4B04461846FFF7F6FED6
:1097000078B9198843F203054FF6FF722046FFF738
:10971000E7FEA84200D038BD1988013189B219800E
:10972000F2E7032038BD00BF2240002010B5074BF0
:10973000044693E8030082B06B4683E803000022EE
:109740001946204600F0AEFD02B010BD00D5040061
:1097500046DF70470388102B00D0704770B5041D9A
:109760000FCC9EB007AD0FC50FCC0FC594E8070016
:109770009DF8203003F0FE03062B85E8070014D186
:10978000BDF81C306B49089803EB83035B004FF670
:10979000FF74CC52CA18BDF824409DF826101172EF
:1097A000C2F80200D4801EB070BD00F045FD9DF8E7
:1097B00020305B08012B13D9022BE1D105AD0DF14F
:1097C000060405E09DF8203003F0FE03042B4CD086
:1097D0002A462146072000F037FD0028F2D1CFE7C6
:1097E00005AD0DF106042A462146072000F02CFDA8
:1097F0000028C5D0069911F1110FF4D09DF8203042
:109800004A7C534013F0FE0FEDD1123106220DF1C8
:10981000210022F0D1FA0028E5D1BDF81C20454DE9
:10982000BDF80610089802EB82035B00EC18E952C1
:10983000A31CC4F80200BDF8240098804FF6FF7006
:109840009DF826409C718142ADD01EAC002304F8E7
:10985000303D2046ADF84A20ADF84C1001F09EFF97
:109860002046FFF7C9FB1EB070BD069E03220DF116
:10987000210102A822F0AFFA032209A904A822F0CC
:10988000AAFA337C8DF84830F37B8DF84930B37BEE
:109890008DF84A30737B8DF84B30337B8DF84C302C
:1098A000F37A8DF84D30B37A8DF84E30737A8DF8A7
:1098B0004F30337A8DF85030F3798DF85130B379D9
:1098C0008DF8523073798DF8533033798DF85430E8
:1098D000F3788DF85530B3788DF8563073788DF86D
:1098E00057300D22002116A822F099FA9DF8101089
:1098F0009DF811209DF812308DF8671012A88DF890
:1099000066208DF86530FFF723FF9DF877209DF8DE
:1099100076609DF875308DF80C2003A9032202A80B
:109920008DF80D608DF80E3022F046FA00287FF495
:109930004FAF72E724400020F8B5102204460D46D0
:109940000130013104F1110622F036FA00284DD120
:109950006378F3B9A378E3B9E378D3B92379C3B9CA
:109960006379B3B9A379A3B9E37993B9237A83B9B6
:10997000637A73B9A37A63B9E37A53B9237B43B9A2
:10998000637B33B9A37B23B9E37B13B9277C002F17
:109990002DD06B78002B4DD1AB78002B4AD1EB78D2
:1099A000002B47D12B79002B44D16B79002B41D16F
:1099B000AB79002B3ED1EB79002B3BD12B7A002BDE
:1099C00038D16B7A002B35D1AB7A002B32D1EB7AC0
:1099D00083BB2B7B73BB6B7B63BBAB7B53BBEB7BD7
:1099E00043BB2F7C003718BF012700E00027637CB2
:1099F00046B115F1110605D06A7C5A4012F0FE0FEF
:109A00000CD0002603F0FC03042B05D06B7C03F084
:109A1000FC03042B18BF37463846F8BD062205F173
:109A2000120104F1120022F0C7F9B0FA80F67609AB
:109A3000637CE7E70127DAE730B585B005460C46D9
:109A400000F0FAFB03E0BDF80630A3420BD102AAF6
:109A50000DF10601072000F0F7FB0028F3D14FF6C7
:109A6000FF7005B030BD03992846FFF765FF002859
:109A7000EDD0BDF80600F4E713280DD810B5044664
:109A8000FDF75AFE28B104EB8403054A32F81300AF
:109A900010BD4FF6FF7010BD4FF6FF70704700BF4E
:109AA00024400020132816D838B504460D46FDF78B
:109AB00043FE68B1094A04EB840302EB4303002030
:109AC00053F8022F2A609A889B79AA80AB7138BD1F
:109AD00043F2020038BD43F20200704724400020E8
:109AE00008B502887AB983786BB9C3785BB9037912
:109AF0004BB943793BB983792BB9C3791BB9037A45
:109B00000BB9437A13B10B88934201D0002008BDF2
:109B100002310822023022F04FF9B0FA80F04009F9
:109B200008BD00BF30B585B00446851C00F084FB3D
:109B300002AA0DF10601072000F086FB00285AD08A
:109B400023880399002B35D1A278002A57D1E378D6
:109B5000002B49D12279002A46D16279002A43D1CB
:109B6000A279002A40D1E279002A3DD1227A002A46
:109B70003AD1627A002A37D12379002B2FD162792A
:109B800052B9A379002B2AD1E2792AB9237A002B82
:109B90003AD1627A002ACBD04A8D9A42C8D12C3170
:109BA0000822284622F008F90028C1D1BDF8060095
:109BB00005B030BDB1F846209A42EDD148310822B7
:109BC000284622F0F9F80028F0D023880399002BCA
:109BD000E2D1A278002ADFD1E378002BCCD04A8DE5
:109BE00000239A42A4D1DAE7B1F84620002AE5D052
:109BF000002BC1D0F3E74FF6FF7005B030BDB1F8D0
:109C00004620002ADAD0C7E713464A8D9A428FD100
:109C1000C5E700BFF8B54FF6FF73984214D007466A
:109C20000B4D002401E0142C0ED02B88BB42A6B2B1
:109C300005F10A0504F10104F5D13046FDF77CFD7C
:109C40000028F0D03046F8BD4FF6FF763046F8BD1C
:109C500024400020038893B9837883B9C37873B90B
:109C6000037963B9437953B9837943B9C37933B974
:109C7000037A23B9407A003018BF012070470120D1
:109C8000704700BF132804D800EB8000014B23F875
:109C90001010704724400020F8B54FF6FF7398422B
:109CA00003D1BDE8F84000F0FFBC114F0646002488
:109CB0003D4602E00134142C14D02B88B342A0B2EC
:109CC00005F10A05F6D1FDF737FD0028F2D0304640
:109CD00000F0EAFC28B904EB84044FF6FF7327F880
:109CE0001430F8BD3046BDE8F84000F0DDBC00BFE0
:109CF0002440002081DF704784DF704770B51D4C21
:109D000082B04FF4E1620021204622F088F807F08B
:109D1000E3FB08B102B070BD05F03CF80028F9D1B2
:109D2000154A164E94F88133107040253070019515
:109D3000F3B994F80537DBB9114C124B2070124A75
:109D40001249134804F0F2FD0028E3D101AA114999
:109D50000C4804F08DFE0028DCD10E4A0B482B463F
:109D6000114604F0A7FE0028D4D101233370D1E7B7
:109D70001120CFE75C480020EC400020F047002095
:109D8000144800209C520020644F0020C4D50400D9
:109D9000A44400201C480020034B04481B78002BDF
:109DA00008BF0020704700BFF04700201C4800207B
:109DB000424B1B78002B54D170B5414C94F8803342
:109DC00084B02BB994F804373BBB002004B070BDBD
:109DD0003C4B1B7820260396002B45D094F881330A
:109DE0004BB103AB00933849384B3948224604F055
:109DF0009DFE002844D02021344805F003F80028B7
:109E000046D132490020FFF775FF002384F88033E4
:109E100084F881330028D5D0D8E72A4B1B78202539
:109E2000039503B394F805374BB103AB0093294A6C
:109E3000264B2549264804F079FE002834D02021FD
:109E4000224804F0DFFF002836D120490120FFF727
:109E500051FF002384F8043784F805370028B4D074
:109E6000B4E70320704701234FF4617202FB0344FF
:109E70000320002384F8803384F8813304B070BD5C
:109E8000124A15483346114604F014FE0028B8D093
:109E900000234FF4617202FB0344002384F88033F3
:109EA00084F8813304B070BD084A0B482B46114634
:109EB00004F000FE0028C8D00123EAE7EC400020AF
:109EC0005C480020F0470020644F0020F447002049
:109ED00018410020E04B0020C4D5040070B5038871
:109EE0008588112B90B011D0182B0DD1037BDB0787
:109EF00004462CD4A16821486A46402304F0DAFDC8
:109F000080B11F4B01221A7010B070BD1D4A4FF472
:109F1000617303FB0525002385F8813385F88033C1
:109F200010B070BD174B15484FF4617202FB053538
:109F300029466A46402304F079FDB0FA80F04009D2
:109F4000012385F8810385F8803310B070BD0E4B76
:109F50000E4A1B7812680E4E002B08BF002612B165
:109F600028469047024631462846FFF7C5FE00289E
:109F7000C0D0034B01221A70BCE700BFC4D5040057
:109F8000EC4000205C4800201448002018480020C5
:109F9000F0400020F0B500238DB0244F1946082270
:109FA00001A83B7021F03BFF4FF6FF7000F068FF07
:109FB0004FF6FF76B0421BD0044607E000F004FFE6
:109FC000204600F05DFFB042044611D0A4F5804564
:109FD000ADB2284601AA03A906F0ECF90A282046EA
:109FE000ECD0284606F092F80828034602D02BB998
:109FF0000DB0F0BD01233B700DB0F0BD0022089301
:10A0000001214FF6FF7306A80725CDE90622CDE909
:10A0100009220B92ADF81C408DF818508DF82410D1
:10A02000ADF81A3000F006FA0DB0F0BD245600204D
:10A0300010B58289047886B002F58042002392B27E
:10A04000611ECDE90033CDE90233ADF80420CDE93E
:10A050000433042911D8DFE801F033333317030048
:10A060004368002B56D113224FF0FF3368468DF81A
:10A070000020CDF8023000F0DDF9304C23780BB130
:10A08000FFF788FF06B010BD43F6FE739A42F4D87E
:10A09000C389002BF1D14368002B47D00B2101224B
:10A0A00002938DF800108DF80C20244C01224FF6FD
:10A0B000FF7368462270ADF8023000F0BBF9DDE7AF
:10A0C00043F6FE739A42C1891ED8D0E90132A4F149
:10A0D0000304B4FA84F464098DF808108DF809407B
:10A0E0000392EBB99DF8103043F001038DF8103066
:10A0F00008224FF6FF7368468DF80020ADF8023055
:10A100000E4C00F097F9B9E701F5804292B29A42FD
:10A11000DBD9B2E701228DF80C2002931422A3E7C9
:10A1200001228DF8142004930922E2E70A23104645
:10A130008DF8003000F048FEB7E700BF245600203D
:10A1400030B5194889B005F05DFC48BB05F070FCDE
:10A15000054608BB00F000FE03A80822294621F0AE
:10A160005EFE0DE005A805F045FE019B9C8804F508
:10A170008044A4B205A805F065FE204600F0F4FD79
:10A1800005A903AA4CF2070006F0A6F801A90028C9
:10A19000E8D0284609B030BD8625284609B030BD34
:10A1A0000325284609B030BD31A00200F0B5FF28D4
:10A1B00087B004D8012906D00C1F052C03D9072429
:10A1C000204607B0F0BD0D4604460021174601A801
:10A1D00008221E4621F023FEA4F58040A5F580410B
:10A1E00080B201AB03AA89B206F004F8E0B901A974
:10A1F00003A805F0FFFD0446B0B9019BBD705B8864
:10A200003B800299A6B1368878689D00AE4228BF8F
:10A210002E46324621F0DFFDB5420BD803A805F0EB
:10A2200011FE204607B0F0BD0524204607B0F0BD62
:10A230007960F3E70C24C3E708220021014821F0EC
:10A24000EEBD00BF1C560020012804D0031F052BC3
:10A2500001D90120704770B5044686B0A0F5804052
:10A2600015460E4680B203A90D4A06F035F810B126
:10A27000002006B070BD01A903A805F0BBFD0028B1
:10A28000F6D1019BAC705988029A29806A609B883C
:10A2900003F5804303A8338005F0D4FD0120E8E7EF
:10A2A0001C560020F0B5FF2889B005D88B78012B0B
:10A2B00006D01C1F052C03D90724204609B0F0BD89
:10A2C000A0F58044A3F580439DB24F680B880493AA
:10A2D000A4B20021164668460822ADF80840ADF841
:10A2E0000A50039721F09BFD294620466B4605AA9C
:10A2F00005F080FF80B902A905A805F067FE0446B5
:10A300000E2C1CD8DFE804F0141B1B1B1B1B1B129C
:10A310000E1B1B1B1B1B0E0002A905A805F0B8FD98
:10A320000446EDE71124204609B0F0BD8624C4E7B9
:10A33000002EC2D0314605A806F0AAF8BDE70324D6
:10A34000BBE700BF4FF6FF7000F00EBDFF2806D838
:10A3500008B500F027FDFFF71DFE002008BD07200F
:10A36000704700BF00F044BD00F04CBD00F088BD58
:10A3700010B582B08278417A044600232B48CDE99B
:10A3800000338DF8022001F055FC002839D0237AE3
:10A39000A178019003EB83039B004A1EADF80030C7
:10A3A0008DF80210072A08D8DFE802F01E07070719
:10A3B000071E042E1423ADF800306946221D2088A4
:10A3C000FFF770FF07280DD012D9112822D0862858
:10A3D00017D1A37A164A03F0FD0343F001030121CC
:10A3E000A372117002B010BD0123ADF80030E4E794
:10A3F00038B9A37A60F3410360F30003A37202B09B
:10A4000010BD032002B010BD838809339B08ADF84E
:10A410000030D2E7A37A064A43F002036FF3000349
:10A4200001210020A372117002B010BD6C570020F2
:10A43000685700202DE9F0416D4DC3686A6893426A
:10A4400086B0044600F0CF802A69934200F0CD80A8
:10A45000EA69934200F0BF80AA6A934208BF0326CC
:10A4600000F0BA8000262378092B00F0A580132B7A
:10A4700076D0082B47D0204601F074F8204602F031
:10A48000E3FB5C4F2046FFF77BF82046FEF754FEC7
:10A490003B7813B906B0BDE8F08100233B7000247F
:10A4A0004FF001086600331905EB830318469B7AC9
:10A4B0009A074BD587F80080FFF75AFF002849D04C
:10A4C00034444FF6FF7335F82420ADF80420862875
:10A4D000ADF8023000F0858000238DF80C3002903A
:10A4E000072306AC04F8183D204601F03BF820464F
:10A4F00002F0AAFB2046FFF743F82046FEF71CFEB9
:10A5000006B0BDE8F081677A002FB4D1002EB2D03A
:10A51000337A5BB1DFF8E080717A3944C9B24046E2
:10A5200001F0A2FB337A01379F42F5D3B37A03F0EF
:10A53000FD036FF300034FF6FF72FF21B372002398
:10A540003280B27071723372736094E7D90748BF7A
:10A5500087F800800134042CA4D106B0BDE8F08156
:10A56000204600F0FFFF204602F06EFB214F204600
:10A57000FFF706F82046FEF7DFFD3B78002B89D079
:10A5800000243C704FF001086600331905EB83038B
:10A590009B7A9A0701D4DB0708D5301905EB8000B8
:10A5A00087F80080FFF7E4FE002889D10134042CED
:10A5B000EAD106B0BDE8F081637A002B7FF45BAF8F
:10A5C000002E3FF458AFB27A0A4F736042F0020295
:10A5D000B2723B7063E7022606EB460605EB860681
:10A5E00041E706237DE70026F6E70126F4E700BFF2
:10A5F0007C570020685700206C57002070B5264C0F
:10A60000264BA27AA57D94F8221094F82E0002F031
:10A61000FD026FF30002A27205F0FD05002262F355
:10A620000005FF2601F0FD0100F0FD0082B066721A
:10A6300062F3000162F30000A57550260425CDE900
:10A64000005622724FF6FF7562602275226184F80F
:10A650002020E26184F82C20A26284F8221084F881
:10A660002E004FF4A0720E490E482580A570A581DA
:10A67000A57365752583A57684F82150A58484F893
:10A68000265084F82D5001F077FA002814BF0320DB
:10A69000002002B070BD00BF7C570020AC570020E6
:10A6A000285600206C5700202DE9F047DFF8709104
:10A6B000B9F800308342054600F0AB80B9F80C30A1
:10A6C000834200F0A880B9F8183083420ED0B9F860
:10A6D0002430834208BF032609D02846FFF736FE00
:10A6E00010B1072818BF0320BDE8F087022606EB4B
:10A6F0004601B9F824C0DFF83481484F09EB8101E5
:10A70000B9F80030AB4228D0B9F80C30AB427AD05F
:10A71000B9F81830AB4273D0654577D0731C042B61
:10A72000DBD003EB430239F82220AA425AD0B31CF3
:10A73000042BD2D003EB430239F82220AA4251D095
:10A74000002ECAD1B9F824C06545C6D1B9F8003089
:10A75000AB424FF003064146D6D1314C00228878F7
:10A76000A37883421AD0531C042BD7D003EB4301A8
:10A7700039F82110A9423DD0931C042BCED003EB15
:10A78000430139F82110A94234D0002AC6D16545C9
:10A79000C4D144460322A3788342E4D1A37A9B0721
:10A7A000E1D16368002BDED1227A5AB19A46617AF0
:10A7B0005144C9B2384601F057FA237A0AF1010A26
:10A7C0009A45F4D3A37A03F0FD034FF6FF710022FC
:10A7D0006FF30003FF20A3722180A17060722272C8
:10A7E00062609BE703EB43011E4609EB8101B9F868
:10A7F00024C085E703EB43041A4609EB8404AFE762
:10A80000084C0222ABE7084C0122A8E74446032289
:10A81000A5E700266BE7012669E700BF6C5700201B
:10A820007C5700209457002088570020A057002014
:10A830000023FFF7BBBC00BF2DE9F04F83B00192AE
:10A840007BB3CC1F012C28D8541E032C25D8AC4F29
:10A85000B7F80090484500F08E80BC89844200F033
:10A860008C803C8B844220D0BC8C844200F087805A
:10A870004FF6FF74A14500F0B780BD89A54200F0F6
:10A8800036813D8BA54200F03081BD8CA54200F0A1
:10A89000E680112003B0BDE8F08F072003B0BDE8CB
:10A8A000F08F0E2003B0BDE8F08F0224BD8C04EBC6
:10A8B0004408854207EB880864D098F802B0651C0C
:10A8C00002344FEA450C66008B450CEB050E06EB97
:10A8D000040A0FD0042DCBD037F82EE0864532D0B5
:10A8E000042CC5D037F82A508542C1D1264407EB45
:10A8F0008608E2E798F80AB01BF0030FEAD1D8F80F
:10A900000420002AE6D198F80800019A90421DD14F
:10A910000F4698F80910019DFF291E4618D0002403
:10A92000784888F8085001F085F910B305EB8502E6
:10A93000120192B292083280B77070600CB1082F89
:10A9400012D00020AAE72C466646CFE70F20A5E7E5
:10A9500029466C4801F026F9FF28014688F80900CD
:10A9600000F0AE800124DBE79300063B83800020EB
:10A9700094E7032092E7002498E7012496E7032454
:10A9800007F12408DFF880C198F802508D421CD0EE
:10A99000651C042D3FF46CAF05EB450637F82660C7
:10A9A00086421BD0A51C042D3FF462AF05EB450683
:10A9B00037F82660864211D0002C7FF459AFE0466C
:10A9C000032498F802508D42E2D198F80A50AE075D
:10A9D000DED1D8F80450002DDAD194E705EB450814
:10A9E0002C4607EB8808CFE70024BD8C4FF6FF7A92
:10A9F00004EB4408554507EB880833D098F802501B
:10AA0000661C02344FEA460E4FEA440CFF2D0EEB53
:10AA100006090CEB040B12D0042E3FF43AAF37F8C2
:10AA20002950554518D0042C3FF433AF37F82B503C
:10AA300055457FF42EAFA44407EB8C08DEE798F869
:10AA40000A50AD07E8D1D8F80450002DE4D1A8F899
:10AA5000000088F802105BE73446F446EBE7DFF8C5
:10AA6000A8800324DFF8A0C04FF6FF7698F80250C4
:10AA7000FF2D1CD0651C042D3FF40BAF05EB450EDC
:10AA800037F82EE0B64534D0A51C042D3FF401AFB5
:10AA900005EB450E37F82EE0B6452AD0002C7FF4A2
:10AAA000F8AEE046032498F80250FF2DE2D198F862
:10AAB0000A50AA07DED1D8F80450002DDAD1C6E733
:10AAC00098F80A3088F8020003F0FD0300226FF3C3
:10AAD00000034FF6FF7188F80A30A8F8001088F8D4
:10AAE0000820C8F804201120D8E602247DE70124BC
:10AAF0007BE705EB45082C4607EB8808B6E700BF67
:10AB00007C5700206C570020A05700202DE9F84307
:10AB1000494E3388834289460BD0B389834259D04A
:10AB2000338B834258D0B38C834257D00520BDE885
:10AB3000F8830023B28C03EB4305824206EB8505C4
:10AB40004FD095F802C05A1C023357005C00CC4528
:10AB500007EB020E04EB03080FD0042AE6D036F808
:10AB60002E50854230D0042BE0D036F82820824287
:10AB7000DCD11C4406EB8405E3E795F80AC01CF021
:10AB8000030FEAD169680029E7D12B7A5BB12B4E1C
:10AB90000024697A2144C9B2304601F065F82B7A65
:10ABA00001349C42F5D3AB7A03F0FD034FF6FF72FC
:10ABB00000206FF30003FF21AB722A80AA70697234
:10ABC00028726860BDE8F88313463C461C4406EBD7
:10ABD0008405B6E70123ADE70223ABE7032306F1C3
:10ABE0002405174FAA784A4518D05A1C042A9DD02C
:10ABF00002EB420436F82440844216D09A1C042A00
:10AC000094D002EB420436F8244084420DD0002B4D
:10AC10008CD13D460323AA784A45E6D1AA7A920709
:10AC2000E3D16A68002AE0D1AFE702EB42051346A0
:10AC300006EB8505D6E700BF7C5700206C57002047
:10AC4000A0570020CB1F012B01D9072070472DE909
:10AC5000F0478046104692468946FFF783FB78B15D
:10AC60003B490B8843450ED08B89434541D00B8B24
:10AC700043453CD08B8C43453DD00520BDE8F08753
:10AC80000720BDE8F08700238A8C03EB430542458B
:10AC900001EB850532D0AE785C1C02334FEA440CE0
:10ACA00058004E450CEB040700EB030E0FD0042CAC
:10ACB000E3D031F82760464516D0042BDDD031F8BB
:10ACC0002E404445D9D1C51801EB8505E3E7AA7AA2
:10ACD0009607ECD16A68002AE9D1A5F800A02846B9
:10ACE000BDE8F047FFF744BB23466046EBE702238D
:10ACF000CAE70123C8E7032301F12405154CAA780C
:10AD00004A4518D05A1C042AB7D002EB420031F849
:10AD10002000404516D09A1C042AAED002EB420017
:10AD200031F8200040450DD0002BA6D12546032345
:10AD3000AA784A45E6D1AA7A9207E3D16A68002A3E
:10AD4000E0D1CAE702EB4205134601EB8505D6E7E1
:10AD50007C570020A057002040220021014821F00C
:10AD60005EB800BFB05700204FF6FF73984210B591
:10AD700009D0FF2804460FD80146094802F050F9CF
:10AD800050B9204610BD4FF48071054802F06CF9AF
:10AD900080B2B0F5807FF5D14FF6FF7010BD00BFD7
:10ADA000B057002008B54FF6FF73984208D0FF282F
:10ADB00006D80146034802F033F908B9012008BD5E
:10ADC000002008BDD0570020FF2800D9704710B5DB
:10ADD00001460446044802F033F921460348BDE821
:10ADE000104002F02DB900BFB0570020D05700200E
:10ADF000FF2801D9002070470146014802F02AB916
:10AE0000B05700204FF6FF7398422DE9F04130D043
:10AE1000013086B2FF2E27D8174C03E09EB2B6F55C
:10AE2000807F21D03146204602F014F9731C00289F
:10AE3000F4D0DFF84880A8F120073146404602F000
:10AE400009F998B1741CA4B2B4F5807F0CD0A5B2F6
:10AE50002146384602F0FEF801342E46A5B20028FD
:10AE6000EBD1B5F5807FF3D14FF6FF763046BDE8E4
:10AE7000F0810026D0E700BFB0570020D057002057
:10AE800038B54FF6FF73984216D0013084B2FF2CCC
:10AE90000ED80A4D03E09CB2B4F5807F08D021465D
:10AEA000284602F0D7F8631C0028F4D0204638BDAD
:10AEB0004FF6FF74204638BD0024EAE7D057002043
:10AEC00076DF704710B5037882B053B1072B01D0FD
:10AED00002B010BD80680028FAD009F077FE02B0F9
:10AEE00010BD448801A9204600F0CEFC43F20202C6
:10AEF000904202D008B109F069FE9DF8041011F0EB
:10AF00000201E5D1204600F0ADFC0028E0D0112878
:10AF1000DED00D2806D00B28DAD043F20202904290
:10AF2000DBD1D5E720461321FFF7CAFFD0E700BFEA
:10AF3000F0B5037887B00446142B2DD8DFE813F062
:10AF40003E012C006A012C002C002C0015002C0066
:10AF50002E002C002E002C002C002C002C002C008D
:10AF60002C002C002C0033004F01D04C23789BB9CF
:10AF7000CF4D2B78002B40F070816A461946184659
:10AF800000F012FD0646002800F05681431F012BF9
:10AF900002D9304609F01AFE07B0F0BDC44B0122B9
:10AFA0001A7007B0F0BDC34EC34D3468BF49C048E6
:10AFB000624202F0070204F0070358BF5342002226
:10AFC00035F813700A704FF6FF718F4202700FD080
:10AFD000384625F8131000F053FD862800F08A81CA
:10AFE000112800F08781132840F2268209F0EEFD37
:10AFF000631C5A4202F0070203F0070358BF534292
:10B000004FF6FF7235F8137097420FD0384625F887
:10B01000132000F035FD862800F05281112800F041
:10B020004F81132840F2028209F0D0FDA31C5A423E
:10B0300002F0070203F0070358BF53424FF6FF72B6
:10B0400035F8137097420FD0384625F8132000F0DA
:10B0500017FD862800F0D081112800F0CD8113283B
:10B0600040F2F08109F0B2FDE31C5A4202F00702FF
:10B0700003F0070358BF53424FF6FF7235F81370C1
:10B0800097420FD0384625F8132000F0F9FC8628A7
:10B0900000F09881112800F09581132840F2EA8190
:10B0A00009F094FD231D5A4202F0070203F0070342
:10B0B00058BF53424FF6FF7235F8137097420FD0C6
:10B0C000384625F8132000F0DBFC862800F060816C
:10B0D000112800F05D81132840F2C08109F076FD4F
:10B0E000631D5A4202F0070203F0070358BF5342A0
:10B0F0004FF6FF7235F8137097420FD0384625F897
:10B10000132000F0BDFC862800F02881112800F0F3
:10B110002581132840F29C8109F058FDA31D5A4255
:10B1200002F0070203F0070358BF53424FF6FF72C5
:10B1300035F8137097420FD0384625F8132000F0E9
:10B140009FFC862800F0F080112800F0ED80132885
:10B1500040F28A8109F03AFD0734634203F00703A5
:10B1600004F0070458BF5C424FF6FF7335F81470C3
:10B170009F423FF411AF384625F8143000F080FCB0
:10B18000862801D0112820D131684B1C5A4202F088
:10B19000070203F0070325F8117058BF5342062138
:10B1A00000226846CDE900223360CDE90222CDE9D4
:10B1B00004228DF80010FFF7BBFEEDE6808800F05A
:10B1C0005FFC862850D011284ED0132804D83B4B62
:10B1D000C340DB073FF5E0AE09F0F8FCDCE6334A9C
:10B1E000037B00211170002B3FF4D6AE83680E2B39
:10B1F00002D0012B7FF4D0AE002306226846CDE9B1
:10B200000033CDE90233CDE904338DF80020FFF798
:10B210008FFEC1E6037A012B3FF6BEAE0023828883
:10B220006846CDE90033CDE90233ADF80420CDE91D
:10B230000433FFF77DFEAFE6BDF8000000F05CFBD5
:10B24000064608B109F0C2FC0122731F93422A701E
:10B250007FF6A2AE002E7FF49CAE04F08FFF08B301
:10B2600008283FF499AEB7E71249134A0B68A08843
:10B2700022F8130001335A4202F0070203F00703D9
:10B280004FF0060458BF534268460022CDE9002221
:10B290000B60CDE90222CDE904228DF80040FFF7D2
:10B2A00047FE79E60123237076E600BFF0570020C1
:10B2B000F1570020F4570020883B0020C10008000F
:10B2C00031684B1C5A4202F0070203F0070358BFD3
:10B2D00053423360002206236846CDE9002225F858
:10B2E0001170CDE90222CDE904228DF80030FFF77C
:10B2F0001FFE9BE631684B1C5A4202F0070203F026
:10B30000070358BF53423360002206236846CDE945
:10B31000002225F81170CDE90222CDE904228DF832
:10B320000030FFF705FE63E631684B1C5A4202F01D
:10B33000070203F0070358BF53423360002206237D
:10B340006846CDE9002225F81170CDE90222CDE949
:10B3500004228DF80030FFF7EBFDFDE631684B1C51
:10B360005A4202F0070203F0070358BF534233600A
:10B37000002206236846CDE9002225F81170CDE9A8
:10B380000222CDE904228DF80030FFF7D1FDC5E699
:10B3900031684B1C5A4202F0070203F0070358BF02
:10B3A00053423360002206236846CDE9002225F887
:10B3B0001170CDE90222CDE904228DF80030FFF7AB
:10B3C000B7FD8DE631684B1C5A4202F0070203F0CC
:10B3D000070358BF53423360002206236846CDE975
:10B3E000002225F81170CDE90222CDE904228DF862
:10B3F0000030FFF79DFD55E631684B1C5A4202F0C4
:10B40000070203F0070358BF5342336000220623AC
:10B410006846CDE9002225F81170CDE90222CDE978
:10B4200004228DF80030FFF783FD1DE6144BC34066
:10B43000D9077FF5F9ADF9E5114BC340DF077FF57B
:10B44000D5ADD5E50E4BC340DA077FF50BAE0BE665
:10B450000B4BC340D9077FF55FAE5FE6084BC34097
:10B46000DF077FF53BAE3BE6054BC340DA077FF5D0
:10B4700071AE71E6024BC340DB077FF511AE11E6FA
:10B48000C1000800074B1A7802B9704710B504468E
:10B49000FEF760F9204601F039FC2046BDE8104077
:10B4A000FDF710BF0E5800202DE9F043294B1F78FF
:10B4B00085B027B9284B1F7005B0BDE8F0834FF663
:10B4C000FF70FEF751FF04210DF102030DEB0106A1
:10B4D000ADF8021002AA002506210446CDE9015567
:10B4E0000396FEF763FE07280346E3D04FF6FF7886
:10B4F000C1464FF0FF360BE0052B16D1FEF734FFA7
:10B500000DF1020302AA06210446FEF74FFE034690
:10B510002046002BF0D1019BAB4224BFA1461D4623
:10B52000B3423CBFA0461E46E8E74FF6FF739C427D
:10B5300009D10A4B0A4A1D60074BA2F800901F7000
:10B5400005B0BDE8F083044B00271F7005B0BDE8CF
:10B55000F08300BF0E58002010580020F85700203C
:10B560000C5800202DE9F043054687B08088FEF78F
:10B5700051FB2B786880083B032B19D8DFE803F0D8
:10B580006A5902285F4C237843B14FF6FF70FEF7EB
:10B59000EBFE4FF6FF739842064679D05A4B1B7864
:10B5A00033B15A4BAA881B889A4201D1FFF77CFF1E
:10B5B000574E33784BB1574F002457F82430284664
:10B5C0009847337801349C42F7DB07B0BDE8F0833D
:10B5D0004C4B1A78002AEBD00024E846214618226A
:10B5E0004B4E1C70404620F01AFCAA680292337839
:10B5F0000D224FF0FF318DF800202A7BCDF802108C
:10B600008DF80C20002BE0D0424F57F8243028460C
:10B610009847337801349C42F7DB002BD5D00024C7
:10B6200057F8243040469847337801349C42F7DB82
:10B63000CBE76B7A002BBBD137490A68002AB7D019
:10B64000E8688242B4D135480B600268EB60013A89
:10B650000260ADE76B7A93B92F490A6812B1E868C6
:10B6600082420FD0284B1B78002BA1D0274BAA88F1
:10B670001B889A429CD12B7A062B99D196E7012BF5
:10B6800096D1EFE7214AA8880B60EB6010808FE726
:10B69000FEF76CFEB04281D14FF00009E8461C4E27
:10B6A00084F8009049461822404620F0B8FB3378D1
:10B6B0000C214FF0FF328DF80010CDF802209BB125
:10B6C000144F57F8293028469847337809F1010973
:10B6D0009945F6DB43B1002457F82430404698479B
:10B6E000337801349C42F7DB074B1B78002B3FF487
:10B6F0006CAF064AAB8812889A427FF466AFFFF7B8
:10B70000D3FE62E7FC570020105800200C580020A0
:10B710000F5800200058002014580020F85700202F
:10B7200078B1F8B5074E337853B1074F054600247A
:10B7300057F8243028469847337801349C42F7DB89
:10B74000F8BD70470F58002000580020F8B5074E8C
:10B75000337853B1064F0546002457F82430284665
:10B760009847337801349C42F7DBF8BD0F5800202E
:10B7700000580020F8B5074E337853B1064F054600
:10B78000002457F8243028469847337801349C42E7
:10B79000F7DBF8BD0F58002000580020F8B5074E21
:10B7A000337853B1064F0546002457F82430284615
:10B7B0009847337801349C42F7DBF8BD0F580020DE
:10B7C0000058002038B5FEF7BBFCD0B9FEF716FFD5
:10B7D000B8B901F05DFAA0B900F0ACFB88B9FDF78B
:10B7E0001FFD70B9FDF7D8FE58B9074A0749084B45
:10B7F000084C106001224FF6FF7508701A70258002
:10B8000038BD032038BD00BF145800201058002058
:10B810000E5800200C5800200A4B1B787BB10A4AB6
:10B820001378022B09D810B4591C084C117044F835
:10B83000230000205DF8044B704704207047082067
:10B84000704700BF0E5800200F58002000580020FD
:10B85000034B1B780BB101F077BA0820704700BF8B
:10B860000E58002008B5054B1B782BB101F0B2FA39
:10B87000082808BF112008BD082008BD0E58002068
:10B8800009B101F0A5BA704738B51A4B1B7853B30C
:10B8900071B305460C46FBF773FF30B3A0F102030A
:10B8A0002278B3FA83F35B0963F30002227028461F
:10B8B000FEF7E2F84FF6FF73C01A227818BF012096
:10B8C00060F3C30222702846FBF774FF237860F30D
:10B8D000410323702846FBF785FF237860F382033A
:10B8E0002370002038BD082038BD43F2020038BD67
:10B8F0000E2038BD0E580020034B1B780BB1FEF70D
:10B90000CBB90820704700BF0E580020F0B5224E7A
:10B91000337887B0002B3BD0204D01234FF6FF70CA
:10B920002B70FEF721FD4FF6FF77B842044628D171
:10B9300000241B4E2C7021461822684620F06FFA16
:10B9400033780C214FF0FF328DF80010CDF8022033
:10B9500043B1144D55F82430684698473378013484
:10B960009C42F7DB0025284607B0F0BD2046FEF7D5
:10B9700093F9054640B92046FEF7F6FCB842044666
:10B98000F1D03378002BF1D10325284607B0F0BD64
:10B990000825284607B0F0BD0E580020FC570020AF
:10B9A0000F580020005800202DE9F04F334C247828
:10B9B00087B0002C36D082464FF6FF709846019231
:10B9C0008946FEF7D1FC0421ADF80A100DF10A03F7
:10B9D00004AA002503AE06210446CDE903550596C9
:10B9E000FEF7E4FB072840D04FF6FF77BB464FF049
:10B9F000FF3668B1052819D12046FEF7B5FC0DF1D8
:10BA00000A0304AA06210446FEF7D0FB0028F1D160
:10BA1000039BAB4224BFA3461D46B3423CBF1E4618
:10BA20002746E9E7082007B0BDE8F08F4FF6FF731F
:10BA30009C421ED1A3451AD0A7420CBF052000206E
:10BA4000BAF1000F01D0AAF800B0B9F1000F01D08F
:10BA5000C9F80050019B03B11F80B8F1000FE2D07C
:10BA6000C8F8006007B0BDE8F08F0520DBE70520CF
:10BA7000E6E7032007B0BDE8F08F00BF0E580020B6
:10BA8000354B1B78002B38D02DE9F041334B344E29
:10BA9000054693E8030088B033786C4684E80300D9
:10BAA00013B3DFF8C880D8F8006016BB2D4B2E4FBB
:10BAB0001A883B68AA4224D05A1C20D00133214660
:10BAC00028462A4A3B60FEF7EDFB98B13B6800220E
:10BAD000013B11283B60C8F800200AD0862809D015
