:020000022000DC
:106000000000042071BA030099BA03009BBA030090
:106010009DBA03009FBA0300A1BA0300000000006C
:10602000000000000000000000000000A3BA030010
:10603000A5BA030000000000A7BA0300A9BA030034
:10604000718E0300ABBA030065BA03007D930300B1
:1060500019970300D98A0300CD810300ABBA03006E
:10606000ABBA0300ABBA0300ABBA0300ABBA030090
:10607000ABBA0300518F0300ABBA0300ABBA030005
:10608000ABBA0300012C0300ABBA0300ABBA0300A8
:10609000A12C0300ABBA030059640300ABBA0300A0
:1060A000ABBA0300ABBA0300ABBA03003D910300E7
:1060B000ABBA0300ABBA0300000000000000000010
:1060C000ABBA0300ABBA0300ABBA0300ABBA030030
:1060D000ABBA0300ABBA0300ABBA030079AF03005D
:1060E000ABBA0300ABBA030009D4040000000000FF
:1060F00000000000ABBA030000000000ABBA0300D0
:10610000000000000000000000000000000000008F
:10611000000000000000000000000000000000007F
:10612000000000000000000000000000000000006F
:10613000000000000000000000000000000000005F
:10614000000000000000000000000000000000004F
:10615000000000000000000000000000000000003F
:10616000000000000000000000000000000000002F
:10617000000000000000000000000000000000001F
:10618000000000000000000000000000000000000F
:1061900000000000000000000000000000000000FF
:1061A00000000000000000000000000000000000EF
:1061B00000000000000000000000000000000000DF
:1061C00000000000000000000000000000000000CF
:1061D00000000000000000000000000000000000BF
:1061E00000000000000000000000000000000000AF
:1061F000000000000000000000000000000000009F
:1062000010B5054C237833B9044B13B10448AFF3F0
:1062100000800123237010BDD03C0020000000004E
:10622000781F060008B5034B1BB103490348AFF3C1
:10623000008008BD00000000D43C0020781F06004C
:10624000A3F5803A704700BF174B002B08BF134BD4
:106250009D46FFF7F5FF00218B460F461348144A71
:10626000121A2DF0CDFE0E4B002B00D098470D4B8F
:10627000002B00D098470020002104000D000D489D
:10628000002802D00C48AFF300802DF04FFE200014
:10629000290016F0E5F82DF023FE00BF00000800ED
:1062A000000000000000000000000420D03C00209E
:1062B000B4150120000000000000000072DF7047EC
:1062C00073DF704770B5044600F24A2681700D46B0
:1062D0003046072200212DF093FEE38813B1A37806
:1062E000012B75D0E379002B6FD194F84B32002B42
:1062F00078D194F84C32002B74D194F84D32002BA5
:1063000070D194F84E32002B6CD194F84F32002BA0
:1063100068D194F850321A1E18BF01226B1E032B4D
:1063200000F24981DFE803F002060B0EA379002B8F
:1063300040F0F780E37913B1002A40F03581237AE9
:10634000002B65D1657A002D4ED1A570002384F80D
:10635000533204F13C051822002128462DF050FE4E
:10636000E36A0122591E914284F83C2016D9042B7D
:1063700014D094F8243084F85120C3B184F852200A
:10638000A378002284F85020042B00F20181DFE87A
:1063900013F041004B00E1009900E60094F824203E
:1063A00084F851301AB1A36A84F85230E8E7A37830
:1063B000002284F85020042B00F2EA80DFE813F07A
:1063C0002A003400BA00D8005300A378022B8CD1E5
:1063D000636B002B00F0E580012284F85122082035
:1063E000984782E7012299E70422636BA270002B91
:1063F000ACD06279002AA9D094F85222002AA5D103
:10640000012184F8542284F8531207209847A0E70A
:106410000322EAE7002384F83130636B13B194F868
:1064200031009847002070BD002301200221802206
:10643000266484F83100C4F84432636484F83C1064
:10644000A4F8482000212A4604F15400FFF736FF43
:106450000028E8D194F8301094F85400FFF730FF8A
:106460000028DAD070BDD4E907126164A4F848208E
:106470006279002A00F08F8094F85222002A40F0BE
:106480008A8094F85422002A00F085800223B4F810
:106490003812D4F8340284F85030012200F0F8FDAC
:1064A00008B10423037004F50D7631462A4604F141
:1064B0005400FFF703FF002878D10622A37884F860
:1064C000312060E0D4E9052162640622A4F8481076
:1064D00084F83C206279002A50D094F85222002A95
:1064E0004CD194F85422002A48D00223B4F8381230
:1064F000D4F8340284F85030012200F0C9FD08B10C
:106500000423037004F50D7631462A4604F1540045
:10651000FFF7D4FE002849D10522A37884F8312062
:1065200031E094F82430002B7FF404AF002A3FF4CC
:1065300006AF0AE7022384F831300323D4E90321AC
:1065400084F83C3000232664A4F84810C4F8443290
:10655000626477E7022384F831300723EEE7D4E959
:10656000072162640622A4F8481084F83C207FE7E3
:10657000D4E905126164A4F84820ABE7032284F84B
:10658000312004F50D76C4F84462002B3FF445AF8A
:10659000D4F8441257E7042284F8312004F50D762C
:1065A000F1E784F85132A0E60225CEE6A378002B6D
:1065B0003FF433AFECE70023A370C7E680F8301058
:1065C000704700BF002974D0F8B50446002872D087
:1065D00091F87A300F4623B191F898300BB107202B
:1065E000F8BD4FF0000C84F802C007F178060FCE1A
:1065F000251D0FC50FCE0FC596E8070085E80700DB
:1066000084F830C0D7F8A4306363D7F8A830A36308
:106610004FF6FF7504F50D73C4F844326146A4F8D3
:106620004852072204F24A202DF0EAFC23780BB9E5
:1066300084F8545094F82430002B14BFEE231F2309
:1066400004F15501A4F83832C4F8341204F50E727E
:10665000384600F017FB0028C2D194F82430002BF4
:1066600014BFEE231F2304F2431107F13C00A4F8EA
:106670004032C4F83C1204F5107200F003FB00280D
:10668000AED1D4E905364FF480720125206401466D
:10669000A4F85020A4F8486084F83C50636404F1E6
:1066A0003C0204F15400FFF709FE002898D1257040
:1066B000F8BD0E2070470E20F8BD00BF03780BB167
:1066C000FFF700BE0820704710B50388112B0C4659
:1066D0000BD0262B22D0102B00D010BDC37B012B5A
:1066E000FBD18388A1F8483210BD002381F85232D3
:1066F0008288B1F848329A42EFD10B79002BECD165
:106700000B7813B301212046FFF7DCFD0028E4D00D
:10671000A36B002BE1D0BDE810401847037A013B82
:10672000012BDAD80B7883B18978094B0131A3FBAF
:10673000012303F4FE7202EB9303C91AC9B2204687
:10674000FFF7C0FD0028E3D110BD0820E0E700BF3F
:10675000CDCCCCCC704700BFA8DF70472DE9F0430B
:1067600001238DB041F60A057D4AADF80450044678
:1067700001A918468DF80630FFF7EEFF0546002800
:1067800040F0BA802688002E40F0BA802689002E7C
:1067900040F0F080268A002E40F01981268B002ED2
:1067A00040F04281268C002E40F06C81268D002E18
:1067B00040F09281236B002B39D01A688DF80820A5
:1067C0001A6894F83C60120A8DF809205A888DF8EE
:1067D0000A20DA788DF80B205A688DF80C209B6817
:1067E0008DF80D30190A20221B0C8DF80E1004A80C
:1067F00000218DF80F302DF003FC9DF81D30584915
:106800008DF8216043F0020308888DF81D3042F6B0
:1068100023274FF0081602AB524AADF8107004A9B6
:10682000CDE9056300F0C6FF002840F09380636B5C
:1068300063B3D3F800801E7994F83C90B8F1000F50
:1068400000F07881002E00F079812022002104A838
:106850002DF0D6FB00279DF81D30414ACDF8188059
:1068600066F30F0766F31F4710883F4A8DF82190A3
:1068700043F0020342F62A2604A905978DF81D303D
:10688000ADF8106000F096FF002863D1A36B9BB3B6
:106890001A788DF808205A888DF80920120A8DF888
:1068A0000A209A888DF80B20120A8DF80C20DB88BC
:1068B0008DF80D3020221B0A002104A894F83C40DA
:1068C0008DF80E302DF09CFB9DF81D3024498DF87D
:1068D000214043F0020308888DF81D3042F6502510
:1068E00002AB224AADF8105004A94FF00714CDE9CD
:1068F000054300F05FFF054628460DB0BDE8F08374
:10690000D4F8048094F83C90B8F1000F00F00F81A7
:106910002022002104A82DF073FB00279DF81D30D4
:106920000F4ACDF8188066F30F0766F31F471088EB
:106930000F4A8DF8219043F0020342F6292604A95C
:1069400005978DF81D30ADF8106000F033FF00287A
:106950003FF41CAF054628460DB0BDE8F08300BFEC
:10696000243D0020303D0020143D00200C3D00203F
:10697000FC3C0020D4F80C8094F83C90B8F1000F57
:1069800000F0E0802022002104A82DF039FB002730
:106990009DF81D30754ACDF8188066F30F0766F331
:1069A0001F471088724A8DF8219043F0020342F687
:1069B000242604A905978DF81D30ADF8106000F06D
:1069C000F9FE0028C6D1268A002E3FF4E7AED4F89F
:1069D000148094F83C90B8F1000F00F0B7802022AA
:1069E000002104A82DF00CFB00279DF81D305F4A04
:1069F000CDF8188066F30F0766F31F4710885D4ACD
:106A00008DF8219043F0020342F6252604A905974C
:106A10008DF81D30ADF8106000F0CCFE002899D143
:106A2000268B002E3FF4BEAED4F81C8094F83C9028
:106A3000B8F1000F00F08E802022002104A82DF074
:106A4000DFFA00279DF81D30484ACDF8188066F31C
:106A50000F0766F31F471088474A8DF8219043F0CF
:106A6000020342F6272604A905978DF81D30ADF8DC
:106A7000106000F09FFE00287FF46CAF268C002E83
:106A80003FF494AED4F8248094F83C90B8F1000F11
:106A900064D02022002104A82DF0B2FA00279DF82E
:106AA0001D30324ACDF8188066F30F0766F31F4792
:106AB0001088324A8DF8219043F0020342F62626D0
:106AC00004A905978DF81D30ADF8106000F072FE36
:106AD00000283FF46BAE3DE7D4F82C8094F83C904E
:106AE000B8F1000F3ED02022002104A82DF088FA32
:106AF00000279DF81D301D4ACDF8188066F30F075A
:106B000066F31F4710881E4A8DF8219043F0020358
:106B100042F6282604A905978DF81D30ADF81060BF
:106B200000F048FE00283FF445AE054613E70FF09D
:106B30006DF9EDE640460FF069F983E630460FF057
:106B400065F982E640460FF061F91BE740460FF019
:106B50005DF944E740460FF059F96DE740460FF004
:106B600055F996E740460FF051F9BCE7243D002067
:106B7000043D00201C3D0020F43C0020EC3C0020A3
:106B8000283D00206DDF704779DF70477DDF70475B
:106B900064DF70472DE9F04F87B00746119D0088EC
:106BA0002C880394BDF84840DDF840A0CDE90142AF
:106BB000002858D04FF0000988461E46CB4604E016
:106BC0003A880BF1010B93452CDAD8F8002052F8E3
:106BD0002B00059000220DF1130105A8FFF7D8FF47
:106BE000044658BB9DF81320B242E9D1B9F1000F19
:106BF00028D02A88019B9119994239DC52440DF121
:106C0000130105A84FF00109FFF7C2FF002834D196
:106C100029889DF813200A442A803A880BF1010B39
:106C20009345D2DBB9F1000F1DD02B88039A013BAD
:106C30009B1A9BB2FF2B1BD80AF80230204607B0E4
:106C4000BDE8F08F2A88019B511C324402329A42DF
:106C500089B20DDC029B29800AF801302A880132B2
:106C600092B22A80CAE70024204607B0BDE8F08F20
:106C70000C24204607B0BDE8F08F0446204607B03C
:106C8000BDE8F08F2DE9F04700231788138090F8B6
:106C90002D3088B0144605460E46002B40F000818A
:106CA000AA78002A40F0F580E978A1B1DA1CBA424E
:106CB00000F2F2800222F254238801339BB20122B7
:106CC0002380F254238813449BB22380F1542388F9
:106CD00013449BB223806A68AAB1D91CB94200F25E
:106CE000DB80022192F90020F154238801339BB20A
:106CF0000A212380F154238801339BB22380F2546C
:106D00002388013323802B89002B40F0F3802B8ACA
:106D1000002B40F02B812B8B002B40F046812B6AFF
:106D2000002B44D02088821DBA4200F2B5801A8818
:106D3000052A40F299816FF4486802EB080189B294
:106D40004FF27D3C614540F28F815988052940F220
:106D50008B816FF4486E8E441FFA8EFEE64540F23A
:106D600083814FF6FF7C624504D0614502D08A42A0
:106D700000F27A81052232542288013292B2122125
:106D80002280B1542288013292B222801988B154F3
:106D90003244090A51702288023292B222805B8802
:106DA000B35432441B0A53702388023323806B6A26
:106DB000002B2FD09988B4F800C0881C0CF1020277
:106DC0000244BA4268D8FE2866D8033106F80C108F
:106DD0002288013292B2FF212280B15422880132EE
:106DE00092B222801988B1543244090A5170208825
:106DF000023080B220809A8862B199680593002998
:106E000000F0328130442DF0D3F8059B9A88238816
:106E10001344238095F82C30002B40F0E380287831
:106E200000283AD02B88012B00F01E8123889A1C61
:106E3000BA4231D8012804D16978023119448F420D
:106E40002AD3023FFF1ABFB2B01806A9ADF81870D6
:106E5000FFF79CFE08BB2B78022B00F00D816978B0
:106E6000BDF818209142C0F003819742C0F0008124
:106E700017460922FE2F0FD82388791CF154238846
:106E800001339BB22380F254238801331F442780AF
:106E900003E00433BB424CD90C2008B0BDE8F087B6
:106EA000082FF9D906A8FFF76DFE0028F5D1238831
:106EB0000822F254238801339BB21B222380F25410
:106EC0002088013080B22080062230440DF1190163
:106ED0002DF06EF823889DF8182006339BB212F02F
:106EE000FE0218BF01222380F254238801339BB293
:106EF0002380D5E605F10808022305F10C01CDE950
:106F00000147009640461A460591FFF743FE0028C8
:106F1000C3D1CDE9014705990096404610230622CA
:106F2000FFF738FE0028B8D12B8A002B3FF4F3AED0
:106F30001CE006A8FFF728FE0028AED12388BDF884
:106F400018200321F154238801339BB21921238097
:106F5000F154238801339BB2F1182380F254130AB1
:106F60004B70238802339BB223809DE605F1100805
:106F700005F11401CDE901470096404602230322A2
:106F80000591FFF707FE002887D1CDE90147059954
:106F90000096404610230722FFF7FCFD00287FF4EF
:106FA0007CAF2B8B002B3FF4BAAE05F1180805F12E
:106FB0001C01CDE9014700964046022314220591A9
:106FC000FFF7E8FD00287FF468AFCDE90147059998
:106FD0000096404610231522FFF7DCFD00283FF401
:106FE0009EAE5AE7A96A00293ED04FF000094B46F1
:106FF0004FF0160A2BE02388F054238801339BB20C
:10700000238006F803A0238801339BB2238031F844
:107010002220F2543344120A5A702088023080B27F
:107020002080B8F8042030444AB1D8F80810D9B10B
:107030002CF0BEFFB8F8042023881344238095F871
:107040002C205FFA89F39A427FF6E9AEA96A03EB36
:10705000430201EB820809F10109B8F80430D81C99
:107060000233FE2BC7D917E7072008B0BDE8F08729
:10707000012B08D00822FDE6BDF818309F42F9D355
:107080001F460922F6E68F42F4D30F460822F1E6A6
:10709000F8B130B4437893421CD0B9B100242346F0
:1070A00001E0994212D9045D013423449BB2C51812
:1070B0001C466D789542F4D1994207D9015D9A1C1E
:1070C000012993B202D0184430BC7047002030BC74
:1070D0007047704700242346EEE700BFF0B587B045
:1070E00005460E461046102302AA0DF103018DF845
:1070F0000330FFF74DFD8DB380BB9DF80320042ABC
:107100004ED0102A47D0022A2BD007B0F0BD002461
:1071100023469E4206D92F5D0233013F9CB2BFB287
:10712000002C42D19DF80540644508BF00230DD0D6
:10713000A6B1002301E09E4210D9E95C01310B4465
:107140009BB2E91818464978A142F4D19E4205D96C
:107150002F5C0233013F9CB2BFB234BB002007B0AA
:10716000F0BD40F20323ADF8043095F801C09DF85E
:1071700004706745CBD0002ED4D0002301E0B34289
:10718000D0D2EC5C013423449BB2E9181C46497808
:10719000B942F4D1BDE740F20763ADF80430E4E74B
:1071A00040F20543ADF80430DFE7002FD6D00026CB
:1071B00005E09DF803201644B6B2BE42CED2301987
:1071C000284402A92CF0E6FE0028F2D1012007B0E5
:1071D000F0BD00BF75DF704776DF70477ADF70471C
:1071E0007BDF704770B51B4D2B8884B2A34282B001
:1071F00011D1194E297A327B91420ED3337C002271
:107200002A72DBB9736933B10022ADF806408DF8FC
:10721000042001A8984702B070BD184605F10A0184
:10722000FFF7D8FF28B11128F5D0B369002BF1D1B1
:10723000F1E72B7A01332B7202B070BD3B2120465F
:10724000FFF7CAFF30F00803DCD0B369002BD9D0B8
:107250009847D7E7543D0020383D0020F0B502881C
:10726000122A83B003463ED015D8102A73D0112AB3
:107270000FD16C4C828823889A420AD160680BF047
:10728000BBFF18B1684B9B6903B198474FF6FF737A
:10729000238003B0F0BD502AFBD1634DC188EA8939
:1072A0009142F6D1028A022AF3D15E4C8288268866
:1072B0009642EED1123000F06FFA002800F09C8068
:1072C000637A002B40F09F80D5E90113277A60682C
:1072D0003246002F18BF19460BF038FF0028D8D0CF
:1072E000AB693BBBD5E74F4C828821889142D0D116
:1072F0004089658985421FD8A58985421CD3E089CC
:107300009D8940F2F313984294BF031AC31AAB420B
:1073100012D800F2F310A8420ED3434B5B694FF42E
:1073200080722281002BB4D00122ADF806108DF8B6
:10733000042001A89847ACE73B4D267A6068D5E960
:107340000113002E18BF1946002363720BF0FEFED6
:107350000028C5D19DE7C67B012E9AD1314C2188EA
:107360004FF6FF7291423FD1304D8288228003CD8B
:10737000C4F80A00C4F80E10598A608900258842B2
:10738000257222D8A08988421FD3E189988A40F2C9
:10739000F313994294BF4B1ACB1A834215D801F2CA
:1073A000F311814211D3204D6672EB89002B7FF4DB
:1073B00070AF6B69002B3FF46CAF0121ADF8062074
:1073C0008DF8041001A8984763E7174DEB89002159
:1073D0006172002B7FF45DAF606869680BF0B6FEE8
:1073E00000283FF456AF7BE70F4B9B69002B3FF41F
:1073F00050AF042098474CE760680BF0FDFE002872
:107400003FF447AF6CE76B6900222272002B3FF418
:1074100040AF0122ADF806608DF8042001A898471E
:1074200037E700BF543D0020383D0020683D002074
:1074300070B3F8B5054606460FCD164F3C460FC44F
:10744000844695E80700144D3D6084E80700BCF1D0
:10745000000F17D06046FFF7C1FE90B93368186877
:10746000596803C50D4B0E490E4A18464FF6FF7476
:1074700040F8041F1C8000210BF056FE002818BFA6
:107480000320F8BD2846FFF7ABFE0028EAD0F8BD80
:107490000E207047383D0020683D0020543D0020FC
:1074A000703D0020E57102002DE9F04703888788D0
:1074B000112B98B007D01A2B044650D0102B09D0AE
:1074C00018B0BDE8F0873A48394606F095F918B08B
:1074D000BDE8F087374A9368DB43009351686846FC
:1074E00006F012FA009B0193019B83B300252E4600
:1074F000314601A806F08AF928B118AB03EB450321
:10750000013523F8286C0136142EF1D10D950DF1BB
:10751000340CBCE80F0002AE0FC6BCE80F000FC66B
:107520009CE8070086E807008DB10DF10A08DFF836
:1075300098A008EB450538F8029F1F4E3046494693
:10754000043606F059F9B245F8D1A845F3D1132F06
:1075500015D904200EF05AFC18B0BDE8F087037A64
:1075600016481F2B4FEA1314394618D906F02CF988
:10757000022C1348394616D006F026F9A0E70C482D
:10758000394606F021F90C48394606F01DF9E37B2F
:10759000012B95D00B48394606F016F990E706F016
:1075A0002BF90748394606F027F918B0BDE8F087EF
:1075B000983D0020903D0020943D0020A03D0020FB
:1075C000A43D00209C3D0020083E0020132801D946
:1075D000002070470146014806F018B9943D00208C
:1075E000132801D90020704710B50146044607480A
:1075F00006F00CF908B9002010BD2146044806F039
:1076000005F9002814BF0220012010BD943D002080
:107610009C3D0020132801D90020704710B5014679
:107620000446074806F0F2F808B9002010BD2146CC
:10763000044806F0EBF8002814BF0220012010BD1A
:10764000943D0020983D0020132801D90020704768
:1076500010B501460446064806F0D8F808B90020DF
:1076600010BD21460348BDE8104006F0CFB800BF6A
:10767000943D0020A03D0020132801D90020704730
:1076800010B501460446064806F0C0F808B90020C7
:1076900010BD21460348BDE8104006F0B7B800BF52
:1076A000943D0020A43D002008B51821024806F0B2
:1076B000B7F8C0B208BD00BF903D002070B50C4EB9
:1076C000044630460D4606F0A1F808B1132C01D946
:1076D000002070BD2146301D06F098F80028F7D034
:1076E000A81D06EB80002146BDE8704006F08EB86C
:1076F000903D0020F8B50F4F0446384616460D461B
:1077000006F084F808B1132C00D9F8BD2146381DC5
:1077100006F07CF80028F8D0A81D07EB8000214671
:107720001EB1BDE8F84006F04FB8BDE8F84006F0DD
:1077300063B800BF903D0020F0B5154E83B00446FD
:107740000D4601463046174606F060F818B9002687
:10775000304603B0F0BD043406EB8404A368019303
:10776000002DF4D0019B002BF1D000263446214699
:1077700001A806F04BF803463946A0B201340BB11C
:10778000A8470136142CF2D1304603B0F0BD00BF3B
:10779000903D0020AADF7047007800F0010070479C
:1077A00038B5044608460D462DF02BF8656020805C
:1077B00038BD00BFF0B58B7891B0012B0C4609881D
:1077C000ADF80C1038BF0123054616466846032263
:1077D00000218DF80E302CF013FC637C0022013B5D
:1077E0008DF80020042B09D8DFE813F0CF00D30078
:1077F000D700DB00050022238DF80030A37C002297
:10780000013B8DF80120042B09D8DFE813F0CE00EE
:10781000D200D600DA00050022238DF80130E77B84
:10782000237B207C217D9DF8022043EAC70343EAA5
:10783000001322F01902002903F0190343EA02039E
:1078400014BF0222012262F3420309A81C22002174
:107850008DF802302CF0D4FB637B13F0300F73D122
:10786000627BA37B8DF824200021142204A88DF8CC
:1078700025302CF0C5FBA368A288CDF814D003A94D
:107880000491ADF81C201BB1E2880893ADF81820D4
:10789000A369002B36D001AF0322002138462CF01B
:1078A000AFFBA2691388ADF82C305388ADF82E30A9
:1078B00051680D97137B0A91013B00218DF804104C
:1078C000042B2DD8DFE803F095999D892900222308
:1078D0008DF80530977A137AD07A917B9DF806203F
:1078E00043EAC70343EA001322F01902002903F018
:1078F000190343EA020314BF0222012262F3420386
:107900008DF80630E36903B10C93334604AA09A944
:107910002846FFF73FFF11B0F0BD22238DF8043059
:10792000537B0021013B8DF80510042BD2D801A117
:1079300051F823F0E3790200EB790200CB790200E1
:10794000D3790200CF78020002AF0322384600212B
:107950002CF056FBE37C0022013B8DF80920042B20
:1079600007D8DFE803F0525E5A56030022238DF851
:1079700009309DF80A300E97012262F3420311226A
:107980008DF80A308DF808206AE711238DF8003051
:1079900034E721238DF8003030E731238DF80030B3
:1079A0002CE712238DF8003028E711238DF80130E1
:1079B00035E721238DF8013031E731238DF801308F
:1079C0002DE712238DF8013029E731238DF805309A
:1079D00080E712238DF805307CE712238DF8043000
:1079E0009EE711238DF8053074E721238DF80530CB
:1079F00070E711238DF8043092E721238DF80430CD
:107A00008EE731238DF804308AE711238DF8093091
:107A1000AFE712238DF80930ABE731238DF8093039
:107A2000A7E721238DF80930A3E700BF90DF704757
:107A3000A5DF7047B5DF704770B5214B214CE41AC4
:107A4000E40805462404002684B00A4644F00400F5
:107A500061F30F062B461C4962F31F460AF0A0F99A
:107A6000002328466A4602A90296ADF80430039323
:107A70000093FFF7DBFF064610B9304604B070BD37
:107A80000BF096F844F00104034610492A462046BC
:107A90000AF086F9BDF80020BDF8023052EA030171
:107AA00003D00B4920460AF07BF9BDF80420002AD8
:107AB000E3D0204607490AF09BF8304604B070BD79
:107AC00070200600C8210600945A0500C45A05001B
:107AD000105B0500505B0500A8B170B40B4C8161D0
:107AE00003461721FB22C3E90341094D1A714FF0E8
:107AF000F716002041F6FB321E60C3F8065058818D
:107B00009A8270BC70470E20704700BFFB1BF700C5
:107B1000F700170040B1A1F11703E02B02D8418014
:107B200000207047072070470E2070472DE9F0476E
:107B30008688012E86B000F282800388242B0446BA
:107B40000D461DD80F2B40F2FC80103B142B00F289
:107B5000F880DFE813F0B700CF00F600F600F6007B
:107B6000F600F600F600F600F600F600F600F60065
:107B7000F600F600F600F600F600F600DC007700EE
:107B80003A2B00F0E380552B40F0DB80AA4BAB4F43
:107B9000C488AB49FF1AFF0805EBC6083F0447F04D
:107BA00004002346324603900AF0FAF8B8F806308B
:107BB00003980096172C224638BF17229A4228BFF6
:107BC0001A460021A8F8082088F80A109D490AF0F2
:107BD000C7F9B8F806103046FFF72CFFF40000286C
:107BE00040F0F48098F80B3073B9AB6963B140F69C
:107BF0007721B8F80820ADF81010ADF81260ADF894
:107C0000142004A92846984798F80A30BBB12544A7
:107C10003046E988FFF70CFF0346002800F0C380D8
:107C200011280CD00AF0C4FF844B874902468248D1
:107C30001B1ADB081B0443F0010009F0D9FF06B052
:107C4000BDE8F0877C4B7D48B4F80880B4F80AA002
:107C5000B4F80C907D49E489C01AC00805EBC6074A
:107C60005FFA88F20004334640F004007A73039010
:107C70000AF096F803987649524609F0B9FF03983E
:107C80007449424609F0B4FF22460398724909F04C
:107C9000AFFF039871494A4609F0AAFFAB69F400A7
:107CA00073B100204DF67A217A7B8DF81500ADF87E
:107CB0001010ADF812608DF8142004A928469847DA
:107CC000BB7AA3E701EBC6070B793B73C37B012BA0
:107CD0004FEAC60400F08380022B74D0FA883B89F7
:107CE00093427FD3397B7B7B8B42E9D23046FFF7CF
:107CF000A3FEE5E701EBC601594BC1F80630FB20B6
:107D000000231B2208734A738B72CB7297E74A4B8E
:107D10004A4894F808805349C01AC00805EBC607C2
:107D20000004434640F0040032460AF039F8397B3B
:107D3000A088414528BF4146FFF77EFEF400BB7A8C
:107D400064E705EBC603F4009B7A5FE701EBC60727
:107D50006289FB88DFF8E0C0384843499A4228BF6F
:107D60001A46A0EB0C00172A4FEAD00038BF1722A2
:107D7000000433463A8140F004000AF011F8AB6980
:107D80006BB1FA7A5AB140F677213A89ADF8101002
:107D9000ADF812602846ADF8142004A998470023D6
:107DA000FB72BB724BE7244A2448AB72801AC008AE
:107DB00001220004EA722D49EA88334640F00400AB
:107DC00009F0EEFF3BE74A88FA8088E70AF0F0FE08
:107DD0002749024647F0010009F00AFF02E70A8836
:107DE000FA807CE7154B14482249A3EB00084FEAC0
:107DF000D8084FEA084848F004094846334609F0D5
:107E0000CFFFF9883046FFF713FE10B90123FB724C
:107E100068E7112808D00AF0CBFE0B49024648F06B
:107E2000010009F0E5FE5DE701231349BB724846F6
:107E3000324609F0DDFE55E770200600C821060035
:107E4000AC5C0500E85C05003C5C0500585D050085
:107E5000885D05009C5D0500B05D0500C05D050006
:107E6000F7001700D05D0500705C0500105E05008E
:107E7000285D0500A85B0500E85B0500B0DF7047E2
:107E800066DF704760B159B10378DE2B0AD00B680A
:107E90004360DE224FF6FF7302704380002070477C
:107EA0000E2070470820704738B10378DE2B02D1CE
:107EB000418000207047082070470E20704700BFA7
:107EC00019B330B5054685B018B10B78DE2B0C46DA
:107ED00001D005B030BD80884B889842F9D10B7A2B
:107EE000002B32D12B88112B4BD0512B12D0012BD0
:107EF000EFD12B7A012BECD1012525720021FFF760
:107F0000BFFF002851D12072E3E77047A88863883B
:107F10008342DED1AB79022BDBD1AA7B02F0FD01DB
:107F2000042935D0052AD4D100226946C1E90222AC
:107F30004A600092ADF804208DF80030FFF79EFFF4
:107F40000028C6D063689847C3E70021FFF798FF71
:107F50000346D8B1112818D0636898472B88112B95
:107F60000BD0512BD2D0012BB3D12B7AAA88012B65
:107F7000AFD160889042ACD1BEE7AA8863889A42AC
:107F8000A7D14FF6FF736380A3E701232372E5E7D0
:107F9000694600224FF4C0754A600092C1E902228E
:107FA0008DF80030ADF80450C8E71128CAD1257209
:107FB0008FE700BF8ADF70478BDF70478CDF704729
:107FC000FFF7FABF00284ED070B50D46426200217F
:107FD000082204462CF014F8EDB12B7923722B7B88
:107FE000A3742E6856B3B2683068716804F1140344
:107FF00007C3B2891A80AB686BB31A685B68C4F8B0
:108000000E30C4F80A2004F128021F23A264A4F849
:108010004C30002070BD63691449257203F0E303FE
:1080200043F4200343F4827350204FF0C872C4E934
:108030000530C4F80A10C4F80E20E4E7636903F0C1
:10804000E30343F4200343F482735022C4E905326E
:10805000AB68002BD1D1054BC4F80A304FF0C87380
:10806000C4F80E30CFE70E20704700BF060018009E
:1080700010B586B050B304461422002101A82BF09D
:10808000BFFFFFF799FF237D1B0716D404F14801BA
:1080900004F11400FFF78EFF034633F00804144880
:1080A00018D1144B1449C01AC008000440F0040051
:1080B00009F0BCFB204606B010BD636A002BE5D07A
:1080C000012201A88DF804209847DFE70E242046FE
:1080D00006B010BD074A0949801AC008000440F0E4
:1080E00001001A461C4609F083FD204606B010BD6B
:1080F000F0200600702006008C5E0500685E05001A
:108100002DE9F04F05468DB035F8083B103B07468A
:108110000C46102B67D8DFE803F0BC66666666661F
:1081200066666666669C66816666690094F8048089
:10813000B7F824A0B8F1000F00F04F81002A40F0FA
:10814000FF8008F1FF385FFA88F304F1040808EBB8
:10815000830826463246386A51460436FEF7BEFF8B
:10816000002800F0E8809DF81030227A039543F053
:10817000040300258DF810308DF8085052B3A37C0D
:108180000193FFF719FF2946142207A82BF038FFA7
:1081900004F10A02019B924D494607F10A00FFF7DC
:1081A0000DFF904B9049ED1AED082D0445F00405A4
:1081B0000646284609F03AFB06238C498DF81C3008
:1081C00028463246089609F013FD636A1EB12BB1AA
:1081D00007A89847636A0BB102A8984704F14801C1
:1081E0000020FFF7E7FE0DB0BDE8F08F142207A8CE
:1081F00000212BF005FF626A002AF4D02868696824
:108200002E7A08AB03C3143405250B941E7007A8FF
:108210008DF81C5090470DB0BDE8F08F02A81422D5
:1082200000212BF0EDFE237D04F1140913F0080664
:10823000CDF8189043D16379A279002B7FF476AF03
:108240000395002A40F094800322636A8DF8082089
:10825000C1E707A8142200212BF0D2FE3B7A012BA4
:10826000C1D1604B5E486249C01AC008000440F0AA
:10827000040009F0DBFA636A002BB4D0387A8DF879
:108280002000143404220B9407A88DF81C20984772
:10829000A9E7142207A800212BF0B2FE636ABA886E
:1082A000ADF824201434072208958DF81C200B9477
:1082B000002B98D007A898470DB0BDE8F08F022397
:1082C00002A88DF808300395636A984704F14801C5
:1082D0000020FFF76FFE237A002B84D0A37C01934C
:1082E000FFF76AFE1422002107A82BF089FE04F193
:1082F0000A02019B3A4D494607F10A00FFF75EFE6C
:10830000384B3949ED1AED082D0445F004050646B1
:10831000284609F08BFA0623344908962846324647
:108320008DF81C3009F064FC002E3FF45CAF636AEA
:10833000002BBFD157E7B0457FF40CAF039583E71F
:10834000A34602E0DEB2B0450BD05A46386A514629
:10835000FEF7C4FE0BF1040B731C0028F2D1B045EC
:10836000ECD19DF81030039543F004038DF81030E4
:10837000237A00258DF80850002B3FF42BAFA37C07
:108380000193FFF719FE2946142207A82BF038FEA7
:1083900004F10A02019B124D494607F10A00FFF75A
:1083A0000DFE104B1049ED1AED082D0445F00405A3
:1083B0000646284609F03AFA06230C498DF81C3087
:1083C00028463246089609F013FC636A002E3FF4F3
:1083D00002AF002B7FF4FCAEFDE6002AC1D1ADE771
:1083E000F020060070200600985E0500A45E0500DF
:1083F000BC5E050010B4C64B9A7C82B15A7C002A40
:1084000000F06381D9688842C0F0BC811A7C0021E9
:108410005974002A00F069814FF4A02101E04FF067
:10842000FF3193F82620AAB193F82520002A00F006
:1084300037811A6A9042C0F05C8193F824200024AE
:1084400083F82540002A00F0B281B1F5A02F28BFA3
:108450004FF4A02193F83A20AAB193F83920002ACA
:1084600000F008815A6B9042C0F04C8193F838209C
:10847000002483F83940002A00F09C81B1F5A02F38
:1084800028BF4FF4A02193F84E20AAB193F84D20B5
:10849000002A00F0D9809A6C9042C0F03E8193F897
:1084A0004C20002483F84D40002A00F07D81B1F576
:1084B000A02F28BF4FF4A02193F86220AAB193F80F
:1084C0006120002A00F0A980DA6D9042C0F02E8170
:1084D00093F86020002483F86140002A00F0618155
:1084E000B1F5A02F28BF4FF4A02193F87620A2B1B8
:1084F00093F87520002A79D01A6F9042C0F01F813E
:1085000093F87420002483F87540002A00F043811A
:10851000B1F5A02F28BF4FF4A02193F88A20AAB16B
:1085200093F88920002A47D0D3F884209042C0F0E5
:108530000F8193F88820002483F88940002A00F0F6
:108540002D81B1F5A02F28BF4FF4A02193F89E20D4
:108550008AB193F89D2092B1D3F89820824200F21C
:10856000018193F89C20002083F89D00002A40F0B0
:108570000C8183F89E2008465DF8044B704793F801
:108580009C40002C00F0F880D3F894200244B2F50F
:10859000A02FC3F8942006D3013CA2F5A02283F8B3
:1085A0009C40C3F89420C2F5A022914228BF1146F6
:1085B00008465DF8044B704793F88840002C00F0A3
:1085C000CE80D3F880200244B2F5A02FC3F88020DB
:1085D00006D3013CA2F5A02283F88840C3F880208E
:1085E000C2F5A022914228BF1146AFE793F874402C
:1085F000002C00F0AA80DA6E0244B2F5A02FDA66F1
:1086000005D3013CA2F5A02283F87440DA66C2F5D6
:10861000A022914228BF11467FE793F86040002CCA
:1086200000F08A809A6D0244B2F5A02F9A6505D3B6
:10863000013CA2F5A02283F860409A65C2F5A02211
:10864000914228BF114650E793F84C40002C6AD065
:108650005A6C0244B2F5A02F5A6405D3013CA2F52E
:10866000A02283F84C405A64C2F5A022914228BF50
:10867000114621E793F83840002C4BD01A6B024486
:10868000B2F5A02F1A6305D3013CA2F5A02283F80E
:1086900038401A63C2F5A022914228BF1146F2E683
:1086A00093F824405CB3DA690244B2F5A02FDA6192
:1086B00005D3013CA2F5A02283F82440DA61C2F57B
:1086C000A022914228BF1146C4E61A7C6AB199687B
:1086D0000144B1F5A02F996004D3013AA1F5A0217E
:1086E0001A749960C1F5A0219BE69A744FF0FF318E
:1086F00097E6121A91421A6228BF1146AAE683F839
:108700002640A7E6121A91425A6328BF1146BAE6DC
:10871000083E002083F83A40B5E6121A91429A6466
:1087200028BF1146C8E683F84E40C5E6121A9142AA
:10873000DA6528BF1146D8E683F86240D5E6121AFA
:1087400091421A6728BF1146E7E683F87640E4E6CF
:10875000121A9142C3F8842028BF1146F6E683F826
:108760008A40F3E6121A9142C3F8982028BF1146B6
:1087700008465DF8044B704783F89E4008465DF854
:10878000044B7047091AD9604BE6B1F5A02F28BFFA
:108790004FF4A021EFE683F87620BEE683F88A2026
:1087A000D4E683F86220A0E683F84E2084E683F8BE
:1087B00026204FE683F83A2065E600BF10B5FFF7A4
:1087C00019FE04460AF054FD0D4B1860631C00D1DD
:1087D00010BD0C48224621460AF0B8FC0028F7D00C
:1087E0000AF0E6F9084B0949024609481B1ADB085A
:1087F0001B04BDE8104043F0020009F0F9B900BFC6
:10880000C83E0020A83E002000220600E05E0500D1
:1088100070200600024A034800210AF085BC00BF10
:10882000BD870200AC5F0500F0B583B06946044621
:1088300001F06EFB00285ED1D6480AF0DDFC05464B
:10884000002849D1D44ED54C0AF012FD31680AF007
:1088500015FDFFF7CFFD07460AF00AFD3060A67C44
:10886000002E77D1012694F82630002B40F0CE80E0
:10887000012594F83A30002B40F09880022594F8B6
:108880004E30002B40F0D081032594F86230002B4D
:1088900040F09A81042594F87630002B40F04A810C
:1088A000052594F88A30002B40F0E080062594F8E6
:1088B0009E30002B40F0E8816EBB7B1C19D0B54880
:1088C0003A4639460AF042FC98B10AF071F9B44BC5
:1088D000B4490246B44805E00AF06AF9B04BB3491E
:1088E0000246B1481B1ADB081B0443F0020009F0E2
:1088F0007FF903B0F0BD0AF05BF9A94DAC4902461F
:10890000A9482D1AED082D04234645F0020009F070
:1089100047FA03B0F0BD072505EB850504EB850498
:108920006946072220462BF043FB4FF400318F426B
:1089300028BF0F4600204FF480720123C4E90201D2
:1089400022829448A3743A4639460AF0FFFB002875
:10895000CFD0BAE70622611C0DF101002BF01AFB03
:10896000002840F0AE81257C4FF47A6202FA05F3CC
:10897000B3F57A4F03DA0135EDB202FA05F34FF49D
:1089800000424FF4FA7000210026C2FB0301257457
:1089900000234FF47A72A6602CF0E8FE0123874290
:1089A000E06028BF0746637408255CE7814906221A
:1089B0000DF101002BF0EEFA00287FF460AF94F87F
:1089C00038C04FF47A6202FA0CF3B3F57A4F05DA45
:1089D0000CF1010C5FFA8CFC02FA0CF34FF400422C
:1089E0004FF4FA7000210026C2FB030184F838C05E
:1089F00000234FF47A7226632CF0B8FE01238742DD
:108A0000606328BF074684F8393038E76A49062290
:108A10000DF101002BF0BEFA00287FF42AAF94F884
:108A200024C04FF47A6202FA0CF3B3F57A4F05DAF8
:108A30000CF1010C5FFA8CFC02FA0CF34FF40042CB
:108A40004FF4FA7000210026C2FB030184F824C011
:108A500000234FF47A72E6612CF088FE01238742EE
:108A6000206228BF074684F8253002E753490DF1FC
:108A7000010006222BF08EFA00287FF418AF94F83C
:108A800088304FF47A6101FA03F2B2F57A4F03DAD3
:108A90000133DBB201FA03F24FF400454FF4FA70F0
:108AA0000021C5FB0201002584F888304FF47A725A
:108AB0000023C4F880502CF059FE94F89E30C4F87E
:108AC00084000122874228BF074684F88920002BB2
:108AD0003FF4F3AE3A490DF1010006222BF05AFAA9
:108AE00000287FF4EAAE94F89C304FF47A6101FAE2
:108AF00003F2B2F57A4F03DA0133DBB201FA03F283
:108B00004FF400454FF4FA700021C5FB0201002527
:108B100084F89C304FF47A720023C4F894502CF0FF
:108B200025FE01238742C4F8980028BF074684F831
:108B30009D30C2E6234906220DF101002BF02AFAEE
:108B400000287FF4AEAE94F874C04FF47A6202FA53
:108B50000CF3B3F57A4F05DA0CF1010C5FFA8CFCDB
:108B600002FA0CF34FF400424FF4FA700021002691
:108B7000C2FB030184F874C000234FF47A72E666E6
:108B80002CF0F4FD01238742206728BF074684F8B4
:108B9000753086E6A83E0020C83E0020083E002032
:108BA00000220600E05E050070200600505F050010
:108BB000005F0500313E00201D3E0020813E002068
:108BC000953E00206D3E00203F4906220DF1010038
:108BD0002BF0E0F900287FF45EAE94F860C04FF40B
:108BE0007A6202FA0CF3B3F57A4F05DA0CF1010C54
:108BF0005FFA8CFC02FA0CF34FF400424FF4FA7067
:108C000000210026C2FB030184F860C000234FF45A
:108C10007A72A6652CF0AAFD01238742E06528BF81
:108C2000074684F8613036E6284906220DF1010036
:108C30002BF0B0F900287FF428AE94F84CC04FF424
:108C40007A6202FA0CF3B3F57A4F05DA0CF1010CF3
:108C50005FFA8CFC02FA0CF34FF400424FF4FA7006
:108C600000210026C2FB030184F84CC000234FF40E
:108C70007A7266642CF07AFD01238742A06428BFD3
:108C8000074684F84D3000E6114906220DF1010037
:108C90002BF080F900283FF426AF002E3FF40DAEF4
:108CA000082D7FF439AE0B4B0B480C49C01AC00895
:108CB000000440F0020008F0B9FD7B1C3FF419AE3F
:108CC000FDE50825CFE500BF593E0020453E0020C8
:108CD000953E00207020060000220600705F05000F
:108CE00030B583B06946044601F012F9002840F01F
:108CF0009D80574CA37CEBB994F826304BBB94F87D
:108D00003A30002B35D194F84E30002B41D194F8F5
:108D10006230002B4DD194F87630002B59D194F865
:108D20008A30002B65D194F89E30002B71D1002041
:108D300003B030BD0622611C0DF101002BF02AF9B1
:108D40000028D9D1607C0028F2D194F82630002B7D
:108D5000D5D0404906220DF101002BF01BF9002867
:108D6000CDD194F825000028E2D194F83A30002BB8
:108D7000C9D0394906220DF101002BF00BF900286A
:108D8000C1D194F839000028D2D194F84E30002B8C
:108D9000BDD0324906220DF101002BF0FBF800286E
:108DA000B5D194F84D000028C2D194F86230002B60
:108DB000B1D02B4906220DF101002BF0EBF8002871
:108DC000A9D194F861000028B2D194F87630002B34
:108DD000A5D0244906220DF101002BF0DBF8002874
:108DE0009DD194F875000028A2D194F88A30002B08
:108DF00099D01D4906220DF101002BF0CBF8002877
:108E000091D194F88900002892D194F89E30002BDB
:108E10008DD0164906220DF101002BF0BBF8002879
:108E200085D194F89D00002881D081E709F0C0FE2B
:108E30000F4D104B1049ED1AED082D040246234644
:108E400045F0020008F0ACFF012003B030BD00BFC8
:108E5000083E00201D3E0020313E0020453E0020FF
:108E6000593E00206D3E0020813E0020953E0020AE
:108E70000022060070200600005F0500A0DF70479A
:108E8000A1DF7047ADDF7047B3DF704730B583B007
:108E900004460422002168462BF0B2F80C4B1B68F4
:108EA0000193012542F6A6236946204601AAADF8A2
:108EB00000308DF80250FFF7E1FF08B103B030BD7C
:108EC000044B2A4619782046FEF714FC03B030BD47
:108ED000D4620500D03E002070B5012186B0064660
:108EE000374804F0E7FCBFF35F8F08B106B070BDF0
:108EF0000446304600F03AFD8628054622D00FD8B9
:108F0000C8B111283FD12F4B304619780122FEF706
:108F1000F1FBBFF35F8F2A4B00221A6006B070BDD1
:108F200043F2020398422ED1264B2246197830464E
:108F3000FEF7E0FBEDE7234B024619783046FEF7DB
:108F4000D9FBD3E7204B214821490094C01AC0081F
:108F5000000440F0020006233246CDE90144CDE989
:108F60000344ADF8026005948DF8003008F040FE2F
:108F7000BDF8020000F0B6FF03466846ADF80430C5
:108F800002F098FFD0E7284609F012FE0F4B114976
:108F900002460D481B1ADB081B0443F00100334650
:108FA00008F0FEFE00240723CDE90044CDE9034488
:108FB00030460295ADF8026005948DF80030D9E78F
:108FC000CC3E0020D43E002070200600082206007F
:108FD000B05F0500E85F050070B54FF6FF738CB019
:108FE00000249842CDE90044CDE90244CDE904448F
:108FF000ADF8020027D0054600F028FD11280646EE
:109000005ED022D838B30B2834D12E4B2E482F49AE
:10901000C01AC00800040F232A4640F002008DF851
:10902000003008F0E5FDBDF8020000F05BFF0346EC
:109030006846ADF8043002F03DFF2246244B284636
:109040001978FEF757FB0CB070BD43F2020398424B
:1090500010D12246F2E70E23BDF802008DF8003051
:1090600000F040FF03466846ADF8043002F022FFEE
:109070003246E3E7304609F09BFD134B15490246A3
:1090800010481B1ADB081B0443F001002B4608F0B4
:1090900087FE002407232846CDE90644CDE909448C
:1090A0008DF818300896ADF81A500B9400F01AFF9E
:1090B000034606A8ADF81C3002F0FCFE2246BDE7D0
:1090C0000122BBE770200600082206002860050088
:1090D000D33E0020A86005002DE9F04F5C4F89B019
:1090E00039780446FEF7EAFA10B109B0BDE8F08F0E
:1090F0000546204600F01AFD112806461CD8112806
:1091000057D8DFE800F03D5656565656355673563A
:1091100056565656565656094FF0010B4D495A466B
:1091200020460978FEF7E6FA39782A462046FEF707
:10913000E1FA09B0BDE8F08F43F202039842EBD0A8
:1091400043F20143984234D12046FFF745FF4FF0E8
:10915000010BE3E7711C89B20DF1020602AA204659
:109160000396FFF78FFE18B9BDF80220002AD5D16B
:10917000204600F0B7FE00F007FD4FF0000BCDE7F2
:109180000023CDE90433CDE906331022CDE90233C3
:109190002046ADF80A408DF80820012500F0A2FE17
:1091A000034602A8ADF80C304FF0010B02F082FE2E
:1091B000B4E7304609F0FCFC274B28490246284812
:1091C0001B1ADB081B0443F00100234608F0E8FDEE
:1091D00000230722CDE90233CDE90533204604966A
:1091E000ADF80A4007938DF80820D7E701A8FFF7EC
:1091F0004BFEBDF80430012BBAD94FF0000B01260D
:109200000DF106094FF0020842F6052A0BE0BDF801
:10921000062042F602139A429CD0BDF80420013683
:10922000B6B2B242A4D902AA31462046CDE902899B
:10923000FFF728FE00289BD1BBF1000FE7D1BDF856
:109240000630A3EB0A0BBBFA8BFB4FEA5B1BE4E790
:10925000D63E0020D53E002008220600FC60050016
:109260007020060070B54FF6FF738CB00024984252
:10927000CDE90044CDE90244CDE90444ADF8020053
:1092800027D0054600F0E2FB112806465ED022D822
:1092900038B30B2834D12E4B2E482F49C01AC008A2
:1092A00000040F232A4640F002008DF8003008F039
:1092B0009FFCBDF8020000F015FE03466846ADF8BD
:1092C000043002F0F7FD2246244B28461978FEF7B9
:1092D00011FA0CB070BD43F20203984210D122463D
:1092E000F2E70E23BDF802008DF8003000F0FAFD21
:1092F00003466846ADF8043002F0DCFD3246E3E791
:10930000304609F055FC134B1549024610481B1A0C
:10931000DB081B0443F001002B4608F041FD00244C
:1093200007232846CDE90644CDE909448DF81830D5
:109330000896ADF81A500B9400F0D4FD034606A829
:10934000ADF81C3002F0B6FD2246BDE70122BBE7B6
:10935000702006000822060028600500D33E002089
:10936000A8600500037803B1704730B5044683B0A8
:109370004088FFF731FE6588284600F0C1FBA0B9A0
:109380006488204600F0AEFD00236A46092101F002
:109390004DFA052817D00F4B0F4918780022FEF719
:1093A000CBF9024640B103B030BD0C4B28461978CA
:1093B0000122FEF79FF9E3E7094B0A491878FEF707
:1093C000BBF903B030BD064B204619780122FEF7E9
:1093D00091F9E0E7D43E0020D98E0200D53E00206E
:1093E000D13E00208D8E0200F0B50378082B83B0AB
:1093F00009D0314C207831490022FEF79DF9024610
:1094000058B303B0F0BD467A0446002EF1D1057A78
:10941000072D29D0082D45D0012DEAD180886A4634
:10942000294601F0B3FD06460028E2D1019B1B78D6
:10943000002BDED0A08800F025FE4FF6FF73984287
:10944000D7D01F4F1C4C39782A46FEF753F938788D
:109450001C493246FEF770F9CCE71B4B1B491878C4
:10946000FEF76AF903B0F0BD8088134C00F00AFEE5
:109470004FF6FF7398420546BCD021780122FEF7D3
:1094800039F9284600F02EFD33466A46092101F0DD
:10949000CDF90528AED10C4B284619780122FEF7EC
:1094A00029F9A7E70A4B1A68012AA2D1BFF35F8FF7
:1094B000014C1E609EE700BFD43E0020D98E020002
:1094C000D53E0020D9900200D13E00208D8E0200B2
:1094D000CC3E00202DE9F843FEF7E6F8234C244D5E
:1094E0002070FEF7E1F82870FEF7DEF8214E224FDB
:1094F0003070FEF7D9F83870FEF7D6F8DFF89080B4
:10950000DFF8909088F80000FEF7CEF889F80000A8
:10951000FEF7CAF82378194A182B107019D02B7847
:10952000182B16D03378182B13D03B78182B10D06B
:1095300098F80030182B0CD099F80030182B08D070
:10954000182806D00E4B00201860BFF35F8FBDE8CF
:10955000F8830C4B0C480D49C01AC008000440F0B9
:10956000010008F063F90320BDE8F883D43E002031
:10957000D33E0020D53E0020D63E0020D23E002023
:10958000CC3E002070200600082206003C61050049
:10959000D13E0020D03E002070B503888588353B41
:1095A00086B004461F2B24D8DFE813F05B00B6001A
:1095B0002300230023002300230023002300230093
:1095C0002300230023002300230023002300230083
:1095D0002300230023002300230023002300230073
:1095E0002300E70023002000230031002846FFF776
:1095F000F3FC914C914B924918780022FEF79CF8AD
:10960000207890490022FEF797F806B070BD00263A
:1096100011232846CDE90066CDE902668DF80030B9
:10962000CDE90466ADF8025000F05CFCADF8040032
:1096300000F0AAFA844B804C197832462846FEF78F
:1096400059F8217832462846FEF754F8BDF8020052
:1096500000F048FC03466846ADF8043002F02AFCEE
:10966000C8E77A4E28463178FEF728F80028C0D09F
:10967000002231782846FEF73DF8E288B2F5857F72
:109680001ED0002A40F0BD806289012A09D07048AE
:10969000704B7149C01AC008000440F0020008F085
:1096A000A7FAA689012E00F0B7806948694B6B497B
:1096B000C01AC0080004324640F0020008F098FAD0
:1096C000674B002401201978ADF8000009232846D3
:1096D00022468DF802308DF80740CDF80340FEF7A2
:1096E00009F8604B2846019300F0FCFB0022694614
:1096F00001F018F900283FF47CAF09F059FA544BF7
:1097000059494D4C024653481B1ADB081B0443F0D1
:10971000020008F06DFA6DE7544E28463178FDF7E7
:10972000CDFF00283FF465AF002231782846FDF7D1
:10973000E1FFE288002A43D1E689012E4BD044485C
:10974000444B4649C01AC0080004324640F00200AB
:1097500008F04EFA424B002219788DF807200923B1
:10976000284601248DF80230CDF80320ADF80040E2
:10977000FDF7C0FF3B4B2846B5E7037B012B7FF489
:1097800038AF827A012A7FF434AF018942F602139E
:1097900099427FF42EAF364C28462178FDF7AAFF78
:1097A000002220783349FDF7C7FF024600287FF4E6
:1097B00020AF2B4B304918781F4CFDF7BDFF19E740
:1097C000244B23482D49C01AC008000440F0020071
:1097D00008F00EFABEE7224B247C1978CDF803205E
:1097E000092328468DF807208DF80230ADF8006077
:1097F000FDF780FF224B1B4A2846002C08BF13466A
:1098000071E7144B12481D49C01AC008000440F00B
:10981000020008F0EDF953E7E18900222846FFF73E
:109820002FFB00287FF44CAF104B034C19783246C5
:109830002846FDF75FFFDDE6D53E0020D33E002041
:1098400065920200D9900200D63E0020D03E002052
:1098500008220600702006004862050084620500A8
:10986000D13E0020D8620500AC610500D23E002048
:10987000D43E0020D98E02008D8E02000C620500BD
:10988000DC620500AFDF7047B1DF7047B2DF7047C1
:10989000B3DF7047F0B5264B264D93E803002B88C5
:1098A00089B04FF6FF766F46B34287E8030007D1D1
:1098B00038E0288801F0AEF8B0420346288031D065
:1098C00018460022394601F02DF804460028F0D051
:1098D00000232A881128CDE90233CDE90433CDE9EC
:1098E0000633ADF80C201DD086281DD009F060F994
:1098F000114E2B88114902461148351AED082D04E6
:1099000045F0010008F04CFABDF80C000494072360
:109910008DF8083000F0B6FB034602A8ADF80A3017
:1099200002F0DCFA09B0F0BD10460623F0E700BFF4
:1099300090640500D83E002010220600E062050079
:1099400070200600044B1A884FF6FF739A4200D12C
:109950007047FFF79FBF00BFD83E0020024B4FF675
:10996000FF721A8000207047D83E00202DE9F04792
:1099700082B0074600F0B6FA4FF6FF73984258D00F
:109980002F4A304BDFF8C0A0A3EB02094FEAD909F8
:109990004FEA0949064649F0010901224FF0030840
:1099A0006B4608213046551C01F0F4FA0446ADB26E
:1099B0000323384674BB019A911D42F8048BFFF7CC
:1099C00065FF0346082130465BB30C2B04D101F040
:1099D000D9FBA8B92A46E3E70821052B18BF1C4686
:1099E00001F0D0FB40B109F0E3F8174903463246D5
:1099F000484608F0D5F90324204602B0BDE8F087B8
:109A000009F0D6F8324603465146484608F0C8F9F0
:109A10002A46C5E7072C08BF0C24204602B0BDE843
:109A2000F087324601F018FC0446204602B0BDE83B
:109A3000F08743F20204204602B0BDE8F08700BF81
:109A40007020060010220600386305002DE9F0435F
:109A500083B0074600F046FA4FF6FF73984230D1C4
:109A60004FF00008464603254FF001092B464246B9
:109A700031463846FFF708FF042804460BD0082873
:109A80000BD00B280BD0B9F1000F08BF0B242046D8
:109A900003B0BDE8F0831124F5E70024F3E715F0E7
:109AA000020504D13EB1A8462E46032500E001255B
:109AB0004FF00009DAE7B8F1000F0ED0B0460325E9
:109AC000F6E76A46082101F061FA0028C8D1019E34
:109AD000B6F8048035680636C6E7064B06480749DF
:109AE000C01AC00800043A4640F0010008F080F8AF
:109AF000CDE700BF7020060010220600B863050005
:109B000000B585B00DF10703039300F0EBF902AA4D
:109B1000012101F03BFA20B9039B187805B05DF8EC
:109B200004FB002005B05DF804FB00BF70B5124EC9
:109B300004463046FFF7ACFE78B9318843F203059E
:109B40004FF6FF722046FFF79DFEA84200D070BD81
:109B50003188013189B23180F2E709F029F8074BE9
:109B60000749024607481B1ADB081B0443F00100A3
:109B700008F03EF8032070BDDA3E002010220600F7
:109B8000306405007020060010B5074B044693E8CA
:109B9000030082B06B4683E803000022194620468A
:109BA00000F0C0FE02B010BD9864050046DF7047AB
:109BB0000388102B40F0C68070B5041D0FCC9EB0FA
:109BC00007AD0FC50FCC0FC594E807009DF82030F6
:109BD00003F0FE03062B85E8070014D1BDF81C3006
:109BE000684A0898BDF824409DF8261003EB8303CB
:109BF0005B004FF6FF75D5521344C3F80200DC80BA
:109C000019721EB070BD00F059FE9DF82030032B74
:109C10004FEA530240F29780022ADFD105AE0DF1E0
:109C2000060532462946072000F050FE0028D5D010
:109C30009DF8203003F0FE03042BF2D1069C032292
:109C40000DF1210102A82AF0B3F9032209A904A801
:109C50002AF0AEF9237C8DF84830E37B8DF849304B
:109C6000A37B8DF84A30637B8DF84B30237B8DF8D6
:109C70004C30E37A8DF84D30A37A8DF84E30637A0C
:109C80008DF84F30237A8DF85030E3798DF85130CC
:109C9000A3798DF8523063798DF8533023798DF89C
:109CA0005430E3788DF85530A3788DF856306378CA
:109CB0008DF8573000210D2216A82AF0A1F9BDF821
:109CC00010309DF812208DF865205BBA12A8ADF80F
:109CD0006630FFF76BFFBDF876309DF875208DF884
:109CE0000E205BBA032203A902A8ADF80C302AF0BB
:109CF00051F9002895D1BDF81C30224DBDF8061051
:109D00000898BDF8246003EB83025200AC18A952F6
:109D10004FF6FF729DF82650C4F802009142E6808B
:109D200025723FF46EAF002212A8ADF84A30ADF8AC
:109D30004C108DF8482002F0E5F812A8FFF712FB4E
:109D40001EB070BD704705AE0DF1060532462946BE
:109D5000072000F0BBFD034606220DF12100002B79
:109D60003FF43CAF06999DF820304C7C634013F0E3
:109D7000FE0F01F11201E9D12AF00CF90028E5D11A
:109D8000B9E700BFDC3E002070B5102204460D4646
:109D9000013001312AF0FEF8002852D16378FBB976
:109DA000A378EBB9E378DBB92379CBB96379BBB995
:109DB000A379ABB9E3799BB9237A8BB9637A7BB981
:109DC000A37A6BB9E37A5BB9237B4BB9637B3BB96D
:109DD000A37B2BB9E37B1BB9237C0646002B31D038
:109DE0006B78002B5CD1AB78002B59D1EB78002B32
:109DF00056D12B79002B53D16B79002B50D1AB79F5
:109E0000002B4DD1EB79002B4AD12B7A002B47D177
:109E10006B7A002B44D1AB7A002B41D1EB7A002B2B
:109E20003ED12B7B002B3BD16B7B002B38D1AB7B06
:109E3000002B35D1EB7B9BBB287C061E18BF01266F
:109E400000E00026637C6A7C83EA020111F0FE0FC9
:109E50000BD003F0FE03042B1ED0062B1CD002F007
:109E6000FC02042A18D0002070BD062205F1120160
:109E700004F112002AF08EF8637C03F0FE03042B39
:109E80000AD0062B08D06B7C03F0FC03042B03D014
:109E90000028E8D1012070BD002EE4D00120FAE7AF
:109EA0000126CFE730B585B005460C4600F006FD2B
:109EB00003E0BDF80630A3420BD102AA0DF1060162
:109EC000072000F003FD0028F3D14FF6FF7005B026
:109ED00030BD03992846FFF757FF0028EDD0BDF8A5
:109EE0000600F4E713280DD810B50446FDF76EFB05
:109EF00028B1064B04EB840433F8140010BD4FF670
:109F0000FF7010BD4FF6FF70704700BFDC3E0020B1
:109F1000132816D838B504460D46FDF757FB68B12F
:109F2000094804EB840400EB4404002054F8023F89
:109F30002B60A288A379AA80AB7138BD43F20200DE
:109F400038BD43F202007047DC3E002008B50288AD
:109F50007AB983786BB9C3785BB903794BB9437924
:109F60003BB983792BB9C3791BB9037A0BB9437A0F
:109F700013B10B88934201D0002008BD02310822A2
:109F800002302AF007F8B0FA80F0400908BD00BF9F
:109F900030B585B00446851C00F090FC02AA0DF196
:109FA0000601072000F092FC00285AD0238803996C
:109FB000002B35D1A278002A57D1E378002B49D164
:109FC0002279002A46D16279002A43D1A279002A57
:109FD00040D1E279002A3DD1227A002A3AD1627A30
:109FE000002A37D12379002B2FD1627952B9A37976
:109FF000002B2AD1E2792AB9237A002B3DD1627A4B
:10A00000002ACBD04A8D9A42C8D12C31082228464A
:10A0100029F0C0FF0028C1D1BDF8060005B030BD51
:10A02000B1F846209A42EDD148310822284629F05D
:10A03000B1FF0028F0D023880399002BE2D1A27849
:10A04000002ADFD1E378002BCCD04A8D00239A423E
:10A05000A4D1DAE7B1F84620002AE5D0002BC1D020
:10A06000F3E74FF6FF7005B030BDB1F84620002A87
:10A07000DAD04A8D9A4291D1C7E713464A8D9A4267
:10A080008CD1C2E7F8B54FF6FF73984214D00C4D4F
:10A090000746002401E0142C0ED02B88BB42A6B248
:10A0A00005F10A0504F10104F5D13046FDF78EFAF9
:10A0B0000028F0D03046F8BD4FF6FF763046F8BDA8
:10A0C000DC3E0020038893B9837883B9C37873B9E1
:10A0D000037963B9437953B9837943B9C37933B900
:10A0E000037A23B9407A003818BF01207047012055
:10A0F000704700BF132804D8024B00EB800023F800
:10A1000010107047DC3E0020F8B54FF6FF73984200
:10A110001DD0114F054600243E4602E00134142CA8
:10A1200014D03388AB42A0B206F10A06F6D1FDF78F
:10A130004DFA0028F2D0284600F054FE28B904EB6E
:10A1400084044FF6FF7327F81430F8BD2846BDE8A5
:10A15000F84000F047BE00BFDC3E002081DF7047C2
:10A1600084DF7047F0B52A4B83B093F881234027F2
:10A170000197002A48D193F80537002B44D1254890
:10A18000254D264A264E274913702D1AED082D0419
:10A1900045F00400337007F049FB234B234A244960
:10A1A000244804F08BFF0446E0B923491E4801AA65
:10A1B00005F026F8044660B91F4A1D483B46114683
:10A1C00005F040F80446B0B901232046337003B0CF
:10A1D000F0BD45F001001949224607F009FD20466F
:10A1E00003B0F0BD45F001001549224607F000FD1F
:10A1F000204603B0F0BD45F001001249224607F0A9
:10A20000F7FC204603B0F0BD1124204603B0F0BD9A
:10A210001447002070200600D0210600CC46002004
:10A22000A8460020B8640500545100201C4E0020B0
:10A23000847605005C430020D446002008650500B4
:10A24000D06405004065050010B54FF4E16282B0AE
:10A250000021194829F0D4FE08F078FA38BB05F03F
:10A26000CDF90446154B1648ACB9C01AC008000415
:10A2700040F004001349019007F0D8FA0198124900
:10A2800007F0D4FA114A124B14701C7002B0BDE8EA
:10A290001040FFF767BF0F49C01AC008000440F024
:10A2A0000100224607F0A4FC204602B010BD04467F
:10A2B000024B03480849EFE71447002070200600CE
:10A2C000D0210600C4650500DC650500A43F002020
:10A2D000A84600209C6505007865050010B5084B70
:10A2E0001C780CB1074810BD074B08480849C01A34
:10A2F000C008000440F0010007F098FA204610BDA5
:10A30000A8460020D446002070200600D021060078
:10A31000F8650500514B1B78002B6AD12DE9F041FF
:10A320004F4B5048504DC01AC00895F88033000478
:10A3300084B040F0020640F0030433B995F80437C6
:10A340005BBB002004B0BDE8F081484B1B784FF0A8
:10A350002008CDF80C80002B62D095F88133002BBB
:10A3600049D14349304607F061FA4248202105F0BF
:10A370007DF9002870D140490022204607F038FCC2
:10A380003C490020FFF7EAFE0023A5F880330028AF
:10A39000D8D195F80437002BD3D0344B1B78202725
:10A3A0000397002B3BD095F805374BB103AB0093D7
:10A3B000324A304B3249334804F086FF00283AD005
:10A3C0002B49304607F032FA2A48202105F04EF991
:10A3D000002838D128492046012207F009FC2549E8
:10A3E0000120FFF7BBFE0023A5F804370028A8D002
:10A3F000A8E70320704703AB009321491D4B214878
:10A400002A4604F061FF07460028AAD1194A1E48CF
:10A410004346114604F016FF0028ACD014E0012397
:10A420004FF4617202FB035303200022A3F8802340
:10A4300004B0BDE8F0810F4A13483B46114604F0D2
:10A4400001FF0028C6D001274FF4617303FB0757B3
:10A450000023A7F8803375E70027F5E7A43F002025
:10A4600070200600D021060014470020A8460020D6
:10A470003C660500AC46002070660500984A002046
:10A480001C4E0020D03F0020847605002DE9F041CD
:10A4900003888688112B92B033D0182B2ED1374BDE
:10A4A000374D3849ED1AED0804462D0445F00400F7
:10A4B00007F0BCF9237BDB072ED4A168324802AA3F
:10A4C000402304F0BFFE044600284BD1DFF8BC80D7
:10A4D0002D484FF4617707FB068702AA39464023CF
:10A4E00004F06CFE002834D1012387F881334FF447
:10A4F000617303FB0686012386F8803312B0BDE842
:10A50000F081224A4FF4617303FB06260023A6F86C
:10A51000803312B0BDE8F0811D4B1E4A1B781268D3
:10A520001D49002B08BF002122B130460191904700
:10A53000019902463046FFF713FE0028BDD00246BF
:10A54000164945F0010007F053FB154B01221A7024
:10A55000B3E70246134945F0010007F049FB87F8CD
:10A560008143C4E72246104945F0010007F040FB53
:10A570000B4B01221A7012B0BDE8F081702006006A
:10A58000D0210600A8660500847605001447002047
:10A59000CC460020D0460020A83F0020C866050019
:10A5A000A43F0020FC66050040650500F0B52B4F78
:10A5B0008DB00021082201A8397029F021FD4FF645
:10A5C000FF7000F02DFF4FF6FF76B0421CD004461E
:10A5D00007E000F0CDFE204600F022FFB042044626
:10A5E00012D0A4F58045ADB2284601AA03A906F011
:10A5F00031FB03460A2B2046EBD0284606F0E6F94D
:10A600000828054626D00DB90DB0F0BD144B1548ED
:10A610001549C01AC008000423462A4640F001002C
:10A6200007F0BEFB0726002301214FF6FF7206A8A4
:10A63000CDE90633CDE9093308950B93ADF81C40FD
:10A640008DF818608DF82410ADF81A2000F074FA17
:10A650000DB0F0BD01233B700DB0F0BDDC54002007
:10A6600070200600302206004867050010B5828978
:10A67000017886B002F58042002392B20429CDE928
:10A680000033CDE90233CDE90433ADF8042041D0E5
:10A690002CD84B1E022B37D843F6FE739A42C28940
:10A6A00059D8D0E90130A1F10301B1FA81F149098A
:10A6B0008DF808208DF809100390002B51D19DF8DA
:10A6C000103043F001038DF8103008222B4C8DF828
:10A6D00000204FF6FF736846ADF8023000F02CFA08
:10A6E0002378ABB1FFF762FF06B010BD05290BD18F
:10A6F000436853BB13224FF0FF3368468DF80020A8
:10A70000CDF8023000F018FA1C4C2378002BE9D168
:10A7100006B010BD43F6FE739A42F5D8C389002BEC
:10A72000F2D143681BB30B21012202938DF8001074
:10A730008DF80C20114C01224FF6FF7368462270F1
:10A74000ADF8023000F0F8F9DFE701228DF80C20B7
:10A7500002931422CFE702F58044A4B29C42A0D910
:10A76000D2E701228DF8142004930922AEE70A23D0
:10A7700010468DF8003000F0FBFDDBE7DC540020D4
:10A7800030B5254889B005F01FFE38BB05F032FE14
:10A790000546002831D100F0AFFD03A80822294664
:10A7A00029F02EFC0CE005F065FF019B9C8804F568
:10A7B0008044A4B205A805F087FF204600F0A4FD60
:10A7C00005A903AA4CF2070006F0E2F9034601A925
:10A7D00005A8002BE7D0284609B030BD0F4A104B22
:10A7E00010499B1ADB081B04024643F0010007F0E6
:10A7F000FFF90325284609B030BD084B08480A492F
:10A80000C01AC00800042A4640F0010007F0F0F921
:10A810008625284609B030BD6DA6020070200600CE
:10A820003022060094670500D8670500F0B5FF28C0
:10A8300087B008D8012904460D4616461F4606D0A3
:10A840000B1F052B03D90724204607B0F0BD0822B3
:10A85000002101A829F0D4FBA4F58040A5F5804192
:10A8600080B201AB03AA89B206F028F9F8B901A9B0
:10A8700003A805F0FFFE0446C8B9019BB5705B88CC
:10A8800033808FB13A88706802999D00AA4228BF30
:10A890002A46164629F08CFBB5420CD803A805F0D1
:10A8A00013FF204607B0F0BD029B7360F6E7052456
:10A8B000204607B0F0BD0C24C6E700BF02480822BE
:10A8C000002129F09DBB00BFD454002070B50128A1
:10A8D00086B004460E46154602D0031F052B1CD831
:10A8E000A4F580400E4A03A980B206F051F920B9C0
:10A8F00001A903A805F0BEFE10B1002006B070BD8E
:10A90000019BAC705988029A29806A609B8803F584
:10A91000804303A8338005F0D7FE012006B070BD48
:10A92000D4540020F0B5FF2889B007D88B78012BCC
:10A930000546164606D01A1F052A03D907242046C5
:10A9400009B0F0BDA3F58043A5F58047D1F804C058
:10A95000CDF80CC09CB2BFB20B8804930822002132
:10A960006846ADF80A40ADF8087029F049FB214669
:10A9700038466B4605AA06F0A1F800BB02A905A857
:10A9800005F074FF04460E2C09D8DFE804F0220815
:10A990000808080808291E08080808081E00114BA6
:10A9A00011481249C01AC008000422462B4640F044
:10A9B000010007F0F5F90324204609B0F0BD02A913
:10A9C00005A805F0A7FE0446DDE71124204609B0DE
:10A9D000F0BD002EB3D0314605A806F09DF9AEE7D4
:10A9E0008624ACE7702006003022060018680500B7
:10A9F0004FF6FF7000F088BCFF2806D808B500F0BD
:10AA0000A3FCFFF7D3FD002008BD0720704700BF5F
:10AA100000F0C2BC00F0CABC00F002BD30B583B08B
:10AA20008278417A044600233D48CDE900338DF811
:10AA3000022001F08FFC002865D0237AA1780190D4
:10AA400003EB83039B004A1EADF800308DF8021023
:10AA5000072A0AD8DFE802F02509090909253C047C
:10AA6000838809339B08ADF800302246694632F8E6
:10AA7000040BFFF757FF11281ED005D800283CD043
:10AA8000072829D103B030BD862825D1A37A254ACD
:10AA900023F0030343F001030121A372117003B0FB
:10AAA00030BD2246012332F8040BADF80030694670
:10AAB000FFF738FF1128E0D1A37A1A4A23F00303E5
:10AAC00043F0020301210020A372117003B030BDD6
:10AAD0001423ADF80030C8E708F06AF8124D238857
:10AAE0001249024612482C1AE408240444F00100DA
:10AAF00007F056F9032003B030BDA37A23F0030317
:10AB0000A37203B030BD0A4B0748627A0949C01AE4
:10AB1000C008000440F0010007F06AF80320B1E724
:10AB2000245600202056002028220600C468050074
:10AB300070200600846805002DE9F043754DC36858
:10AB40006A68934287B0044600F0B0802A69934255
:10AB500000F0AE80EA6993427FD0AA6A934208BFB0
:10AB600003277BD00378092B05D00027132B00F097
:10AB7000A180082B11D0204601F05AF8204602F09F
:10AB80001BFC654E2046FEF7DDFE2046FEF72CFC42
:10AB900033781BBB07B0BDE8F083667A002EEAD19C
:10ABA000002FE8D03B7A5BB1DFF87C81797A3144C1
:10ABB000C9B2404601F0E6FB3B7A01369E42F5D32E
:10ABC000BB7A23F003034FF6FF720021BB724FF4F0
:10ABD0007F433A80BA7079603B81CCE700233370C1
:10ABE000DFF8308100244FF0010904EB440305EB4A
:10ABF000830340469B7A13F0020F4FEA440708F1A3
:10AC00000C0808D086F80090FFF708FF40B901341F
:10AC1000042CEAD1BEE7D90748BF86F80090F6E7D2
:10AC20003C44A4004FF6FF732A5BADF8042086284D
:10AC3000ADF8023024D106238DF80030684600F0CC
:10AC4000F7FF684602F0B8FB6846FEF77BFE6846F1
:10AC5000FEF7CAFB07B0BDE8F0830227237807EBB5
:10AC60004707092B05EB870780D1627A002A82D13A
:10AC7000BB7A294E7A6043F00203BB723270AFE7B1
:10AC8000072200238DF800208DF80C30029007F089
:10AC90008FFF224E2B5B224902462248341AE408D9
:10ACA000240444F0010007F07BF8C7E70027D5E74C
:10ACB0000127D3E7204600F0BBFF204602F07CFBD3
:10ACC000154E2046FEF73EFE2046FEF78DFB3378FC
:10ACD000002B3FF45FAF0024DFF8388034704FF072
:10ACE000010904EB440305EB830367009B7A9A0791
:10ACF00001D4DB0706D5404686F80090FFF78EFEAC
:10AD000000288DD10134042C08F10C08E9D107B0DA
:10AD1000BDE8F0833456002020560020282206008B
:10AD2000F4680500702006002456002070B5264CFB
:10AD3000264BA67AA27D94F8220094F82E5024493E
:10AD400026F0030622F0030282B020F00300A67270
:10AD5000A27550260422CDE9002625F003054FF602
:10AD6000FF7284F82200002084F82E5022804FF4D5
:10AD70007F45A270A281A2732283A276A28484F866
:10AD8000262060602061E061A0624FF4A07211484B
:10AD90002581A5822584A58501F06EFA034610B9A8
:10ADA000184602B070BD07F003FF0B4B0B4902467B
:10ADB0000B481B1ADB081B0443F0010006F018FFC8
:10ADC0000323184602B070BD34560020645600209C
:10ADD000E054002024560020282206005469050073
:10ADE000702006002DE9F843604D2B88834207460A
:10ADF00029D0AB89834200F0B3802B8B834200F0D3
:10AE0000B280AB8C834208BF4FF003081DD0384698
:10AE1000FFF7F2FD034608B1072802D11846BDE846
:10AE2000F88307F0C5FE524C524A5349A41AE4086D
:10AE3000240403463A4644F0010006F0B1FF032320
:10AE40001846BDE8F8834FF000082B88DFF83891EA
:10AE500008EB4802BB4205EB82022DD0AB89BB4216
:10AE600075D02B8BBB4275D0AB8CBB4275D0B8F183
:10AE7000030F08F10103CAD003EB430235F8222087
:10AE8000BA4260D0B8F1020F08F10203BFD003EB61
:10AE9000430235F82220BA4255D0B8F1000FB6D19E
:10AEA000AB8CBB42B3D14FF003082B8808EB4802B0
:10AEB000BB4205EB8202D1D12C4C00239078A278C2
:10AEC000824220D0032B03F10102D0D002EB4201D9
:10AED00035F82110B94238D0022B03F10202C6D056
:10AEE00002EB420135F82110B9422ED0012BBED021
:10AEF000AB8CBB42BBD1032303EB430405EB8404BF
:10AF0000A2788242DED1A27A9207DBD16668002E57
:10AF1000D8D1237A4BB1617A3144C9B2484601F0A5
:10AF200031FA237A01369E42F5D3A37A4FF6FF72A7
:10AF300023F0030300204FF47F41A3722280A2700C
:10AF40006060218193E79846AFE71346D4E70B4C46
:10AF50000123B3E70A4C0223B0E70A4C0323ADE711
:10AF60004FF0010871E74FF002086EE734560020F9
:10AF70002822060070200600746905004056002053
:10AF80004C56002058560020245600200023FFF77E
:10AF90004DBC00BF002B00F085802DE9F843994699
:10AFA000CB1F012B884648D8531E032B174644D885
:10AFB0006F4D2A88904200F0B880AB89834200F040
:10AFC000B6802B8B834200F0B480AB8C834208BFE9
:10AFD000032614D04FF6FF739A426AD0AA899A4288
:10AFE00000F09F802A8B9A4200F09D80AA8C9A42A2
:10AFF00008BF03225ED01120BDE8F8831E4606EB91
:10B00000460405EB8404A378434519D0032E06F1CA
:10B010000103DFD003EB430135F821108142EDD06D
:10B02000022E06F10203D5D003EB430135F82110BF
:10B030008142E3D0002EC8D0CCE70720BDE8F883DA
:10B04000A37A9907E2D16368002BDFD1237ABB4250
:10B0500025D1617AFF2918D000254648277201F0D2
:10B0600079F9002867D007EB87031B019BB29B0887
:10B07000A9F8003089F80280C9F8040015B1B8F1C8
:10B08000080F11D00020BDE8F8833946394801F097
:10B0900009F9FF28014660725AD00125DDE70F202B
:10B0A000BDE8F8830E2070479B00063B838000209C
:10B0B000A2E7002202EB420405EB84044FF6FF7185
:10B0C000A378FF2B21D0032A02F1010393D003EBD5
:10B0D000430435F824408C4221D0022A02F10203B5
:10B0E00089D003EB430435F824408C4217D0002A62
:10B0F00081D1AB8C8B427FF47EAF032202EB420402
:10B1000005EB8404A378FF2BDDD1A37A9B07DAD16A
:10B110006368002BD7D1208084F8028099E71A4613
:10B12000ECE70122C6E70222C4E7002667E7012612
:10B1300065E7022663E7104B1048627A1049C01A8F
:10B14000C008000440F0010006F052FD032053E760
:10B15000A37AA07023F003034FF6FF7000214FF491
:10B160007F422080A37261602281112044E700BFEA
:10B1700034560020245600207020060028220600A5
:10B18000C8690500F8B5324E338883420DD0B389C3
:10B19000834259D0338B834258D0B38C834208BF4B
:10B1A000032203D005252846F8BD002202EB420405
:10B1B00006EB8404A3788B4223D0032A02F1010317
:10B1C000F0D003EB43055C0036F82550854211D0E2
:10B1D000022A02F10203E5D003EB43055C0036F8D6
:10B1E0002550854206D0002ADCD1B38C8342D9D1C8
:10B1F000032306241C4406EB84041A46A3788B42DE
:10B20000DBD1A37A9B07D8D16568002DD5D1237AED
:10B210005BB1104F2E46617A3144C9B2384601F015
:10B22000B1F8237A01369E42F5D3A37A4FF6FF7226
:10B2300023F0030300204FF47F416060A37222805B
:10B24000A27021812846F8BD0122AFE70222ADE7B6
:10B250003456002024560020F8B5CB1F012B17D8F8
:10B26000044610460E461746FFF7D2FB80B1214D2B
:10B270002B88A34238D0AB89A34237D02B8BA34273
:10B2800036D0AB8CA34208BF032304D00520F8BD01
:10B290000720F8BD0B4603EB430005EB80008278E6
:10B2A000B24216D0032B03F10101EFD001EB4102B2
:10B2B00035F82220A242EDD0022B03F10201E5D0A5
:10B2C00001EB410235F82220A242E3D0002BD8D076
:10B2D000DCE7827A9207E5D14268002AE2D1078052
:10B2E000BDE8F840FFF79ABB0023D4E70123D2E77B
:10B2F0000223D0E73456002002484022002128F0E3
:10B300007FBE00BF685600204FF6FF73984210B50D
:10B310000DD0FF28044602D94FF6FF7010BD01463C
:10B32000084802F05BFA0028F6D1204610BD054817
:10B330004FF4807102F074FA80B2B0F5807FEBD0E8
:10B3400010BD00BF6856002008B54FF6FF73984245
:10B3500001D0FF2801D9002008BD0146034802F0B2
:10B360003DFA0028F7D1012008BD00BF8856002013
:10B37000FF2800D9704710B501460446044802F082
:10B380003BFA21460348BDE8104002F035BA00BF41
:10B390006856002088560020FF2801D900207047F9
:10B3A0000146014802F032BA68560020F8B54FF65F
:10B3B000FF7398422ED0013084B2FF2C26D8164D50
:10B3C00003E09CB2B4F5807F20D02146284602F0ED
:10B3D0001DFA631C0028F4D0104FA7F12006214667
:10B3E000384602F013FA98B10134A5B2B5F5807F62
:10B3F0000CD0ABB2294630461C4602F007FA0135A4
:10B40000ABB20028EBD1B3F5807FF3D14FF6FF74D8
:10B410002046F8BD0024D2E7685600208856002058
:10B4200038B54FF6FF73984216D0013084B2FF2C26
:10B430000ED80A4D03E09CB2B4F5807F08D02146B7
:10B44000284602F0E3F9631C0028F4D0204638BDFA
:10B450004FF6FF74204638BD0024EAE788560020E6
:10B4600076DF704770B5027886B00446142A00F281
:10B470004E81DFE812F024002400610079002400EE
:10B4800024009300150024009F00BD00CA00DD00C9
:10B49000E9002400F1002400240024002400FF001F
:10B4A000806807F085FBA04BA0490246A0481B1A04
:10B4B000DB081B0443F0010006F09AFB227822B15E
:10B4C000072A00F0E78006B070BD658805A9284608
:10B4D00000F0DCFD43F20201884200D048BB9DF839
:10B4E000141011F00201EED1284600F0BDFD044613
:10B4F0000028E8D01128E6D00D2800F0EC800B28B9
:10B5000000F0D98043F20203984200F0E08007F097
:10B510004FFB854E864B8749F61AF60836040246DD
:10B520002B4646F0010006F03BFC20460AF06EFC7C
:10B53000C9E70AF06BFCD2E740887D4DFCF750F874
:10B54000794B7D497D4A5B1B257A52F8202051F8C2
:10B5500025100091D80800046388794940F0030061
:10B5600006F0FEFC2278AAE74088714DFCF738F817
:10B570006D4B7149714A5B1B257A52F8202051F8B6
:10B58000250061890090D8080191000463886D4905
:10B5900040F0030006F0CAFD227890E7644B624851
:10B5A0006949C01AC008000440F0020006F03EF9E4
:10B5B000227884E7057A417A644A654B52F8216023
:10B5C00053F82530A288006903930292584D07F082
:10B5D000EFFA55490190491BC9080904DDE9022326
:10B5E00041F0020000965B4906F0A0FD227866E774
:10B5F0004F4B4D48A2885849C01AC008000440F07B
:10B60000010006F0F5FA227859E7A28880680292D4
:10B6100007F0CEFA444D029A5049034644482D1A89
:10B62000ED082D0445F0010006F0BAFB227846E74C
:10B630003F4B3D484A49C01AC008000440F003008F
:10B6400006F0F4F822783AE7806807F0B1FA364B52
:10B650004449024636482AE73348354D6288A38874
:10B660004149401BC008000440F0020006F098FB6E
:10B67000227824E7806807F09BFA2B4B3B4902466F
:10B680002B481B1ADB081B0443F0020006F0B0FA3B
:10B69000227814E7264B24483549C01AC008000414
:10B6A00040F0010006F0C2F8A06800283FF40BAF9C
:10B6B0000AF0ACFB07E71C481D4B2E49C01AC00816
:10B6C00000042A4640F0020006F092FAFBE6164813
:10B6D000174B2949F2E7164B134C2849E41AE408A2
:10B6E000240444F0020420462A4606F081FA13217D
:10B6F0002846FFF7B5FE00283FF4E5AE07F058FAFC
:10B700001F4902462B46204606F04AFBDBE6084B63
:10B7100005481C49C01AC008000440F0020006F0A9
:10B7200067FA2278CBE600BF18220600FC6A050003
:10B7300070200600E86D0500387005002C700500CB
:10B74000506A0500906A0500E46A0500FC6F050078
:10B7500004700500286B0500746B05009C6B0500E8
:10B76000CC6B0500E06B0500046C0500406C050027
:10B77000246E05003C6D05009C6D0500906C050075
:10B78000046D0500706C05002DE9F041037886B06A
:10B790000446142B00F2FD80DFE813F04401FB00A7
:10B7A0005401FB00FB00FB000401FB00FE00FB005A
:10B7B000FE00FB00FB00FB00FB00FB00FB00FB00AE
:10B7C000FB0015002B01C94BC94D1C68C948CA4E66
:10B7D000634203F0070304F0070258BF5A420023F4
:10B7E00035F8121003704FF6FF70814233700CD0A1
:10B7F00025F812006846CDE90033CDE90233CDE9E2
:10B800000433ADF80410FFF7BFFF631C5A4202F087
:10B81000070203F0070358BF53424FF6FF7135F894
:10B8200013208A420DD025F8131068460023CDE975
:10B830000033CDE90233CDE90433ADF80420FFF73E
:10B84000A3FFA31C5A4202F0070203F0070358BFEC
:10B8500053424FF6FF7135F813208A420DD025F878
:10B86000131068460023CDE90033CDE90233CDE95A
:10B870000433ADF80420FFF787FFE31C5A4202F0BF
:10B88000070203F0070358BF53424FF6FF7135F824
:10B8900013208A420DD025F8131068460023CDE905
:10B8A0000033CDE90233CDE90433ADF80420FFF7CE
:10B8B0006BFF231D5A4202F0070203F0070358BF33
:10B8C00053424FF6FF7135F813208A420DD025F808
:10B8D000131068460023CDE90033CDE90233CDE9EA
:10B8E0000433ADF80420FFF74FFF631D5A4202F006
:10B8F000070203F0070358BF53424FF6FF7135F8B4
:10B9000013208A420DD025F8131068460023CDE994
:10B910000033CDE90233CDE90433ADF80420FFF75D
:10B9200033FFA31D5A4202F0070203F0070358BF7A
:10B9300053424FF6FF7135F813208A420DD025F897
:10B94000131068460023CDE90033CDE90233CDE979
:10B950000433ADF80420FFF717FF0734634203F008
:10B96000070304F0070458BF5C424FF6FF7135F837
:10B9700014208A420DD000236846CDE90033CDE97A
:10B980000233CDE9043325F81410ADF80420FFF795
:10B99000FBFE06B0BDE8F081574B01221A7006B0DD
:10B9A000BDE8F081534D2B78002BF2D1534B544C12
:10B9B000514F5449E41AE408240444F00308404673
:10B9C00005F034FF3B786BB96A461946184600F01B
:10B9D0009FFB0646002868D0052E77D0062E7BD028
:10B9E000002E71D105F030F800285AD101232B70B8
:10B9F000CFE7404A037B00211170002BC9D0836838
:10BA00000E2B01D0012BC4D1002306226846CDE9BC
:10BA10000033CDE90233CDE904338DF80020FFF780
:10BA2000B3FEB6E7808800F081FB86281BD0112882
:10BA300019D0132803D8344BC340DB07A9D40AF02C
:10BA4000E5F9A6E7037A012BA3D80023828868468C
:10BA5000CDE90033CDE90233CDE90433ADF804205C
:10BA6000FFF792FE95E72149214A0B68A08822F84A
:10BA7000130001335A4202F0070203F007034FF0AC
:10BA8000060458BF534268460022CDE90022CDE9A2
:10BA90000222CDE904220B608DF80040FFF774FE0E
:10BAA00077E708283FF475AFC9E7BDF800201749CC
:10BAB000404606F09DF8BDF8000000F01FFB06466A
:10BAC00080B901233B7087E73046B8E7104944F05E
:10BAD000010005F0ABFE5CE70E4944F0020005F002
