:02000002F0000C
:1040000000000420BD420F00E5420F00E7420F0010
:10401000E9420F00EB420F00ED420F0000000000EC
:10402000000000000000000000000000EF420F0050
:10403000F1420F0000000000F3420F00F5420F00B4
:10404000D96C0F00F7420F00F7420F00F7420F0044
:10405000F7420F00F7420F00F7420F00F7420F0040
:10406000F7420F00F7420F00F7420F00F7420F0030
:10407000F7420F00F7420F00F7420F00F7420F0020
:10408000C9880F00F7420F00F7420F00F7420F00F8
:10409000F7420F00F7420F00F7420F00F7420F0000
:1040A000F7420F00F7420F00F7420F00F7420F00F0
:1040B000F7420F00F7420F00000000000000000070
:1040C000F7420F00F7420F00F7420F00F7420F00D0
:1040D00059850F00F7420F00F7420F00D97B0F0000
:1040E000F7420F00F7420F0015BB0F000000000061
:1040F00000000000F7420F0000000000F7420F0030
:1041000000000000000000000000000000000000AF
:10411000000000000000000000000000000000009F
:10412000000000000000000000000000000000008F
:10413000000000000000000000000000000000007F
:10414000000000000000000000000000000000006F
:10415000000000000000000000000000000000005F
:10416000000000000000000000000000000000004F
:10417000000000000000000000000000000000003F
:10418000000000000000000000000000000000002F
:10419000000000000000000000000000000000001F
:1041A000000000000000000000000000000000000F
:1041B00000000000000000000000000000000000FF
:1041C00000000000000000000000000000000000EF
:1041D00000000000000000000000000000000000DF
:1041E00000000000000000000000000000000000CF
:1041F00000000000000000000000000000000000BF
:1042000010B5054C237833B9044B13B10448AFF310
:1042100000800123237010BDC800002000000000B2
:10422000D8CA0F0008B5034B1BB103490348AFF3CD
:10423000008008BD00000000CC000020D8CA0F009C
:10424000A3F5803A704700BF174B002B08BF134BF4
:104250009D46FFF7F5FF00218B460F461348144A91
:10426000121A07F0D7FC0E4B002B00D098470D4BCD
:10427000002B00D098470020002104000D000D48BD
:10428000002802D00C48AFF3008007F069FC200042
:10429000290003F061FF07F04FFC00BF0000080099
:1042A000000000000000000000000420C800002002
:1042B000E840002000000000000000000649074A16
:1042C000074B9B1A03DD043BC858D050FBDC00F0C1
:1042D00055F9FFF7B9FF000008CB0F0008000020D8
:1042E000C8000020FEE7FEE7FEE7FEE7FEE7FEE788
:1042F000FEE7FEE7FEE7FEE700207047011F0148EA
:1043000002F091B9ECCA0F0013B5074C0A4601AB95
:104310000146204602F04EFA019A0448214601F077
:10432000EFFC02B010BD00BF8719002044C50F008C
:1043300000F0DEBE10B504461A4802F03BF91A4BF5
:1043400018481C6002F04DF948B3184B002140F6A4
:1043500003020330C3E9021258601970144B154967
:1043600059601549C3E90212144A1A61144A5A6184
:1043700002F0AEFA852800D090B9002002F006FBCA
:1043800070B902F047F80F4800F0B2FC40B90E488F
:1043900000F050FD20B9BDE8104000F015BD03202D
:1043A00010BD00BFECCA0F006C010020101A0020E5
:1043B000F819002009430F00FD420F00A01900204A
:1043C000E4CA0F0068C50F0044C50F00083810B5D7
:1043D000062820D8DFE800F008141B1F1F1F040068
:1043E000BDE8104000F00ABD03F014F908B900F070
:1043F00003FD094B1B6873B10120BDE8104018474D
:1044000000F00EFD044B1B682BB10220F5E7BDE860
:10441000104000F0F5BC10BD6C01002003780BB912
:1044200000F066BE014A042100F0DEBA31430F00FD
:10443000F8B5E9B9134E144C144F3178124802F014
:10444000EDF9054660B93846D4E9011206F0D2F814
:104450000F4802F0C6F818B10330C4E90105257011
:104460000C480122314601F06DFC0028E5D0F8BD72
:104470000229FCD1BDE8F84002490648012201F0BA
:1044800061BC00BFB8190020101A0020F8190020E4
:10449000ECCA0F0044C50F00074B1B5C1F2B86BFE7
:1044A000064903F01F034FF0A041012202FA03F373
:1044B000C1F80C35704700BF74C50F0000030050F1
:1044C000074B1B5C1F2B86BF064903F01F034FF0F1
:1044D000A041012202FA03F3C1F80835704700BF7A
:1044E00074C50F000003005008B50020FFF7E8FF77
:1044F0000120FFF7E5FF0220FFF7E2FFBDE80840DB
:104500000320FFF7DDBF0000C20710B504460DD53C
:104510004FF0A04209490323C2F86837C2F8203798
:10452000C1F82437C2F83037FFF7DEFFA30742BFD8
:10453000024B0C22C3F8182710BD00BF0003005027
:10454000034B1868A0F1080358425841704700BF58
:1045500030010010064B1B68082B06D1054B1B6869
:10456000032B02D8044AD05C70470020704700BF7C
:10457000300100103401001078C50F0008B5FFF7B6
:10458000DFFF40B14FF080430022C3F80C21C3F895
:104590001021C3F83825FFF7D3FF002846D04FF08D
:1045A00080525E4BD2F80414C3F82015D2F80814D8
:1045B000C3F82415D2F80C14C3F82815D2F8101437
:1045C000C3F82C15D2F81414C3F83015D2F8181407
:1045D000C3F83415D2F81C14C3F84015D2F82014CF
:1045E000C3F84415D2F82414C3F84815D2F8281497
:1045F000C3F84C15D2F82C14C3F85015D2F8301467
:10460000C3F85415D2F83414C3F86015D2F838142E
:10461000C3F86415D2F83C14C3F86815D2F84014F6
:10462000C3F86C15D2F84424C3F87025FFF792FF45
:1046300010B13B4B3B4A1A60FFF78CFF18B13A4B65
:10464000FB22C3F81825FFF785FF48B13749384BDF
:104650000A681B6822F00F0203F00F0313430B607C
:10466000FFF778FF18B1334B4FF400721A60FFF771
:1046700067FF48B14FF08043D3F80024D20744BF0E
:104680006FF00102C3F800242B4AD2F8883043F4BB
:104690007003C2F88830BFF34F8FBFF36F8F4FF0B6
:1046A0001023D3F80022002A03DBD3F80432002BB6
:1046B0002FDA224B0122C3F80425D3F80024002A64
:1046C000FBD04FF010221221C2F80012D3F80024C0
:1046D000002AFBD04FF010231222C3F80422174BFC
:1046E0001A46D3F800140029FBD00021C3F80415A2
:1046F000D2F80034002BFBD0BFF34F8F0E49104B84
:10470000CA6802F4E0621343CB60BFF34F8F00BF6F
:10471000FDE70C4B0C4A1A6008BD00BF00C000400A
:104720008C5600404881030000F00040E40E004039
:10473000580200104096024000ED00E000E0014009
:104740000400FA050C0000200090D00338B52022A8
:10475000044608300D4607F035FA2022A91804F166
:10476000280007F02FFA002038BD00002DE9F7439C
:10477000DFF86C809946184B036004460E464046AD
:104780000121174601F0DEFE0546BFF35F8FF8B941
:1047900000F0E6F80A9ACDF800903B4606F10801D1
:1047A000204606F05BF8044600F0E8F8BFF35F8FA0
:1047B000C8F8005044B1094948F2165248F2425331
:1047C0008C4214BF14461C46204603B0BDE8F0835B
:1047D00048F20454F8E700BFDD55AABB8408F00096
:1047E0006C3C00200E4B984214D00AD8B8B10D4949
:1047F00048F2165248F20153884214BF1046184638
:104800007047094B984208D0084948F2165248F2BE
:104810000353F1E748F20350704748F202507047E3
:104820000102F0000002F0000202F0000F02F000AE
:1048300008B5083006F07CF8BDE80840FFF7D2BFA5
:1048400013681F2B2DE9F34106460F46144620D965
:10485000DFF84C800121404601F074FE0546BFF3AD
:104860005F8FC8B900F07CF8394606F1080006F001
:10487000CBF8019000F082F8BFF35F8F0198C8F881
:104880000050FFF7AFFF08B92023236002B0BDE856
:10489000F08148F21450F9E748F20450F6E700BFFF
:1048A0006C3C00202DE9F04105460E4619480121D7
:1048B000144601F047FEBFF35F8F38BB00F050F89D
:1048C000DFF854800835B4F5805F274628BF4FF4E1
:1048D000805731463A46404607F074F93A46414619
:1048E000284606F03FF8E41B3E4468B9002CEAD1A4
:1048F00000F044F8BFF35F8F064B00221A60204699
:10490000BDE8F041FFF76EBF0446F1E748F20450FE
:10491000BDE8F0816C3C0020201A0020024B0020F2
:10492000C3F80005704700BF00A0025038B50A4B1D
:1049300000251D60BFF35F8F084C0123C4F80035CC
:1049400006F092F8C4F8005520B1052848F203504B
:1049500018BF032038BD00BF6C3C002000A00250EF
:10496000044B0122C3F80025034B4FF480625A60C8
:10497000704700BF00A0025000E100E0064B00229B
:10498000C3F80025054B4FF48062C3F88420BFF3C1
:104990004F8FBFF36F8F704700A0025000E100E01F
:1049A0004B1C30B5DB00044612F003009BB20DD166
:1049B000074D2A601A44074B1A60074B1870074BC3
:1049C0001870074B1C80074B198030BD0720FCE78F
:1049D000282A0020242A0020202A0020302A002013
:1049E0002C2A00202E2A00202DE9F047274F3B8853
:1049F0008B4206460D46904644D3002001F082FDCE
:104A0000234B24481978244B00881C78E2B2844256
:104A100038BF0132C9B234BFD2B2002291422BD08A
:104A20001C781A78D1B2904286BF0131C9B20021F8
:104A30001970002001F068FD4FF6FF739C4223D0EF
:104A4000DFF85C90D9F800204FEAC40A42F83480BD
:104A500002EBC4039EB195B1104B38881B682A46FF
:104A600004FB0030314607F0ADF8D9F8003053446C
:104A700000209D80BDE8F0874FF6FF74D9E7002045
:104A80009880F7E70920F5E70420F3E72C2A0020B7
:104A9000302A00202E2A0020202A0020242A00204C
:104AA000282A0020F8B5114C114D264622782B7883
:104AB0009A4200D1F8BD0F480F4A23781268078840
:104AC0000E4802EBC301006852F83320898803FBCB
:104AD000070090470A4922780988D3B2914286BFDD
:104AE0000133DBB200233370E0E700BF302A00203F
:104AF000202A00202C2A0020282A0020242A0020F6
:104B00002E2A002043681B6818470000024B5B6890
:104B100003B11847704700BF342A0020020600F096
:104B20000F034CBF02480348DB001844704700BF26
:104B3000402A0020882A002008B5FFF7EFFF016017
:104B400009B14B681968416008BD0000024B01467D
:104B5000D3E90002104700BF882A00200378052B04
:104B60000CD1084AD2F88434D2F8802412F0FF0F16
:104B700004D1054ADBB2052B08BF1046034B1B6866
:104B8000184700BF00700240B8C50F00342A00204B
:104B9000012805D0022805D030B90448FFF7DEBF50
:104BA0000348FBE70348F9E7704700BFACC50F00B7
:104BB000B0C50F00B4C50F00FFF7D0BF0148FFF725
:104BC000CDBF00BFBCC50F0038B5831EDBB2062BBE
:104BD00098BF1A4A1A4D98BFD25C2B78A3F10203F2
:104BE000DBB288BF0022062B9ABF1449CB5C00239E
:104BF0009342044603D0B2B1124801F089FE022C60
:104C000014D0A4F10800424242412B78022B0FD06D
:104C1000A3F108014B424B41934202D052B102F042
:104C20003DFD2C7038BD01F09DFEE8E70122ECE768
:104C30000123F1E702F028FDF3E700BFA0C50F0054
:104C4000D92A0020100000202DE9F04F87B000265F
:104C50000546884691461F4602966B6800225C68AE
:104C60002946012302A8A047044638B98DF806005A
:104C700004908246564503D8052028E00136ECE72B
:104C80006B680DF10602D3F804B02946012304A88D
:104C9000D8476B680DF10702D3F804B02946012309
:104CA00004A8D8479DF8073043459DF8063013D136
:104CB0004C450FD1109A13603B7087F801806A68E9
:104CC000023B54682946BA1C04A8A047002007B03C
:104CD000BDE8F08F0134E4B26A68023BD2F804B058
:104CE0002946002204A8D8479DF806309A44C1E717
:104CF0002DE9F74305462B4802F0E6FC0446002860
:104D00004CD1294B1870294B1860294B014618606B
:104D10004822284806F07EFF27484822214606F010
:104D200079FF264B95B9264A1D72C3E9002500205C
:104D300001F02CFE18B1852801D003F009FA214FAB
:104D4000002697F8089007F1090814E095E8070095
:104D500083E807000028EAD1194A1A60E7E7A27839
:104D600023443946985CFFF7E7FE01356278EBB2E1
:104D70009A42F4D80136F4B2A14504D904EB4404B4
:104D800044440025F2E70B230E488DF8043001A9B6
:104D9000FFF7B8FE044608B102F074FB204603B0EA
:104DA000BDE8F083B94B0F00D92A0020D02A00209B
:104DB000D42A0020402A0020882A0020342A0020FB
:104DC000F1500F00D8C50F0010B502F01BFC10B950
:104DD0000823184610BD02F01DFC04460028F7D138
:104DE000044801F0EEFD03460028F2D003F0B0F9CC
:104DF0002346EEE7A8C50F0002F04EBB02F07ABFD3
:104E00004FF08043D3F83824920702D50348FFF7C8
:104E1000A5BED3F83824D107F4D47047BDC50F0020
:104E200007B5822301A88DF80430FFF797FE03B081
:104E30005DF804FB2DE9F74300F1090190F80890B3
:104E4000054600260F46F3B24B452AD291F8018061
:104E50000024E3B298450AD98B780A190134D05C52
:104E6000FFF75CFE0368002BF3D0112028E0013629
:104E70000331E8E7A37823442946985CFFF75CFEFA
:104E800001366378F2B29342F4D808F101082B7A24
:104E90005FFA88F4A34216D904EB44043C4400268C
:104EA000EFE74FF00008F2E713681A68002AFBD119
:104EB0001D6001A90B2328468DF80430FFF722FE60
:104EC00003B0BDE8F083014BEFE700BFD02A00201C
:104ED000024B1878003818BF01207047D82A0020EC
:104EE000030710B5044604D402F01EFD204602F06C
:104EF000C7FF2046BDE8104002F06EBF02F03ABF87
:104F0000014B1868704700BFD02A0020F0B50A4B4B
:104F10000246186878B1057A0023861DDCB2A542E6
:104F200001D80368F5E7013303EB4307F75D9742C8
:104F3000F4D101B10C70F0BDD02A00201146FFF76A
:104F4000E1BD08B500F00F03082B07D8FFF7E6FD19
:104F5000006818B1BDE80840FFF7D4BD102008BDB7
:104F600038B5054B05461C6804B938BD29462046AE
:104F7000FFF7C8FD2368F6E7D02A002038B5074BB5
:104F800005461C680CB9062038BD29462046FFF7A7
:104F9000B9FD0628F8D12368F3E700BFD02A002026
:104FA00013B50446019102F0D5FB50B1064B1B78B6
:104FB000022B06D10199204602B0BDE8104002F054
:104FC000D9BB082002B010BDD92A002013B5044671
:104FD000019102F0BFFB50B1064B1B78022B06D1AA
:104FE0000199204602B0BDE8104002F037BC08200D
:104FF00002B010BDD92A0020F8B543689B68054669
:105000000C46164613B92EB1072002E09847062831
:10501000F9D0F8BD2B7AA34213D9093504EB440427
:105020002C446778F3B29F4201D80020F1E7627800
:105030009A4208D9A219A378D05CFFF751FF013634
:10504000F0E77378FFDE00231B78FBE770B5436859
:10505000DB6805460C4603B198472B7AA34213D967
:10506000093504EB44042C4400256678EBB29E42DB
:1050700000D870BD62789A4209D96219A378D05CD1
:1050800002F078FE0135F1E700235B78FFDE0023B4
:105090001B78FBE743681B6903B118471846704744
:1050A00070B5084B1C6804B970BD267A0025E9B2BA
:1050B0008E4201D82368F5E700222046FFF79CFFC7
:1050C0000135F4E7D02A002070B5084B1C6804B9FC
:1050D00070BD267A0025E9B28E4201D82368F5E733
:1050E0002046FFF7B3FF0135F5E700BFD02A0020C7
:1050F00038B503780F2B044610D9A3F1800283F052
:105100008003052B00D938BD052AFCD8DFE812F052
:1051100067002C00490073007E00E0000F2BF2D8DE
:1051200001A252F823F000BF2F520F005F520F0070
:10513000BF520F0083520F00A1520F00D1520F0037
:10514000E3520F0007510F000D530F0011530F00D2
:1051500015530F0007510F0007510F0007510F00A3
:1051600007510F00DB520F006B48FFF7EFFC6A4856
:10517000FFF7F6FE0D20FFF7C9FCFFF7A5FF00F0D3
:10518000D2FE664B1B6853B9654B187A00F00100DC
:1051900002F014FA0120BDE83840FFF715BD0120E8
:1051A000F4E7FFF791FF02F083FD0020FFF70CFD0D
:1051B0005C48FFF7D5FE5B48FFF7C8FC0E20FFF701
:1051C000A5FC594B1B78023BDBB2062B9BD8574AF8
:1051D000D35C002B97D0BDE8384001F0C3BB524BE5
:1051E0001B78062B05D003F0FD03052B8BD1022085
:1051F000D1E70820CFE74C4B1B78032B83D102F07B
:1052000093FD00283FF47FAF0420C4E7464B1B7892
:10521000032B05D102F088FD10B10420FFF7D4FC68
:1052200002F002FA00283FF46EAF0620B3E73E4BCF
:105230001B78032B01D0082B02D13D48FFF758FF04
:105240000020FFF763FC354B1D68002D3FF45BAF7A
:1052500028462146FFF756FC2B685D68F5E7FFF707
:1052600033FF00F057FE0220FFF7AEFC0120FFF7EE
:105270004DFC2046FFF76AFC2046BDE83840FFF7AA
:105280006FBE294B1B78082B06D10220FFF79CFC30
:1052900002F00EFA0320EAE70520FFF795FCF9E794
:1052A0000320FFF733FC2348FFF750FC2148FFF7AA
:1052B00057FE1D4B1B78062B99D107206BE7032067
:1052C000FFF782FC0220FFF721FC2046FFF748FE93
:1052D0002046BDE83840FFF739BC0F20FFF716FC29
:1052E000CAE78078FFF71AFC2146436800689847B0
:1052F00000283FF408AFA07802073FF404AF03078B
:105300003FF501AFBDE8384002F0E8BA0820E5E714
:105310000920E3E70A20E1E7BEC50F00D42A0020F8
:10532000342A0020BFC50F00D92A0020A0C50F00D5
:10533000C0C50F00C1C50F00C36903B1184770474E
:1053400003680022C3E91E22C3E920221A845A629C
:10535000DA6203F134025A6770470000F0B504685E
:105360000D7A002C00F08780A4F213347C2C00F21C
:1053700022837C2C00F21F83DFE814F085008F006D
:105380009D00A900B500C100CD00D9001D031D037B
:105390001D031D031D031D03EF00FB001D031D0363
:1053A0001D031D031801240132011D031D031D03EC
:1053B000450151017F011D031D031D031D036701ED
:1053C00073017F011D031D031D031D031D031D0329
:1053D0008B011D031D031D031D039F01AB01B701BD
:1053E000C301CF011D031D03DB01E701F301FF0131
:1053F0000B021D031D0317022302340240021D038A
:105400001D034C025802640270027C021D031D033E
:105410001D031D031D031D031D031D031D031D038C
:105420001D031D031D031D031D031D031D031D037C
:105430001D039B02A7021D031D031D03C0021D03C4
:105440001D031D031D03DD021D031D031D031D039D
:10545000DD021D031D031D031D031D031D03E902C2
:10546000F5021D031D031D031D0313031D031D036F
:105470001D031D0313030824047123B940F21333E1
:1054800003600120F0BD0AB1047914700B24012BD4
:1054900004710ED84FF44573F2E700240AB106797F
:1054A000165501340E7D06719C4205D340F215332A
:1054B000E6E70124F2E700240AB106791655013423
:1054C00002269C42067103D340F21633D8E700242B
:1054D0000AB106791655013402269C42067103D39F
:1054E00040F21733CCE700240AB10679165501348F
:1054F00002269C42067103D34FF44673C0E7002492
:105500000AB10679165501344E7E06719C4203D3CA
:1055100040F21933B4E700240AB106791655013474
:1055200000269C42067103D340F21A33A8E70024F8
:105530000AB106791655A94E002701343770A74ED7
:105540003678AE4202D340F29A3399E70926A34255
:10555000067103D840F2213392E700240AB106799C
:105560001655013404269C42067103D340F22233BF
:1055700086E700240AB106791655984E0F7A3678D8
:10558000DFF85CC2B74204F1010440F2188201F175
:10559000090706EB460607EB060E9C42BE5DCCF8FB
:1055A00000E0067103D340F2273369E700240AB113
:1055B00006791655013400269C42067103D34FF438
:1055C0004A735DE700240AB106791655844E3668A1
:1055D0000134767806719C4203D340F229334FE7B9
:1055E00000240AB1067916557D4E0F7D366836784F
:1055F000B74204F101041ED102269C42067103D376
:1056000040F22D333CE700240AB1067916550134E7
:1056100002269C42067103D340F22E3330E7002469
:105620000AB10679165501344E7E06719C4225D387
:1056300040F22F3324E78F7DB74223D10A269C42C4
:10564000067103D34FF44D731AE700240AB10679AB
:105650001655013400269C42067103D340F23533BF
:105660000EE700240AB106791655013400269C4243
:10567000067103D340F2363302E700240AB10679FB
:10568000165501340026A342067103D840F23D337B
:10569000F6E600240AB106791655514E0F7D36689C
:1056A0003678B74204F1010440F0E98005269C42B7
:1056B000067103D340F24233E2E600240AB10679D0
:1056C0001655013424269C42067103D340F243331D
:1056D000D6E600240AB106791655013400269C420C
:1056E000067103D34FF45173CAE600240AB1067958
:1056F0001655013410269C42067103D340F24533FF
:10570000BEE600240AB106791655013401269C42F2
:10571000067103D340F24633B2E600240AB106799B
:105720001655013405269C42067103D340F24933D5
:10573000A6E600240AB106791655013424269C42B7
:10574000067103D340F24A339AE600240AB106797F
:105750001655013401269C42067103D340F24B33A7
:105760008EE600240AB106791655013403269C42C0
:10577000067103D34FF4537382E600240AB106790D
:10578000165501348E7D06719C4203D340F24D3391
:1057900076E600240AB106791655013404269C42A7
:1057A000067103D34FF454736AE600240AB10679F4
:1057B0001655013424269C42067103D340F251331E
:1057C0005EE600240AB106791655013402269C4291
:1057D000067108D340F2523352E600BFDB2A0020A4
:1057E000E02A002000240AB1067916550134022669
:1057F0009C42067103D340F2533341E600240AB1C0
:1058000006791655013405269C42067103D340F2F1
:10581000563335E600240AB106791655013424269C
:105820009C42067103D340F2573329E600240AB1A3
:1058300006791655013406269C42067103D34FF4AF
:1058400056731DE600240AB10679165501340E7D03
:1058500006719C4203D340F2593311E600240AB189
:105860000679165501348E7D06719C4203D340F2B1
:105870005A3305E600240AB1067916550134534E11
:1058800036687778524E3770524E00273770514E37
:1058900037784F4E3678B74204D34F4F3E780136B3
:1058A0003E704CE60726A342067103D840F26E33E1
:1058B000E6E500240AB106791655013405269C4216
:1058C000067103D340F26F33DAE500240AB106799A
:1058D00016553E4E3F4F36683F7896F801C0BC459E
:1058E00004F1010470D996F802C03E449C4216F8B7
:1058F0000C60067103D340F27333C1E500240AB192
:1059000006791655314E0F7D36683678B74204F168
:10591000010406D103269C4206710DD34FF45E7339
:10592000AEE58F7DB7420BD102269C42067103D3B0
:1059300040F27D33A4E500240AB1067916550134FE
:105940004026A342067103D84FF4617398E5002402
:105950000AB106791655013400269C42067103D31C
:1059600040F285338CE500240AB106791655174EAE
:105970000F7D36683678B74204F1010407D10E6A0C
:105980009C42367806710DD340F28A3378E58F7DDC
:10599000B7420BD100269C42067103D340F28F33ED
:1059A0006EE500240AB1067916550134094F3E7898
:1059B00001363E706BE700230360184662E5002362
:1059C000CCF800301B78FFDE0023FBE7E02A002044
:1059D000DA2A0020DC2A0020DB2A002010B5044649
:1059E00058B90868037B202B09D100F10E0107226A
:1059F000183006F0E7F8204610BD0320FCE706202B
:105A0000FAE74360CA699A420DD38A690260C8699D
:105A10001A448A610A6FC01A1A44C86100380A67BA
:105A200018BF0120704701F1280202608B67002037
:105A30007047037A012B08D9427B012A00F10C033D
:105A400006D9827B13445878704700235B78FFDEC9
:105A500000231B78FBE700002DE9F0470B7888B0A6
:105A600005460E460E2B1AD8DFE813F05C0039010C
:105A70005C005C0019000F00A40019001900360139
:105A800019005C005C005C005C004A78D1094FEAB8
:105A9000521330D013F0030303D0012B21D006247E
:105AA0001BE002F01F02012AF9D1B478062CF6D1CE
:105AB00005A8039300F0A6FC03AB0093F2783179BC
:105AC000034607462846FFF7BFF8052805D0039A86
:105AD0003946701C00F042FA0446204608B0BDE882
:105AE000F087B378212BDAD1B6F80720072AD6D170
:105AF00001681831EDE7012BD1D1B3780768202B6D
:105B000012D0222BCBD1B6F80730002BC7D197F893
:105B10002020B6F803303B8402F0010203F00101BB
:105B20008A4222D10024D8E7B6F80720072AB6D146
:105B30003B73B6F80730DBB27B7300200E37CDE93C
:105B40000573079000F0DEFC05A90020FFF728FA96
:105B5000044630B9684B03A9CDE9033500F0ECF9F0
:105B60000446002000F0D0FCB7E78CB2C1F103017D
:105B7000C9B2FFF7E1FB002CD4D12B7A012B40F204
:105B8000B4806B7B05F10C02002B00F0B080AB7B86
:105B9000D05C01F0E3FF2846FFF74BFF01F0DEFF8A
:105BA00007F13403C7E91E44C7E920447C62FC6264
:105BB0007B6792E7037A002B00F09B80837A00F1E9
:105BC0000901002B00F09380C27AB3788A5C9A4274
:105BD000A8D01B06F77809D527B1032F14BF0324DB
:105BE00000247AE70121FFF7A7FB9BE707F0FD03FD
:105BF000012B97D0002F76D10668FFF71AFF3F4B95
:105C0000059306F10C030693B46A8146C4B9F36F99
:105C1000B467C6E91F43F36A63B1D6E90B0106F125
:105C2000240383E80300F46205A94846FFF7CEF990
:105C3000044600E0746200212846FFF77DFB4CE734
:105C4000D6F884A0706A544528BF544606F134083B
:105C50002246414605F0B6FFF36F2344C6E91F73A1
:105C6000AAEB0403B367F36A444474672BB306F1E9
:105C7000240406F12C0898E8030084E80300B36FBD
:105C8000706AF7621BB9736A002BCDD116E0B26A55
:105C9000716F9A4214D805F095FFB36AB26FC6F8D7
:105CA0008030D21AB267726F1A4472670021284698
:105CB000FFF742FBF36A002BDDD173620024BAE7E1
:105CC0001A4605F07FFFB26FB36AF2679B1AB362A0
:105CD000736A13447362D6E70321FFF72DFB28464E
:105CE000FFF72EFB1EE70324F7E66378FFDE1B7841
:105CF000FCE75B78FAE700BFDD590F00035A0F009D
:105D00001FB503681B8CDC0714D5037A012B13D94C
:105D1000437B00F10C0493B1837BE05C9306CDE9F7
:105D200001120CBF0123002301A90393FFF738F9E7
:105D300004B010BD0820FBE700235B78FFDE1B7872
:105D4000FCE700002DE9F3410468238CDB07804663
:105D50000F46164646D5002000F0D4FB656A002D9C
:105D600038D1A16FB14213D3616F3246384605F086
:105D700029FFA36FC4F880609B1BA367636F334444
:105D80006367002000F0C0FB284602B0BDE8F08148
:105D9000C4E909764046FFF74CFE134B009304F12B
:105DA0000C030646019369B10A463846616F05F057
:105DB00009FFA36FA26AD21AA262626AC4E91E53E3
:105DC0001A44626269463046FFF700F9051E08BFB3
:105DD0009225D6E7E36A1BB9C4E90B769225D0E792
:105DE0001125CEE70825CFE7035A0F0000207047A2
:105DF0002DE9F04F2DED028B85B04B680192804666
:105E00000C466BB90B681B681B684BB98D683DB9B4
:105E1000C0E90055284605B0BDEC028BBDE8F08F07
:105E200001F058FD019BE7689F4228BF1F4604F11F
:105E300010034FF0000A08EE103A8146564601253D
:105E40004FB3A3686168BB429B4628BFBB4629B3DA
:105E50005A4609EB060005F0B5FE00236360A26810
:105E6000E368A2EB0B02A3EB0B03A260E360A7EBDA
:105E70000B075E440ABBBAF1000F03D02268126818
:105E800012682260DBB12368DBB963601EB1019B3D
:105E9000B34288BF0025C8E90096BBE7002BDED0DF
:105EA00021684B6818EE100AD3F804A009EB06022B
:105EB0005B46D0474FF0010AD1E7002BC0D1002547
:105EC000BEE70023029321684B680022D3F804B098
:105ED00002A80123D84708B92061B1E7A3680133BC
:105EE000A360F0E7084B1A7882420CD0052818BF4F
:105EF000064A187018BF137805481CBF23F0020328
:105F00001370FFF7F5B87047F02A00200C2B002023
:105F1000E8C50F0008B50020FEF7E2FFBDE8084025
:105F20008020FEF7DDBF08B50020FEF7E7FFBDE8E3
:105F300008408020FEF7E2BF38B505460C4601F068
:105F40006FFDA84203BFD4E90001034BC3E9000180
:105F5000102008BF002038BD102B00207FB5C3885B
:105F600093421E4628BF164693420D46144620D93A
:105F7000802001F0E9FBB4FBF0F202FB1040B0FA24
:105F800080F0400903900020CDE9015600F0BAFAF4
:105F900001A98020FFF704F8044620B906498020B3
:105FA000FFF7CAFF0446002000F0AEFA204604B016
:105FB00070BD0020E6E700BF1CC60F002DE9F04FC2
:105FC0000B780E2B89B00D4613D8A3B1013B0D2BD6
:105FD00011D8DFE813F012001A00160010002A0092
:105FE000F50110001000100010001A00DF01E3019D
:105FF000F301852B13D00624DCE10320FFF772FFA9
:10600000F9E7B14800F0D0FA08B90024D2E1AF4B6B
:1060100001221A60BFF36F8FBFF34F8FF5E7AC4BD0
:106020001B78032BE7D10420E8E70523A94D8DF861
:1060300014300DF1150001F087FC00232B609DF852
:10604000153003F01F07032F00F25D81DFE817F022
:106050000400F60052013E0013F0600FC3F3411834
:1060600034D1DB099DF8161000F0A280062916D065
:10607000082900F08F8049BB974C0222204605F08A
:10608000C9FD237843F001022270944A12789207E6
:1060900044BF43F00303237002228F490EE09DF8B2
:1060A0001830022B16D0032B64D0012B0ED1BDF873
:1060B0001B30002B00F06B81894912220DF1150075
:1060C000FFF74CFF0446062C40F0258105A8FEF79B
:1060D00055FFF7E0BDF81B60002E00F05881092E37
:1060E00028BF0926FEF70CFF4FF00909044654BBF0
:1060F000794C7C493246204605F064FD2771A4F8AE
:106100000290FEF7E5FE18B1E37943F02003E37156
:10611000FEF7F6FE744BC3E900049E60BDF81B2039
:10612000DA60002000F0EEF970498020FEF74EFFA3
:10613000044620B96E498020FFF7FEFE0446002089
:1061400000F0E2F9BFE7CDF80C804FF0000A636879
:106150000022D3F804B02146012303A8D84730B960
:10616000237A1F442368D1441C68FFB2BFE70AF1B9
:10617000010AECE7BDF81B30002B00F00881BDF8E8
:1061800019109DF8170000F08DF9014600289DD0E8
:10619000027893E74E4A1278052A03D14E4A1370CB
:1061A00001227AE7042A91D14B4B83F80080F7E76C
:1061B00003290FD009292BD0012987D1BDF8173029
:1061C000012B83D1FEF784FE60B1444A137823F09B
:1061D00002030FE0BDF81730012B7FF477AFFEF715
:1061E00077FE18B90F2401F011FCE3E03B4A137865
:1061F00043F0020313702B68002B00F0C88001F0FD
:106200000FFC044600287FF400AF01F0C3FBD1E08F
:106210002F4B1B78043B012B01D90824E3E79DF8A1
:1062200017302BB9FEF750FF0420FFF75BFEE2E7C3
:10623000012B40D1FEF734FF0520F6E79DF8190049
:1062400003A9FEF763FE064608B91024CBE79DF8C4
:106250000C1005AAFEF772FE062804465BD19DF8D5
:10626000152012F0600FBED1194B9DF80C10187854
:106270009DF81630D20916D07BB10A2BB3D1052870
:10628000CBD130460192FEF705FF1349019A087001
:106290000DF11500FFF762FE14E00528BDD10E498F
:1062A0000B800222F4E70B2B9DD10528B5D1BDF858
:1062B0001730FF2B01D9072495E79DF817203046AA
:1062C000FEF79AFE044626E0182B00205C70024080
:1062D000F02A0020102B00201C2B00200C2B00206B
:1062E00008C60F00E9C50F00F42A002024C60F00DD
:1062F0001CC60F009DF81900070706D19DF8153040
:1063000013F0600F0BD006246DE705A9FEF719FE08
:1063100006280446F2D0002C3FF46DAF63E79DF8E9
:106320001620354B9DF819401B78012A1DD0032AF1
:106330000CD0002AE7D1052B02D026077FF46DAFE1
:10634000204601F0D7FA2D490880AAE72007DAD4C1
:10635000BDF81720002AD6D1052B02D021077FF4E3
:106360005CAF204601F0BAFA45E72207CBD4BDF86E
:106370001720002AC7D1052B02D023077FF44DAF89
:10638000204601F0D1FA204601F07AFD33E701F012
:1063900033FB3AE60020FFF7A5FD36E64FF08043D9
:1063A000D3F8384414F0010401D00220F3E70120AF
:1063B000FFF798FD204609B0BDE8F08F0120EAE71D
:1063C000C87803283FF417AE0D4E33688BB1002216
:1063D000716832609847044600287FF404AF336840
:1063E00023B1AB78002B7FF410AE0EE701F004FB75
:1063F000E0E70E24F7E600BFF02A00201C2B002067
:10640000102B002008B1402303600148704700BFF3
:106410001C2B002070B54FF0805286B0D2F8A83007
:10642000D2F8A42000926FEA83436FEA93430B4AA9
:106430000B4E9BB20D2102A805F0F4FB02AD002427
:1064400002A805F023FC844201D306B070BD15F804
:10645000013B06F8013B0134F2E700BF2CC60F00F8
:10646000703C002010B50E4B53F8204023780BB938
:10647000A01C10BD0020FFF7C5FF013C00235A1CE3
:10648000A15C39B9DBB201335B00DBB243F440738A
:106490000380EEE7D3B220F813101346EFE700BFF6
:1064A00088C60F00034608B9FFF7DCBF012807D0F4
:1064B000022805D0032803D0042801D0052809D1DB
:1064C000054800EB4303587820B1044B53F82030C3
:1064D000002BE9D100207047A0C60F0088C60F002E
:1064E00072B6024A13680133136070475C2B0020B8
:1064F000034A1368013B136003B962B6704700BFDB
:106500005C2B0020FFF7ECBFFFF7F2BF30B53AB1CC
:106510001368DB430A4D0144814204D1D84330BDA6
:106520004FF0FF33F6E710F8012B5340082213F029
:10653000010418BF2C46013A84EA5303F7D1EBE774
:106540002083B8ED10B5034653E8000F0A4643E830
:10655000002494F0000FF7D110BD10B5034653E8A6
:10656000000F40EA010243E8002494F0000FF6D146
:1065700010BD10B5034653E8000F00EA010243E8DE
:10658000002494F0000FF6D110BD10B5034653E877
:10659000002F02EA010043E8000494F0000FF6D156
:1065A00010BD0121FFF7D9BF0021FFF7E2BF002195
:1065B000FFF7EBBF10B590B1D0E9012301689B1A3A
:1065C000DBB20A60013BDBB2FF2B026802D1002084
:1065D000107110BD11684C1C14600B70F2E70E2096
:1065E000F7E738B504460020FFF78CFF22686168A2
:1065F00013688B4215D9591E116013F8015C228A69
:10660000E36802FB05352268A36811685B1A1179FB
:10661000DBB2994200D213710020FFF775FF2846C4
:1066200038BD0025F8E738B5054600200C46FFF7D1
:1066300069FF2A681368591C1160E968641A298A7D
:10664000B4FBF1F41C70BDE838400020FFF75CBFDC
:1066500001600B681146184710B40468E468A4464A
:106660005DF8044B604710B404682469A4465DF8E3
:10667000044B604770B550B90E4D0F4C0026641B9B
:106680001423B4FBF3F4B44208D1002010E00368F3
:10669000002BF1D0BDE87040DB6918472B6813B9B7
:1066A00001361435EFE7DB69284698470028F7D014
:1066B00070BD00BFB4000020C8000020014B436043
:1066C00000207047ACC60F00084670470020704796
:1066D000024B1868003818BF01207047602B00205B
:1066E00008B50248FFF763FF002008BD602B0020BB
:1066F00008B510461A4605F065FA002008BD0000EE
:106700002DE9F043814687B014480E461546984659
:10671000FFF747FF0446F0B90746BD4215D10F48C1
:10672000FFF745FFD9F808305BB102228DF8002051
:106730000022CDE90126CDE90325CDF81480684675
:106740009847204607B0BDE8F08306EB073000F01D
:106750004DF90137E1E71124F3E700BF602B00207A
:106760002DE9F041804686B011480F4616461D4679
:10677000FFF717FF0446C8B9AA083146384600F0AB
:1067800063F90B48FFF713FFD8F8083053B1012223
:106790008DF800200C9A0592CDE90147CDE90365FB
:1067A00068469847204606B0BDE8F0811124F9E715
:1067B000602B0020F0B578B371B36BB300241C607C
:1067C0000A44DB274FF0DC0C4FF0DD0E1C688A42D8
:1067D00004F1010500EB040604D11D60C0233370F1
:1067E0000020F0BD0E78C02E05D0DB2E0CD01D6031
:1067F0000D78055506E01D6007551C68651C1D6079
:1068000000F804C00131E1E71D6006551C68651CF5
:106810001D6000F804E0F5E70E20E2E710B580B354
:10682000D0E902239A422ED00378012B0FD0022BFD
:1068300021D053B9C02928D0DB2902D1012303700C
:1068400003E04368541C84609954112006E0DC295D
:1068500005D0DD290AD0022303700B2010BD511C86
:1068600043688160C02199540023E8E7511C81608E
:106870004368DB21F7E7C029E7D100230370836079
:10688000E3E70E20EAE70420E8E71846E6E7000021
:1068900038B5074C051E04F1080318BF1C462368D1
:1068A0002BB11A6822605B6828469847F7E738BD25
:1068B0006C2B002020B9054B01225A70FFF7E8BF6E
:1068C000012802D1014A9070F8E77047642B00203C
:1068D00038B50C4C23789BB90B486360A3602361E7
:1068E000E36000F0E7F8054600F0F0F801232370BC
:1068F000064BD3F800340BB10123A370284638BDF2
:106900008525F5E7642B0020B5680F0000000140E5
:1069100038B5134C6378054603F0FF0073B115B129
:106920006B68002098470020FFF7ECFD6368013397
:1069300063600020BDE83840FFF7E6BDFFF7E2FDE9
:1069400025B1A26813463BB92A60A5606368002B95
:10695000ECD100F0D1F8E9E79D42F7D01B68F2E7EF
:10696000642B002038B5084C0020FFF7CBFD63688E
:10697000013B6360656815B900F0CAF86570BDE851
:1069800038400020FFF7C0BD642B002010B5074C35
:1069900023784BB9064B002808BF184600F010F9C1
:1069A00008B90123237010BD8520FCE7782B002057
:1069B000D8C60F0008B500F032F9BDE8084000F075
:1069C00035B907B50190FFF7F5FF019800F01AF906
:1069D00000F01EF9002003B05DF804FB024AD2F873
:1069E0000034002BFBD0704700E001400A4908B595
:1069F0000223C1F80435BFF36F8FBFF34F8FC1F887
:106A00000805FFF7EBFF0023C1F80435BFF36F8FD4
:106A1000BFF34F8F08BD00BF00E0014010B5094C27
:106A20000123C4F80435BFF36F8FBFF34F8F0160AC
:106A3000FFF7D4FF0023C4F80435BFF36F8FBFF313
:106A40004F8F10BD00E001400E4B10B50124C3F87C
:106A50000445BFF36F8FBFF34F8F01EB8204401AE1
:106A6000A14208D1074B0022C3F80425BFF36F8F62
:106A7000BFF34F8F10BD431851F8042B1A60FFF776
:106A8000ADFFEDE700E0014010B5034653E8000F0D
:106A900000EA010243E8002494F0000FF6D110BD93
:106AA00000F18040002382B0036003680193019BE2
:106AB00002B07047044A137923B901211060918014
:106AC00018467047852070477C2B0020084B1A68B9
:106AD000D20704D4C02283F8002301221A604FF0A9
:106AE00080420123C2F81835024A1370704700BF74
:106AF00000E100E07D3C002008B54FF48070FFF716
:106B0000CFFF4FF080430122C3F804231A6008BD71
:106B10004FF08042012108B54FF48070C2F808138D
:106B2000FFF7BEFF064B1960D2F80C3403F00113D7
:106B3000B3F1011FF8D0034B00225A7108BD00BF0A
:106B4000040000407C2B002010B5124B1B6873B171
:106B50004FF48070FFF7A4FF4FF080430122C3F889
:106B600008230D4B587910B95A711B6898470B4B85
:106B70001B6873B14FF48270FFF792FF4FF08043B0
:106B80000222C3F80823044BBDE810401B68012013
:106B9000184710BD000100407C2B0020040100407C
:106BA00000F1804382B01A68002A14BF012000203F
:106BB00004D000221A601B680193019B02B0704749
:106BC0000E4B1A78C2B902784FF08041C2F34002EE
:106BD000C1F88025027802F00102C1F87825084A40
:106BE0001168C90704D4C02182F800130121116083
:106BF00001221A7000207047852070477E3C0020DB
:106C000000E100E0014B02681A6070478C2B002005
:106C10004FF080434FF46072C3F8042370474FF085
:106C200080434FF46072C3F808237047014B002281
:106C30001A6070478C2B002010B54FF08043D3F8BA
:106C40000443620707D54FF48470FFF7A9FF10B122
:106C50001E4B1B689847A30608D54FF48A70FFF7B0
:106C60009FFF18B11A4B00201B689847600608D593
:106C70004FF48C70FFF794FF18B1154B01201B687F
:106C80009847210608D54FF48E70FFF789FF18B199
:106C9000104B00201B689847E20508D54FF4907010
:106CA000FFF77EFF18B10B4B01201B689847A30527
:106CB0000AD54FF49270FFF773FF28B1054BBDE87A
:106CC00010401B680220184710BD00BF842B002015
:106CD000882B00208C2B002008B5FFF7ADFFBDE806
:106CE0000840FFF731BF0000034B1868A0F108030C
:106CF00058425841704700BF30010010074B1B68D5
:106D0000082B06D1064B1B68032B04D8054AD05C20
:106D10007047002070470120704700BF300100100D
:106D200034010010D9C60F0030B54C689C4209D21E
:106D3000002545600968016093420CD1201E18BFF0
:106D4000012030BD43600D6805600868E41A1844EE
:106D50004C600860F0E70020F3E74B689A4228BFD8
:106D60001A460B68C0E9003248680B68801A486010
:106D70001A4400380A6018BF012070474B689A42D5
:106D800028BF1A4662B10B68C0E900324B689B1AF3
:106D90004B600B68101E13440B6018BF0120704736
:106DA0001346F1E7054B10F0800FA3F1900208BFE6
:106DB000134600F00F0003EB001070472C2C00204E
:106DC00010F0800F14BF0023102300F00F001844B0
:106DD0007047000008B5FFF787FF10B1034B002292
:106DE0001A60034B00221A7008BD00BF1C7C0240D1
:106DF000912B002007B5094A00231370084AADF80B
:106E0000053013708DF8073001238DF80430054BE1
:106E100001A81B68984703B05DF804FB902B002085
:106E2000C02C0020BC2C002070470000F8B54B6837
:106E30000B4F934228BF13460C461D4606461A4682
:106E40000968384604F0BEFEC6E90075606822682D
:106E5000401B60602A440038226018BF0120F8BD42
:106E6000C42C0020F8B54B68934228BF1346064651
:106E70000D461C468BB10A4F09681A46384604F085
:106E8000A1FE376074606B681B1B6B602B68201E53
:106E900023442B6018BF0120F8BD0360F2E700BF58
:106EA000C42C002008B50020FFF72CFB084B094A32
:106EB0001868032148B949F27530186011601860EC
:106EC000BDE808400020FFF71FBB1160F8E700BFD6
:106ED00000EC064014ED064008B50020FFF712FB59
:106EE000084B094A186848B949F2753119601060B1
:106EF0001960BDE808400020FFF706BB00231360BF
:106F0000F7E700BF00EC064014ED064007B500238C
:106F10008DF804300B4BD3F82025ADF80620D3F8BC
:106F2000C034094A002B13680CBF4FF480714FF036
:106F300001210B431360054B01A81B68984703B060
:106F40005DF804FB00700240982B0020BC2C002050
:106F500008B50146FFF73EFF0846FFF723FF837B96
:106F6000032B0BD10846FFF72BFF012303FA00F098
:106F7000C143BDE808400348FFF786BD0368002B06
:106F8000F0D008BD942B00208720FFF7E1BF8620BA
:106F9000FFF7DEBF8520FFF7DBBF8420FFF7D8BFF8
:106FA0008320FFF7D5BF8220FFF7D2BF8120FFF7F4
:106FB000CFBF000008B5FFF70DFF084B93F89E20E8
:106FC000032A06D1BDE8084005486FF00101FFF72C
:106FD0005BBDD3F89030002BF4D008BD9C2B002073
:106FE000942B0020FFF7E6BF73B5012202FA01F5EA
:106FF0001E491F4E0B6810F0800F43EA050304463C
:107000000B6027D000F00F021A4B33F8123003F157
:10701000804303F51C331A684AB100221A60BFF39B
:107020006F8FBFF34F8F802811D0FFF791FF31682A
:1070300029400AD106238DF804308DF806408DF8DA
:1070400007100D4B01A81B68984702B070BDFFF7F1
:10705000B1FFECE733681D42F7D106238DF8043009
:107060008DF806008DF80720EBE700BF982B002075
:10707000942B0020E6C60F00BC2C002008B5054B61
:107080001A781046FFF79CFEBDE8084001461046FE
:10709000FFF7AABFC02C002007B5FFF79BFE0D4BE2
:1070A00093F88E20032A11D0D3F8803073B90A48A0
:1070B0006FF08071FFF7E8FC06238DF80430082399
:1070C000ADF80630054B01A81B68984703B05DF882
:1070D00004FB00BF9C2B0020942B0020BC2C002024
:1070E00007B5FFF777FE104B93F81E21032A07D14F
:1070F0000E486FF48071FFF7C7FC03B05DF804FB26
:10710000D3F81031002BF8D16FF480710748FFF7E6
:10711000BBFC06238DF804308823ADF80630044B01
:1071200001A81B689847E8E79C2B0020942B0020BF
:10713000BC2C002013B5254BD3F80044C3F8004401
:10714000BFF36F8FBFF34F8FBFF36F8FBFF34F8FBF
:10715000E1050ED51E4B01221A700023ADF8053053
:107160008DF8073002238DF804301A4B01A81B68F4
:107170009847A2050DD5164A00231370ADF80530C7
:107180008DF8073003238DF80430124B01A81B68DB
:107190009847630518D50E4A1378ABB10B49002305
:1071A00013700122C1F808258A65BFF36F8FBFF302
:1071B0004F8FADF805308DF8073004238DF804307B
:1071C000044B01A81B68984702B010BD0070024034
:1071D000902B0020BC2C00202DE9F04F654B87B090
:1071E0001A780093002A6AD1DFF8A8A1DFF888B1E5
:1071F000614BDAF800101C68214060D011F00124C6
:1072000060D094FAA4F4002C62D0B4FA84F40F2C69
:1072100060D9A4F11005EDB22846FFF7C3FD4FFA7F
:1072200085F8B8F1000F8289064605F0080954DA9E
:10723000D0E9003104A8984700B93060FFF754FD49
:1072400010B14E4B82221A60009B059A04980121CE
:107250001970B368A140DBF80040134424EA01012F
:10726000B8F1000FB360CBF80010454B05F00F05E7
:107270006EDAB9F1000F63D0C3F8A006C3F8A426F4
:10728000042303EB850303F1804303F51C33012240
:107290001A60BFF36F8FBFF34F8F3A4B3A4A3B49A7
:1072A00013EA280838BF904638F8153003F18043B8
:1072B00003F51C331A6812B90A68002AFAD007B01D
:1072C000BDE8F08F91FAA1F111B1B1FA81F49EE716
:1072D00020249EE744F080059EE72949B9F1000F7C
:1072E00027D0D1F8C03413F4803F18BF0023716851
:1072F0003768019304A8B847049A002A9CD0059ADD
:10730000019B9A4298D201214FF00208A14086F8D1
:107310000E80C9435046FFF7B7FB06238DF80C30AB
:107320001B4B8DF80E501B688DF80F8003A89847F3
:107330005EE705F00F0303F5947351F82330D6E7A9
:10734000142101FB0533C3F80006C3F8042697E7B0
:10735000B9F1000F05D0C3F8A007C3F8A42728236C
:107360008FE7142101FB0533C3F80007C3F8042796
:10737000F5E700BF912B0020982B00201C7C0240D9
:1073800000700240E6C60F0002C70F000071024005
:10739000BC2C0020942B002038B5134BD3F86C4440
:1073A000C3F86C44BFF36F8FBFF34F8F01251CB937
:1073B000BDE83840FFF710BF94FAA4F171B1B1FAFB
:1073C00081F30F2B19460BDDA1F11000C0B205FAB5
:1073D00001F324EA0304FFF707FEE8E72021F3E7BF
:1073E00043F08000F3E700BF0070024037B5044669
:1073F000FFF7F0FC2046FFF7D5FC837B032B0DD174
:107400002046FFF7DDFC012303FA00F0C1431048DA
:10741000FFF73AFBFFF7E0FE03B030BD0568002D33
:10742000F8D12046FFF7CCFC012303FA00F0C1435A
:107430000748FFF729FB06238DF80430054B8DF82C
:1074400006401B688DF8075001A89847E2E700BF87
:10745000942B0020BC2C00200720FFF7C7BF06207C
:10746000FFF7C4BF0520FFF7C1BF0420FFF7BEBF71
:107470000320FFF7BBBF0220FFF7B8BF0120FFF7D3
:10748000B5BF0000024A00231360024A1370704720
:10749000BC2C0020922B002008B5404B4FF400621A
:1074A000C3F80024BFF36F8FBFF34F8FFFF726FCA5
:1074B00008B1FFF7F7FCFFF717FC80B10020FFF7DA
:1074C00021F8374B374A1868C021002860D149F2AB
:1074D00075301860116018600020FFF715F82F4B09
:1074E0000122C3F80025BFF36F8FBFF34F8FD3F88E
:1074F00000241205FBD54FF40062C3F80024BFF34B
:107500006F8FBFF34F8FFFF7EFFB78B10020FEF7CF
:10751000F9FF234B234A186800283BD149F2753103
:107520001960106019600020FEF7EEFFFFF7E6FB20
:1075300030B1FFF7D1FCFFF7E1FB08B1FFF7B2FC78
:10754000FFF7D2FB48B1184B40F2E3721A604022B9
:107550005A60BFF36F8FBFF34F8F104B0021802213
:10756000C3F81C25C3F83015104B40F2FF121A6007
:107570000F4B1960FFF72EFC0E4B19700E4B0222B9
:107580001A70FFF7BBFB40B1BDE80840FFF7A4BC91
:107590001160A1E700231360C5E708BD0070024039
:1075A00000EC064014EC064000780240982B0020C6
:1075B000942B0020C02C0020922B00200C4B00228A
:1075C0001A700C4B0C4A00280CBF184610460B4B87
:1075D0000B4AC3F80403C02182F8271380215160AD
:1075E0000122C3F80425BFF36F8FBFF34F8F70479D
:1075F000902B00200714C0010714E0010070024026
:1076000000E100E0024B1878003818BF01207047F5
:10761000922B0020034B1878012894BF00200120F2
:10762000704700BF922B002010B50020FEF76AFFC4
:10763000114B1B7803F0FF04A3B1104AD2F82C358C
:10764000BBB10023C2F82C35FFF74EFB50B10C4BF9
:107650000C4A1C68C02154B949F275341C60116091
:107660001C6004460020FEF74FFF204610BD11604D
:10767000F7E71C46F6E700BF902B002000700240A1
:1076800000EC064014EC0640024B034AC3F8082302
:10769000704700BF0070024004148001024B034A8F
:1076A000C3F80423704700BF007002400414800137
:1076B000014B00221A707047902B002008B5FFF78D
:1076C00071FB818108BD000073B51D4B1C78002C37
:1076D00033D11C4A106001221A702546264615F047
:1076E000080F65F07F00C0B20CBF40214FF400715D
:1076F0000190FFF7E3FF0198FFF754FB0135092DD7
:10770000867306608660EAD1402100252046FFF797
:10771000D5FF2046FFF746FB0134E4B2092C857300
:107720000560856002D1002002B070BD14F0080F22
:1077300014BF4FF400714021E8E70820F4E700BFD0
:10774000922B0020BC2C002008B5FFF72BFB808972
:1077500008BD0000064A10F0800F00F00F0314BFB0
:10776000D2F81005D2F81405D84000F00100704797
:10777000007002402DE9F843064600200F46FEF750
:10778000C1FE16F00F0103D1294B1B78B3424BD138
:10779000284B294A1C681368E443A4B230461C43B2
:1077A000FFF70EFB4FF0010808FA00F814EA08048E
:1077B00091463BD13046FFF7F5FA0C2532060346D9
:1077C00005FB01F52CD51D4A3968154401F06041CF
:1077D000BA68B1F1005F02F001021CD1CAB9184ABF
:1077E0001A6097E8070085E80700D9F800005D6097
:1077F00000229A609A73134B40EA08008022C9F86D
:107800000000C3F804210020FEF77EFE2046BDE8FC
:10781000F8830D4AE4E70AB90C4AE1E70C4ADFE7CE
:107820000C4A15440C4ADBE71024ECE71124EAE784
:10783000C02C0020982B0020942B0020803C00209E
:107840005B6D0F0000E100E07D6D0F002D6E0F00FD
:10785000656E0F00EC3C0020296D0F00F8B5064660
:1078600000200D46FEF74EFE330703D1154B1B7863
:10787000B34223D1144B154F1C683B68E443A4B2B8
:1078800030461C43FFF79CFA012303FA00F10C4039
:1078900016D13046FFF786FA84602B6803606B6868
:1078A0004360847338680A4B084380223860C3F809
:1078B00004210020FEF728FE2046F8BD1024F8E73A
:1078C0001124F6E7C02C0020982B0020942B0020D8
:1078D00000E100E000487047C42C0020044B40F455
:1078E0008070C3F81805BFF36F8FBFF34F8F7047D9
:1078F00000700240020713D400F00F0310F0800F55
:10790000084A0BBF03F5887303F5847302EB830306
:1079100052F8230008BF5868431E58425841704728
:107920000020704700700240064BC3F80C05BFF3FF
:107930004F8F40F48070C3F80C05BFF36F8FBFF317
:107940004F8F70470070024010B508220021044696
:1079500004F060F90E4BD3F880242270D3F884240D
:107960006270D3F88824D3F88C1442EA0122628032
:10797000D3F89024D3F8941442EA0122A280D3F8D9
:107980009824D3F89C3442EA0323E38010BD00BF5F
:1079900000700240034B01221A60BFF36F8FBFF3E8
:1079A0004F8F70474C70024013B5FFF713FA0F4B1F
:1079B0009A7B032A06D10E486FF48031FFF764F8F2
:1079C00002B010BD1C6874B96FF480310848FFF72D
:1079D0005BF806238DF80430064BADF806401B68B3
:1079E00001A89847ECE7FFF7D5FFE9E79C2B0020BB
:1079F000942B0020BC2C0020034B01221A60BFF303
:107A00006F8FBFF34F8F704750700240034B0122BE
:107A10001A60BFF36F8FBFF34F8F704754700240EF
:107A2000014B1878704700BFC02C002010B50446E9
:107A30000020FEF767FD2046FFF7C2F90D4901223D
:107A40000B6802FA00F023EA000314F008020B604E
:107A50000AD104F00F04084B04F5947443F8242071
:107A6000BFF36F8FBFF34F8FBDE810400020FEF7CC
:107A70004BBD00BF982B002000700240F7B50446B4
:107A80000020FEF73FFD2046FFF78CF90546204613
:107A9000FFF796F9012314F0800F2B4E03FA00F341
:107AA00018D1326833EA020209D02046FFF7BEFF40
:107AB0000323AB730020FEF727FD03B0F0BD2A605F
:107AC000326822EA03023260204A106820EA03008A
:107AD0001060EDE7220711D4802C1D481D4A29D0E3
:107AE00004F00F0101F2DA314900016011681068F9
:107AF000C9B241F0020101431160126813493268B2
:107B0000086862EA00071F42D4D022EA0302184341
:107B1000002332602B600323AB738DF807300E4BCC
:107B2000086006221B688DF804208DF8064001A825
:107B30009847BFE740F2B471016011681068C9B29C
:107B400041F00401D7E700BF942B0020982B0020C0
:107B50000078024004780240BC2C0020FFF78EBF62
:107B6000F7B5184B184CD3F880542368174EDA43F6
:107B7000174B37781B6892B238461A43FFF720F943
:107B8000012303FA00F0104202D03846FFF776FFD7
:107B90006FF0011105F080050D483570FEF774FF98
:107BA000236843F0010323600023ADF805308DF80E
:107BB000073005238DF80430064B01A81B68984751
:107BC00003B0F0BD00700240982B0020C02C0020B4
:107BD000942B0020BC2C00202DE9F0411B4BD3F846
:107BE0000413002301241D4671B9194F03F4000644
:107BF00023F400044FF00108D4B9FFF7EDFA1EB3E7
:107C0000BDE8F041FFF7ACBF91FAA1F21148B2FA1A
:107C100082F29600304404FA02F206682EB1056042
:107C2000BFF36F8FBFF34F8F134321EA0201DBE7EE
:107C300094FAA4F5B5FA85F557F8253008FA05F554
:107C4000984724EA0504D7E7BDE8F08100700240B8
:107C500014C70F0000710240F8B5134E134A346880
:107C60001268240C2404144301271CB940F2FF13AA
:107C70003360F8BD94FAA4F585B1B5FA85F30F2BFE
:107C80001D460DDDA5F11000C0B2030701D4FFF7BA
:107C9000F5FE07FA05F524EA0504E6E72025F1E7F5
:107CA00043F08000F1E700BF982B0020942B0020C8
:107CB00038B50E4C8025C4F8845163681B0613D573
:107CC000FFF7CAFF0A4B0022C3F80425BFF36F8FEA
:107CD000BFF34F8FC4F88450BFF34F8FBFF36F8F44
:107CE0004FF0FF32C3F8082338BD00BF00E100E0C9
:107CF0000070024008B5FFF7DBFF094BD3F80423FF
:107D0000C3F808230022C3F80025BFF36F8FBFF329
:107D10004F8FFFF75FF8034B01221A7008BD00BFB9
:107D200000700240922B002010B50020FEF7EAFB05
:107D30000E4B1B7803F0FF042BB900240020FEF744
:107D4000E3FB204610BDFFF787FF094AD2F8003455
:107D500013F40073F1D10121C2F82C15D2F80014EC
:107D6000890544BFC2F82C351C46E7E7902B00205C
:107D70000070024038B5044604F00F05FFF77EFEA0
:107D800064B2124A002C4FF00103B4BFD2F81015B0
:107D9000D2F8141503FA05F36FEA0303B5BF0B40DD
:107DA0000B40C2F81035C2F81435BFF36F8FBFF324
:107DB0004F8F074B074810EA240438BF1C460123A5
:107DC000625D9340014AC2F8083338BD007002403A
:107DD000F8C60F00DDC60F0038B5254A254B45B261
:107DE000002DA8BF134600F00F010446585C224A3C
:107DF0004FF0010303FA00F0C2F804032ADAD2F8C4
:107E00001005C840C00731D4D2F810058B40034399
:107E1000C2F81035BFF36F8FBFF34F8F31B3002D12
:107E200024DB14F0080521D12846FEF76BFB204621
:107E3000FFF7FCFD2046FEF7C3FF104901220B6847
:107E400002FA00F023EA00030B602846BDE8384040
:107E5000FEF75ABBD2F81405C840C00706D4D2F8C2
:107E600014058B400343C2F81435D3E738BD00BF77
:107E7000F8C60F00DDC60F0000700240942B0020F2
:107E8000020610B504460AD4030708D400F00F0216
:107E9000074B92009B58012B01D1FFF7C7FD054B03
:107EA000C3F81845BFF36F8FBFF34F8F10BD00BFEE
:107EB000447402400070024028B139B10023C1E986
:107EC00000301846704748F21050704748F213507F
:107ED000704738B1006848F24053884214BF1846D2
:107EE0000020704748F21050704730B148F21153EB
:107EF000914214BF18460020704748F21050704756
:107F000070B506460C461D46FFF7D6FF50B9B3794B
:107F10004AB1AB420AD111462046FCF717FC08B91A
:107F2000044B236070BD48F21050FBE748F211503B
:107F3000F8E700BF7052464D2DE9F0470C46054664
:107F400011492046DDE9088916461F46FFF7C1FFA3
:107F5000A8B963685A79494652004046FFF7C5FF01
:107F600068B956B16DB1CDF820803B463246214606
:107F70002846BDE8F047FCF7F9BB48F21050BDE8D1
:107F8000F08748F21550FAE77052464D10B5044696
:107F900038B149B141600B68984708B9044B236078
:107FA00010BD48F20150FBE748F21050F8E700BF5F
:107FB0006E524648F0B4134648B10768094EB742BE
:107FC0000AD161B12AB14368F0BC5B68184748F236
:107FD00001531846F0BC704748F20253F9E748F2E3
:107FE0001053F6E76E524648F0B460B107680C4E85
:107FF000B7420CD171B143681568DC68A5420CD357
:10800000F0BC9B68184748F20150F0BC704748F23A
:108010000250FAE748F21350F7E748F21450F4E739
:108020006E524648F7B50446DDE9086715460193E8
:10803000FFF7ACFF68B9019A29462046FFF7BAFF5F
:1080400038B93A463146204603B0BDE8F040FFF764
:10805000CBBF03B0F0BD0000F8B50A4F0A4C0B4D82
:10806000E41B0121E40829700026A64203D1022363
:108070002B700020F8BD57F8363098470028F9D10A
:108080000136F2E7DCCA0F00E4CA0F00042D00201D
:1080900001390144814200D2704703780A7800F820
:1080A000012B01F80139F5E7013A02440139824216
:1080B00000D2704711F8013F02F80139F7E770B5B7
:1080C00016460D46FFF7F0FF3246A9193044BDE8C9
:1080D0007040FFF7E9BF38B50D460446FFF7D8FFFB
:1080E00029466019BDE83840FFF7D2BFBFF34F8F74
:1080F0000549064BCA6802F4E0621343CB60BFF344
:108100004F8F00BFFDE700BF00ED00E00400FA055F
:1081100008B507281BD8DFE800F004121A1A1A0461
:108120001A040120FCF7F0F90020FCF7B5F9012052
:10813000FCF7B2F9BDE808400220FCF7C1B9012004
:10814000FCF7BEF9BDE808400220FCF7A5B908BD60
:1081500008B5FFF7CBFF000008B500F081FB4FF436
:108160008051002000F030F908B1FFF7BFFF05484B
:10817000C0F57E2100F028F90028F6D1024800F071
:1081800053F8F2E700400F0011810F00014B01226C
:108190001A70704728310020BFF34F8F0549064BF6
:1081A000CA6802F4E0621343CB60BFF34F8F00BF95
:1081B000FDE700BF00ED00E00400FA05024B0348B4
:1081C00000221A7001F0FCBB2831002099810F00B9
:1081D000042810B5044609D8022811D816D00D4B32
:1081E0001B68B3B12046BDE810401847831F012B20
:1081F000F5D8094B094800221A7001F0E1FBEEE7BF
:1082000007494FF4701000F005FAE8E701F01EFB93
:10821000E5E710BD2C3100202831002099810F00A6
:10822000BD810F000020704738B5504B186000200A
:1082300001F0DCFB0446002840F0938000F0BAFA1D
:10824000012800F08980022800F08D80002840F08D
:1082500088804FF08043D3F8004414F4803436D043
:108260004FF48032C3F800240446414D2B6A012BA1
:1082700040D04FF4701400F033FB3E4A2021182008
:10828000FCF78EFB08B1FFF763FF3B4B1A6802F067
:10829000F802B02A06D11A68D20742BF1A6802F063
:1082A0004E021A60FFF7BEFF00285AD1204633491C
:1082B00000F0B0F9324801F00FF8002851D100F079
:1082C00035FBFCF7EFFB20BF40BF20BFF7E7D3F83B
:1082D000202502F0F802A82A0AD1D3F82025D107D8
:1082E00006D5D3F8202502F05602C3F82025BCE7B6
:1082F0000124BAE743F204031A68224B9A4209D0D8
:1083000001F0F6FBAA69014694B11F4801F0AEFEE8
:1083100090B9AEE76A6B1CB995F86032012BEFD0CB
:108320001A484FF4805101F0A1FE0028E8D1A0E7DF
:1083300095F8A132012BE8D10F4B1B6813F0B10F58
:1083400097D101F060FB60B9114B1870114801F032
:1083500037FB00F023F804E00D4B0F481C7001F0D0
:108360002FFB032038BD4FF4A02484E72C310020DC
:10837000583D0020082D00201C050040BD810F0045
:10838000D1810F00DBE5B151F93F0020B83F00205B
:10839000283100208D810F0099810F0008B5074B0F
:1083A0004FF0FF32C3F88020C3F8802100F0EFFFC8
:1083B000BDE808404FF4805000F028B800E100E02C
:1083C00080F308880847000070B50546C1F30B002C
:1083D000A8B9B5F57F2F12D80B4E3268072A10D8EE
:1083E000130103F1804404F5F0340132C4F800585D
:1083F000C4F804180221C4F80818326070BD0720C0
:10840000FCE70420FAE700BF3031002010B5044635
:108410001448C0F58011FFF7D7FF08B1FFF798FEA9
:1084200001F066FB104B9B6903F6FF7323F47F6337
:1084300023F00F0319180020FFF7C6FF08B1FFF75C
:1084400087FEEFF305830023D4E9000183F314884A
:1084500083F3108883F3118883F31388BDE81040F9
:10846000FFF7AEBF00400F00583D002037B56FF05A
:108470007F42154C057BD4F804358A4228BF0A4652
:10848000891A13444A1E942A23F07F4305F5A872E3
:108490009BBF963B96314160416044F822300B4BC4
:1084A0004FF4F86043F001039847094BAA001344C6
:1084B00000221A601B680193019B4FF48033AB408C
:1084C000C4F8043303B030BD00400240C0C70F0001
:1084D0004041024018490A7884B0002A29D14FF05F
:1084E0008043A020D3F81834DB035EBF134B012276
:1084F0001A60134A0023136012680392039A114A08
:10850000136012680292029A0F4A13601268019275
:10851000019A0E4A82F82403102050600C4A0D483C
:10852000C2F808350123036002201360C2F8040377
:108530000B7004B0704700BF3831002008000040C5
:1085400000410240404102404441024000E100E05D
:10855000004002400840024013B5284B1A6842B15F
:1085600027490A6801320A6000221A601B680093DA
:10857000009B244B1A68A2B100221A6022481B6893
:10858000027B0193019B4FF4803393401F4AC2F852
:1085900008334168044601BB8168D9B9236803B137
:1085A00098471B4B1A6832B300221A6016481B68A2
:1085B000027F0193019B4FF480339340134AC2F82A
:1085C00008334169044659B1103002B0BDE810408B
:1085D000FFF74CBFFFF74AFFE0E7FFF747FFE0E791
:1085E000816911B11030FFF741FF23691BB102B05F
:1085F000BDE81040184702B010BD00BF0441024062
:108600003431002040410240180000200040024068
:108610004441024070B50B4B1D682A7B4FF48033F8
:108620009340094A0E46C2F80833044640B1FFF7AA
:1086300051FF2E6021462846BDE87040FFF716BF67
:1086400070BD00BF380000200040024070B5074BED
:108650001D680E46A8600446FFF73CFF2E602146C9
:108660002846BDE87040FFF701BF00BF3C00002076
:10867000014B01221A7070473931002038B50F4B79
:10868000DA6A5D6A9C6CAC2A10D15B6B1C44ED1AF3
:108690000B482A46214603F087FA68B100F046F9F4
:1086A00029462046BDE8384000F060BE002CEFD1DE
:1086B00001F034FA0446EBE738BD00BF583D002016
:1086C00000400F002DE9F74F06468846A8EB060547
:1086D0002D0B02F6FF77144600F002F9082D28BF93
:1086E00008252B03DFF868B001933F0B0CB9234634
:1086F00029E0BD422CBFBA46AA464FF000025146BF
:10870000304634BFDDF80490A14600F017FE034662
:10871000C8B909F1030222F003024146304600F0D5
:10872000FFFD034678B9DBF830304B44CBF83030EE
:1087300001F04CF9A7EB0A07A4EB09044E44C84426
:1087400003460028D2D0184603B0BDE8F08F00BF22
:10875000583D002010B501F0F3F9154A42F2040328
:10876000916CCC5803F1A34303F5471303F2D7539D
:108770009C4218D1D2E90C32934216D0884204D1DF
:10878000BDE81040002001F021B9D21A02F6FF72B4
:1087900022F47F6222F00F0219441844FFF792FF7F
:1087A0000028EDD010BD0320FCE70020FAE700BF51
:1087B000583D002070B5264CE36AAA2B37D005D867
:1087C000012B0BD0A52B2ED0002070BDAC2BFBD1E4
:1087D000FFF7C0FF48BBFFF751FF26E0A66C656AB4
:1087E00001F086F9864229D101F082F9002229465A
:1087F000FDF78CFEA36A984202BF0123C4E9070378
:10880000A5610025134801F045F9134B13480022D8
:108810001A7001F0DBF868B975B1236A012B14BF37
:1088200001200220D1E7FFF795FF0125EAE7FFF7D6
:1088300025FFE6E70320C8E70120C6E7236BEA1A15
:10884000F1181844FFF73EFF0028DAD1CCE700BF4B
:10885000583D00207C3D00203931002071860F00FA
:1088600008B540F6F8700368013302D10749FEF7F6
:10887000D5F840F6FC700368013305D1BDE8084027
:108880004FF47E21FEF7CAB808BD00BF00400F00BC
:108890000A4AD2F800347BB109480023D2F80815FF
:1088A000D940C90748BF03F5C07103F1010348BFB0
:1088B00042F82100072BF1D1704700BF00000140B2
:1088C0003546526EFFF7E4BF044B002282B01A60B7
:1088D0001B680193019B02B0704700BF000101407B
:1088E00038B50E4C2278BAB90D4BD3F800248AB1B2
:1088F000D3F80455FFF7CCFF40F61650A842B8BF96
:1089000028460849A0F54860FFF7A0FE064B4FF443
:1089100080321A600123237038BD00BF3A31002035
:1089200000000140C5880F0000E100E0034BD3F8D0
:1089300000340BB1FFF7ACBF704700BF000001402F
:108940000023C0E90232C0E900118B881A44026199
:10895000B1F906301A4442610888003818BF012076
:10896000704710B5426811880346002939D002F1DA
:1089700010014160148A2CB9C2680168FFF7E0FF5A
:10898000204610BD9078118900F03004302C1BD1A6
:10899000947C04F03004302C1DD190881969091A98
:1089A00019610021907810F0300F02BF98680130F3
:1089B0009860908A0844196901441961B2F9162037
:1089C000114459610120DCE700F0F004202C02D1B1
:1089D00050894143E6E700F0C000802808BF042129
:1089E000E0E70846CDE770B5466804460D46636883
:1089F0001A88AA4204D19B7803F00F03082B07D1F1
:108A00002046FFF7AEFF6368B342F0D1002070BD8F
:108A10000120FCE743681A44426011B101399A42CF
:108A200001D10120704713F8010B01F8010FF6E79F
:108A30002DE9F34183680446884623B90026304671
:108A400002B0BDE8F081036801220DF107019847EB
:108A500006460028F2D0A3689DF80750013BA360AA
:108A60009DF90730002B1ADA05F07F050727A36868
:108A7000002BE3D0236801220DF10701204698471F
:108A80000028DBD0A3689DF80720013BA36002F01B
:108A90007F03BB401D43130607F1070702D4C8F844
:108AA0000050CCE7232FE2D1C8E770B54268927836
:108AB00002F00F01082986B003461FD103691C6824
:108AC00000260CB906B070BD236826739D686268E5
:108AD00029466846FFF734FF6368049304F10C03EA
:108AE0000593AB7803F0C003802B08BF231D6846B5
:108AF00008BF0493FFF7D9FFA468E2E712F0C001B2
:108B000020D102F0300010280ED15A6911705A6835
:108B100018699378D46803F00F03072B09D1014635
:108B2000204600F017F8CDE79006F0D55B69198074
:108B3000C8E71289214614B103F044F8C2E703F0F4
:108B400069F8BFE78029BDD1006900219206016064
:108B5000B8D5EBE77FB50A4601466846FFF7F0FE59
:108B600030B16846FFF7A1FF6846FFF7FAFEF7E766
:108B700007B05DF804FB000030B5044685B015462B
:108B8000A9B90268114B9A4211D0102D06D82A4675
:108B900069462046FFF7F0FF05B030BD1022694658
:108BA0002046FFF7E9FF0028F6D0103DEDE7A36867
:108BB000AB4201D20020EFE723682A4620469847BF
:108BC0000028F7D0A268521BA260E5E7158A0F00C3
:108BD000F7B50E4601A907461546FFF729FFA8B1CC
:108BE000019A0123D3184FF0000404D2B17801F0A8
:108BF000C001802901D1204608E031899942FAD389
:108C000029463846FFF7B8FF019BEC5403B0F0BD8E
:108C100073B50D4601A906461446FFF709FF98B142
:108C2000019AB2F5803F11D2AB7803F0C003802BDC
:108C300002F102010AD02B898B4207D3214630462C
:108C400021F8022BFFF798FF02B070BD0020FBE770
:108C500010B5034C82600022C0E90041C26010BD23
:108C6000158A0F002DE9F341002604460F46B04651
:108C70003546A3682BB3236801220DF10701204676
:108C80009847F0B1A3689DF807C0013B0CF07F0244
:108C9000C5F12001A360A5F1200302FA03F322FA33
:108CA00001F10B43AA401CF0800F46EA020643EA9A
:108CB000080805F1070502D1C7E9006802E0462D62
:108CC000D7D1002002B0BDE8F08173B50C466946EB
:108CD0001646FFF7C7FF68B12389082B0CD1DDE9E1
:108CE0000045C6E90045DDE90023AB4206BFA242CC
:108CF0000120002002B070BD042B04D1009B336022
:108D00001C460025EFE7022B4FF0000004D1009B2A
:108D100033809CB20546E6E7012BEBD1009B337014
:108D200003F0FF04F6E737B50D4669461446FFF732
:108D300099FF30B12A89082ADDE9003103D1C4E95D
:108D4000003103B030BD042A18464FEAE37108D160
:108D500023601A460B468B4206BF82420120002048
:108D6000EFE7022A04D11BB223801AB2D317F2E72D
:108D7000012A03D15BB223705AB2F7E70020E0E783
:108D8000F7B51F4600233B700D460B70136001A919
:108D900004461646FFF74CFE30B9A36813B9012309
:108DA0003B70002003B0F0BD019C002CF7D0E3081D
:108DB00004F0070433602C70F4E713B5044605296A
:108DC0001FD8DFE801F0030F151E1E1C012201A9A8
:108DD0002046FFF7D1FE18B19DF90430002BF5DBDA
:108DE00002B010BD082200212046FFF7C5FEF7E7BC
:108DF00001A9FFF71DFE0028F2D0019AF3E7042233
:108E0000F1E70020ECE773B50D4601A90446FFF732
:108E10000FFE064618B90026304602B070BD94E831
:108E20000F0085E80F0001998A42F4D3A960A36876
:108E30005B1AA360F0E700002DE9F0435768BB78A8
:108E400013F0C00489B006468C46154603D0402C6A
:108E50006AD000240CE003F00F025F4903F03003F6
:108E6000202B51F8228026D006D8CBB1102B1CD055
:108E7000204609B0BDE8F083302BF9D16B69398801
:108E80001980072A0AD16B6828691A89214602F0DD
:108E9000C1FE6B682969D868FFF75CFE2A6940E06B
:108EA0002A693946C0470446E2E76B6901221A7015
:108EB0002A696968F6E7BCF1020FD5F8149024D14D
:108EC000042A22D804A9FFF79EFF04460028C0D038
:108ED000069B2BB16968B9F800304A899A4205D8D7
:108EE000059B7360069B002BC2D0B2E708892A69F4
:108EF00003FB002204A8C04728B1B9F800300133B1
:108F0000A9F80030E4E70446EAE7B9F800307A89C6
:108F10009A429ED92A693989581CA9F8000003FB96
:108F2000012269683046BDE7D2F81080474657F8FD
:108F3000043B13B9FFF741FFB5E7022914D104A997
:108F4000FFF761FF002884D0D8F8003069683A46FE
:108F500004A89847044600283FF47BAF069B002BEB
:108F6000F2D1059B736083E7012925D005292BD019
:108F700000297FF46EAF0C460DF1040901340B2C6F
:108F80003FF467AF012249463046FFF7F5FD002860
:108F90003FF45FAF19F9013B002BEFDB0F4B04935C
:108FA00001ABCDE9053400230793D8F80030696898
:108FB0003A4604A8984776E7082201A9FFF7DCFDA6
:108FC00008240028EAD144E704220DEB0201FFF750
:108FD000D3FD0424F5E700BFC8C70F00158A0F00B2
:108FE0002DE9F04F91B00446002604A8CDE90266B1
:108FF000FFF7A6FCA3683BBBDDE9053404A89D7818
:10900000FFF7AFFC0028F7D115F0300F03D1059B17
:109010001B8803B10134002C00F0A98063090022F1
:1090200002A9934240F09C8010AA02EB830304F053
:109030001F0453F8383CC4F120044FF0FF30E040E7
:10904000C31A584258410DE00DF1030301AA0DF176
:1090500002012046FFF794FE38B99DF80330002B3B
:10906000CAD1002011B0BDE8F08F019904A8FFF724
:10907000BAFC002850D1019BB3427DD3059D059ACF
:10908000937803F00F03082B7FD004A8FFF769FC47
:10909000059B9D42F3D14FF0FF36019FB7426BD342
:1090A000089B9DF802A0D4F808801D684FF00109C4
:1090B000A368002D5DD098459CD12B68D3F800B0F3
:1090C000BBF1000F08D053463A4629462046D84700
:1090D0000028C6D0AD68EBE7D3F808B0BBF8003085
:1090E0009F42F7D16A6859460AA8FFF729FC6B68C6
:1090F0000E9305F10C030F939BF8023003F0C003AD
:10910000802B04BF2B1D0E930AAA85F80C905146A4
:109110002046FFF791FEDBE7059B9B7813F0300FAD
:109120000FD1069A3F2A0CD8510910AB03EB8101ED
:1091300002F01F020123934051F8382C134341F8E9
:10914000383CE5682DB19DF80220019904AB20461A
:10915000A8479DF8021004AA2046FFF76DFE10E014
:1091600051F8225001357FF47DAF013259E70120DB
:1091700078E798457FF43EAF9DF802102046FFF750
:109180001CFE00287FF436AF6BE7168885E737B5FD
:109190000C460546114620460192FFF7DBFC019A7A
:1091A0002146284603B0BDE83040FFF719BF70B52F
:1091B00086B0CE6801920C4602A90546FFF723FE51
:1091C00068B1E06858B1A378019A03F03003202B0E
:1091D000314602A805D1FFF7DAFF039B6B6006B0AA
:1091E00070BDFFF7FDFEF8E7D3B50C466946FFF703
:1091F00039FD80B1DDE9001300274A0801F00106BE
:1092000042EAC37256EA07014FEA53031CBFD24336
:10921000DB43C4E9002302B0D0BD37B50D46694633
:109220001446FFF7E1FF68B12B89082B0CD1DDE96B
:109230000001C4E90001DDE900238B4206BF824240
:109240000120002003B030BD042B03D10098206022
:10925000C117F0E7022B04D1BDF90000208000B255
:10926000F6E7012B04D19DF90000207040B2EFE732
:109270000020E7E713B504220C460DEB0201FFF7CF
:109280007BFC08B1019B236002B010BD1146FFF7C3
:10929000F1BF13B508220C466946FFF76DFC18B103
:1092A000DDE90023C4E9002302B010BD1146FFF739
:1092B000F0BF0000831F012B10B5044602D8002028
:1092C00000F0D0FB034B1B681BB12046BDE81040EB
:1092D000184710BD3C31002008B5074B186000202E
:1092E000FFF7E8FF054800F0A5FB20B9BDE80840FE
:1092F000024800F05FBA08BD3C310020B5920F0073
:1093000043690BB1C0681847704700000249034821
:109310000022FDF79DB900BFB8C60F00B4000020C1
:1093200007B5009313460A4601460348FDF794F932
:1093300003B05DF804FB00BFB400002013460A46EA
:1093400001460148FDF78FB9B4000020014B1870A9
:109350000B20704740310020024B002218781A7011
:10936000704700BF4031002018DF704730B585B02E
:10937000054610220C466846002102F04BFCA4086A
:10938000684601950294FFF7EFFF05B030BD30B598
:1093900085B0062300244FF480556846CDE900359A
:1093A000CDE90244FFF7E0FF072802BF4FF000536A
:1093B00020461D6005B030BD014B06201B681847D4
:1093C0004C3100200A2803D90B38C0B2FFF7BEBFCA
:1093D0007047000010B5044686B00020FDF74AF93A
:1093E000014630B1164A18212046FBF7FDFA06B0B7
:1093F00010BD1822684602F00DFC0423114A8DF8B6
:109400000030114B116D1B68994211D10F4B186838
:1094100000F0E6FF8DF80100FFF7D4FFD4E9011357
:109420008DF8010068469847094800F0CFFADEE75A
:1094300001238DF801306846D4E901139847D6E737
:10944000D5930F00583D00204431002048310020C2
:10945000B9930F00F0B5044687B018220021684682
:1094600002F0D8FB23788DF8003001228DF801201E
:109470000C2B00F28F81DFE813F00D0080000F004D
:10948000800080008D0180007700800073001C0048
:109490002F007B008DF80420D4E90113684698471B
:1094A0009DF80130012B00F06A81A44B05201B6858
:1094B00064E14FF08053D3F800210192D3F80421E6
:1094C0000292D3F80C2192020492D3F81021920256
:1094D00003921B690593DFE743F20403984D186874
:1094E0002A6A9849884214BF01230223012A227C58
:1094F00008BF013352B902238DF80430EB680293A0
:10950000914B0393C3F57E230493C5E7012A14D13D
:10951000884212D100234FF440528DF80430127863
:10952000142A84BF43F214031B6802934FF4805340
:10953000039343F208031B68E6E79A4209D201232A
:109540008DF80430AB68029300F0F8FAAB69039031
:10955000DAE7FF238DF804300023CDE90233D3E7A7
:10956000237C8DF8043097E7238AADF8043093E725
:10957000724B07201B6898478EE7062B734A01D071
:10958000012B01D1216911701178012904D0022920
:1095900058D0002313709EE0013B072B3FF67CAFB1
:1095A00001A252F823F000BFC9950F0099940F0053
:1095B00039960F0009960F0099940F0033960F000B
:1095C00099940F00E1950F005C4B03201B689847AE
:1095D000606900F08DFCFFF7F5FE8DF801005BE798
:1095E000A18A206900F09CFCFFF7ECFE544B8DF83B
:1095F0000100DA6B1B6C0293E3680192002B3FF4CD
:109600004BAF2069984747E75149524800F0D6FCD4
:10961000FFF7D8FE01288DF801007FF43DAF002050
:1096200000F0D4F900283FF437AF0A238DF8013059
:1096300032E74FF400730393414BDA6B1B6C0192DA
:10964000029329E7013B072B3FF626AF01A252F810
:1096500023F000BF75960F0099940F0033970F0009
:1096600059970F0099940F0083970F0099940F005A
:10967000DB960F0000F074FC08B90823D6E7626996
:109680000AB90323D2E7C2F30B0333B12C4B3049A1
:109690005B6D096813448B42F3D1B2F5805F01D949
:1096A0000423C3E7264B2A49586D096815188D42D3
:1096B000E3D85A64DA6C9A6418651863254B6169BB
:1096C0001B6801F6FF710022090B1844FFF736FEF4
:1096D00000283FF4E1AE0523A8E700F041FC002894
:1096E000CBD0174DA18AD5E914329B1A6A6C0B4472
:1096F0009342C6D8174B2F6B1B68206905F14802AF
:109700001F44FCF703FFE368A28A21690646384636
:10971000FFF706FE08B1E36873E7A28A2B6B029697
:1097200013442B63A38A2A6DAE6413442B65019303
:10973000B2E6034B9A6C02921B6DF8E74C310020A5
:10974000583D0020DBE5B15100400F0040000020F3
:1097500044310020483100200F4BD3E91402596CEA
:10976000821A8A4289D19A6C586500212046596430
:10977000DA64FFF72FFE094B1B680420984707B0F7
:10978000F0BD054B9A6C1B6D01934FF48053029210
:10979000039381E6022349E7583D00204C31002025
:1097A00083681BB1024A1821FBF71EB907207047D6
:1097B00055940F0038B50546C0B10020FFF7A6FD4F
:1097C000044648B900F086FB00F0CAFB30B9084BEC
:1097D00000201D60FFF7BAFD204638BD0549064848
:1097E00000F0ECFB0128F2D00324F5E70724F3E7AF
:1097F0004C31002044310020483100202DE9F04157
:1098000015464FF46072064688461F4602F0CCF9B2
:1098100028B915B90020BDE8F081A847FAE7002271
:1098200001213046FFF78AFD70B94FF4607241465E
:10983000384602F0C7F92B464FF46072394630467D
:10984000FFF76EFD0028E5D00320E4E72DE9F041A5
:109850003D4C236801335CD000225821201DFCF7C9
:1098600055FED4F80080A8EB0002D2F1000848EBC6
:109870000208364D364E2F683B6801335ED0002219
:109880005821381DFCF742FE3B68834244D17C6876
:10989000012C0AD00022C32107F51870FCF736FE10
:1098A000D7F85C42231A5C425C41B8F1000F35D016
:1098B000254927484FF4607202F084F964B12968A1
:1098C00024485422043102F07DF92968224840F2EC
:1098D000C7225C3102F076F97468012C2CD11F4943
:1098E000402201F2C71002F06DF91D491C2201F25D
:1098F000C71002F067F91B4986F8A1420023042231
:1099000001F2862086F8603286F8E23202F05AF9D7
:1099100010E04FF00008ACE70024C6E724B1296846
:109920000B484FF46072D5E709484FF4607200218C
:1099300002F070F902237360BDE8F081B8F1000F06
:10994000F2D00024B4E700BF00F00F004400002074
:10995000583D00205C3D0020B43D0020B43E002076
:10996000F43E0020743D002070B50D4C05460022E9
:1099700058212046FCF7CAFD002244F8040CC321FC
:1099800004F51770FCF7C2FD261FC4F858022A46DA
:109990003146044B0448BDE87040FFF72FBF00BFBD
:1099A0005C3D00205031002000F00F0002460248CC
:1099B000024B0068FFF722BF44000020D034002093
:1099C0000149FFF7F3BF00BF00F00F0038B50546AF
:1099D0000020FFF7C9FF044618B903492846FFF7DE
:1099E000E5FF204638BD00BF583D002010B5FFF709
:1099F0008DFC044628B9FFF729FF2046FFF7E6FF54
:109A000000B1032010BD00207047000010B5084CC5
:109A10004FF40072FF21204602F0FCF820220021C2
:109A2000A4F1240002F0F6F8002344F82C3C10BD09
:109A3000B43D0020F8B5094E094CA41B0746E408C4
:109A40000025A54201D10020F8BD56F83530384632
:109A500098470028F8D10135F3E700BFE4CA0F00AA
:109A6000ECCA0F00F8B5094E094CA41B0746E408E0
:109A700000250436A54201D10020F8BD56F8353046
:109A8000384698470028F8D10135F3E7E4CA0F00BB
:109A9000ECCA0F0008B50C22002102F0BBF8024B03
:109AA00000221A6308BD00BF583D002008B543F2EC
:109AB00004000C4B02689A4212D10B490023042285
:109AC000FFF72EFC60B9094B1A6A43F20801012A1C
:109AD00008BF18629A6909680A44A2F580529A611F
