:020000022000DC
:1060000000000420E9D3030011D4030013D40300DB
:1060100015D4030017D4030019D4030000000000B6
:106020000000000000000000000000001BD403007E
:106030001DD40300000000001FD4030021D403007E
:10604000ADC6030023D4030079D3030023D4030097
:1060500023D403004991030045C1030023D4030066
:1060600023D4030023D4030023D4030023D4030048
:1060700023D40300FDC8030023D4030023D403006A
:1060800023D403001556030023D4030023D40300B4
:10609000B556030023D403000D9B030023D4030053
:1060A00023D4030023D4030023D40300658B03000F
:1060B00023D4030023D403000000000000000000EC
:1060C00023D4030023D4030023D4030023D40300E8
:1060D00023D4030023D4030023D40300D5F102000A
:1060E00023D4030023D4030055AC040000000000B7
:1060F0000000000023D403000000000023D40300AC
:10610000000000000000000000000000000000008F
:10611000000000000000000000000000000000007F
:10612000000000000000000000000000000000006F
:10613000000000000000000000000000000000005F
:10614000000000000000000000000000000000004F
:10615000000000000000000000000000000000003F
:10616000000000000000000000000000000000002F
:10617000000000000000000000000000000000001F
:10618000000000000000000000000000000000000F
:1061900000000000000000000000000000000000FF
:1061A00000000000000000000000000000000000EF
:1061B00000000000000000000000000000000000DF
:1061C00000000000000000000000000000000000CF
:1061D00000000000000000000000000000000000BF
:1061E00000000000000000000000000000000000AF
:1061F000000000000000000000000000000000009F
:1062000010B5054C237833B9044B13B10448AFF3F0
:1062100000800123237010BD183E00200000000004
:106220009CD5050008B5034B1BB103490348AFF3E8
:10623000008008BD000000001C3E00209CD5050029
:10624000154B002B08BF134B9D46A3F5803A002148
:106250008B460F461348144A121A2AF0EAF90F4BDC
:10626000002B00D098470E4B002B00D09847002001
:10627000002104000D000D48002802D00C48AFF3A7
:1062800000802AF057F92000290017F0D7F92AF0EA
:106290002BF900BF000008000000042000000000EF
:1062A00000000000183E0020FC1C0120000000003F
:1062B0000000000072DF704773DF704770B504465E
:1062C00000F24A2681700D463046072200212AF04E
:1062D000B0F9E38813B1A378012B5FD0E379002BE9
:1062E00059D194F84B32002B40F0848094F84C3212
:1062F000002B7FD194F84D32002B7BD194F84E3295
:10630000002B77D194F84F32002B73D194F8503290
:106310001A1C18BF01226B1E032B00F24F81DFE80D
:1063200003F002470A0DA379002B41D094F82430E2
:10633000002B3DD12AB9237A002B7BD1657A002D21
:1063400064D1A570002384F8533204F13C0518226F
:10635000002128462AF06DF9E26A0121531E8B4282
:1063600084F83C103BD9042A94F82400A37826D062
:1063700084F8511000283FD084F85210002284F88D
:106380005020042B00F20981DFE813F07B00560057
:10639000DC00AE007F00A378022BA2D1636B002B40
:1063A00000F00981012284F851220820984798E7DB
:1063B000E379002BBFD0002ABDD00225C1E784F8C5
:1063C000512098B9002284F85020042B00F2E58077
:1063D000DFE813F057003200D400CE00C80094F874
:1063E000241084F85120A3780029EBD0A26A84F805
:1063F0005220C3E701228EE784F85000042B00F2FC
:10640000CC80DFE803F03E19BBB5AF000422636B1C
:10641000A270002B96D06279002A93D094F8522271
:10642000002A8FD1012184F8542284F853120720C6
:1064300098478AE70322EAE700230120022180220D
:10644000266484F83100C4F84432636484F83C1054
:10645000A4F8482000212A4604F15400FFF72AFF3F
:1064600000B170BD94F8301094F85400FFF724FF89
:106470000028F6D1636B13B194F8310098470020DF
:1064800070BD002384F83130F4E7D4E90721626459
:106490000622A4F8481084F83C206279002A72D0C1
:1064A00094F85222002A6ED194F85422002A6AD01D
:1064B000022384F850300122B4F83812D4F83402A0
:1064C00000F012FF08B10423037004F50D76314685
:1064D0002A4604F15400FFF7EDFE002866D106229B
:1064E000A37884F8312053E0D4E9052162640622C0
:1064F000A4F8481084F83C206279002A50D094F81F
:106500005222002A4CD194F85422002A48D0022367
:1065100084F850300122B4F83812D4F8340200F074
:10652000E3FE08B10423037004F50D7631462A46D4
:1065300004F15400FFF7BEFEC0BB0522A37884F827
:10654000312025E0022384F831300723D4E90321E8
:1065500084F83C3000232664A4F84810C4F8443280
:10656000626477E7D4E907126164A4F8482094E7ED
:10657000D4E905126164A4F84820BDE7022384F839
:1065800031300323E2E7042284F8312004F50D764C
:10659000C4F84462002B3FF46DAFD4F844125AE7BC
:1065A000032284F8312004F50D76F1E7A378002B5F
:1065B0003FF460AFF1E784F8513292E60025C0E67F
:1065C00080F83010704700BF00295AD0002858D0FA
:1065D000F8B591F87A301BB191F89830002B52D170
:1065E0004FF0000C80F802C001F1780604460F4617
:1065F0000FCE251D0FC50FCE0FC596E8070085E805
:10660000070084F830C0D7F8A4306363D7F8A83007
:10661000A3634FF6FF7504F50D73C4F84432614669
:10662000A4F84852072204F24A202AF002F82378FC
:106630000BB984F8545094F82430002B14BFEE2387
:106640001F2304F15501A4F83832C4F8341204F5BC
:106650000E72384600F04AFC90B994F82430002BB2
:1066600014BFEE231F2304F2431107F13C00A4F8EA
:106670004032C4F83C1204F5107200F037FC20B12F
:10668000F8BD0E2070470720F8BDD4E90525012389
:10669000206484F850000146626484F8513084F824
:1066A0003C30A4F8485004F13C0204F15400FFF7D8
:1066B00001FE0028E4D12370F8BD00BFF8B50678CC
:1066C000002E73D0044600F24A27A1700D463846CA
:1066D0000722002129F0ADFFE38803BBE37913B162
:1066E000A378022B1ED094F84B3283B994F84C3225
:1066F0006BB994F84D3253B994F84E323BB994F8D3
:106700004F3223B994F85062003618BF01266B1E31
:10671000032B00F25681DFE803F00F161B1EA3784F
:10672000012BDBD1636B002B00F04881012284F840
:10673000512208209847D6E7A37923B194F8243052
:10674000002B00F02981E37913B1002E40F0118174
:10675000237A002B4CD1657AB5BBA570002384F851
:10676000533204F13C0518220021284629F061FF2C
:10677000E26A0121531E8B4284F83C1063D9042A3B
:1067800094F82400A37868D084F8511080B184F87C
:106790005210002284F85020042B00F2A980DFE878
:1067A00013F029003300D800AA0073000820F8BDB8
:1067B00084F85000042B00F29B80DFE813F01B00EC
:1067C0002500E200E700DC000422636BA270002BCE
:1067D000C4D06279002AC1D094F85222002ABDD1D7
:1067E000012184F8542284F8531207209847B8E70F
:1067F0000322EAE7002384F83130636B13B194F885
:10680000310098470020F8BD00230120022180229A
:10681000276484F83100C4F84432636484F83C107F
:10682000A4F8482000212A4604F15400FFF742FD55
:106830000028BCD194F8301094F85400FFF73CFDC8
:106840000028DAD0F8BD94F8241084F85120A378F9
:1068500039B1A26A84F852209BE784F851200028BD
:10686000F7D1002284F85020042B41D801A252F81D
:1068700023F000BFF5670200096802008369020087
:106880008D69020077690200D4E90721626406225B
:10689000A4F8481084F83C206279002A00F0868031
:1068A00094F85222002A40F0818094F85422002A61
:1068B0007CD0022384F850300122B4F83812D4F886
:1068C000340200F011FD08B10423037004F50D76C5
:1068D00031462A4604F15400FFF7ECFC00286BD146
:1068E0000622A37884F83120C4F84462002B84D0B7
:1068F000D4F8441297E7D4E9052162640622A4F88B
:10690000481084F83C206279002A49D094F8522239
:10691000002A45D194F85422002A41D0022384F859
:1069200050300122B4F83812D4F8340200F0DCFC04
:1069300008B10423037004F50D7631462A4604F1AC
:106940005400FFF7B7FCB8BB0522A37884F83120C8
:10695000CAE7022384F831300723D4E9032184F8FD
:106960003C3000232764A4F84810C4F84432626421
:1069700058E70225F1E6D4E907126164A4F848203B
:106980008AE7022384F831300323E6E7D4E90512CD
:106990006164A4F84820B6E7002E3FF4D9AEDCE6E7
:1069A000032284F8312004F50D769DE7042284F853
:1069B000312004F50D7697E7A37897E784F85132F4
:1069C00091E60025C9E600BF10B50388112B0C46DF
:1069D0000BD0262B1DD0102B00D010BDC37B012B5C
:1069E000FBD18388A1F8483210BD002381F85232D0
:1069F0008288B1F848329A42EFD10B79002BECD162
:106A00000B78EBB90820A36B002BE6D0BDE8104053
:106A10001847037A013B012BDFD80B78002BF1D00C
:106A20008A780B4B0132A3FB02139B0803EB830311
:106A3000D31AD9B22046FFF741FC0028E3D110BD9C
:106A400001212046FFF73AFC0028DCD110BD00BF31
:106A5000CDCCCCCC704700BFA8DF70472DE9F0410A
:106A60008CB00CA941F60A0321F82C3D0123044601
:106A7000C24A8DF806301846FFF7EEFF054600289B
:106A800040F0B6802688002E40F0B6802689002E81
:106A900040F02881268A002E40F04A81268B002E65
:106AA00040F07E81268C002E40F0D080268D002E76
:106AB00040F0F280236B002B39D01A688DF8082043
:106AC0001A6894F83C60120A8DF809205A888DF8EB
:106AD0000A20DA788DF80B205A688DF80C209B6814
:106AE0008DF80D30190A20221B0C8DF80E1004A809
:106AF00000218DF80F3029F09CFD9DF81D309F4935
:106B00008DF8216043F0020308888DF81D3042F6AD
:106B100023274FF0081602AB994AADF8107004A96C
:106B2000CDE9056300F0FAFE002840F08A80636B2F
:106B300043B31F681E7994F83C80002F00F0558104
:106B400016B9304611F0E4FE2022002104A829F0F5
:106B500070FD9DF81D3089498A4A0888ADF8146097
:106B600043F0020342F62A2C04A9ADF816600697FA
:106B70008DF821808DF81D30ADF810C000F0CEFEEC
:106B800000285ED1A36B9BB31A788DF808205A8831
:106B90008DF80920120A8DF80A209A888DF80B20AA
:106BA000120A8DF80C20DB888DF80D3020221B0A8C
:106BB000002104A894F83C408DF80E3029F039FDEE
:106BC0009DF81D306D498DF8214043F0020308887F
:106BD0008DF81D3042F6502502AB6B4AADF81050CF
:106BE00004A94FF00714CDE9054300F097FE0546D0
:106BF00028460CB0BDE8F081676894F83C80002F0F
:106C000000F0F7802022002104A829F012FD9DF851
:106C10001D305A495D4A0888ADF8146043F00203FC
:106C200042F6292C04A9ADF8166006978DF821804C
:106C30008DF81D30ADF810C000F070FE00283FF454
:106C400025AF054628460CB0BDE8F081676A94F888
:106C50003C80002F00F0DC802022002104A829F0D5
:106C6000E8FC9DF81D304549494A0888ADF8146094
:106C700043F0020342F6262C04A9ADF816600697ED
:106C80008DF821808DF81D30ADF810C000F046FE63
:106C900000283FF40BAFD4E7E76A94F83C80002F5C
:106CA00000F0BA802022002104A829F0C2FC9DF83F
:106CB0001D303249374A0888ADF8146043F00203AA
:106CC00042F6282C04A9ADF8166006978DF82180AD
:106CD0008DF81D30ADF810C000F020FE00283FF404
:106CE000E9AEAEE7E76894F83C80002F00F08480BE
:106CF0002022002104A829F09CFC9DF81D301F498A
:106D0000254A0888ADF8146043F0020342F6242CAB
:106D100004A9ADF8166006978DF821808DF81D3016
:106D2000ADF810C000F0FAFD00283FF4B3AE88E7DC
:106D3000676994F83C80002F62D02022002104A8CB
:106D400029F077FC9DF81D300C49144A0888ADF8ED
:106D5000146043F0020342F6252C04A9ADF8166036
:106D600006978DF821808DF81D30ADF810C000F029
:106D7000D5FD00283FF492AE63E700BF6C3E0020D3
:106D8000783E00205C3E0020543E0020443E00201F
:106D9000343E0020703E00204C3E0020643E002027
:106DA000E76994F83C807FB32022002104A829F0F1
:106DB00040FC9DF81D301A491A4A0888ADF8146045
:106DC00043F0020342F6272C04A9ADF8166006979B
:106DD0008DF821808DF81D30ADF810C000F09EFDBB
:106DE00000283FF45FAE05462CE7384611F090FDD1
:106DF000A6E611F08DFD05E7384611F089FD77E72D
:106E0000384611F085FD98E7384611F081FDCBE753
:106E1000384611F07DFD1FE7384611F079FD41E756
:106E20006C3E00203C3E00206DDF704779DF7047EC
:106E30007DDF704764DF70472DE9F04F83B0048831
:106E40000C9EBDF83490B6F800A0002C39D09846BE
:106E5000002317468B4605461C4603E02A8801346A
:106E6000A24224DD6A6852F82400019000220DF14C
:106E7000030101A8FFF7DEFF20BB9DF80320BA4203
:106E8000ECD13288B91803B389452BDB42440DF1AC
:106E9000030101A80123FFF7CDFF98B931889DF8C0
:106EA00003200A4432802A880134A242DADC43B14A
:106EB0003388013BA3EB0A039BB2FF2B12D808F8DF
:106EC0000A30002003B0BDE8F08F0231013289455D
:106ED00092B207DB328008F802B03288013292B2F7
:106EE0003280D3E70C2003B0BDE8F08F2DE9F047E6
:106EF00000231788138090F82D3086B0144605467D
:106F00000E46002B40F0FB80AA78002A40F0FD805E
:106F1000EA78A2B1D91CB94200F2F3800221F154FF
:106F2000238801339BB201212380F15423880B4431
:106F30009BB22380F25423880B449BB223806A685F
:106F4000AAB1D91CB94200F2DC80022192F90020DA
:106F5000F154238801339BB20A212380F154238802
:106F600001339BB22380F2542388013323802B8981
:106F7000002B40F01B812B8A002B40F02F812B8BA4
:106F8000002B40F043812B6A002B44D02288911DB6
:106F9000B94200F2B6801988052940F203816FF4E6
:106FA000486801EB080080B24FF27D3C604540F23A
:106FB000F9805888052840F2F5806FF4486E8644C1
:106FC0001FFA8EFEE64540F2ED804FF6FF7C6145EC
:106FD00004D0604502D0814200F2E4800521B15422
:106FE0002288013292B212212280B15422880132C9
:106FF00092B222801988B1543244090A5170228811
:10700000023292B222805B88B35432441B0A53701E
:107010002388023323806B6A002B2FD09988B4F821
:1070200000C0881C0CF102020244BA4269D8FE2852
:1070300067D8033106F80C102288013292B2FF2182
:107040002280B1542288013292B222801988B15430
:107050003244090A51702088023080B220809A8818
:1070600062B199680393002900F09C80304429F0B4
:10707000BCFA039B9A8823881344238095F82C300C
:10708000002B40F08A80287800283BD02B88012BE9
:1070900000F08880228802F1020CBC4531D801281A
:1070A00004D16B78023313449F422AD3BB1E9B1A30
:1070B00006A99BB221F8083D06EB0C00FFF7B8FECD
:1070C00000BB2978BDF81020022900F004816878FF
:1070D0009042C0F0FB809342C0F0F8800921FE2A64
:1070E0000FD82388501CF054238801339BB223808F
:1070F000F154238801331A442280002002E0082F33
:1071000023D80C2006B0BDE8F0870433BB42F8D882
:1071100004A8FFF78BFE0028F4D12388BDF81020C7
:107120000321F154238801339BB219212380F154A8
:10713000238801339BB2F1182380F254120A4A705B
:10714000238802339BB22380E2E604A8FFF76CFE9B
:107150000028D7D113880822CA54238801339BB250
:107160001B222380CA542088013080B2208006224E
:1071700008440DF1110129F038FA23889DF81020F8
:1071800006339BB212F0FE0218BF01222380F25494
:10719000238801339BB22380B6E6D5F82880B8F166
:1071A000000F4CD1072006B0BDE8F08705F10808B4
:1071B0000222CDE90047404611463346FFF73CFE28
:1071C00000289FD1CDE900474046334610220621D2
:1071D000FFF732FE00283FF4CEAE93E705F110082A
:1071E000CDE900474046334602220321FFF724FE43
:1071F000002887D1CDE900474046334610220721B9
:10720000FFF71AFE00283FF4BAAE7BE705F1180835
:10721000CDE900474046334602221421FFF70CFE19
:1072200000287FF46FAFCDE9004740463346102277
:107230001521FFF701FE00283FF4A5AE62E7B8F87C
:1072400004200232FE2A3FF65CAF23884FF000098B
:107250004FF0160A0132F254238801339BB2238087
:1072600006F803A0238801339BB22380B8F80020DE
:10727000F2543344120A5A70238802339BB223809B
:10728000B8F80410F0180A4661B1D8F80830194669
:10729000002B87D029F0A9F9B8F8042023881344DB
:1072A0009BB2238009F1010995F82C205FFA89F936
:1072B0004A4509EB49087FF6E6AEAA6A02EB880860
:1072C000B8F804200232FE2AC4D91AE7012906D0F0
:1072D0001A46082103E79342BFF400AFF8E7834260
:1072E000F6D302460821FAE6F8B130B44378934267
:1072F0001CD0B9B10024234601E0994212D9045DA3
:10730000013423449BB2C5181C466D789542F4D1D4
:10731000994207D9025D0233012A9BB202D0184478
:1073200030BC7047002030BC7047704700242346B3
:10733000EEE700BF75DF704776DF70477ADF704792
:107340007BDF704730B51D4B1A8884B2A24283B0F0
:1073500001D003B030BD1A4D187A297B88420FD373
:107360002A7C00211972E2B96B69002BF1D000224E
:10737000ADF806408DF8042001A8984703B030BD51
:10738000104603F10A01FFF7D5FF28B11128E0D01C
:10739000AB69002BF1D1DCE71A7A01321A7203B023
:1073A00030BD3B212046FFF7C7FF30F00803DBD09C
:1073B000AB69002BD8D09847D6E700BF9C3E002091
:1073C000803E0020F0B50288112A83B0034649D0E0
:1073D00036D9122A08D0502A04D16C4DC188EA89C6
:1073E000914251D003B0F0BD694C8288218891420E
:1073F000F8D1E1896589B1F5FA7F24BF6FF4F9709E
:107400000E18588938BF002685424FD8A589854275
:107410004CD39B89B34249D301F2F311994245D32E
:107420005A4B5B694FF480712181002BDAD0012126
:10743000ADF806208DF8041001A8984703B0F0BD00
:10744000102ACFD1C27B012ACCD1514C21884FF6D2
:10745000FF7291423CD04D4B9B69002BC2D004205F
:107460009847BFE74A4C828823889A42BAD160681D
:107470000EF0A6FB18B1454B9B6903B198474FF638
:10748000FF73238003B0F0BD028A022AAAD1404CC8
:1074900086882788B742A5D1123000F031FA00283B
:1074A00056D160680EF08CFB70B99BE7374D267A99
:1074B0006068D5E90131002E08BF194600236372C8
:1074C0000EF028FB00288DD0AB69002BB5D189E7E1
:1074D000304D8288228003CDC4F80E10E689C4F8AE
:1074E0000A00B6F5FA7F28BF6FF4F9754FF0000176
:1074F000588AB4F80AC0217228BF7119234D8445F7
:10750000EF8919D8B4F80CC0844515D39B8A8B42F7
:1075100012D306F2F3169E420ED301216172002FA0
:107520007FF460AF6B69002B3FF45CAF8DF8041003
:10753000ADF8062001A880E700236372002F7FF4D6
:1075400051AF606869680EF0E5FA0028BCD149E7E0
:10755000637A63B9D5E90131267A60683A46002E2C
:1075600008BF19460EF0D6FA0028ADD13AE76B698C
:1075700000222272002B3FF435AF0122ADF80660E5
:107580008DF8042001A898472CE700BF803E00201A
:107590009C3E0020B03E002000282FD0F8B50546C4
:1075A00006460FCD164F3C460FC4844695E80700AB
:1075B000144B3B6084E80700BCF1000F18D0604614
:1075C000FFF7BCFE98B932681068516803C30E4BD0
:1075D0000E490F4A18464FF6FF7440F8041F1C80EE
:1075E00000210EF085FA002814BF03200020F8BD0A
:1075F0001846FFF7A5FE0028E9D0F8BD0E20704719
:10760000803E0020B03E00209C3E0020B83E00207E
:10761000457302002DE9F0470388B0F80490112B60
:1076200098B059D01A2B804647D0102B02D018B0F2
:10763000BDE8F087394A936818A8DB4340F8603DFD
:10764000516808F043FE009B0193019B63B3002740
:107650003C46214601A808F0C9FD28B118AB03EB50
:107660004703013723F8284C0134142CF1D10D972E
:107670000DAE0FCE02AC0FC40FCE0FC496E80700BC
:1076800084E8070087B10DF10A0A254E0AEB470787
:107690003AF8025F234C20462946043408F09CFD4A
:1076A000A642F8D1BA45F3D1B9F1130F1BD9042082
:1076B00011F02EF918B0BDE8F087047A1A482409B1
:1076C000012C494620D908F06DFD022C4946174887
:1076D0001ED008F067FDAAE74946154808F07CFD72
:1076E00018B0BDE8F0874946114808F05BFD4946EF
:1076F0000C4808F057FD98F80F30012B97D04946F9
:107700000C4808F04FFD92E708F066FD074849462F
:1077100008F062FD18B0BDE8F08700BFD83E002039
:10772000503F0020DC3E0020E83E0020EC3E0020E0
:10773000E03E0020E43E0020132801D900207047DD
:107740000146014808F052BDDC3E0020132801D953
:107750000020704710B501460446074808F046FD72
:1077600008B9002010BD2146044808F03FFD00285C
:1077700014BF0220012010BDDC3E0020E43E0020AA
:10778000132801D90020704710B501460446074868
:1077900008F02CFD08B9002010BD2146044808F06F
:1077A00025FD002814BF0220012010BDDC3E002072
:1077B000E03E0020132801D90020704710B5014693
:1077C0000446064808F012FD08B9002010BD214605
:1077D0000348BDE8104008F009BD00BFDC3E0020B2
:1077E000E83E0020132801D90020704710B501465B
:1077F0000446064808F0FAFC08B9002010BD2146EE
:107800000348BDE8104008F0F1BC00BFDC3E00209A
:10781000EC3E002008B51821024808F0F1FCC0B287
:1078200008BD00BFD83E002070B50C4C0546204670
:107830000E4608F0DBFC08B1132D01D9002070BD05
:107840002946201D08F0D2FC0028F7D0B01D04EB1B
:1078500080002946BDE8704008F0C8BCD83E002032
:10786000F8B50F4C0546204617460E4608F0BEFCFC
:1078700008B1132D00D9F8BD2946201D08F0B6FC2B
:107880000028F8D0B01D04EB800029461FB9BDE8E0
:10789000F84008F0A1BCBDE8F84008F083BC00BF88
:1078A000D83E0020F0B5144C054683B00F46204664
:1078B0002946164608F09AFC18B90025284603B058
:1078C000F0BD043504EB8504A3680193002FF4D0C8
:1078D000019B002BF1D000252C46214601A808F081
:1078E00085FC314610B1A0B2B84701350134142CE3
:1078F000F3D1284603B0F0BDD83E0020AADF704780
:10790000007800F00100704738B5044608460D467F
:1079100029F058FA6560208038BD00BFF0B58B783B
:1079200091B0002B0C460988ADF80C1008BF01235C
:10793000054616466846032200218DF80E3028F0D1
:1079400078FE637C0022013B8DF80020042B09D8CF
:10795000DFE813F00500D300D700DB00CF001123D0
:107960008DF80030A37C0022013B8DF80120042B10
:1079700009D8DFE813F00500D200D600BA00CE0027
:1079800011238DF801309DF80230E77B227D207CA9
:10799000217B67F3C303002A60F3041314BF0222A0
:1079A000012261F3000362F3420309A81C220021B3
:1079B0008DF8023028F03DFE637B13F0300F73D159
:1079C000627BA37B8DF824200021142204A88DF86B
:1079D000253028F02EFEA368A288CDF814D003A984
:1079E0000491ADF81C201BB1E2880893ADF8182073
:1079F000A369002B36D001AF03220021384628F0BE
:107A000018FEA2691388ADF82C305388ADF82E30DB
:107A100051680D97137B0A91013B00218DF80410EA
:107A2000042B2DD8DFE803F0299D8D9199001123B7
:107A30008DF80530917A9DF8063061F3C3038DF817
:107A40000630D17A61F304138DF80630117A927BF7
:107A5000002A61F3000314BF0222012262F34203F1
:107A60008DF80630E36903B10C93334604AA09A9E3
:107A70002846FFF743FF11B0F0BD11238DF8043005
:107A8000537B0021013B8DF80510042BD2D801A1B6
:107A900051F823F02F7A0200337B02003B7B020077
:107AA0002B7B0200537B0200032202A8002128F056
:107AB000C0FDE37C0022013B8DF80920042B07D890
:107AC000DFE803F0035F5B57530011238DF80930A3
:107AD0009DF80A3002AA0E92012262F3420311229B
:107AE0008DF80A308DF808206AE712238DF80130EE
:107AF00049E722238DF8003034E721238DF8003048
:107B000030E731238DF800302CE712238DF8003058
:107B100028E722238DF8013035E721238DF8013045
:107B200031E731238DF801302DE712238DF8053030
:107B300080E721238DF805307CE731238DF805306F
:107B400078E731238DF804309AE712238DF804305A
:107B500096E722238DF805306CE722238DF8043058
:107B60008EE721238DF804308AE722238DF809302F
:107B7000AEE712238DF80930AAE731238DF80930DA
:107B8000A6E721238DF80930A2E700BF90DF7047F8
:107B9000A5DF7047B5DF704770B5204B204CE41A65
:107BA000E4080646240484B00D460A4644F0040066
:107BB00033461C490CF06AFE002330466A4602A98F
:107BC000ADF80850ADF80A50ADF8043003930093B7
:107BD000FFF7DCFF054610B9284604B070BD0DF074
:107BE000E3FC44F001040346324620460E490CF003
:107BF0004DFEBDF80020BDF8023002B91BB10B49A3
:107C000020460CF043FEBDF80420002AE4D02046B4
:107C100007490CF0BBFD284604B070BD8CD60500AA
:107C20009CD80500B41C0500E41C0500301D0500AF
:107C3000701D0500C0B170B40346FB2281614FF096
:107C4000F7160020094D0A4C1A71172141F6FB3234
:107C50001E60C3F806509872D8729874D874DC60AD
:107C600019829A8270BC70470E207047F700170087
:107C7000FB1BF7002DE9F04F8488012C87B002D957
:107C800007B0BDE8F08F0388232B0D46064638D099
:107C900025D93A2B00F09580552B4ED0242B00F09F
:107CA000BD80E700EB199B7A002BE9D03D442046CC
:107CB000E988FFF76DFF0346002800F01D811128B9
:107CC000DED00DF071FCAB4AAB4BAC499B1ADB0824
:107CD0001B04024643F001000CF058FDD0E7102BC6
:107CE00000F0E080112BDCD101EBC404A44BC4F8FC
:107CF0000630FB2100231B2221736273A372E372FF
:107D0000BEE79C4B9C4896F808809E49C01AC00864
:107D1000E700000405EB070940F004004346224653
:107D20000CF0B4FD99F80C10B088414528BF4146CD
:107D3000FFF732FF99F80A30B6E78F4B8D4AB0F85B
:107D4000068091499E1AF608360446F0040AE700B8
:107D500005EB07095046434622460CF097FD424684
:107D6000172AB9F80630009438BF17229A4228BF64
:107D70001A460021504689F80A10A9F808208349BC
:107D80000CF006FEB9F806102046FFF703FF0028A6
:107D900040F0A98099F80B30002BCBD1AB69002BB8
:107DA000C8D040F67721B9F80820ADF81010ADF82A
:107DB0001240ADF8142004A92846984799F80A30D3
:107DC00072E701EBC4077289FB88DFF8A8C16A4833
:107DD0006F499A4228BF1A46A0EB0C00172A4FEAB7
:107DE000D00038BF1722000423463A8140F0040037
:107DF0000CF04CFDAB696BB1FA7A5AB140F67721C1
:107E00003A89ADF81010ADF812402846ADF81420AC
:107E100004A998470023FB72BB7231E7564B554AC1
:107E2000B0F808908189B0F80AB0B0F80EA00391BC
:107E30009E1AF608E700360405EB070846F004062C
:107E40005FFA89F22346534988F80D2030460CF03A
:107E50001DFD5A46304650490CF098FC4A463046C3
:107E60004E490CF093FC524630464D490CF08EFCC6
:107E7000039A4C4930460CF089FCAB697BB1002079
:107E80004DF67A2198F80D20ADF81400ADF81010D9
:107E9000ADF812408DF8142004A92846984798F8A8
:107EA0000A3001E7E70001EB07080B7988F80C308E
:107EB000C37B012B13D0022B2ED0B8F80620B8F8C4
:107EC000083093422CD398F80C1098F80D308B4260
:107ED000E5D22046FFF760FE98F80A30E4E60A880B
:107EE000A8F80620EBE70DF05FFB2F49024646F0AD
:107EF00001000CF04BFC4DE71E4A1F48AB72801A84
:107F0000C00801220004EA72234640F00400EA8817
:107F100026490CF0BBFCB3E64A88A8F80620CEE759
:107F2000144B154E2249F61AF608360446F0040999
:107F3000484623460CF0AAFCB8F806102046FFF786
:107F400027FE18B9012388F80B30BCE7112808D0A8
:107F50000DF02AFB0949024646F001000CF016FC20
:107F6000B1E70123484688F80A30224611490CF04F
:107F70000DFCA8E78CD605009CD805005C1E05000A
:107F8000F7001700F01F0500CC1E0500081F0500B4
:107F9000901E0500781F0500A81F0500BC1F0500E6
:107FA000D01F0500E01F0500481F05003020050018
:107FB000C81D0500081E0500B0DF704766DF70476A
:107FC00060B159B10378DE2B0AD00B684360DE2222
:107FD0004FF6FF7302704380002070470E207047F9
:107FE0000820704738B10378DE2B02D14180002091
:107FF0007047082070470E20704700BF19B110B1BC
:108000000B78DE2B00D0704730B505464B88808852
:10801000984285B00C4606D02A88012A0DD0512AF4
:1080200020D005B030BD0B7A002B35D12B88112B19
:1080300048D0512B4DD0012BF3D12B7A012BF0D10D
:1080400062888242EDD123720021FFF7B7FF00283A
:108050004ED0112808BF2372E3D063689847E0E749
:108060006388A8888342DCD1AA79022AD9D1A97B66
:1080700001F0FD0004282ED00529D2D10020694648
:10808000C1E90200009048608DF800201846FFF713
:1080900093FF0028E1D1C4E70021FFF78FFF0346DB
:1080A000A8B1112812D0636898472B88112B05D0EE
:1080B000512BD5D0012BB4D1A888BEE7AA886388FC
:1080C0009A42AED14FF6FF736380AAE70123237271
:1080D000EBE70346C6E7694600204FF4C0754860E9
:1080E0000090C1E902008DF80020ADF80450CDE702
:1080F000207296E710B5C24B9A7C82B15A7C002A56
:1081000000F08481DC68A042C0F0A6811A7C0021C6
:108110005974002A00F099814FF4A02401E04FF037
:10812000FF3493F82620AAB193F82520002A00F006
:1081300050811A6A9042C0F0928193F82420002165
:1081400083F82510002A00F0D881B4F5A02F28BFAD
:108150004FF4A02493F83A20AAB193F83920002ACA
:1081600000F021815A6B9042C0F0828193F8382050
:10817000002183F83910002A00F0C281B4F5A02F45
:1081800028BF4FF4A02493F84E20AAB193F84D20B5
:10819000002A00F0F1809A6C9042C0F06F8193F851
:1081A0004C20002183F84D10002A00F0AC81B4F57A
:1081B000A02F28BF4FF4A02493F86220AAB193F80F
:1081C0006120002A00F0C180DA6D9042C0F07D810C
:1081D00093F86020002183F86110002A00F0878165
:1081E000B4F5A02F28BF4FF4A02493F87620AAB1AD
:1081F00093F87520002A00F091801A6F9042C0F029
:108200006D8193F87420002183F87510002A00F026
:108210007181B4F5A02F28BF4FF4A02493F88A20D1
:10822000002A56D093F88920002A39D0D3F8842028
:108230009042C0F0368193F88820002183F889109D
:10824000002A00F0638193F89E20B4F5A02F28BF88
:108250004FF4A024002A00F05C8193F89D20002AAE
:1082600042D0D3F898209042C0F0148193F89C201B
:10827000002183F89D10002A00F0EB800DF0DAFC5D
:10828000604BB4F5A02F28BF4FF4A02418602246FD
:1082900021465D480DF03EFC002840F0C78010BD2F
:1082A00093F88810002900F00881D3F88020024458
:1082B000B2F5A02FC3F8802006D30139A2F5A02281
:1082C00083F88810C3F88020C2F5A022944228BF0A
:1082D000144693F89E20002ABFD10DF0ABFC494B09
:1082E0001860631CD3D110BD93F89C20002A00F0C5
:1082F000B080D3F894100844B0F5A02FC3F89400D0
:1083000006D3013AA0F5A02083F89C20C3F894007E
:10831000C0F5A020844228BF0446DEE793F874101D
:10832000002900F0E180DA6E0244B2F5A02FDA668F
:1083300005D30139A2F5A02283F87410DA66C2F5DC
:10834000A022944228BF144668E793F860100029E1
:1083500000F0C1809A6D0244B2F5A02F9A6505D352
:108360000139A2F5A02283F860109A65C2F5A02217
:10837000944228BF144638E793F84C10002900F0C7
:1083800083805A6C0244B2F5A02F5A6405D3013998
:10839000A2F5A02283F84C105A64C2F5A0229442A0
:1083A00028BF144608E793F8381000296FD01A6BDD
:1083B0000244B2F5A02F1A6305D30139A2F5A02219
:1083C00083F838101A63C2F5A022944228BF1446DD
:1083D000D9E693F82410002947D0DA690244B2F5AF
:1083E000A02FDA6105D30139A2F5A02283F8241069
:1083F000DA61C2F5A022944228BF1446AAE600BF63
:10840000503F002010400020F03F00201A7CE2B1D5
:108410009C680444B4F5A02F9C6004D3013AA4F5F1
:10842000A0241A749C60C4F5A0247AE60DF0BCF870
:108430003A4A3B4B3B499B1ADB081B040246BDE80A
:10844000104043F002000CF0A1B99A744FF0FF34D1
:1084500067E683F89E2040E7241ADC6061E6121A82
:1084600094421A6228BF144674E683F8261071E617
:10847000121A94425A6328BF144684E6121A944290
:108480009A6428BF144697E683F84E1094E683F862
:108490003A1078E6121A9442C3F8982028BF14467E
:1084A0001BE7121A9442C3F8842028BF144693F89D
:1084B0009E20002A3FF411AFCFE693F89E2083F868
:1084C0008A10002A3FF409AFC7E6121A9442DA650F
:1084D00028BF144689E683F8621086E6121A944291
:1084E0001A6728BF144699E683F8761096E683F853
:1084F00062207AE683F8762090E683F8262029E643
:1085000083F83A203FE683F84E2055E683F88A2028
:10851000DFE60DF08FFB044B1860B8E68CD6050043
:10852000D4D805002C21050010400020024A034841
:1085300000210DF0DDBA00BFF58002004C210500DE
:10854000F0B583B06946054601F07CFC78B10DF0CA
:108550002BF8C34CC34BC449E41AE4082404024674
:108560002B4644F002000CF091F903B0F0BDBF4877
:108570000DF026FB074670B10DF016F8B84BB94A5E
:10858000BB499B1ADB081B04024643F002000CF0B7
:10859000FDF803B0F0BDB74EB74C0DF04BFB3168A2
:1085A0000DF04EFBA37C002B40F017814FF0FF3500
:1085B00094F82630D3B194F82530002B40F0E582B2
:1085C00094F82420002A00F08D83E3690344B3F576
:1085D000A02FE36105D3013AA3F5A02384F824205A
:1085E000E361C3F5A0239D4228BF1D4694F83A30AD
:1085F000D3B194F83930002B40F0E58294F838205C
:10860000002A00F06C83236B0344B3F5A02F23638F
:1086100005D3013AA3F5A02384F838202363C3F5DA
:10862000A0239D4228BF1D4694F84E30D3B194F844
:108630004D30002B40F0EE8294F84C20002A00F0E0
:108640007683636C0344B3F5A02F636405D3013ACA
:10865000A3F5A02384F84C206364C3F5A0239D42B6
:1086600028BF1D4694F86230D3B194F86130002BD6
:1086700040F0E18294F86020002A00F05583A36D59
:108680000344B3F5A02FA36505D3013AA3F5A023B6
:1086900084F86020A365C3F5A0239D4228BF1D4632
:1086A00094F87630D3B194F87530002B40F0D48232
:1086B00094F87420002A00F03483E36E0344B3F589
:1086C000A02FE36605D3013AA3F5A02384F8742014
:1086D000E366C3F5A0239D4228BF1D4694F88A3067
:1086E000EBB194F88930002B40F0C78294F88820D1
:1086F000002A00F01383D4F880300344B3F5A02F90
:10870000C4F8803006D3013AA3F5A02384F888206A
:10871000C4F88030C3F5A0239D4228BF1D4694F8BD
:108720009E30B3B194F89D30002B00F0B782D4F89E
:1087300098309842C0F0FE8294F89C30002284F871
:108740009D20002B00F0C882B5F5A02F28BF4FF464
:10875000A0250DF06FFAA77C3060002F53D10127C0
:10876000002694F82630002B40F0AF81012694F8C3
:108770003A30002B40F07981022694F84E30002BDD
:1087800040F04381032694F86230002B40F00D81C5
:10879000042694F87630002B40F0D780052694F814
:1087A0008A30002B6ED1062694F89E30002B40F0C4
:1087B000BC81002F40F0D2816B1C3FF4D6AE2A461C
:1087C00029462A480DF0A6F900283FF4CEAE0CF059
:1087D000EBFE234B234A2949D3E6637C002B40F070
:1087E000E681237C002B00F07382A5680544B5F573
:1087F000A02FA56004D3013BA5F5A0252374A56097
:10880000C5F5A025D4E606221D490DF1010027F08B
:10881000DDFE002840F05A82267C4FF47A6202FA8C
:1088200006F3B3F57A4F03DA0136F6B202FA06F32D
:108830004FF400424FF4FA7000210027C2FB0301FD
:10884000267400234FF47A72A76029F09BF8012365
:108850008542E06028BF05466374082681E700BFB3
:10886000D4D805008CD6050094200500F03F0020E8
:10887000E420050010400020503F00202C2105007E
:10888000513F00200DF101000622D84927F09EFE3D
:10889000002889D194F888304FF47A6101FA03F204
:1088A000B2F57A4F03DA0133DBB201FA03F24FF487
:1088B00000464FF4FA700021C6FB0201002684F83E
:1088C00088304FF47A720023C4F8806029F05AF897
:1088D00094F89E30C4F884000122854228BF0546E2
:1088E00084F88920002B3FF467AF0DF101000622C8
:1088F000BF4927F06BFE00287FF45EAF94F89C30F0
:108900004FF47A6101FA03F2B2F57A4F03DA0133D8
:10891000DBB201FA03F24FF400464FF4FA70002183
:10892000C6FB0201002684F89C304FF47A720023C3
:10893000C4F8946029F026F801238542C4F8980011
:1089400028BF054684F89D3036E70622A9490DF177
:10895000010027F03BFE00287FF421AF94F874C09B
:108960004FF47A6202FA0CF3B3F57A4F05DA0CF1A0
:10897000010C5FFA8CFC02FA0CF34FF400424FF446
:10898000FA7000210027C2FB030184F874C00023A1
:108990004FF47A72E76628F0F5FF012385422067DD
:1089A00028BF054684F87530F9E6062292490DF194
:1089B000010027F00BFE00287FF4EBAE94F860C0B6
:1089C0004FF47A6202FA0CF3B3F57A4F05DA0CF140
:1089D000010C5FFA8CFC02FA0CF34FF400424FF4E6
:1089E000FA7000210027C2FB030184F860C0002355
:1089F0004FF47A72A76528F0C5FF01238542E06530
:108A000028BF054684F86130C3E606227B490DF194
:108A1000010027F0DBFD00287FF4B5AE94F84CC0D0
:108A20004FF47A6202FA0CF3B3F57A4F05DA0CF1DF
:108A3000010C5FFA8CFC02FA0CF34FF400424FF485
:108A4000FA7000210027C2FB030184F84CC0002308
:108A50004FF47A72676428F095FF01238542A06481
:108A600028BF054684F84D308DE6062264490DF195
:108A7000010027F0ABFD00287FF47FAE94F838C0EA
:108A80004FF47A6202FA0CF3B3F57A4F05DA0CF17F
:108A9000010C5FFA8CFC02FA0CF34FF400424FF425
:108AA000FA7000210027C2FB030184F838C00023BC
:108AB0004FF47A72276328F065FF012385426063D3
:108AC00028BF054684F8393057E606224D490DF196
:108AD000010027F07BFD00287FF449AE94F824C004
:108AE0004FF47A6202FA0CF3B3F57A4F05DA0CF11F
:108AF000010C5FFA8CFC02FA0CF34FF400424FF4C5
:108B0000FA7000210027C2FB030184F824C000236F
:108B10004FF47A72E76128F035FF01238542206225
:108B200028BF054684F8253021E6062230490DF19C
:108B3000010027F04BFD00283FF4E0AE002F3FF48A
:108B40003BAE082E0BD1304B30483149C01AC0081B
:108B5000000440F002000BF06BFC2DE6072606EB4C
:108B6000860604EB860469460722204627F03DFD71
:108B70004FF40031002201238D4228BF0D46E160F1
:108B80002274A2606374A37419E6236A9842C0F049
:108B9000D88094F82430002284F82520002B00F09F
:108BA000DF80B5F5A02F28BF4FF4A0251EE5E568AE
:108BB000A842C0F0D280237C6774002B00F088802C
:108BC0004FF4A025F4E4636B9842C0F0C08094F8A1
:108BD0003830002284F83920002B00F0C480B5F52D
:108BE000A02F28BF4FF4A0251EE500BFC93F0020DD
:108BF000DD3F0020B53F0020A13F00208D3F002039
:108C0000793F0020653F00208CD60500D4D80500B0
:108C100004210500A36C98427AD394F84C300022CA
:108C200084F84D20002B00F0AA80B5F5A02F28BFB6
:108C30004FF4A02516E5E36D984263D394F86030B5
:108C4000002284F86120002B00F09680B5F5A02F5B
:108C500028BF4FF4A02523E5236F98424CD394F806
:108C60007430002284F87520002B00F08280B5F566
:108C7000A02F28BF4FF4A02530E5D4F884309842C7
:108C800033D394F88830002284F88920002B6DD0EB
:108C9000B5F5A02F28BF4FF4A02540E594F89C30EF
:108CA000D3B1D4F894201044B0F5A02FC4F89400A8
:108CB00006D3013BA0F5A02084F89C30C4F89400B2
:108CC000C0F5A020854228BF054642E5082648E5B4
:108CD000A3744FF0FF356BE484F89E3039E584F8D7
:108CE0003A20A1E484F8262080E41B1A9D42C4F8AF
:108CF000843028BF1D4612E51B1A9D42236728BFFA
:108D00001D46EBE41B1A9D42E36528BF1D46C7E4E0
:108D10001B1A9D42A36428BF1D46A3E484F88A2041
:108D2000FDE484F87620D9E484F86220B8E484F87D
:108D30004E2097E41B1A9D42C4F8983028BF1D4668
:108D400007E51B1A9D42236228BF1D464EE41B1AED
:108D50009D42636328BF1D4666E42D1AE56027E443
:108D600084F8263042E484F83A305DE484F88A30AE
:108D7000D5E484F87630B1E484F8623090E484F885
:108D80004E306FE430B583B06946054601F05AF8BD
:108D9000002840F09D80574CA37CEBB994F8263016
:108DA0004BBB94F83A30002B35D194F84E30002B61
:108DB00041D194F86230002B4DD194F87630002BDD
:108DC00059D194F88A30002B65D194F89E30002B4D
:108DD00071D1002003B030BD0622611C0DF10100ED
:108DE00027F0F4FB0028D9D1607C0028F2D194F858
:108DF0002630002BD5D006223F490DF1010027F087
:108E0000E5FB0028CDD194F825000028E2D194F8A4
:108E10003A30002BC9D0062238490DF1010027F065
:108E2000D5FB0028C1D194F839000028D2D194F89C
:108E30004E30002BBDD0062231490DF1010027F044
:108E4000C5FB0028B5D194F84D000028C2D194F894
:108E50006230002BB1D006222A490DF1010027F023
:108E6000B5FB0028A9D194F861000028B2D194F88C
:108E70007630002BA5D0062223490DF1010027F002
:108E8000A5FB00289DD194F875000028A2D194F884
:108E90008A30002B99D006221C490DF1010027F0E1
:108EA00095FB002891D194F88900002892D194F87C
:108EB0009E30002B8DD0062215490DF1010027F0C0
:108EC00085FB002885D194F89D00002881D081E79A
:108ED0000CF06AFB0F4C104B1049E41AE408240410
:108EE00002462B4644F002000BF0D0FC012003B0F8
:108EF00030BD00BF503F0020653F0020793F00207B
:108F00008D3F0020A13F0020B53F0020C93F002039
:108F1000DD3F0020D4D805008CD605009420050044
:108F2000A0DF704710B582B00446042268460021D5
:108F300027F07FFB084B02AA1B6842F8043D6946F4
:108F40000123204642F6A624ADF800408DF80230F9
:108F5000FFF7E6FF02B010BD6421050070B50121E6
:108F600086B005463A4807F08FF9BFF35F8F08B126
:108F700006B070BD0446284600F0A4FC1128064641
:108F80005FD012D986283CD043F20203984214D114
:108F9000304B224628461978FEF762FCBFF35F8FFC
:108FA0002B4B00221A6006B070BD30B9294B024627
:108FB00019782846FEF754FCDAE730460CF0F4FA4C
:108FC000254C264B2649E41AE408240402462B4685
:108FD00044F001000BF05AFC002407232846CDE999
:108FE00000440296ADF80250CDE9034405948DF893
:108FF000003000F011FFADF80400684603F0B2F84D
:10900000C6E7164B144817490094C01AC00800045C
:1090100006232A4640F002008DF80030ADF80250D9
:10902000CDE90144CDE9034405940BF0AFFBBDF855
:10903000020000F0F1FEADF80400684603F092F87B
:10904000A6E7044B284619780122FEF709FCA5E79C
:10905000144000201A400020DCD805008CD6050002
:10906000A82105007021050070B54FF6FF728CB085
:1090700000249042CDE90044CDE90244CDE9044406
:10908000ADF8020001D10CB070BD054600F084FCC3
:109090000B28064644D00FD911280BD043F2020307
:1090A000984218D122462B4B28461978FEF7D8FB58
:1090B0000CB070BD0122F6E768B90E23BDF80200BE
:1090C0008DF8003000F0A8FEADF80400684603F00B
:1090D00049F83246E7E730460CF066FA1E4C1F4B63
:1090E0001F49E41AE408240402462B4644F0010018
:1090F0000BF0CCFB002407232846CDE90644089654
:109100008DF81830ADF81A50CDE909440B9400F0F1
:1091100083FEADF81C0006A803F024F82246C2E73F
:109120000E4B0D480F49C01AC00800040F232A46F1
:1091300040F002008DF800300BF028FBBDF8020073
:1091400000F06AFEADF80400684603F00BF8224612
:10915000A9E700BF19400020DCD805008CD6050027
:109160008C2305000C230500F0B53A4E87B031780A
:109170000546FEF759FB08B107B0F0BD0446284686
:1091800000F076FC0828074640D03CD943F20203A1
:1091900098425DD043F20143984254D0112857D0F1
:1091A00038460CF001FA2C4B2C4A2D49A3EB020C4B
:1091B0004FEADC0C4FEA0C4C02462B464CF0010007
:1091C0000BF064FB002307222846CDE90033CDE9EC
:1091D00003338DF8002005930297ADF8025000F09C
:1091E0001BFEADF80400684602F0BCFF01221D4BD7
:1091F00028461978FEF734FB224631782846FEF7D8
:109200002FFB07B0F0BD40B10628C9D1284600F0B9
:1092100003FE00F05BFC0022E9E710232846CDE9BD
:109220000044CDE90244CDE904448DF80030ADF8A6
:10923000025000F0F1FD0124ADF80400684602F090
:1092400091FF2246D3E72846FFF70EFF0122CEE723
:109250000122CCE71C400020DCD805008CD605009C
:10926000E02305001B40002070B54FF6FF728CB064
:1092700000249042CDE90044CDE90244CDE9044404
:10928000ADF8020001D10CB070BD054600F084FBC2
:109290000B28064644D00FD911280BD043F2020305
:1092A000984218D122462B4B28461978FEF7D8FA57
:1092B0000CB070BD0122F6E768B90E23BDF80200BC
:1092C0008DF8003000F0A8FDADF80400684602F00B
:1092D00049FF3246E7E730460CF066F91E4C1F4B5B
:1092E0001F49E41AE408240402462B4644F0010016
:1092F0000BF0CCFA002407232846CDE90644089653
:109300008DF81830ADF81A50CDE909440B9400F0EF
:1093100083FDADF81C0006A802F024FF2246C2E738
:109320000E4B0D480F49C01AC00800040F232A46EF
:1093300040F002008DF800300BF028FABDF8020072
:1093400000F06AFDADF80400684602F00BFF22460B
:10935000A9E700BF19400020DCD805008CD6050025
:109360008C2305000C2305002DE9F04104788CB016
:1093700014B10CB0BDE8F081468800944FF6FF733D
:109380009E420546ADF80260CDE90144CDE90344B3
:10939000059426D106AF304600F054FB28B1494B66
:1093A000304619780122FEF75BFA6C88204600F0FF
:1093B00033FD3A460023092101F090F9052826D013
:1093C000414B424918780022FEF76CFA0246002809
:1093D000CFD13F4B3F491878FEF764FA0CB0BDE897
:1093E000F081304600F0D8FA0B28804650D015D9CD
:1093F00011284AD043F2020398421FD1224606AFF9
:10940000354B30461978FEF72BFA6E88C3E7304BA0
:10941000204619780122FEF723FAD1E770B90E230E
:10942000BDF802008DF8003000F0F6FCADF8040045
:10943000684602F097FE06AF4246E1E740460CF070
:10944000B3F8264C264B2749E41AE40824040246C4
:1094500006AF44F0010033460BF018FA002407234E
:1094600030460694CDF820808DF818307C60ADF839
:109470001A60C7E903447C6100F0CEFCADF81C0023
:10948000384602F06FFE2246BAE7012206AFB7E780
:10949000134B12481449C01AC00800040F23324667
:1094A00040F002008DF800300BF070F9BDF80200BA
:1094B00000F0B2FCADF80400684602F053FE06AFBF
:1094C00022469DE71B4000201A4000205D8F0200CD
:1094D00018400020258F020019400020DCD805002C
:1094E0008CD605008C2305000C230500F0B503780D
:1094F000082B83B00ED0304C207830490022FEF784
:10950000D1F9024620B92E4B2E491878FEF7CAF938
:1095100003B0F0BD457A0446002DECD1067A072E43
:1095200022D0082E3ED0012EE5D16A4631468088F1
:1095300001F090FC05460028DDD1019B1B78002B33
:10954000D9D0A08800F036FD4FF6FF739842D2D0F4
:109550001D4F194C39783246FEF782F92A46387881
:109560001A49FEF79FF9C7E78088134C00F022FDE7
:109570004FF6FF7398420646BED001222178FEF7CF
:109580006FF9304600F048FC2B466A46092101F08D
:10959000A5F80528B0D10A4B304619780122FEF70C
:1095A0005FF9A9E70A4B1A68012AA4D1BFF35F8FBC
:1095B000014C1D60A0E700BF1A4000205D8F020033
:1095C00018400020258F02001B40002069910200F6
:1095D00014400020F8B5FEF71DF9194C194D207004
:1095E000FEF718F92870FEF715F9174E174F30706F
:1095F000FEF710F93870FEF70DF92378144A182B8E
:10960000107010D02B78182B0DD03378182B0AD06F
:109610003B78182B07D0182805D00E4B0020186077
:10962000BFF35F8FF8BD0C4B0C480D49C01AC00842
:10963000000440F001000AF0FBFE0320F8BD00BF6B
:109640001A400020194000201B4000201C40002030
:1096500018400020144000208CD60500DCD80500FE
:109660009C22050070B503888588353B86B004468A
:109670001F2B4ED8DFE803F04F4D4D4D4D4D4D4D56
:109680004D4D4D4D4D4D4D4D4D4D4D4D4D4D4D4D0A
:109690004D4D4D4A4D454D10002611232846CDE92C
:1096A0000066CDE902668DF80030ADF80250CDE9D4
:1096B000046600F0B1FBADF8040000F007FA524B6D
:1096C000524C197832462846FEF7CAF832462846E8
:1096D0002178FEF7C5F8BDF8020000F09DFBADF85B
:1096E0000400684602F03EFD494B4A4918780022C2
:1096F000FEF7D8F8207848490022FEF7D3F806B0E4
:1097000070BD2846FFF7B0FC404CEDE7037B012B12
:109710004FD03E4CE8E7414B002219782846FEF72F
:109720009FF8E288B2F5857F20D0002A68D162894F
:10973000012A5AD1A289012A0ED1A47B384B39487B
:10974000ADF8002000210922ADF802108C4208BFBC
:1097500003468DF8022013E03348344B3449C01AD5
:10976000C008000440F002000BF010F809230021AB
:109770000122ADF802108DF802302A4BADF800201E
:109780002846019300F048FB0022694601F022F8C8
:109790000028BED00BF008FF244A234B25491B4C60
:1097A0009B1ADB081B04024643F002000AF0EEFF9E
:1097B0009AE7827A012AACD1018942F602139942D2
:1097C000A7D11D4C28462178FEF74AF800222078C0
:1097D0001A49FEF767F8024600289AD10F4B18493C
:1097E00018780A4CFEF75EF87EE7104B0E481549D4
:1097F000C01AC008000440F002000AF0C7FF99E751
:1098000009480A4B1049AAE71C4000201B400020D1
:10981000194000206992020069910200184000205E
:109820006C21050068210500DCD805008CD60500F8
:1098300060220500202405001A4000205D8F0200F0
:10984000258F020024220500E8210500AFDF7047C4
:10985000B1DF7047B2DF7047B3DF704770B5134CAC
:1098600023884FF6FF75AB4282B00DD0104A92E8C4
:1098700003006E4686E8030000221846314600F0D9
:10988000A9FF2388AB420CD102B070BD184601F08D
:1098900015F800223146208000F09CFF2388AB425F
:1098A000F2D01128F2D102B070BD00BF1E400020DE
:1098B00094240500024B4FF6FF721A800020704777
:1098C0001E4000202DE9F04782B0804600F0A4FA47
:1098D0004FF6FF73984253D02C4F2D4BDFF8B4A0B6
:1098E000FF1AFF083F04064647F0010701224FF028
:1098F00003096B4608213046541C01F0AFFAA4B2AC
:109900000546032358BB019A4046911D42F8049B2B
:10991000FFF7A0FF0821034648B30C2B304614D1B3
:1099200001F01CFC08B92246E3E701250BF03CFEE0
:1099300032460346514638460AF0A8FF002DF2D1C0
:109940000325284602B0BDE8F0870821052B18BF83
:109950001D4601F003FC0028F3D00025E6E70728A8
:1099600014BF05460C25284602B0BDE8F0873246F4
:10997000304601F08FFC0546284602B0BDE8F0876E
:1099800043F20205284602B0BDE8F087E4D805009E
:109990008CD605001C2505002DE9F04383B08046D8
:1099A00000F03AFA4FF6FF73984229D100273E465D
:1099B00003254FF001092B463A4631464046FFF752
:1099C00047FF042804460BD008280BD00B280BD0E7
:1099D000B9F1000F08BF0B24204603B0BDE8F083A7
:1099E0001124F5E70024F3E715F0020506D196B13E
:1099F0002F462E4603254FF00009DCE70125FAE744
:109A00006A46082101F026FA0028CFD1019EB788C6
:109A100035680636CDE717B137460325EBE7064B29
:109A200006480749C01AC0080004424640F0010039
:109A30000AF0ACFED0E700BF8CD60500E4D80500E4
:109A4000A424050000B585B00DF10703039300F0D1
:109A5000E3F902AA012101F0FDF920B9039B18786E
:109A600005B05DF804FB002005B05DF804FB00BF05
:109A700038B5124B04461846FFF7EEFE78B9198840
:109A800043F203054FF6FF722046FFF7DFFEA842C0
:109A900000D038BD1988013189B21980F2E70BF086
:109AA00083FD074A074B08499B1ADB081B04024643
:109AB00043F001000AF06AFE032038BD2040002078
:109AC0008CD60500E4D805009C25050010B5074B91
:109AD000044693E8030082B06B4683E8030000224B
:109AE0001946204600F076FE02B010BD9C24050009
:109AF00046DF70470388102B00D0704770B5041DF7
:109B00000FCC9EB007AD0FC50FCC0FC594E8070072
:109B10009DF8203003F0FE03062B85E8070014D1E2
:109B2000BDF81C306B49089803EB83035B004FF6CC
:109B3000FF74CC52CA18BDF824409DF8261011724B
:109B4000C2F80200D4801EB070BD00F00DFE9DF87A
:109B500020305B08012B13D9022BE1D105AD0DF1AB
:109B6000060405E09DF8203003F0FE03042B4CD0E2
:109B70002A462146072000F0FFFD0028F2D1CFE75A
:109B800005AD0DF106042A462146072000F0F4FD3C
:109B90000028C5D0069911F1110FF4D09DF820309E
:109BA0004A7C534013F0FE0FEDD1123106220DF125
:109BB000210026F00BFD0028E5D1BDF81C20454D05
:109BC000BDF80610089802EB82035B00EC18E9521E
:109BD000A31CC4F80200BDF8240098804FF6FF7063
:109BE0009DF826409C718142ADD01EAC002304F844
:109BF000303D2046ADF84A20ADF84C1002F0C6FAD0
:109C00002046FFF7B1FB1EB070BD069E03220DF18A
:109C1000210102A826F0E9FC032209A904A826F0E4
:109C2000E4FC337C8DF84830F37B8DF84930B37B0E
:109C30008DF84A30737B8DF84B30337B8DF84C3088
:109C4000F37A8DF84D30B37A8DF84E30737A8DF803
:109C50004F30337A8DF85030F3798DF85130B37935
:109C60008DF8523073798DF8533033798DF8543044
:109C7000F3788DF85530B3788DF8563073788DF8C9
:109C800057300D22002116A826F0D3FC9DF81010A5
:109C90009DF811209DF812308DF8671012A88DF8EC
:109CA00066208DF86530FFF723FF9DF877209DF83B
:109CB00076609DF875308DF80C2003A9032202A868
:109CC0008DF80D608DF80E3026F080FC00287FF4B2
:109CD0004FAF72E724400020F8B5102204460D462D
:109CE0000130013104F1110626F070FC00284DD13D
:109CF0006378F3B9A378E3B9E378D3B92379C3B927
:109D00006379B3B9A379A3B9E37993B9237A83B912
:109D1000637A73B9A37A63B9E37A53B9237B43B9FE
:109D2000637B33B9A37B23B9E37B13B9277C002F73
:109D30002DD06B78002B4DD1AB78002B4AD1EB782E
:109D4000002B47D12B79002B44D16B79002B41D1CB
:109D5000AB79002B3ED1EB79002B3BD12B7A002B3A
:109D600038D16B7A002B35D1AB7A002B32D1EB7A1C
:109D700083BB2B7B73BB6B7B63BBAB7B53BBEB7B33
:109D800043BB2F7C003718BF012700E00027637C0E
:109D900046B115F1110605D06A7C5A4012F0FE0F4B
:109DA0000CD0002603F0FC03042B05D06B7C03F0E1
:109DB000FC03042B18BF37463846F8BD062205F1D0
:109DC000120104F1120026F001FCB0FA80F67609C7
:109DD000637CE7E70127DAE730B585B005460C4636
:109DE00000F0C2FC03E0BDF80630A3420BD102AA8A
:109DF0000DF10601072000F0BFFC0028F3D14FF65B
:109E0000FF7005B030BD03992846FFF765FF0028B5
:109E1000EDD0BDF80600F4E713280DD810B50446C0
:109E2000FDF78AFC28B104EB8403054A32F81300DD
:109E300010BD4FF6FF7010BD4FF6FF70704700BFAA
:109E400024400020132816D838B504460D46FDF7E7
:109E500073FC68B1094A04EB840302EB430300205E
:109E600053F8022F2A609A889B79AA80AB7138BD7B
:109E700043F2020038BD43F2020070472440002044
:109E800008B502887AB983786BB9C3785BB903796E
:109E90004BB943793BB983792BB9C3791BB9037AA1
:109EA0000BB9437A13B10B88934201D0002008BD4F
:109EB00002310822023026F089FBB0FA80F0400916
:109EC00008BD00BF30B585B00446851C00F04CFCD1
:109ED00002AA0DF10601072000F04EFC00285AD01E
:109EE00023880399002B35D1A278002A57D1E37833
:109EF000002B49D12279002A46D16279002A43D128
:109F0000A279002A40D1E279002A3DD1227A002AA2
:109F10003AD1627A002A37D12379002B2FD1627986
:109F200052B9A379002B2AD1E2792AB9237A002BDE
:109F30003AD1627A002ACBD04A8D9A42C8D12C31CC
:109F40000822284626F042FB0028C1D1BDF80600B1
:109F500005B030BDB1F846209A42EDD14831082213
:109F6000284626F033FB0028F0D023880399002BE5
:109F7000E2D1A278002ADFD1E378002BCCD04A8D41
:109F800000239A42A4D1DAE7B1F84620002AE5D0AE
:109F9000002BC1D0F3E74FF6FF7005B030BDB1F82C
:109FA0004620002ADAD0C7E713464A8D9A428FD15D
:109FB000C5E700BFF8B54FF6FF73984214D00746C7
:109FC0000B4D002401E0142C0ED02B88BB42A6B20E
:109FD00005F10A0504F10104F5D13046FDF7ACFBAB
:109FE0000028F0D03046F8BD4FF6FF763046F8BD79
:109FF00024400020038893B9837883B9C37873B968
:10A00000037963B9437953B9837943B9C37933B9D0
:10A01000037A23B9407A003018BF0120704701202D
:10A02000704700BF132804D800EB8000014B23F8D1
:10A030001010704724400020F8B54FF6FF73984287
:10A0400003D1BDE8F84000F029BE114F06460024B8
:10A050003D4602E00134142C14D02B88B342A0B248
:10A0600005F10A05F6D1FDF767FB0028F2D030466E
:10A0700000F014FE28B904EB84044FF6FF7327F8B0
:10A080001430F8BD3046BDE8F84000F007BE00BF10
:10A090002440002081DF7047F0B5294B83B093F84E
:10A0A000802340260196002A46D193F8043703F016
:10A0B000FF02002B40D1234B234C244F24493A70FC
:10A0C000E41AE408240444F004000AF0B1F9214B36
:10A0D000214A2249224807F01BFD054698B901AAEA
:10A0E00020491C4807F0B6FD0546A8B91D4A1B4883
:10A0F0003346114607F0D0FD0546B0B90123284686
:10A100003B7003B0F0BD44F001002A4616490AF046
:10A110003DFB284603B0F0BD44F001002A46134938
:10A120000AF034FB284603B0F0BD44F001002A4693
:10A130000F490AF02BFBECE71125284603B0F0BDD0
:10A140002C4800208CD60500A4D80500C847002064
:10A15000942605006C520020344F0020483805003A
:10A160007C440020EC470020AC260500E4260500D6
:10A170001C27050038B54FF4E1620021184826F08D
:10A1800058FA0AF069FF174B174A9B1ADB081C04A0
:10A19000E8B907F011FF054688B944F004042046E9
:10A1A00012490AF045F9204611490AF041F9114BCC
:10A1B000114A1D701570BDE83840FFF76DBF44F0BF
:10A1C00001002A460D490AF0E1FA284638BD054645
:10A1D0002A4644F001000A490AF0D8FA284638BD58
:10A1E0002C480020A4D805008CD605006026050068
:10A1F00078260500C8470020EC40002038260500DE
:10A200001426050010B5084B1C780CB1074810BD8A
:10A21000074B08480849C01AC008000440F0010074
:10A220000AF006F9204610BDC8470020EC47002080
:10A230008CD60500A4D80500B02705004F4B1B782D
:10A24000002B70D12DE9F0414D4B4E484E4DC01AB8
:10A25000C00895F88033000484B040F0020640F056
:10A2600003043BB995F80437002B31D1002004B02A
:10A27000BDE8F081454B1B784FF02008CDF80C80ED
:10A28000002B53D095F880334BB103AB009340497A
:10A29000404B41482A4607F03BFD002851D03F493A
:10A2A00030460AF0C5F820213A4807F0BDFE0028E4
:10A2B0004FD100223A4920460AF068FA3549002079
:10A2C000FFF7E8FE002385F880330028CAD0CEE7E8
:10A2D0002E4B1B78202703973BB395F804374BB1DF
:10A2E00003AB00932F4A2B4B29492B4807F010FD55
:10A2F000002839D0304629490AF09AF8202125480B
:10A3000007F092FE002837D12046012224490AF0A6
:10A310003DFA20490120FFF7BDFE002385F80437F0
:10A320000028A3D0A3E70320704701234FF46172F4
:10A3300002FB03530320002283F8802304B0BDE80E
:10A34000F081144A18484346114607F0A5FC00283E
:10A35000AFD000234FF4617202FB0355002385F850
:10A36000803304B0BDE8F0810A4A0F483B461146ED
:10A3700007F092FC0028C7D00123EBE7EC40002057
:10A380008CD60500A4D805002C480020C847002022
:10A39000344F0020CC470020F0400020F427050077
:10A3A00028280500B04B00204838050070B5038808
:10A3B0008688112B90B025D0182B21D1204B214D10
:10A3C0002149ED1AED0804462D0445F004000AF079
:10A3D0002FF8A1681D486A46402307F05DFC04463B
:10A3E000D0B91B4B19484FF4617202FB0636314657
:10A3F0006A46402307F00CFCC8B9012386F8803375
:10A4000010B070BD124A4FF4617303FB062600239F
:10A4100086F8803310B070BD02460E4945F0010049
:10A420000AF0B4F90C4B01221A7010B070BD02464C
:10A430000A4945F001000AF0A9F986F88043DFE7F0
:10A440008CD60500A4D8050054270500483805001F
:10A450002C4800201C270500EC4000207427050034
:10A46000F0B500238DB02A4F1946082201A83B7091
:10A4700026F0DFF84FF6FF7001F02AF84FF6FF766E
:10A48000B0421BD0044607E000F0C6FF204601F0B2
:10A490001FF8B042044611D0A4F58045ADB228465D
:10A4A00001AA03A909F0B6F80A282046ECD02846EC
:10A4B00008F05CFF0828054602D02DB90DB0F0BDAC
:10A4C00001233B700DB0F0BD124B13481349C01A65
:10A4D000C008000423462A4640F001000AF0D6F9DD
:10A4E0000726002301214FF6FF7206A8CDE90633A7
:10A4F000CDE9093308950B93ADF81C408DF8186031
:10A500008DF82410ADF81A2000F062FA0DB0F0BDFD
:10A51000F45500208CD6050004D905004C2905000F
:10A5200010B58289047886B002F58042002392B289
:10A53000611ECDE90033CDE90233ADF80420CDE949
:10A540000433042911D8DFE801F033333317030053
:10A550004368002B56D113224FF0FF3368468DF825
:10A560000020CDF8023000F033FA304C23780BB1E4
:10A57000FFF776FF06B010BD43F6FE739A42F4D89B
:10A58000C389002BF1D14368002B47D00B21012256
:10A5900002938DF800108DF80C20244C01224FF608
:10A5A000FF7368462270ADF8023000F011FADDE763
:10A5B00043F6FE739A42C1891ED8D0E90132A4F154
:10A5C0000304B4FA84F464098DF808108DF8094086
:10A5D0000392EBB99DF8103043F001038DF8103071
:10A5E00008224FF6FF7368468DF80020ADF8023060
:10A5F0000E4C00F0EDF9B9E701F5804292B29A42B3
:10A60000DBD9B2E701228DF80C2002931422A3E7D4
:10A6100001228DF8142004930922E2E70A23104650
:10A620008DF8003000F0F8FEB7E700BFF4550020C9
:10A6300030B5254889B008F027FB002834D108F050
:10A6400039FB054608BB00F0AFFE03A808222946E7
:10A6500025F0EFFF0DE005A808F0FCFC019B9C88AD
:10A6600004F58044A4B205A808F01CFD204600F0C3
:10A67000A3FE05A903AA4CF2070008F05DFF01A99B
:10A680000028E8D0284609B030BD104B10481149C9
:10A69000C01AC00800042A4640F001000AF076F80B
:10A6A0008625284609B030BD084A094B0A499B1A3D
:10A6B000DB081B04024643F001000AF067F803259B
:10A6C000284609B030BD00BF21A502008CD6050088
:10A6D00004D90500B428050070280500F0B5FF284E
:10A6E00087B004D8012906D00C1F052C03D90724F4
:10A6F000204607B0F0BD0D4604460021174601A8CC
:10A7000008221E4625F095FFA4F58040A5F580415E
:10A7100080B201AB03AA89B208F09CFEE0B901A99E
:10A7200003A808F097FC0446B0B9019BBD705B8894
:10A730003B800299A6B1368878689D00AE4228BF5A
:10A740002E46324625F051FFB5420BD803A808F03B
:10A75000A9FC204607B0F0BD0524204607B0F0BD97
:10A760007960F3E70C24C3E708220021014825F0B3
:10A7700060BF00BFEC550020012804D0031F052B4B
:10A7800001D90120704770B5044686B0A0F580401D
:10A7900015460E4680B203A90D4A08F0CDFE10B151
:10A7A000002006B070BD01A903A808F053FC0028E2
:10A7B000F6D1019BAC705988029A29806A609B8807
:10A7C00003F5804303A8338008F06CFC0120E8E720
:10A7D000EC550020F0B5FF2889B005D88C78012C05
:10A7E00006D0231F052B03D90724204609B0F0BD4E
:10A7F0004B680393A0F58046A4F580440B8804932E
:10A80000A4B2B6B200211746054608226846ADF844
:10A810000A40ADF8086025F00CFF214630466B4633
:10A8200005AA08F017FE80B902A905A808F0FEFCE9
:10A8300004460E2C1CD8DFE804F0141B1B1B1B1B4A
:10A840001B120E1B1B1B1B1B0E0002A905A808F0E8
:10A850004FFC0446EDE71124204609B0F0BD8624E4
:10A86000C3E7002FC1D0394605A808F041FFBCE777
:10A87000064B07480749C01AC008000422462B4669
:10A8800040F001000AF002F80324AEE78CD6050080
:10A8900004D90500F42805004FF6FF7000F08CBDC8
:10A8A000FF2806D808B500F0A5FDFFF7D9FD002068
:10A8B00008BD0720704700BF00F0C2BD00F0CABD50
:10A8C00000F006BE30B583B08278417A044600239A
:10A8D0003948CDE900338DF8022001F0CDFE002883
:10A8E0005CD0237AA178019003EB83039B004A1E7E
:10A8F000ADF800308DF80210072A08D8DFE802F022
:10A900001E070707071E042B1423ADF80030694605
:10A91000221D2088FFF75EFF07280DD012D91128CD
:10A9200030D086281DD1A37A244A03F0FD0343F0DA
:10A9300001030121A372117003B030BD0123ADF8F2
:10A940000030E4E768B9A37A60F3410360F30003E1
:10A95000A37203B030BD838809339B08ADF8003083
:10A96000D5E70AF021FE164D164A23881649541BD6
:10A97000E4082404024644F0010009F087FF0320A4
:10A9800003B030BDA37A0D4A43F002036FF3000316
:10A9900001210020A372117003B030BD084B09489B
:10A9A000627A0A49C01AC008000440F0010009F0A8
:10A9B000EDFE0320C0E700BF3C57002038570020C1
:10A9C0008CD60500FCD80500482B0500082B050097
:10A9D0002DE9F041754DC3686A68934286B004461C
:10A9E00000F0E0802A69934200F0DE80EA69934239
:10A9F00000F0D280AA6A934208BF032600F0CD80FF
:10AA000000262378092B00F0A180132B71D0082B8E
:10AA100042D0204601F064FA204602F0BBFF644FAA
:10AA20002046FEF71BFF2046FEF760FD3B7813B97A
:10AA300006B0BDE8F08100233B7000244FF0010810
:10AA40006600331905EB830318469B7A9A0746D5AF
:10AA500087F80080FFF736FF0346002843D03444D0
:10AA6000A4004FF6FF72295BADF80410862BADF8F9
:10AA700002207AD106238DF80030684601F030FAC2
:10AA8000684602F087FF6846FEF7E8FE6846FEF774
:10AA90002DFD06B0BDE8F081677A002FB9D1002EF8
:10AAA000B7D0337A5BB1DFF81881717A3944C9B213
:10AAB000404601F0FBFD337A01379F42F5D3B37A6C
:10AAC00003F0FD036FF300034FF6FF72FF21B37233
:10AAD00000233280B27071723372736099E7D907C4
:10AAE00048BF87F800800134042CA9D106B0BDE826
:10AAF000F081204601F0F4F9204602F04BFF2C4F84
:10AB00002046FEF7ABFE2046FEF7F0FC3B78002B1C
:10AB10008ED000243C704FF001086600331905EB1D
:10AB200083039B7A9A0701D4DB0709D5301905EB1B
:10AB3000800087F80080FFF7C5FE034600288ED10D
:10AB40000134042CE9D106B0BDE8F081637A002B12
:10AB50007FF45FAF002E3FF45CAFB27A144F7360A6
:10AB600042F00202B2723B7067E7072100221846EA
:10AB700002938DF800108DF80C200E4E0AF014FD93
:10AB80000D4A2B5B0D49941BE4082404024644F053
:10AB9000010009F07BFE70E7022606EB460605EB96
:10ABA00086062EE70026F8E70126F6E74C57002038
:10ABB000385700208CD60500FCD80500CC290500AC
:10ABC0003C57002070B52E4C2E4BA27AA57D94F8F0
:10ABD000221094F82E0002F0FD026FF3000205F03F
:10ABE000FD05A272002262F30005FF2601F0FD01BF
:10ABF00000F0FD0062F3000162F3000082B06672B3
:10AC0000A57550260425CDE9005622724FF6FF7532
:10AC100062602275226184F82020E26184F82C2091
:10AC2000A26284F8221084F82E004FF4A072164914
:10AC300016482580A570A581A57365752583A57621
:10AC400084F82150A58484F8265084F82D5001F012
:10AC5000B5FC18B90346184602B070BD0AF0A4FC52
:10AC60000B4A0C4B0C499B1ADB081B04024643F0B1
:10AC7000010009F08BFD0323184602B070BD00BF30
:10AC80004C5700207C570020F85500203C570020EE
:10AC90008CD60500FCD80500AC2905002DE9F0474D
:10ACA000DFF8A091B9F800308342054600F0BE807D
:10ACB000B9F80C30834200F0BB80B9F818308342F9
:10ACC00021D0B9F82430834208BF03261CD028467F
:10ACD000FFF7E6FD034608B1072802D11846BDE894
:10ACE000F0870AF061FC534C534B5449E41AE408D2
:10ACF000240403462A4644F0010009F0C7FD03235B
:10AD00001846BDE8F087022606EB4602B9F824C0D3
:10AD1000DFF83C814A4F09EB8202B9F80030AB42C0
:10AD200028D0B9F80C30AB427AD0B9F81830AB4221
:10AD300073D0654577D0731C042BC8D003EB430256
:10AD400039F82220AA425AD0B31C042BBFD003EBFF
:10AD5000430239F82220AA4251D0002EB7D1B9F8C7
:10AD600024C06545B3D1B9F80030AB424FF00306BB
:10AD70004246D6D1334C00219078A37883421AD032
:10AD80004B1C042BD7D003EB430239F82220AA42F4
:10AD90003DD08B1C042BCED003EB430239F822208C
:10ADA000AA4234D00029C6D16545C4D14446032106
:10ADB000A3788342E4D1A37A9B07E1D16368002B97
:10ADC000DED1227A5AB19A46617A5144C9B23846E4
:10ADD00001F06CFC237A0AF1010A9A45F4D3A37AB4
:10ADE00003F0FD034FF6FF7100226FF30003FF2015
:10ADF000A3722180A1706072227262609BE703EBF4
:10AE000043021E4609EB8202B9F824C085E703EB32
:10AE10004304194609EB8404AFE70B4C0221ABE76E
:10AE20000A4C0121A8E744460321A5E700266BE769
:10AE3000012669E7FCD805008CD605002C2A050000
:10AE40003C5700204C5700206457002058570020E2
:10AE5000705700200023FFF741BC00BF2DE9F04FE1
:10AE600083B001927BB3CC1F012C28D8541E032C35
:10AE700025D8B44FB7F80090484500F09080BC89C1
:10AE8000844200F08E803C8B844220D0BC8C844273
:10AE900000F089804FF6FF74A14500F0B980BD89AC
:10AEA000A54200F031813D8BA54200F02B81BD8C85
:10AEB000A54200F0F680112003B0BDE8F08F072016
:10AEC00003B0BDE8F08F0E2003B0BDE8F08F022480
:10AED000BD8C04EB4408854207EB880866D098F8DF
:10AEE00002B0651C02344FEA450C66008B450CEB42
:10AEF000050E06EB040A0FD0042DCBD037F82EE058
:10AF0000864536D0042CC5D037F82A508542C1D1A9
:10AF1000264407EB8608E2E798F80AB01BF0030F17
:10AF2000EAD1D8F80420002AE6D198F80800019A5E
:10AF3000904221D10F4698F80910019DFF291E4625
:10AF40001CD00024804888F8085001F095FB0028A8
:10AF500000F0998005EB8502120192B292083280CE
:10AF6000B77070600CB1082F14D0002003B0BDE89A
:10AF7000F08F2C466646CBE70F20A1E729467248A2
:10AF800001F032FBFF28014688F8090000F0BE807E
:10AF90000124D7E79300063B8380002090E700243C
:10AFA00096E7012494E7032407F12408DFF8A8C1F9
:10AFB00098F802508D421CD0651C042D3FF46AAFF6
:10AFC00005EB450637F8266086421BD0A51C042DEC
:10AFD0003FF460AF05EB450637F82660864211D096
:10AFE000002C7FF457AFE046032498F802508D42BE
:10AFF000E2D198F80A50AE07DED1D8F80450002DFF
:10B00000DAD192E705EB45082C4607EB8808CFE735
:10B010000024BD8C4FF6FF7A04EB4408554507EB3E
:10B02000880841D098F80250661C02344FEA460E58
:10B030004FEA440CFF2D0EEB06090CEB040B12D06B
:10B04000042E3FF438AF37F82950554518D0042C5A
:10B050003FF431AF37F82B5055457FF42CAFA44463
:10B0600007EB8C08DEE798F80A50AD07E8D1D8F86E
:10B070000450002DE4D1A8F8000088F8021059E728
:10B080003446F446EBE7314B314898F80920314912
:10B09000C01AC008000440F0010009F077FB03204B
:10B0A0000EE7DFF8B4800324DFF8ACC04FF6FF767C
:10B0B00098F80250FF2D1CD0651C042D3FF4FBAE08
:10B0C00005EB450E37F82EE0B64534D0A51C042D0F
:10B0D0003FF4F1AE05EB450E37F82EE0B6452AD029
:10B0E000002C7FF4E8AEE046032498F80250FF2DD0
:10B0F000E2D198F80A50AA07DED1D8F80450002D02
:10B10000DAD1B8E7022484E7012482E798F80A300C
:10B1100088F8020003F0FD0300226FF300034FF6EE
:10B12000FF7188F80A30A8F8001088F80820C8F8DD
:10B1300004201120C4E605EB45082C4607EB8808DF
:10B14000B6E700BF4C5700203C5700208CD60500C6
:10B15000FCD80500802A0500705700202DE9F8432F
:10B16000494E3388834289460BD0B389834259D0F4
:10B17000338B834258D0B38C834257D00520BDE82F
:10B18000F8830023B28C03EB4305824206EB85056E
:10B190004FD095F802C05A1C023357005C00CC45D2
:10B1A00007EB020E04EB03080FD0042AE6D036F8B2
:10B1B0002E50854230D0042BE0D036F82820824231
:10B1C000DCD11C4406EB8405E3E795F80AC01CF0CB
:10B1D000030FEAD169680029E7D12B7A5BB12B4EC6
:10B1E0000024697A2144C9B2304601F05FFA2B7A13
:10B1F00001349C42F5D3AB7A03F0FD034FF6FF72A6
:10B2000000206FF30003FF21AB722A80AA706972DD
:10B2100028726860BDE8F88313463C461C4406EB80
:10B220008405B6E70123ADE70223ABE7032306F16C
:10B230002405174FAA784A4518D05A1C042A9DD0D5
:10B2400002EB420436F82440844216D09A1C042AA9
:10B2500094D002EB420436F8244084420DD0002BF7
:10B260008CD13D460323AA784A45E6D1AA7A9207B3
:10B27000E3D16A68002AE0D1AFE702EB420513464A
:10B2800006EB8505D6E700BF4C5700203C57002051
:10B2900070570020CB1F012B01D9072070472DE9E3
:10B2A000F0478046104692468946FFF705FB78B185
:10B2B0003B490B8843450ED08B89434541D00B8BCE
:10B2C00043453CD08B8C43453DD00520BDE8F087FD
:10B2D0000720BDE8F08700238A8C03EB4305424535
:10B2E00001EB850532D0AE785C1C02334FEA440C8A
:10B2F00058004E450CEB040700EB030E0FD0042C56
:10B30000E3D031F82760464516D0042BDDD031F864
:10B310002E404445D9D1C51801EB8505E3E7AA7A4B
:10B320009607ECD16A68002AE9D1A5F800A0284662
:10B33000BDE8F047FFF7C6BA23466046EBE70223B5
:10B34000CAE70123C8E7032301F12405154CAA78B5
:10B350004A4518D05A1C042AB7D002EB420031F8F3
:10B360002000404516D09A1C042AAED002EB4200C1
:10B3700031F8200040450DD0002BA6D125460323EF
:10B38000AA784A45E6D1AA7A9207E3D16A68002AE8
:10B39000E0D1CAE702EB4205134601EB8505D6E78B
:10B3A0004C5700207057002040220021014825F012
:10B3B00040B900BF805700204FF6FF73984210B588
:10B3C00009D0FF2804460FD80146094804F0F4FECE
:10B3D00050B9204610BD4FF48071054804F010FFAD
:10B3E00080B2B0F5807FF5D14FF6FF7010BD00BF81
:10B3F0008057002008B54FF6FF73984208D0FF2809
:10B4000006D80146034804F0D7FE08B9012008BD5C
:10B41000002008BDA0570020FF2800D9704710B5B4
:10B4200001460446044804F0D7FE21460348BDE81F
:10B43000104004F0D1BE00BF80570020A05700206C
:10B44000FF2801D9002070470146014804F0CEBE14
:10B45000805700204FF6FF7398422DE9F04130D01D
:10B46000013086B2FF2E27D8174C03E09EB2B6F506
:10B47000807F21D03146204604F0B8FE731C00289E
:10B48000F4D0DFF84880A8F120073146404604F0A8
:10B49000ADFE98B1741CA4B2B4F5807F0CD0A5B2F7
:10B4A0002146384604F0A2FE01342E46A5B20028FB
:10B4B000EBD1B5F5807FF3D14FF6FF763046BDE88E
:10B4C000F0810026D0E700BF80570020A057002061
:10B4D00038B54FF6FF73984216D0013084B2FF2C76
:10B4E0000ED80A4D03E09CB2B4F5807F08D0214607
:10B4F000284604F07BFE631C0028F4D0204638BDAB
:10B500004FF6FF74204638BD0024EAE7A05700201C
:10B5100076DF7047F0B5027885B00446142A00F251
:10B520001E81DFE812F024002400A3006100240043
:10B5300024008700CD002400E200FE00BB007B0059
:10B5400015002400D40024002400240024009300CB
:10B5500080680AF029F89A4B9A4A9B499B1ADB08A3
:10B560001B04024643F0010009F010F9227822B1D1
:10B57000072A00F0E38005B0F0BD648803A92046E7
:10B5800000F0C4FE43F20202904202D008B10DF076
:10B59000BFF99DF80C1011F00201ECD1204600F02B
:10B5A000A3FE06460028E6D01128E4D0844D854B42
:10B5B000ED1AED080D284FEA054500F0DC800B2858
:10B5C00000F0F78043F20203984200F0EB8009F0AC
:10B5D000EBFF234602467D4945F0010009F056F98C
:10B5E00030460DF095F9C6E74088764EFCF7AEF888
:10B5F000734B774A257A52F820207649981BC00869
:10B6000051F825506189638801910004009540F04C
:10B610000300714909F044FA2278A8E7694B6848A9
:10B620006E49C01AC008000440F0030008F000FF93
:10B6300022789CE7634B62486949C01AC00800043D
:10B6400040F0020008F0F4FE227890E7806809F0EC
:10B65000ABFF5C4A5A4B63499B1ADB081B0402464A
:10B6600043F0020009F092F8227880E74088554EB6
:10B67000FCF76CF8524B564A257A52F8202055496F
:10B68000981BC00851F8251063880091000440F011
:10B690000300554909F07CF9227868E78068A6889C
:10B6A000474D09F081FF474B5049ED1AED082D0435
:10B6B0000346324645F0010009F0E8F8227856E7E3
:10B6C000806809F071FF3E4B3E4A494946E73C48D5
:10B6D0003C4D6288A3884749401BC008000440F0E5
:10B6E000020009F0D3F8227841E7057A427A42490C
:10B6F000424B006951F8256053F82270A58809F083
:10B7000053FF304B2E490190C91AC90809042A4633
:10B7100041F0020000973346394909F0C1F9227817
:10B7200025E7284B2648A2883649C01AC0080004DD
:10B7300040F0010009F02AF8227818E7214B204850
:10B740003149C01AC008000440F0010008F070FE42
:10B75000A06800283FF40FAF0DF0DAF80BE7194BA3
:10B7600017482A49C01AC008000440F0020009F036
:10B770000DF82278FBE645F00205284624492246CA
:10B7800009F004F813212046FFF7C2FE00283FF419
:10B79000F2AE09F009FF234602461E49284609F089
:10B7A00075F8E8E6224645F002001B4908F0EEFF76
:10B7B000E1E6224645F00200184908F0E7FFDAE624
:10B7C000ECD805008CD60500F82D050000300500EA
:10B7D000A82B0500B42B0500A82C0500E42D0500BE
:10B7E000FC2C0500582E0500682C0500B42D050022
:10B7F000142D05001C2E0500802B0500782B05005C
:10B80000402D05008C2D05003C300500882E0500DC
:10B81000A82E05001C2F0500B42F0500542F05008D
:10B820002DE9F041037886B00446142B42D8DFE8B6
:10B8300013F0550141008001410041004100150015
:10B8400041004400410044004100410041004100EA
:10B8500041004100410041004A006501CD4D2B7877
:10B8600043BBCD4BCD4CCE4FCE49E41AE408240463
:10B8700044F00308404608F0DBFD3B788BB96A468C
:10B880001946184600F0ECFD0646002800F04B82F1
:10B89000052E00F05982062E00F05C82002E40F04A
:10B8A000518207F09BFD002800F03A82082801D061
:10B8B0000DF02EF806B0BDE8F081B94B01221A70E8
:10B8C00006B0BDE8F081B84EB84D3468B149B4480F
:10B8D000624202F0070204F0070358BF53420022FD
:10B8E00035F813700A704FF6FF718F4202700FD057
:10B8F000384625F8131000F0C1FD862800F05A8163
:10B90000112800F05781132840F233820DF000F81F
:10B91000631C5A4202F0070203F0070358BF534268
:10B920004FF6FF7235F8137097420FD0384625F85E
:10B93000132000F0A3FD862800F0D881112800F024
:10B94000D581132840F20F820CF0E2FFA31C5A426B
:10B9500002F0070203F0070358BF53424FF6FF728D
:10B9600035F8137097420FD0384625F8132000F0B1
:10B9700085FD862800F0A081112800F09D81132804
:10B9800040F215820CF0C4FFE31C5A4202F0070299
:10B9900003F0070358BF53424FF6FF7235F8137098
:10B9A00097420FD0384625F8132000F067FD86280F
:10B9B00000F06881112800F06581132840F2EB81C6
:10B9C0000CF0A6FF231D5A4202F0070203F0070302
:10B9D00058BF53424FF6FF7235F8137097420FD09D
:10B9E000384625F8132000F049FD862800F0308104
:10B9F000112800F02D81132840F2C1810CF088FF3E
:10BA0000631D5A4202F0070203F0070358BF534276
:10BA10004FF6FF7235F8137097420FD0384625F86D
:10BA2000132000F02BFD862800F0F880112800F08C
:10BA3000F580132840F2A9810CF06AFFA31D5A4239
:10BA400002F0070203F0070358BF53424FF6FF729C
:10BA500035F8137097420FD0384625F8132000F0C0
:10BA60000DFD862800F0C080112800F0BD8013284D
:10BA700040F297810CF04CFF0734634203F0070358
:10BA800004F0070458BF5C424FF6FF7335F814709A
:10BA90009F423FF40FAF384625F8143000F0EEFC1B
:10BAA000862801D0112820D131684B1C5A4202F05F
:10BAB000070203F0070325F8117058BF534206210F
:10BAC00000226846CDE900223360CDE90222CDE9AB
:10BAD00004228DF80010FFF7A3FEEBE6808800F04B
