:020000022000DC
:106000000000042099AB0300C1AB0300C3AB030045
:10601000C5AB0300C7AB0300C9AB03000000000021
:10602000000000000000000000000000CBAB0300F7
:10603000CDAB030000000000CFAB0300D1AB0300E9
:106040005D9E0300D3AB030029AB0300D3AB030079
:10605000D3AB0300D3AB0300F5980300D3AB03002D
:10606000D3AB0300D3AB0300D3AB0300D3AB03002C
:10607000D3AB0300ADA00300D3AB0300D3AB03004D
:10608000D3AB0300853B0300D3AB0300D3AB0300CA
:10609000253C0300D3AB0300BD720300D3AB030068
:1060A000D3AB0300D3AB0300D3AB0300D3AB0300EC
:1060B000D3AB0300D3AB03000000000000000000DE
:1060C000D3AB0300D3AB0300D3AB0300D3AB0300CC
:1060D000D3AB0300D3AB0300D3AB0300C5E1020095
:1060E000D3AB0300D3AB0300F53C04000000000079
:1060F00000000000D3AB030000000000D3AB03009E
:10610000000000000000000000000000000000008F
:10611000000000000000000000000000000000007F
:10612000000000000000000000000000000000006F
:10613000000000000000000000000000000000005F
:10614000000000000000000000000000000000004F
:10615000000000000000000000000000000000003F
:10616000000000000000000000000000000000002F
:10617000000000000000000000000000000000001F
:10618000000000000000000000000000000000000F
:1061900000000000000000000000000000000000FF
:1061A00000000000000000000000000000000000EF
:1061B00000000000000000000000000000000000DF
:1061C00000000000000000000000000000000000CF
:1061D00000000000000000000000000000000000BF
:1061E00000000000000000000000000000000000AF
:1061F000000000000000000000000000000000009F
:1062000010B5054C237833B9044B13B10448AFF3F0
:1062100000800123237010BD083E00200000000014
:10622000CCFD040008B5034B1BB103490348AFF391
:10623000008008BD000000000C3E0020CCFD0400E2
:10624000154B002B08BF134B9D46A3F5803A002148
:106250008B460F461348144A121A22F0A6FC0F4B25
:10626000002B00D098470E4B002B00D09847002001
:10627000002104000D000D48002802D00C48AFF3A7
:10628000008022F00FFC2000290014F0AFFD22F066
:10629000E3FB00BF00000800000004200000000035
:1062A00000000000083E0020E4FD00200000000087
:1062B0000000000072DF704773DF704770B504465E
:1062C00000F24A2681700D4630460722002122F056
:1062D0006CFCE38813B1A378012B5FD0E379002B2A
:1062E00059D194F84B32002B40F0848094F84C3212
:1062F000002B7FD194F84D32002B7BD194F84E3295
:10630000002B77D194F84F32002B73D194F8503290
:106310001A1C18BF01226B1E032B00F24F81DFE80D
:1063200003F002470A0DA379002B41D094F82430E2
:10633000002B3DD12AB9237A002B7BD1657A002D21
:1063400064D1A570002384F8533204F13C0518226F
:106350000021284622F029FCE26A0121531E8B42CB
:1063600084F83C103BD9042A94F82400A37826D062
:1063700084F8511000283FD084F85210002284F88D
:106380005020042B00F20981DFE813F07B00560057
:10639000DC00AE007F00A378022BA2D1636B002B40
:1063A00000F00981012284F851220820984798E7DB
:1063B000E379002BBFD0002ABDD00225C1E784F8C5
:1063C000512098B9002284F85020042B00F2E58077
:1063D000DFE813F057003200D400CE00C80094F874
:1063E000241084F85120A3780029EBD0A26A84F805
:1063F0005220C3E701228EE784F85000042B00F2FC
:10640000CC80DFE803F03E19BBB5AF000422636B1C
:10641000A270002B96D06279002A93D094F8522271
:10642000002A8FD1012184F8542284F853120720C6
:1064300098478AE70322EAE700230120022180220D
:10644000266484F83100C4F84432636484F83C1054
:10645000A4F8482000212A4604F15400FFF72AFF3F
:1064600000B170BD94F8301094F85400FFF724FF89
:106470000028F6D1636B13B194F8310098470020DF
:1064800070BD002384F83130F4E7D4E90721626459
:106490000622A4F8481084F83C206279002A72D0C1
:1064A00094F85222002A6ED194F85422002A6AD01D
:1064B000022384F850300122B4F83812D4F83402A0
:1064C00000F012FF08B10423037004F50D76314685
:1064D0002A4604F15400FFF7EDFE002866D106229B
:1064E000A37884F8312053E0D4E9052162640622C0
:1064F000A4F8481084F83C206279002A50D094F81F
:106500005222002A4CD194F85422002A48D0022367
:1065100084F850300122B4F83812D4F8340200F074
:10652000E3FE08B10423037004F50D7631462A46D4
:1065300004F15400FFF7BEFEC0BB0522A37884F827
:10654000312025E0022384F831300723D4E90321E8
:1065500084F83C3000232664A4F84810C4F8443280
:10656000626477E7D4E907126164A4F8482094E7ED
:10657000D4E905126164A4F84820BDE7022384F839
:1065800031300323E2E7042284F8312004F50D764C
:10659000C4F84462002B3FF46DAFD4F844125AE7BC
:1065A000032284F8312004F50D76F1E7A378002B5F
:1065B0003FF460AFF1E784F8513292E60025C0E67F
:1065C00080F83010704700BF00295AD0002858D0FA
:1065D000F8B591F87A301BB191F89830002B52D170
:1065E0004FF0000C80F802C001F1780604460F4617
:1065F0000FCE251D0FC50FCE0FC596E8070085E805
:10660000070084F830C0D7F8A4306363D7F8A83007
:10661000A3634FF6FF7504F50D73C4F84432614669
:10662000A4F84852072204F24A2022F0BEFA237846
:106630000BB984F8545094F82430002B14BFEE2387
:106640001F2304F15501A4F83832C4F8341204F5BC
:106650000E72384600F04AFC90B994F82430002BB2
:1066600014BFEE231F2304F2431107F13C00A4F8EA
:106670004032C4F83C1204F5107200F037FC20B12F
:10668000F8BD0E2070470720F8BDD4E90525012389
:10669000206484F850000146626484F8513084F824
:1066A0003C30A4F8485004F13C0204F15400FFF7D8
:1066B00001FE0028E4D12370F8BD00BFF8B50678CC
:1066C000002E73D0044600F24A27A1700D463846CA
:1066D0000722002122F069FAE38803BBE37913B1B2
:1066E000A378022B1ED094F84B3283B994F84C3225
:1066F0006BB994F84D3253B994F84E323BB994F8D3
:106700004F3223B994F85062003618BF01266B1E31
:10671000032B00F25681DFE803F00F161B1EA3784F
:10672000012BDBD1636B002B00F04881012284F840
:10673000512208209847D6E7A37923B194F8243052
:10674000002B00F02981E37913B1002E40F0118174
:10675000237A002B4CD1657AB5BBA570002384F851
:10676000533204F13C0518220021284622F01DFA7C
:10677000E26A0121531E8B4284F83C1063D9042A3B
:1067800094F82400A37868D084F8511080B184F87C
:106790005210002284F85020042B00F2A980DFE878
:1067A00013F029003300D800AA0073000820F8BDB8
:1067B00084F85000042B00F29B80DFE813F01B00EC
:1067C0002500E200E700DC000422636BA270002BCE
:1067D000C4D06279002AC1D094F85222002ABDD1D7
:1067E000012184F8542284F8531207209847B8E70F
:1067F0000322EAE7002384F83130636B13B194F885
:10680000310098470020F8BD00230120022180229A
:10681000276484F83100C4F84432636484F83C107F
:10682000A4F8482000212A4604F15400FFF742FD55
:106830000028BCD194F8301094F85400FFF73CFDC8
:106840000028DAD0F8BD94F8241084F85120A378F9
:1068500039B1A26A84F852209BE784F851200028BD
:10686000F7D1002284F85020042B41D801A252F81D
:1068700023F000BFF5670200096802008369020087
:106880008D69020077690200D4E90721626406225B
:10689000A4F8481084F83C206279002A00F0868031
:1068A00094F85222002A40F0818094F85422002A61
:1068B0007CD0022384F850300122B4F83812D4F886
:1068C000340200F011FD08B10423037004F50D76C5
:1068D00031462A4604F15400FFF7ECFC00286BD146
:1068E0000622A37884F83120C4F84462002B84D0B7
:1068F000D4F8441297E7D4E9052162640622A4F88B
:10690000481084F83C206279002A49D094F8522239
:10691000002A45D194F85422002A41D0022384F859
:1069200050300122B4F83812D4F8340200F0DCFC04
:1069300008B10423037004F50D7631462A4604F1AC
:106940005400FFF7B7FCB8BB0522A37884F83120C8
:10695000CAE7022384F831300723D4E9032184F8FD
:106960003C3000232764A4F84810C4F84432626421
:1069700058E70225F1E6D4E907126164A4F848203B
:106980008AE7022384F831300323E6E7D4E90512CD
:106990006164A4F84820B6E7002E3FF4D9AEDCE6E7
:1069A000032284F8312004F50D769DE7042284F853
:1069B000312004F50D7697E7A37897E784F85132F4
:1069C00091E60025C9E600BF10B50388112B0C46DF
:1069D0000BD0262B1DD0102B00D010BDC37B012B5C
:1069E000FBD18388A1F8483210BD002381F85232D0
:1069F0008288B1F848329A42EFD10B79002BECD162
:106A00000B78EBB90820A36B002BE6D0BDE8104053
:106A10001847037A013B012BDFD80B78002BF1D00C
:106A20008A780B4B0132A3FB02139B0803EB830311
:106A3000D31AD9B22046FFF741FC0028E3D110BD9C
:106A400001212046FFF73AFC0028DCD110BD00BF31
:106A5000CDCCCCCC704700BFA8DF70472DE9F0410A
:106A60008CB00CA941F60A0321F82C3D0123044601
:106A7000C24A8DF806301846FFF7EEFF054600289B
:106A800040F0B6802688002E40F0B6802689002E81
:106A900040F02881268A002E40F04A81268B002E65
:106AA00040F07E81268C002E40F0D080268D002E76
:106AB00040F0F280236B002B39D01A688DF8082043
:106AC0001A6894F83C60120A8DF809205A888DF8EB
:106AD0000A20DA788DF80B205A688DF80C209B6814
:106AE0008DF80D30190A20221B0C8DF80E1004A809
:106AF00000218DF80F3022F058F89DF81D309F4985
:106B00008DF8216043F0020308888DF81D3042F6AD
:106B100023274FF0081602AB994AADF8107004A96C
:106B2000CDE9056300F0FAFE002840F08A80636B2F
:106B300043B31F681E7994F83C80002F00F0558104
:106B400016B9304610F048F92022002104A822F09E
:106B50002CF89DF81D3089498A4A0888ADF81460E0
:106B600043F0020342F62A2C04A9ADF816600697FA
:106B70008DF821808DF81D30ADF810C000F0CEFEEC
:106B800000285ED1A36B9BB31A788DF808205A8831
:106B90008DF80920120A8DF80A209A888DF80B20AA
:106BA000120A8DF80C20DB888DF80D3020221B0A8C
:106BB000002104A894F83C408DF80E3021F0F5FF38
:106BC0009DF81D306D498DF8214043F0020308887F
:106BD0008DF81D3042F6502502AB6B4AADF81050CF
:106BE00004A94FF00714CDE9054300F097FE0546D0
:106BF00028460CB0BDE8F081676894F83C80002F0F
:106C000000F0F7802022002104A821F0CEFF9DF89B
:106C10001D305A495D4A0888ADF8146043F00203FC
:106C200042F6292C04A9ADF8166006978DF821804C
:106C30008DF81D30ADF810C000F070FE00283FF454
:106C400025AF054628460CB0BDE8F081676A94F888
:106C50003C80002F00F0DC802022002104A821F0DD
:106C6000A4FF9DF81D304549494A0888ADF81460D5
:106C700043F0020342F6262C04A9ADF816600697ED
:106C80008DF821808DF81D30ADF810C000F046FE63
:106C900000283FF40BAFD4E7E76A94F83C80002F5C
:106CA00000F0BA802022002104A821F07EFF9DF888
:106CB0001D303249374A0888ADF8146043F00203AA
:106CC00042F6282C04A9ADF8166006978DF82180AD
:106CD0008DF81D30ADF810C000F020FE00283FF404
:106CE000E9AEAEE7E76894F83C80002F00F08480BE
:106CF0002022002104A821F058FF9DF81D301F49D3
:106D0000254A0888ADF8146043F0020342F6242CAB
:106D100004A9ADF8166006978DF821808DF81D3016
:106D2000ADF810C000F0FAFD00283FF4B3AE88E7DC
:106D3000676994F83C80002F62D02022002104A8CB
:106D400021F033FF9DF81D300C49144A0888ADF836
:106D5000146043F0020342F6252C04A9ADF8166036
:106D600006978DF821808DF81D30ADF810C000F029
:106D7000D5FD00283FF492AE63E700BF5C3E0020E3
:106D8000683E00204C3E0020443E0020343E00205F
:106D9000243E0020603E00203C3E0020543E002067
:106DA000E76994F83C807FB32022002104A821F0F9
:106DB000FCFE9DF81D301A491A4A0888ADF8146087
:106DC00043F0020342F6272C04A9ADF8166006979B
:106DD0008DF821808DF81D30ADF810C000F09EFDBB
:106DE00000283FF45FAE05462CE738460FF0F4FF6D
:106DF000A6E60FF0F1FF05E738460FF0EDFF77E765
:106E000038460FF0E9FF98E738460FF0E5FFCBE78B
:106E100038460FF0E1FF1FE738460FF0DDFF41E78E
:106E20005C3E00202C3E00206DDF704779DF70470C
:106E30007DDF704764DF70472DE9F04F83B0048831
:106E40000C9EBDF83490B6F800A0002C39D09846BE
:106E5000002317468B4605461C4603E02A8801346A
:106E6000A24224DD6A6852F82400019000220DF14C
:106E7000030101A8FFF7DEFF20BB9DF80320BA4203
:106E8000ECD13288B91803B389452BDB42440DF1AC
:106E9000030101A80123FFF7CDFF98B931889DF8C0
:106EA00003200A4432802A880134A242DADC43B14A
:106EB0003388013BA3EB0A039BB2FF2B12D808F8DF
:106EC0000A30002003B0BDE8F08F0231013289455D
:106ED00092B207DB328008F802B03288013292B2F7
:106EE0003280D3E70C2003B0BDE8F08F2DE9F047E6
:106EF00000231788138090F82D3086B0144605467D
:106F00000E46002B40F0FB80AA78002A40F0FD805E
:106F1000EA78A2B1D91CB94200F2F3800221F154FF
:106F2000238801339BB201212380F15423880B4431
:106F30009BB22380F25423880B449BB223806A685F
:106F4000AAB1D91CB94200F2DC80022192F90020DA
:106F5000F154238801339BB20A212380F154238802
:106F600001339BB22380F2542388013323802B8981
:106F7000002B40F01B812B8A002B40F02F812B8BA4
:106F8000002B40F043812B6A002B44D02288911DB6
:106F9000B94200F2B6801988052940F203816FF4E6
:106FA000486801EB080080B24FF27D3C604540F23A
:106FB000F9805888052840F2F5806FF4486E8644C1
:106FC0001FFA8EFEE64540F2ED804FF6FF7C6145EC
:106FD00004D0604502D0814200F2E4800521B15422
:106FE0002288013292B212212280B15422880132C9
:106FF00092B222801988B1543244090A5170228811
:10700000023292B222805B88B35432441B0A53701E
:107010002388023323806B6A002B2FD09988B4F821
:1070200000C0881C0CF102020244BA4269D8FE2852
:1070300067D8033106F80C102288013292B2FF2182
:107040002280B1542288013292B222801988B15430
:107050003244090A51702088023080B220809A8818
:1070600062B199680393002900F09C80304421F0BC
:1070700078FD039B9A8823881344238095F82C304D
:10708000002B40F08A80287800283BD02B88012BE9
:1070900000F08880228802F1020CBC4531D801281A
:1070A00004D16B78023313449F422AD3BB1E9B1A30
:1070B00006A99BB221F8083D06EB0C00FFF7B8FECD
:1070C00000BB2978BDF81020022900F004816878FF
:1070D0009042C0F0FB809342C0F0F8800921FE2A64
:1070E0000FD82388501CF054238801339BB223808F
:1070F000F154238801331A442280002002E0082F33
:1071000023D80C2006B0BDE8F0870433BB42F8D882
:1071100004A8FFF78BFE0028F4D12388BDF81020C7
:107120000321F154238801339BB219212380F154A8
:10713000238801339BB2F1182380F254120A4A705B
:10714000238802339BB22380E2E604A8FFF76CFE9B
:107150000028D7D113880822CA54238801339BB250
:107160001B222380CA542088013080B2208006224E
:1071700008440DF1110121F0F4FC23889DF8102042
:1071800006339BB212F0FE0218BF01222380F25494
:10719000238801339BB22380B6E6D5F82880B8F166
:1071A000000F4CD1072006B0BDE8F08705F10808B4
:1071B0000222CDE90047404611463346FFF73CFE28
:1071C00000289FD1CDE900474046334610220621D2
:1071D000FFF732FE00283FF4CEAE93E705F110082A
:1071E000CDE900474046334602220321FFF724FE43
:1071F000002887D1CDE900474046334610220721B9
:10720000FFF71AFE00283FF4BAAE7BE705F1180835
:10721000CDE900474046334602221421FFF70CFE19
:1072200000287FF46FAFCDE9004740463346102277
:107230001521FFF701FE00283FF4A5AE62E7B8F87C
:1072400004200232FE2A3FF65CAF23884FF000098B
:107250004FF0160A0132F254238801339BB2238087
:1072600006F803A0238801339BB22380B8F80020DE
:10727000F2543344120A5A70238802339BB223809B
:10728000B8F80410F0180A4661B1D8F80830194669
:10729000002B87D021F065FCB8F804202388134424
:1072A0009BB2238009F1010995F82C205FFA89F936
:1072B0004A4509EB49087FF6E6AEAA6A02EB880860
:1072C000B8F804200232FE2AC4D91AE7012906D0F0
:1072D0001A46082103E79342BFF400AFF8E7834260
:1072E000F6D302460821FAE6F8B130B44378934267
:1072F0001CD0B9B10024234601E0994212D9045DA3
:10730000013423449BB2C5181C466D789542F4D1D4
:10731000994207D9025D0233012A9BB202D0184478
:1073200030BC7047002030BC7047704700242346B3
:10733000EEE700BF75DF704776DF70477ADF704792
:107340007BDF704730B51D4B1A8884B2A24283B0F0
:1073500001D003B030BD1A4D187A297B88420FD373
:107360002A7C00211972E2B96B69002BF1D000224E
:10737000ADF806408DF8042001A8984703B030BD51
:10738000104603F10A01FFF7D5FF28B11128E0D01C
:10739000AB69002BF1D1DCE71A7A01321A7203B023
:1073A00030BD3B212046FFF7C7FF30F00803DBD09C
:1073B000AB69002BD8D09847D6E700BF8C3E0020A1
:1073C000703E0020F0B50288112A83B0034649D0F0
:1073D00036D9122A08D0502A04D16C4DC188EA89C6
:1073E000914251D003B0F0BD694C8288218891420E
:1073F000F8D1E1896589B1F5FA7F24BF6FF4F9709E
:107400000E18588938BF002685424FD8A589854275
:107410004CD39B89B34249D301F2F311994245D32E
:107420005A4B5B694FF480712181002BDAD0012126
:10743000ADF806208DF8041001A8984703B0F0BD00
:10744000102ACFD1C27B012ACCD1514C21884FF6D2
:10745000FF7291423CD04D4B9B69002BC2D004205F
:107460009847BFE74A4C828823889A42BAD160681D
:107470000CF05EFE18B1454B9B6903B198474FF67F
:10748000FF73238003B0F0BD028A022AAAD1404CC8
:1074900086882788B742A5D1123000F031FA00283B
:1074A00056D160680CF044FE70B99BE7374D267AE0
:1074B0006068D5E90131002E08BF194600236372C8
:1074C0000CF0E0FD00288DD0AB69002BB5D189E729
:1074D000304D8288228003CDC4F80E10E689C4F8AE
:1074E0000A00B6F5FA7F28BF6FF4F9754FF0000176
:1074F000588AB4F80AC0217228BF7119234D8445F7
:10750000EF8919D8B4F80CC0844515D39B8A8B42F7
:1075100012D306F2F3169E420ED301216172002FA0
:107520007FF460AF6B69002B3FF45CAF8DF8041003
:10753000ADF8062001A880E700236372002F7FF4D6
:1075400051AF606869680CF09DFD0028BCD149E727
:10755000637A63B9D5E90131267A60683A46002E2C
:1075600008BF19460CF08EFD0028ADD13AE76B69D3
:1075700000222272002B3FF435AF0122ADF80660E5
:107580008DF8042001A898472CE700BF703E00202A
:107590008C3E0020A03E002000282FD0F8B50546E4
:1075A00006460FCD164F3C460FC4844695E80700AB
:1075B000144B3B6084E80700BCF1000F18D0604614
:1075C000FFF7BCFE98B932681068516803C30E4BD0
:1075D0000E490F4A18464FF6FF7440F8041F1C80EE
:1075E00000210CF03DFD002814BF03200020F8BD51
:1075F0001846FFF7A5FE0028E9D0F8BD0E20704719
:10760000703E0020A03E00208C3E0020A83E0020BE
:10761000457302002DE9F0470388B0F80490112B60
:1076200098B059D01A2B804647D0102B02D018B0F2
:10763000BDE8F087394A936818A8DB4340F8603DFD
:10764000516807F03BFE009B0193019B63B3002749
:107650003C46214601A807F0C1FD28B118AB03EB59
:107660004703013723F8284C0134142CF1D10D972E
:107670000DAE0FCE02AC0FC40FCE0FC496E80700BC
:1076800084E8070087B10DF10A0A254E0AEB470787
:107690003AF8025F234C20462946043407F094FD53
:1076A000A642F8D1BA45F3D1B9F1130F1BD9042082
:1076B0000FF092FB18B0BDE8F087047A1A4824094D
:1076C000012C494620D907F065FD022C4946174890
:1076D0001ED007F05FFDAAE74946154807F074FD84
:1076E00018B0BDE8F0874946114807F053FD4946F8
:1076F0000C4807F04FFD98F80F30012B97D0494602
:107700000C4807F047FD92E707F05EFD0748494641
:1077100007F05AFD18B0BDE8F08700BFC83E002052
:10772000403F0020CC3E0020D83E0020DC3E002020
:10773000D03E0020D43E0020132801D900207047FD
:107740000146014807F04ABDCC3E0020132801D96C
:107750000020704710B501460446074807F03EFD7B
:1077600008B9002010BD2146044807F037FD002865
:1077700014BF0220012010BDCC3E0020D43E0020CA
:10778000132801D90020704710B501460446074868
:1077900007F024FD08B9002010BD2146044807F079
:1077A0001DFD002814BF0220012010BDCC3E00208A
:1077B000D03E0020132801D90020704710B50146A3
:1077C0000446064807F00AFD08B9002010BD21460E
:1077D0000348BDE8104007F001BD00BFCC3E0020CB
:1077E000D83E0020132801D90020704710B501466B
:1077F0000446064807F0F2FC08B9002010BD2146F7
:107800000348BDE8104007F0E9BC00BFCC3E0020B3
:10781000DC3E002008B51821024807F0E9FCC0B2A0
:1078200008BD00BFC83E002070B50C4C0546204680
:107830000E4607F0D3FC08B1132D01D9002070BD0E
:107840002946201D07F0CAFC0028F7D0B01D04EB24
:1078500080002946BDE8704007F0C0BCC83E00204B
:10786000F8B50F4C0546204617460E4607F0B6FC05
:1078700008B1132D00D9F8BD2946201D07F0AEFC34
:107880000028F8D0B01D04EB800029461FB9BDE8E0
:10789000F84007F099BCBDE8F84007F07BBC00BF9A
:1078A000C83E0020F0B5144C054683B00F46204674
:1078B0002946164607F092FC18B90025284603B061
:1078C000F0BD043504EB8504A3680193002FF4D0C8
:1078D000019B002BF1D000252C46214601A807F082
:1078E0007DFC314610B1A0B2B84701350134142CEB
:1078F000F3D1284603B0F0BDC83E0020AADF704790
:10790000007800F00100704738B5044608460D467F
:1079100021F014FD6560208038BD00BFF0B58B7884
:1079200091B0002B0C460988ADF80C1008BF01235C
:10793000054616466846032200218DF80E3021F0D8
:1079400034F9637C0022013B8DF80020042B09D818
:10795000DFE813F00500D300D700DB00CF001123D0
:107960008DF80030A37C0022013B8DF80120042B10
:1079700009D8DFE813F00500D200D600BA00CE0027
:1079800011238DF801309DF80230E77B227D207CA9
:10799000217B67F3C303002A60F3041314BF0222A0
:1079A000012261F3000362F3420309A81C220021B3
:1079B0008DF8023021F0F9F8637B13F0300F73D1AA
:1079C000627BA37B8DF824200021142204A88DF86B
:1079D000253021F0EAF8A368A288CDF814D003A9D5
:1079E0000491ADF81C201BB1E2880893ADF8182073
:1079F000A369002B36D001AF03220021384621F0C5
:107A0000D4F8A2691388ADF82C305388ADF82E3025
:107A100051680D97137B0A91013B00218DF80410EA
:107A2000042B2DD8DFE803F0299D8D9199001123B7
:107A30008DF80530917A9DF8063061F3C3038DF817
:107A40000630D17A61F304138DF80630117A927BF7
:107A5000002A61F3000314BF0222012262F34203F1
:107A60008DF80630E36903B10C93334604AA09A9E3
:107A70002846FFF743FF11B0F0BD11238DF8043005
:107A8000537B0021013B8DF80510042BD2D801A1B6
:107A900051F823F02F7A0200337B02003B7B020077
:107AA0002B7B0200537B0200032202A8002121F05D
:107AB0007CF8E37C0022013B8DF80920042B07D8D9
:107AC000DFE803F0035F5B57530011238DF80930A3
:107AD0009DF80A3002AA0E92012262F3420311229B
:107AE0008DF80A308DF808206AE712238DF80130EE
:107AF00049E722238DF8003034E721238DF8003048
:107B000030E731238DF800302CE712238DF8003058
:107B100028E722238DF8013035E721238DF8013045
:107B200031E731238DF801302DE712238DF8053030
:107B300080E721238DF805307CE731238DF805306F
:107B400078E731238DF804309AE712238DF804305A
:107B500096E722238DF805306CE722238DF8043058
:107B60008EE721238DF804308AE722238DF809302F
:107B7000AEE712238DF80930AAE731238DF80930DA
:107B8000A6E721238DF80930A2E700BF90DF7047F8
:107B9000A5DF7047B5DF7047C0B170B40346FB2264
:107BA00081614FF0F7160020094D0A4C1A71172118
:107BB00041F6FB321E60C3F806509872D872987472
:107BC000D874DC6019829A8270BC70470E207047AE
:107BD000F7001700FB1BF7002DE9F0418588012D08
:107BE00084B002D904B0BDE8F0810288232A0C4693
:107BF00027D015D93A2A76D0552A3CD0242A5CD0F1
:107C0000EE00A3199B7A002BECD034442846E1887F
:107C1000FFF7BEFF0028E5D10122A072E272E1E782
:107C2000102A7ED0112AEBD101EBC501574BC1F8C8
:107C30000630FB2000231B2208734A738B72CB7221
:107C4000D0E7EE0001EB0608037A98F80C20934287
:107C500028BF134600276A4602A92846ADF8083017
:107C6000ADF80A30ADF8047003970097FFF78EFF68
:107C700098F80A30C7E7EE00C3888F19172BF988E8
:107C800038BF17238B4228BF0B4600223B81BA72B4
:107C90002846FFF77FFFFB7A1BBBA3690BB340F6B7
:107CA00077213A89ADF80810ADF80A50ADF80C20EC
:107CB00002A920469847BB7AA5E7EE008F19027A01
:107CC0007A738B696BB100204DF67A21ADF80C0008
:107CD000ADF80810ADF80A508DF80C2002A9204626
:107CE0009847BB7A8FE701EBC5064389F288934238
:107CF00028BF1346172B38BF172333818A6962B117
:107D0000F17A51B140F67721ADF80810ADF80A507C
:107D1000ADF80C30204602A990470023F372B372ED
:107D200060E7EE008B190A791A73C27B012A1AD018
:107D3000022A1BD0D9881A898A421AD31A7B597B06
:107D400091420ED291B20027ADF80810ADF80A109A
:107D50006A4602A92846ADF8047003970097FFF71A
:107D600015FF9B7A4FE70988D980E4E74988D980D5
:107D7000E1E72846FFF70CFF10B90122DA72DDE7D0
:107D8000112804BF01229A72D8E700BFF70017003C
:107D9000B0DF704766DF704760B159B10378DE2B02
:107DA0000AD00B684360DE224FF6FF7302704380F7
:107DB000002070470E2070470820704738B10378C4
:107DC000DE2B02D1418000207047082070470E2032
:107DD000704700BF19B110B10B78DE2B00D070478F
:107DE00030B505464B888088984285B00C4606D051
:107DF0002A88012A0DD0512A20D005B030BD0B7A37
:107E0000002B35D12B88112B48D0512B4DD0012B75
:107E1000F3D12B7A012BF0D162888242EDD123720B
:107E20000021FFF7B7FF00284ED0112808BF2372AA
:107E3000E3D063689847E0E76388A8888342DCD191
:107E4000AA79022AD9D1A97B01F0FD0004282ED0FD
:107E50000529D2D100206946C1E90200009048609E
:107E60008DF800201846FFF793FF0028E1D1C4E702
:107E70000021FFF78FFF0346A8B1112812D06368D5
:107E800098472B88112B05D0512BD5D0012BB4D17D
:107E9000A888BEE7AA8863889A42AED14FF6FF73DE
:107EA0006380AAE701232372EBE70346C6E769462E
:107EB00000204FF4C07548600090C1E902008DF8C1
:107EC0000020ADF80450CDE7207296E710B5C74BFF
:107ED0009A7C82B15A7C002A00F06081DC68A04262
:107EE000C0F091811A7C00215974002A00F087812A
:107EF0004FF4A02401E04FF0FF3493F82620AAB1FC
:107F000093F82520002A00F033811A6A9042C0F0CD
:107F10007D8193F82420002183F82510002A00F0A9
:107F2000BD81B4F5A02F28BF4FF4A02493F83A20C8
:107F3000AAB193F83920002A00F004815A6B9042CC
:107F4000C0F06D8193F83820002183F83910002AA1
:107F500000F0A781B4F5A02F28BF4FF4A02493F818
:107F60004E20AAB193F84D20002A00F0D4809A6CDC
:107F70009042C0F05D8193F84C20002183F84D10B1
:107F8000002A00F09781B4F5A02F28BF4FF4A02459
:107F900093F86220AAB193F86120002A00F0A4802F
:107FA000DA6D9042C0F04D8193F86020002183F893
:107FB0006110002A00F07881B4F5A02F28BF4FF49B
:107FC000A02493F87620A2B193F87520002A74D0EB
:107FD0001A6F9042C0F05C8193F87420002183F8FE
:107FE0007510002A00F06381B4F5A02F28BF4FF46C
:107FF000A02493F88A20002A54D093F88920C2B391
:10800000D3F884209042C0F0258193F88820002185
:1080100083F88910002A00F0508193F89E20B4F56F
:10802000A02F28BF4FF4A024002A00F0498193F824
:108030009D20002A00F0C280D3F898209042C0F022
:108040001D8193F89C20002183F89D10002A00F0E8
:10805000D3800CF0A7F8664BB4F5A02F28BF4FF4DF
:10806000A0241860224621466248BDE810400CF06A
:1080700009B893F88810002900F0F880D3F8802020
:108080000244B2F5A02FC3F8802006D30139A2F52F
:10809000A02283F88810C3F88020C2F5A022944261
:1080A00028BF144693F89E20002AC0D10CF07AF81D
:1080B0004F4B1860631CD5D110BD93F87410002984
:1080C00000F0C580DA6E0244B2F5A02FDA6605D35F
:1080D0000139A2F5A02283F87410DA66C2F5A02255
:1080E000944228BF144684E793F86010002900F0FA
:1080F000CC809A6D0244B2F5A02F9A6505D3013960
:10810000A2F5A02283F860109A65C2F5A0229442DD
:1081100028BF144655E793F84C10002900F08E80D4
:108120005A6C0244B2F5A02F5A6405D30139A2F566
:10813000A02283F84C105A64C2F5A022944228BFB2
:10814000144625E793F8381000296ED01A6B0244C4
:10815000B2F5A02F1A6305D30139A2F5A02283F846
:1081600038101A63C2F5A022944228BF1446F6E6DE
:1081700093F8241000294FD0DA690244B2F5A02FF9
:10818000DA6105D30139A2F5A02283F82410DA615F
:10819000C2F5A022944228BF1446C7E61A7C72B3E7
:1081A0009C680444B4F5A02F9C6004D3013AA4F564
:1081B000A0241A749C60C4F5A0249EE693F89C2029
:1081C000D2B1D3F894100844B0F5A02FC3F89400AE
:1081D00006D3013AA0F5A02083F89C20C3F89400B0
:1081E000C0F5A020844228BF04465FE7403F00203E
:1081F00000400020E03F002083F89E2056E79A745C
:108200004FF0FF3479E6241ADC6076E6121A9442C5
:108210001A6228BF144689E683F8261086E6121AE9
:1082200094425A6328BF144699E683F83A1096E6BA
:10823000121A94429A6428BF1446A9E683F84E1095
:10824000A6E6121A9442DA6528BF1446B9E683F806
:108250007610CEE6121A9442C3F8842028BF144642
:1082600093F89E20002A3FF421AFE0E693F89E2089
:1082700083F88A10002A3FF419AFD8E6121A944204
:10828000C3F8982028BF144610E783F8621098E6D8
:10829000121A94421A6728BF1446AAE683F82620C9
:1082A00044E683F83A205AE683F8622089E683F8A8
:1082B00076209EE683F84E206AE683F88A20F1E66F
:1082C0000BF070FF014B1860CCE600BF00400020AF
:1082D000024A034800210BF0C3BE00BFCD7E02005E
:1082E00070A304002DE9F04182B0694601F0ECFA78
:1082F00010B102B0BDE8F081C9480BF019FF064685
:108300000028F6D1DFF82083C64C0BF04BFFD8F8DD
:1083100000100BF04DFFA37CABB1637C002B40F051
:10832000A981237C002B00F05A83A5680544B5F58C
:10833000A02FA56004D3013BA5F5A0252374A5605B
:10834000C5F5A02501E04FF0FF3594F82630D3B1F4
:1083500094F82530002B40F07B8194F82420002AEB
:1083600000F08883E3690344B3F5A02FE36105D3EC
:10837000013AA3F5A02384F82420E361C3F5A023E8
:108380009D4228BF1D4694F83A30D3B194F8393055
:10839000002B40F04B8194F83820002A00F06D83C8
:1083A000236B0344B3F5A02F236305D3013AA3F550
:1083B000A02384F838202363C3F5A0239D4228BF5F
:1083C0001D4694F84E30D3B194F84D30002B40F058
:1083D000158194F84C20002A00F05283636C03440A
:1083E000B3F5A02F636405D3013AA3F5A02384F865
:1083F0004C206364C3F5A0239D4228BF1D4694F81A
:108400006230D3B194F86130002B40F0E58094F8ED
:108410006020002A00F00583A36D0344B3F5A02F6C
:10842000A36505D3013AA3F5A02384F86020A365D2
:10843000C3F5A0239D4228BF1D4694F87630D3B1E2
:1084400094F87530002B40F0A28094F87420002A34
:1084500000F01983E36E0344B3F5A02FE36605D360
:10846000013AA3F5A02384F87420E366C3F5A023A2
:108470009D4228BF1D4694F88A30EBB194F88930AC
:10848000002B40F0968094F88820002A00F0CC82DF
:10849000D4F880300344B3F5A02FC4F8803006D35D
:1084A000013AA3F5A02384F88820C4F88030C3F5EE
:1084B000A0239D4228BF1D4694F89E30E3B194F856
:1084C0009D30002B57D194F89C30002B00F0848213
:1084D000D4F894201044B0F5A02FC4F8940006D32B
:1084E000013BA0F5A02084F89C30C4F89400C0F5AE
:1084F000A020854228BF05460BF054FEA77CC8F893
:108500000000002F40F02D820127002694F826302D
:10851000002B40F0F681012694F83A30002B40F011
:10852000C081022694F84E30002B40F08A81032649
:1085300094F86230002B40F05481042694F8763091
:10854000002B40F01E81052694F88A30002B40F065
:10855000B480062694F89E30002B40F02D82002F28
:1085600040F094806B1C3FF4C4AE2A4629462C4848
:108570000BF088FDBDE6D4F89830984280F0448234
:108580001B1A9D42C4F8983028BF1D46B4E7236FDC
:108590009842C0F05D8294F87430002284F875200F
:1085A000002B00F08082B5F5A02F28BF4FF4A02546
:1085B00061E7D4F884309842C0F0688294F888303B
:1085C000002284F88920002B00F06A82B5F5A02FE4
:1085D00028BF4FF4A0256FE7E36D9842C0F03E82BC
:1085E00094F86030002284F86120002B00F05E8255
:1085F000B5F5A02F28BF4FF4A0251EE7A36C984225
:10860000C0F0F38194F84C30002284F84D20002B08
:1086100000F04F82B5F5A02F28BF4FF4A025EEE65D
:10862000E03F0020403F002000400020636B984264
:10863000C0F0E18194F83830002284F83920002B12
:1086400000F03A82B5F5A02F28BF4FF4A025B8E678
:10865000236A9842C0F0088294F82430002284F8FB
:108660002520002B00F01982B5F5A02F28BF4FF46C
:10867000A02588E6E568A842C0F0C381237C667423
:10868000002B00F0AC814FF4A0255EE6072606EB38
:10869000860604EB860469460722204620F061FA2C
:1086A0004FF40031002201238D4228BF0D46E160C6
:1086B0002274A2606374A37457E70DF101000622CF
:1086C000DB4920F03FFA00287FF444AF94F888306B
:1086D0004FF47A6101FA03F2B2F57A4F03DA01330B
:1086E000DBB201FA03F24FF400464FF4FA700021B6
:1086F000C6FB0201002684F888304FF47A7200230A
:10870000C4F8806021F08EFC94F89E30C4F8840098
:108710000122854228BF054684F88920002B3FF4BA
:1087200021AF0DF101000622C24920F00BFA00280A
:108730007FF418AF94F89C304FF47A6101FA03F299
:10874000B2F57A4F03DA0133DBB201FA03F24FF4E8
:1087500000464FF4FA700021C6FB0201002684F89F
:108760009C304FF47A720023C4F8946021F05AFCD4
:1087700001238542C4F8980028BF054684F89D303F
:10878000F0E60622AC490DF1010020F0DBF90028EB
:108790007FF4DAAE94F874C04FF47A6202FA0CF304
:1087A000B3F57A4F05DA0CF1010C5FFA8CFC02FA92
:1087B0000CF34FF400424FF4FA7000210027C2FB83
:1087C000030184F874C000234FF47A72E76621F045
:1087D00029FC01238542206728BF054684F87530AF
:1087E000B2E6062295490DF1010020F0ABF9002810
:1087F0007FF4A4AE94F860C04FF47A6202FA0CF3EE
:10880000B3F57A4F05DA0CF1010C5FFA8CFC02FA31
:108810000CF34FF400424FF4FA7000210027C2FB22
:10882000030184F860C000234FF47A72A76521F039
:10883000F9FB01238542E06528BF054684F86130D5
:108840007CE606227E490DF1010020F07BF900282C
:108850007FF46EAE94F84CC04FF47A6202FA0CF3D7
:10886000B3F57A4F05DA0CF1010C5FFA8CFC02FAD1
:108870000CF34FF400424FF4FA7000210027C2FBC2
:10888000030184F84CC000234FF47A72676421F02E
:10889000C9FB01238542A06428BF054684F84D30FA
:1088A00046E6062267490DF1010020F04BF9002849
:1088B0007FF438AE94F838C04FF47A6202FA0CF3C1
:1088C000B3F57A4F05DA0CF1010C5FFA8CFC02FA71
:1088D0000CF34FF400424FF4FA7000210027C2FB62
:1088E000030184F838C000234FF47A72276321F023
:1088F00099FB01238542606328BF054684F839301F
:1089000010E6062250490DF1010020F01BF9002865
:108910007FF402AE94F824C04FF47A6202FA0CF3AA
:10892000B3F57A4F05DA0CF1010C5FFA8CFC02FA10
:108930000CF34FF400424FF4FA7000210027C2FB01
:10894000030184F824C000234FF47A72E76121F018
:1089500069FB01238542206228BF054684F8253043
:10896000DAE5062239490DF1010020F0EBF8002884
:1089700039D1267C4FF47A6202FA06F3B3F57A4FC6
:1089800003DA0136F6B202FA06F34FF400424FF46E
:10899000FA7000210027C2FB0301267400234FF464
:1089A0007A72A76021F03EFB01238542E06028BF78
:1089B000054663740826A9E506221E490DF101004B
:1089C00020F0C0F800283FF4B5AE002F3FF4CAAD48
:1089D000082E3FF4C7AD5AE684F89E308CE5A374A8
:1089E0004FF0FF35B1E4082690E51B1A9D42A364C1
:1089F00028BF1D4603E51B1A9D42636328BF1D4621
:108A0000DFE42D1AE560A0E494F89C30002284F89D
:108A10009D20002BE0D0B5F5A02F28BF4FF4A02556
:108A20006AE584F8622008E584F88A2044E500BFFE
:108A3000B93F0020CD3F0020A53F0020913F0020FE
:108A40007D3F0020693F0020553F0020413F00202E
:108A50001B1A9D42236728BF1D460CE51B1A9D4229
:108A6000E36528BF1D46E8E41B1A9D42236228BF28
:108A70001D4688E484F8262085E484F83A20A0E4A2
:108A800084F84E20BBE484F87620F4E41B1A9D425F
:108A9000C4F8843028BF1D460EE584F8263072E401
:108AA00084F88A3008E584F87630E4E484F86230AB
:108AB000C3E484F84E30A2E484F83A3081E400BF85
:108AC00010B582B0694600F0FFFE00282CD1454C5D
:108AD000A37C63BB94F82630002B34D194F83A3051
:108AE000002B3DD194F84E30002B46D194F86230E3
:108AF000002B4FD194F87630002B58D194F88A305F
:108B0000002B61D194F89E3013B9002002B010BD43
:108B1000062235490DF1010020F014F80028F4D1A7
:108B200094F89D30002BF0D0012002B010BD062239
:108B3000611C0DF1010020F005F80028CAD1637C0A
:108B4000002BC7D0F0E7062228490DF101001FF0E5
:108B5000F9FF0028C2D194F82530002BBED0E3E7FE
:108B6000062223490DF101001FF0ECFF0028B9D1C6
:108B700094F83930002BB5D0D6E706221D490DF107
:108B800001001FF0DFFF0028B0D194F84D30002B1A
:108B9000ACD0C9E7062218490DF101001FF0D2FF41
:108BA0000028A7D194F86130002BA3D0BCE706229F
:108BB00012490DF101001FF0C5FF00289ED194F865
:108BC0007530002B9AD0AFE706220D490DF1010058
:108BD0001FF0B8FF002895D194F88930002B91D070
:108BE000A2E700BF403F0020CD3F0020553F0020BE
:108BF000693F00207D3F0020913F0020A53F0020DD
:108C0000B93F0020A0DF704710B582B004460422AF
:108C1000684600211FF0C9FF084B02AA1B6842F8F2
:108C2000043D69460123204642F6A624ADF80040E3
:108C30008DF80230FFF7E6FF02B010BD88A30400F4
:108C400030B5012187B005462D4806F015FBBFF36E
:108C50005F8F08B107B030BD0446284600F0B6FB70
:108C60001128034644D012D986282DD043F202029F
:108C7000904214D1234B224628461978FEF7F0FD86
:108C8000BFF35F8F1E4B00221A6007B030BD30B9B2
:108C90001C49024609782846FEF7E2FDDAE700247F
:108CA00007222846CDE900440293ADF80250CDE9F1
:108CB000034405948DF8002000F0F0FDADF80400A9
:108CC000684602F021FCD5E706232846CDE900449A
:108CD000CDE90244ADF80250CDE904448DF80030EE
:108CE00000F0DCFDADF80400684602F00DFCC1E7C1
:108CF000044B284619780122FEF7B2FDC0E700BFF9
:108D0000044000200A40002070B54FF6FF728CB07E
:108D100000249042CDE90044CDE90244CDE9044469
:108D2000ADF8020001D10CB070BD054600F09CFB0F
:108D30000B28064635D00FD911280BD043F2020379
:108D4000984218D122461E4B28461978FEF788FD16
:108D50000CB070BD0122F6E768B90E23BDF8020021
:108D60008DF8003000F09AFDADF80400684602F07E
:108D7000CBFB3246E7E7002407232846CDE906442B
:108D800008968DF81830ADF81A50CDE909440B94C7
:108D900000F084FDADF81C0006A802F0B5FB2246E9
:108DA000D1E70F23BDF802008DF8003000F076FD0A
:108DB000ADF80400684602F0A7FB2246C3E700BFF7
:108DC0000940002070B5314E86B031780546FEF777
:108DD0002BFD08B106B070BD0446284600F09CFB90
:108DE00008282ED02AD943F2020398424BD043F2EE
:108DF0000143984242D0112845D000230722029017
:108E00002846CDE90033CDE903338DF800200593E2
:108E1000ADF8025000F042FDADF80400684602F0E3
:108E200073FB01221A4B28461978FEF719FD2246DA
:108E300031782846FEF714FD06B070BD40B1062813
:108E4000DBD1284600F02AFD00F082FB0022E9E792
:108E500010232846CDE90044CDE90244CDE904447D
:108E60008DF80030ADF8025000F018FD0124ADF887
:108E70000400684602F048FB2246D3E72846FFF785
:108E800043FF0122CEE70122CCE700BF0C400020C7
:108E90000B40002070B54FF6FF728CB0002490425A
:108EA000CDE90044CDE90244CDE90444ADF8020027
:108EB00001D10CB070BD054600F0D6FA0B2806466D
:108EC00035D00FD911280BD043F20203984218D1A4
:108ED00022461E4B28461978FEF7C2FC0CB070BD26
:108EE0000122F6E768B90E23BDF802008DF80030C4
:108EF00000F0D4FCADF80400684602F005FB3246F1
:108F0000E7E7002407232846CDE9064408968DF8B4
:108F10001830ADF81A50CDE909440B9400F0BEFCAE
:108F2000ADF81C0006A802F0EFFA2246D1E70F23A5
:108F3000BDF802008DF8003000F0B0FCADF8040080
:108F4000684602F0E1FA2246C3E700BF094000206C
:108F50002DE9F04104788CB014B10CB0BDE8F0817B
:108F6000468800944FF6FF739E420546ADF80260B6
:108F7000CDE90144CDE90344059426D106AF30463E
:108F800000F0B4FA28B13C4B304619780122FEF7C4
:108F900067FC6C88204600F081FC3A4600230921DA
:108FA00000F0E2FF052826D0344B3549187800221E
:108FB000FEF778FC02460028CFD1324B32491878B0
:108FC000FEF770FC0CB0BDE8F081304600F04CFAC2
:108FD0000B28804641D015D911283BD043F202031B
:108FE00098421FD1224606AF284B30461978FEF72B
:108FF00037FC6E88C3E7234B204619780122FEF721
:109000002FFCD1E770B90E23BDF802008DF80030B7
:1090100000F044FCADF80400684602F075FA06AFB3
:109020004246E1E706AF0024072330460694CDF818
:1090300020808DF818307C60ADF81A60C7E90344D1
:109040007C6100F02BFCADF81C00384602F05CFAA5
:109050002246C9E7012206AFC6E70F23BDF802008A
:109060008DF8003000F01AFCADF80400684602F0FC
:109070004BFA06AF2246B7E70B4000200A4000201B
:10908000418C020008400020098C020009400020A9
:10909000F0B50378082B83B00ED0304C20783049DF
:1090A0000022FEF7FFFB024620B92E4B2E4918780E
:1090B000FEF7F8FB03B0F0BD457A0446002DECD175
:1090C000067A072E22D0082E3ED0012EE5D16A4620
:1090D0003146808801F08AFA05460028DDD1019BDF
:1090E0001B78002BD9D0A08800F0A6FC4FF6FF73A8
:1090F0009842D2D01D4F194C39783246FEF7B0FB5A
:109100002A4638781A49FEF7CDFBC7E78088134C0A
:1091100000F092FC4FF6FF7398420646BED0012243
:109120002178FEF79DFB304600F0B8FB2B466A46DF
:10913000092100F019FF0528B0D10A4B30461978F3
:109140000122FEF78DFBA9E70A4B1A68012AA4D178
:10915000BFF35F8F014C1D60A0E700BF0A400020F5
:10916000418C020008400020098C02000B400020C6
:10917000C58D020004400020F8B5FEF74BFB144CEF
:10918000144D2070FEF746FB2870FEF743FB124E8D
:10919000124F3070FEF73EFB3870FEF73BFB237832
:1091A0000F4A182B107010D02B78182B0DD0337855
:1091B000182B0AD03B78182B07D0182805D0094B5C
:1091C00000201860BFF35F8FF8BD0320F8BD00BF1B
:1091D0000A400020094000200B4000200C400020E5
:1091E000084000200440002070B503888588353B86
:1091F00086B004461F2B2ED8DFE803F0102D2D2D4E
:109200002D2D2D2D2D2D2D2D2D2D2D2D2D2D2D2D8E
:109210002D2D2D2D2D2D2D692D642D3B424B002202
:1092200019782846FEF71CFBE28812B9A1890129AA
:109230006CD0092300210122ADF802108DF8023014
:109240003A4BADF800202846019300F027FB00229E
:10925000694600F005FF364C364B37491878002236
:10926000FEF720FB207835490022FEF71BFB06B0F5
:1092700070BD002611232846CDE90066CDE90266BF
:109280008DF80030ADF80250CDE9046600F006FB21
:10929000ADF8040000F05CF9294B254C19783246F2
:1092A0002846FEF7DDFA324628462178FEF7D8FA3E
:1092B000BDF8020000F0F2FAADF80400684602F0D2
:1092C00023F9C9E72846FFF71FFD194CC4E7037BC4
:1092D000012BC0D1827A012ABDD1018942F6021345
:1092E0009942B8D1174C28462178FEF7B9FA0022E6
:1092F00020781549FEF7D6FA02460028ABD10A4B72
:10930000124918780A4CFEF7CDFAA5E7A47B104B5A
:109310000648ADF802200922ADF80010002C08BF65
:1093200003468DF802208EE7084000208CA304003D
:109330000B40002009400020958E0200C58D0200E0
:109340000C4000200A400020418C0200098C0200E1
:1093500090A30400AFDF7047B1DF7047B2DF704702
:10936000B3DF704770B5134C23884FF6FF75AB42DF
:1093700082B00DD0104A92E803006E4686E80300E2
:1093800000221846314600F06BFE2388AB420CD118
:1093900002B070BD184600F0C5FE002231462080A4
:1093A00000F05EFE2388AB42F2D01128F2D102B069
:1093B00070BD00BF0E400020A8A30400024B4FF672
:1093C000FF721A80002070470E4000202DE9F04106
:1093D00082B0074600F062FA4FF6FF7398423CD025
:1093E000064601244FF003086B462246082130460A
:1093F00001F000F903230546F0B9019A3846911DA2
:1094000042F8048BFFF7AAFF013403460821D8B1C4
:109410000C28304603D1A4B201F056FAE4E7082143
:10942000052B18BF1D4601F04FFA002818BF032571
:10943000284602B0BDE8F081072814BF05460C2578
:10944000284602B0BDE8F0813246304601F0D8FA35
:109450000546284602B0BDE8F08143F202052846E1
:1094600002B0BDE8F08100BF2DE9F04182B00746AF
:1094700000F014FA4FF6FF73984227D100263546C4
:1094800003244FF001082346324629463846FFF7A9
:1094900063FF04280AD008280AD00B280AD0B8F1A4
:1094A000000F08BF0B2002B0BDE8F0811120F6E7E5
:1094B0000020F4E714F0020406D195B126462546B3
:1094C00003244FF00008DEE70124FAE76A4608218A
:1094D00001F08CF80028D1D1019DAE882C680635AA
:1094E000CFE7002EDFD02E460324EAE700B585B093
:1094F0000DF10703039300F0D1F902AA012101F055
:1095000075F820B9039B187805B05DF804FB0020BE
:1095100005B05DF804FB00BF38B50C4B0446184697
:10952000FFF71EFF78B9198843F203054FF6FF7263
:109530002046FFF70FFFA84200D038BD198801313F
:1095400089B21980F2E7032038BD00BF1040002027
:1095500010B5074B044693E8030082B06B4683E8DE
:10956000030000221946204600F07AFD02B010BD2B
:10957000B0A3040046DF70470388102B00D070476B
:1095800070B5041D0FCC9EB007AD0FC50FCC0FC535
:1095900094E807009DF8203003F0FE03062B85E8D1
:1095A000070014D1BDF81C306B49089803EB830306
:1095B0005B004FF6FF74CC52CA18BDF824409DF8EA
:1095C00026101172C2F80200D4801EB070BD00F0E7
:1095D00011FD9DF820305B08012B13D9022BE1D13E
:1095E00005AD0DF1060405E09DF8203003F0FE0303
:1095F000042B4CD02A462146072000F003FD00280A
:10960000F2D1CFE705AD0DF106042A462146072029
:1096100000F0F8FC0028C5D0069911F1110FF4D024
:109620009DF820304A7C534013F0FE0FEDD11231EB
:1096300006220DF121001FF085FA0028E5D1BDF8C2
:109640001C20454DBDF80610089802EB82035B0014
:10965000EC18E952A31CC4F80200BDF8240098805D
:109660004FF6FF709DF826409C718142ADD01EAC34
:10967000002304F8303D2046ADF84A20ADF84C10E8
:1096800001F056FF2046FFF763FC1EB070BD069E3A
:1096900003220DF1210102A81FF063FA032209A998
:1096A00004A81FF05EFA337C8DF84830F37B8DF808
:1096B0004930B37B8DF84A30737B8DF84B30337B68
:1096C0008DF84C30F37A8DF84D30B37A8DF84E30FA
:1096D000737A8DF84F30337A8DF85030F3798DF8F6
:1096E0005130B3798DF8523073798DF85330337926
:1096F0008DF85430F3788DF85530B3788DF85630B6
:1097000073788DF857300D22002116A81FF04DFAFE
:109710009DF810109DF811209DF812308DF86710FB
:1097200012A88DF866208DF86530FFF723FF9DF8AD
:1097300077209DF876609DF875308DF80C2003A990
:10974000032202A88DF80D608DF80E301FF0FAF993
:1097500000287FF44FAF72E714400020F8B51022C4
:1097600004460D460130013104F111061FF0EAF9FB
:1097700000284DD16378F3B9A378E3B9E378D3B97E
:109780002379C3B96379B3B9A379A3B9E37993B959
:10979000237A83B9637A73B9A37A63B9E37A53B945
:1097A000237B43B9637B33B9A37B23B9E37B13B931
:1097B000277C002F2DD06B78002B4DD1AB78002B60
:1097C0004AD1EB78002B47D12B79002B44D16B7910
:1097D000002B41D1AB79002B3ED1EB79002B3BD153
:1097E0002B7A002B38D16B7A002B35D1AB7A002B3A
:1097F00032D1EB7A83BB2B7B73BB6B7B63BBAB7BC5
:1098000053BBEB7B43BB2F7C003718BF012700E025
:109810000027637C46B115F1110605D06A7C5A40D9
:1098200012F0FE0F0CD0002603F0FC03042B05D031
:109830006B7C03F0FC03042B18BF37463846F8BD99
:10984000062205F1120104F112001FF07BF9B0FAB3
:1098500080F67609637CE7E70127DAE730B585B063
:1098600005460C4600F0C6FB03E0BDF80630A342F7
:109870000BD102AA0DF10601072000F0C3FB00285E
:10988000F3D14FF6FF7005B030BD03992846FFF7BE
:1098900065FF0028EDD0BDF80600F4E713280DD8C9
:1098A00010B50446FDF748FF28B104EB8403054AD0
:1098B00032F8130010BD4FF6FF7010BD4FF6FF7069
:1098C000704700BF14400020132816D838B504464E
:1098D0000D46FDF731FF68B1094A04EB840302EB42
:1098E0004303002053F8022F2A609A889B79AA80AC
:1098F000AB7138BD43F2020038BD43F2020070473D
:109900001440002008B502887AB983786BB9C3780F
:109910005BB903794BB943793BB983792BB9C379E7
:109920001BB9037A0BB9437A13B10B88934201D068
:10993000002008BD0231082202301FF003F9B0FAFE
:1099400080F0400908BD00BF30B585B00446851CD5
:1099500000F050FB02AA0DF10601072000F052FBB7
:1099600000285AD023880399002B35D1A278002AE9
:1099700057D1E378002B49D12279002A46D1627968
:10998000002A43D1A279002A40D1E279002A3DD1B0
:10999000227A002A3AD1627A002A37D12379002B21
:1099A0002FD1627952B9A379002B2AD1E2792AB951
:1099B000237A002B3AD1627A002ACBD04A8D9A4280
:1099C000C8D12C31082228461FF0BCF80028C1D18C
:1099D000BDF8060005B030BDB1F846209A42EDD181
:1099E0004831082228461FF0ADF80028F0D023881F
:1099F0000399002BE2D1A278002ADFD1E378002B73
:109A0000CCD04A8D00239A42A4D1DAE7B1F846209F
:109A1000002AE5D0002BC1D0F3E74FF6FF7005B068
:109A200030BDB1F84620002ADAD0C7E713464A8D88
:109A30009A428FD1C5E700BFF8B54FF6FF73984241
:109A400014D007460B4D002401E0142C0ED02B88B7
:109A5000BB42A6B205F10A0504F10104F5D1304676
:109A6000FDF76AFE0028F0D03046F8BD4FF6FF76CD
:109A70003046F8BD14400020038893B9837883B939
:109A8000C37873B9037963B9437953B9837943B917
:109A9000C37933B9037A23B9407A003018BF012063
:109AA00070470120704700BF132804D800EB8000E6
:109AB000014B23F81010704714400020F8B54FF602
:109AC000FF73984203D1BDE8F84000F0CBBC114FC2
:109AD000064600243D4602E00134142C14D02B88A5
:109AE000B342A0B205F10A05F6D1FDF725FE002824
:109AF000F2D0304600F0B6FC28B904EB84044FF6EF
:109B0000FF7327F81430F8BD3046BDE8F84000F088
:109B1000A9BC00BF1440002081DF704770B51C4C09
:109B200082B04FF4E162002120461FF03EF809F0B8
:109B300081FD08B102B070BD07F0F0F90028F9D13D
:109B4000144A154E94F880331070402530700195FA
:109B5000E3B994F80437CBB9104B114A11491248B4
:109B600006F0A8FF0028E5D101AA10490B4807F02C
:109B700043F80028DED10D4A0A482B46114607F06B
:109B80005DF80028D6D101233370D3E71120D1E747
:109B90001C480020DC400020B84700205C52002018
:109BA000244F002028A504006C440020DC4700203E
:109BB000034B04481B78002B08BF0020704700BFF0
:109BC000B8470020DC4700203D4B1B78002B4ED1CE
:109BD00070B53C4C94F8803384B02BB994F80437BA
:109BE0002BBB002004B070BD374B1B78202603969A
:109BF000002B3FD094F880334BB103AB0093334933
:109C0000334B3448224607F055F800283CD0202139
:109C10002F4807F0BBF900283ED12D490020FFF75F
:109C20007BFF002384F880330028D7D0DAE7264B67
:109C30001B7820250395E3B194F8043743B103ABB7
:109C40000093254A224B2149224807F033F868B394
:109C500020211F4807F09AF980BB1D490120FFF71A
:109C60005BFF002384F804370028BAD0BAE703204A
:109C7000704701234FF4617202FB0343032000226B
:109C800083F8802304B070BD114A1448334611464E
:109C900006F0D4FF0028C0D000234FF4617202FB0D
:109CA0000344002384F8803304B070BD084A0B4895
:109CB0002B46114606F0C2FF0028CED00123ECE768
:109CC000DC4000201C480020B8470020244F002022
:109CD000BC470020E0400020A04B002028A5040045
:109CE00030B503888488112B91B00ED0182B0AD17F
:109CF000816814486A46402306F0A0FF054670B10B
:109D0000114B01221A7011B030BD104A4FF461732B
:109D100003FB0424002384F8803311B030BD0B4BC7
:109D200008484FF4617202FB043421466A4640231E
:109D300006F040FF18B9012384F88033E3E784F884
:109D40008053E0E728A50400DC4000201C480020E8
:109D5000F0B500238DB0244F1946082201A83B70AE
:109D60001EF023FF4FF6FF7000F068FF4FF6FF76FE
:109D7000B0421BD0044607E000F004FF204600F08C
:109D80005DFFB042044611D0A4F58045ADB228462F
:109D900001AA03A908F0C0FB0A282046ECD02846F7
:109DA00008F066FA0828034602D02BB90DB0F0BDC2
:109DB00001233B700DB0F0BD0022089301214FF646
:109DC000FF7306A80725CDE90622CDE909220B92EB
:109DD000ADF81C408DF818508DF82410ADF81A30ED
:109DE00000F006FA0DB0F0BDE455002010B58289F0
:109DF000047886B002F58042002392B2611ECDE95C
:109E00000033CDE90233ADF80420CDE90433042951
:109E100011D8DFE801F03333331703004368002B18
:109E200056D113224FF0FF3368468DF80020CDF84D
:109E3000023000F0DDF9304C23780BB1FFF788FFDA
:109E400006B010BD43F6FE739A42F4D8C389002BC6
:109E5000F1D14368002B47D00B21012202938DF8EA
:109E600000108DF80C20244C01224FF6FF73684639
:109E70002270ADF8023000F0BBF9DDE743F6FE7367
:109E80009A42C1891ED8D0E90132A4F10304B4FA80
:109E900084F464098DF808108DF809400392EBB939
:109EA0009DF8103043F001038DF8103008224FF672
:109EB000FF7368468DF80020ADF802300E4C00F0BC
:109EC00097F9B9E701F5804292B29A42DBD9B2E73D
:109ED00001228DF80C2002931422A3E701228DF8B1
:109EE000142004930922E2E70A2310468DF800307B
:109EF00000F048FEB7E700BFE455002030B5194830
:109F000089B007F043FE48BB07F056FE054608BB84
:109F100000F000FE03A8082229461EF046FE0DE0D0
:109F200005A808F019F8019B9C8804F58044A4B2A8
:109F300005A808F039F8204600F0F4FD05A903AAA9
:109F40004CF2070008F07AFA01A90028E8D0284668
:109F500009B030BD8625284609B030BD0325284606
:109F600009B030BDED9D0200F0B5FF2887B004D8E0
:109F7000012906D00C1F052C03D90724204607B061
:109F8000F0BD0D4604460021174601A808221E46D2
:109F90001EF00BFEA4F58040A5F5804180B201AB18
:109FA00003AA89B208F0D8F9E0B901A903A807F01B
:109FB000D3FF0446B0B9019BBD705B883B8002991A
:109FC000A6B1368878689D00AE4228BF2E4632463C
:109FD0001EF0C7FDB5420BD803A807F0E5FF2046E9
:109FE00007B0F0BD0524204607B0F0BD7960F3E767
:109FF0000C24C3E70822002101481EF0D6BD00BF93
:10A00000DC550020012804D0031F052B01D90120B5
:10A01000704770B5044686B0A0F5804015460E46E0
:10A0200080B203A90D4A08F009FA10B1002006B069
:10A0300070BD01A903A807F08FFF0028F6D1019B8E
:10A04000AC705988029A29806A609B8803F5804326
:10A0500003A8338007F0A8FF0120E8E7DC550020C3
:10A06000F0B5FF2889B005D88B78012B06D01C1FCE
:10A07000052C03D90724204609B0F0BDA0F5804483
:10A08000A3F580439DB24F680B880493A4B20021CE
:10A09000164668460822ADF80840ADF80A50039706
:10A0A0001EF083FD294620466B4605AA08F054F9A8
:10A0B00080B902A905A808F03BF804460E2C1CD86C
:10A0C000DFE804F0141B1B1B1B1B1B120E1B1B1BAE
:10A0D0001B1B0E0002A905A807F08CFF0446EDE744
:10A0E0001124204609B0F0BD8624C4E7002EC2D05A
:10A0F000314605A808F07EFABDE70324BBE700BFA0
:10A100004FF6FF7000F00EBDFF2806D808B500F02E
:10A1100027FDFFF71DFE002008BD0720704700BF88
:10A1200000F044BD00F04CBD00F088BD10B582B019
:10A130008278417A044600232B48CDE900338DF81C
:10A14000022001F041FC002839D0237AA178019047
:10A1500003EB83039B004A1EADF800308DF802101C
:10A16000072A08D8DFE802F01E070707071E042E9B
:10A170001423ADF800306946221D2088FFF770FFD8
:10A1800007280DD012D9112822D0862817D1A37AFA
:10A19000164A03F0FD0343F001030121A37211707D
:10A1A00002B010BD0123ADF80030E4E738B9A37A5E
:10A1B00060F3410360F30003A37202B010BD0320FB
:10A1C00002B010BD838809339B08ADF80030D2E798
:10A1D000A37A064A43F002036FF300030121002033
:10A1E000A372117002B010BD2C5700202857002018
:10A1F0002DE9F0416D4DC3686A68934286B004460C
:10A2000000F0CF802A69934200F0CD80EA69934242
:10A2100000F0BF80AA6A934208BF032600F0BA800C
:10A2200000262378092B00F0A580132B76D0082B6D
:10A2300047D0204601F074F8204602F0C5FB5C4F81
:10A240002046FFF78FF82046FEF722FF3B7813B930
:10A2500006B0BDE8F08100233B7000244FF00108F8
:10A260006600331905EB830318469B7A9A074BD592
:10A2700087F80080FFF75AFF002849D034444FF692
:10A28000FF7335F82420ADF804208628ADF802309D
:10A2900000F0858000238DF80C300290072306AC77
:10A2A00004F8183D204601F03BF8204602F08CFBF4
:10A2B0002046FFF757F82046FEF7EAFE06B0BDE855
:10A2C000F081677A002FB4D1002EB2D0337A5BB11F
:10A2D000DFF8E080717A3944C9B2404601F08EFB64
:10A2E000337A01379F42F5D3B37A03F0FD036FF35E
:10A2F00000034FF6FF72FF21B37200233280B27069
:10A3000071723372736094E7D90748BF87F8008091
:10A310000134042CA4D106B0BDE8F081204600F041
:10A32000FFFF204602F050FB214F2046FFF71AF8AE
:10A330002046FEF7ADFE3B78002B89D000243C7010
:10A340004FF001086600331905EB83039B7A9A07E7
:10A3500001D4DB0708D5301905EB800087F80080B1
:10A36000FFF7E4FE002889D10134042CEAD106B0BD
:10A37000BDE8F081637A002B7FF45BAF002E3FF4E1
:10A3800058AFB27A0A4F736042F00202B2723B7069
:10A3900063E7022606EB460605EB860641E7062341
:10A3A0007DE70026F6E70126F4E700BF3C570020D2
:10A3B000285700202C57002070B5264C264BA27A37
:10A3C000A57D94F8221094F82E0002F0FD026FF3A0
:10A3D0000002A27205F0FD05002262F30005FF26CF
:10A3E00001F0FD0100F0FD0082B0667262F3000131
:10A3F00062F30000A57550260425CDE900562272AF
:10A400004FF6FF7562602275226184F82020E261B8
:10A4100084F82C20A26284F8221084F82E004FF4D5
:10A42000A0720E490E482580A570A581A57365759B
:10A430002583A57684F82150A58484F8265084F8D5
:10A440002D5001F063FA002814BF0320002002B051
:10A4500070BD00BF3C5700206C570020E85500201D
:10A460002C5700202DE9F047DFF87091B9F8003043
:10A470008342054600F0AB80B9F80C30834200F00F
:10A48000A880B9F8183083420ED0B9F8243083423E
:10A4900008BF032609D02846FFF736FE10B107286B
:10A4A00018BF0320BDE8F087022606EB4601B9F885
:10A4B00024C0DFF83481484F09EB8101B9F800303E
:10A4C000AB4228D0B9F80C30AB427AD0B9F818308A
:10A4D000AB4273D0654577D0731C042BDBD003EB04
:10A4E000430239F82220AA425AD0B31C042BD2D0FE
:10A4F00003EB430239F82220AA4251D0002ECAD1E0
:10A50000B9F824C06545C6D1B9F80030AB424FF068
:10A5100003064146D6D1314C00228878A378834285
:10A520001AD0531C042BD7D003EB430139F8211068
:10A53000A9423DD0931C042BCED003EB430139F844
:10A540002110A94234D0002AC6D16545C4D1444661
:10A550000322A3788342E4D1A37A9B07E1D1636805
:10A56000002BDED1227A5AB19A46617A5144C9B29F
:10A57000384601F043FA237A0AF1010A9A45F4D3E6
:10A58000A37A03F0FD034FF6FF7100226FF300037F
:10A59000FF20A3722180A1706072227262609BE72B
:10A5A00003EB43011E4609EB8101B9F824C085E79E
:10A5B00003EB43041A4609EB8404AFE7084C02227C
:10A5C000ABE7084C0122A8E744460322A5E7002692
:10A5D0006BE7012669E700BF2C5700203C5700209D
:10A5E0005457002048570020605700200023FFF7F1
:10A5F000BBBC00BF2DE9F04F83B001927BB3CC1FF1
:10A60000012C28D8541E032C25D8AC4FB7F8009045
:10A61000484500F08E80BC89844200F08C803C8BE1
:10A62000844220D0BC8C844200F087804FF6FF74B7
:10A63000A14500F0B780BD89A54200F036813D8B71
:10A64000A54200F03081BD8CA54200F0E6801120CB
:10A6500003B0BDE8F08F072003B0BDE8F08F0E20F7
:10A6600003B0BDE8F08F0224BD8C04EB44088542A2
:10A6700007EB880864D098F802B0651C02344FEAF2
:10A68000450C66008B450CEB050E06EB040A0FD05B
:10A69000042DCBD037F82EE0864532D0042CC5D01F
:10A6A00037F82A508542C1D1264407EB8608E2E7F5
:10A6B00098F80AB01BF0030FEAD1D8F80420002A5A
:10A6C000E6D198F80800019A90421DD10F4698F8FB
:10A6D0000910019DFF291E4618D00024784888F8EB
:10A6E000085001F071F910B305EB8502120192B226
:10A6F00092083280B77070600CB1082F12D0002021
:10A70000AAE72C466646CFE70F20A5E729466C4806
:10A7100001F012F9FF28014688F8090000F0AE8028
:10A720000124DBE79300063B8380002094E70320AD
:10A7300092E7002498E7012496E7032407F1240810
:10A74000DFF880C198F802508D421CD0651C042DA2
:10A750003FF46CAF05EB450637F8266086421BD008
:10A76000A51C042D3FF462AF05EB450637F82660C3
:10A77000864211D0002C7FF459AFE046032498F8AC
:10A7800002508D42E2D198F80A50AE07DED1D8F8D7
:10A790000450002DDAD194E705EB45082C4607EB71
:10A7A0008808CFE70024BD8C4FF6FF7A04EB4408FD
:10A7B000554507EB880833D098F80250661C0234E0
:10A7C0004FEA460E4FEA440CFF2D0EEB06090CEB48
:10A7D000040B12D0042E3FF43AAF37F829505545F8
:10A7E00018D0042C3FF433AF37F82B5055457FF485
:10A7F0002EAFA44407EB8C08DEE798F80A50AD07AB
:10A80000E8D1D8F80450002DE4D1A8F8000088F869
:10A8100002105BE73446F446EBE7DFF8A880032438
:10A82000DFF8A0C04FF6FF7698F80250FF2D1CD03D
:10A83000651C042D3FF40BAF05EB450E37F82EE0F9
:10A84000B64534D0A51C042D3FF401AF05EB450EF1
:10A8500037F82EE0B6452AD0002C7FF4F8AEE0465B
:10A86000032498F80250FF2DE2D198F80A50AA0765
:10A87000DED1D8F80450002DDAD1C6E798F80A30B6
:10A8800088F8020003F0FD0300226FF300034FF687
:10A89000FF7188F80A30A8F8001088F80820C8F876
:10A8A00004201120D8E602247DE701247BE705EB94
:10A8B00045082C4607EB8808B6E700BF3C57002048
:10A8C0002C570020605700202DE9F843494E33886B
:10A8D000834289460BD0B389834259D0338B83425C
:10A8E00058D0B38C834257D00520BDE8F8830023AD
:10A8F000B28C03EB4305824206EB85054FD095F8F9
:10A9000002C05A1C023357005C00CC4507EB020E14
:10A9100004EB03080FD0042AE6D036F82E50854207
:10A9200030D0042BE0D036F828208242DCD11C4401
:10A9300006EB8405E3E795F80AC01CF0030FEAD1A3
:10A9400069680029E7D12B7A5BB12B4E0024697A24
:10A950002144C9B2304601F051F82B7A01349C42AF
:10A96000F5D3AB7A03F0FD034FF6FF7200206FF3CF
:10A970000003FF21AB722A80AA7069722872686096
:10A98000BDE8F88313463C461C4406EB8405B6E755
:10A990000123ADE70223ABE7032306F12405174F9C
:10A9A000AA784A4518D05A1C042A9DD002EB4204CA
:10A9B00036F82440844216D09A1C042A94D002EB24
:10A9C000420436F8244084420DD0002B8CD13D4601
:10A9D0000323AA784A45E6D1AA7A9207E3D16A68A6
:10A9E000002AE0D1AFE702EB4205134606EB8505EE
:10A9F000D6E700BF3C5700202C57002060570020AE
:10AA0000CB1F012B01D9072070472DE9F047804665
:10AA1000104692468946FFF783FB78B13B490B8885
:10AA200043450ED08B89434541D00B8B43453CD0E9
:10AA30008B8C43453DD00520BDE8F0870720BDE85D
:10AA4000F08700238A8C03EB4305424501EB850523
:10AA500032D0AE785C1C02334FEA440C58004E45AD
:10AA60000CEB040700EB030E0FD0042CE3D031F8FD
:10AA70002760464516D0042BDDD031F82E404445E2
:10AA8000D9D1C51801EB8505E3E7AA7A9607ECD181
:10AA90006A68002AE9D1A5F800A02846BDE8F04779
:10AAA000FFF744BB23466046EBE70223CAE70123D6
:10AAB000C8E7032301F12405154CAA784A4518D0AC
:10AAC0005A1C042AB7D002EB420031F8200040455E
:10AAD00016D09A1C042AAED002EB420031F82000B6
:10AAE00040450DD0002BA6D125460323AA784A4520
:10AAF000E6D1AA7A9207E3D16A68002AE0D1CAE7D0
:10AB000002EB4205134601EB8505D6E73C570020D2
:10AB1000605700204022002101481EF046B800BFC7
:10AB2000705700204FF6FF73984210B509D0FF28E8
:10AB300004460FD80146094804F036FB50B92046B8
:10AB400010BD4FF48071054804F052FB80B2B0F59F
:10AB5000807FF5D14FF6FF7010BD00BF7057002009
:10AB600008B54FF6FF73984208D0FF2806D8014673
:10AB7000034804F019FB08B9012008BD002008BDF6
:10AB800090570020FF2800D9704710B501460446B1
:10AB9000044804F019FB21460348BDE8104004F0C6
:10ABA00013BB00BF7057002090570020FF2801D929
:10ABB000002070470146014804F010BB7057002088
:10ABC0004FF6FF7398422DE9F04130D0013086B244
:10ABD000FF2E27D8174C03E09EB2B6F5807F21D018
:10ABE0003146204604F0FAFA731C0028F4D0DFF84E
:10ABF0004880A8F120073146404604F0EFFA98B1AA
:10AC0000741CA4B2B4F5807F0CD0A5B2214638469E
:10AC100004F0E4FA01342E46A5B20028EBD1B5F5D4
:10AC2000807FF3D14FF6FF763046BDE8F0810026F5
:10AC3000D0E700BF705700209057002038B54FF67E
:10AC4000FF73984216D0013084B2FF2C0ED80A4D03
:10AC500003E09CB2B4F5807F08D02146284604F07A
:10AC6000BDFA631C0028F4D0204638BD4FF6FF74AF
:10AC7000204638BD0024EAE79057002076DF704771
:10AC800010B5037882B053B1072B01D002B010BDCC
:10AC900080680028FAD00CF09FF802B010BD4488FC
:10ACA00001A9204600F0BAFC43F20202904202D011
:10ACB00008B10CF091F89DF8041011F00201E5D1F3
:10ACC000204600F099FC0028E0D01128DED00D28A5
:10ACD00006D00B28DAD043F202029042DBD1D5E74E
:10ACE00020461321FFF7CAFFD0E700BFF0B5037875
:10ACF00087B00446142B2DD8DFE813F03E012C005A
:10AD00006A012C002C002C0015002C002E002C00B9
:10AD10002E002C002C002C002C002C002C002C00D1
:10AD20002C0033004F01D04C23789BB9CF4D2B78AA
:10AD3000002B40F070816A461946184600F0FEFC70
:10AD40000646002800F05681431F012B02D93046E9
:10AD50000CF042F807B0F0BDC44B01221A7007B0E6
:10AD6000F0BDC34EC34D3468BF49C048624202F0D3
:10AD7000070204F0070358BF5342002235F813704E
:10AD80000A704FF6FF718F4202700FD0384625F8D7
:10AD9000131000F03FFD862800F08A81112800F092
:10ADA0008781132840F226820CF016F8631C5A4261
:10ADB00002F0070203F0070358BF53424FF6FF7239
:10ADC00035F8137097420FD0384625F8132000F05D
:10ADD00021FD862800F05281112800F04F811328B0
:10ADE00040F202820BF0F8FFA31C5A4202F0070265
:10ADF00003F0070358BF53424FF6FF7235F8137044
:10AE000097420FD0384625F8132000F003FD86281E
:10AE100000F0D081112800F0CD81132840F2F0819C
:10AE20000BF0DAFFE31C5A4202F0070203F00703BB
:10AE300058BF53424FF6FF7235F8137097420FD048
:10AE4000384625F8132000F0E5FC862800F09881AC
:10AE5000112800F09581132840F2EA810BF0BCFF25
:10AE6000231D5A4202F0070203F0070358BF534262
:10AE70004FF6FF7235F8137097420FD0384625F819
:10AE8000132000F0C7FC862800F06081112800F034
:10AE90005D81132840F2C0810BF09EFF631D5A4272
:10AEA00002F0070203F0070358BF53424FF6FF7248
:10AEB00035F8137097420FD0384625F8132000F06C
:10AEC000A9FC862800F02881112800F0258113288C
:10AED00040F29C810BF080FFA31D5A4202F0070252
:10AEE00003F0070358BF53424FF6FF7235F8137053
:10AEF00097420FD0384625F8132000F08BFC8628A7
:10AF000000F0F080112800F0ED80132840F28A81D3
:10AF10000BF062FF0734634203F0070304F00704F9
:10AF200058BF5C424FF6FF7335F814709F423FF4F0
:10AF300011AF384625F8143000F06CFC862801D09B
:10AF4000112820D131684B1C5A4202F0070203F04D
:10AF5000070325F8117058BF5342062100226846A6
:10AF6000CDE900223360CDE90222CDE904228DF83B
:10AF70000010FFF7BBFEEDE6808800F04BFC862852
:10AF800050D011284ED0132804D83B4BC340DB07C8
:10AF90003FF5E0AE0BF020FFDCE6334A037B0021F7
:10AFA0001170002B3FF4D6AE83680E2B02D0012B1C
:10AFB0007FF4D0AE002306226846CDE90033CDE908
:10AFC0000233CDE904338DF80020FFF78FFEC1E690
:10AFD000037A012B3FF6BEAE002382886846CDE996
:10AFE0000033CDE90233ADF80420CDE90433FFF797
:10AFF0007DFEAFE6BDF8000000F048FB064608B154
:10B000000BF0EAFE0122731F93422A707FF6A2AE74
:10B01000002E7FF49CAE07F063F908B308283FF4D4
:10B0200099AEB7E71249134A0B68A08822F81300BB
:10B0300001335A4202F0070203F007034FF00604FF
:10B0400058BF534268460022CDE900220B60CDE98B
:10B050000222CDE904228DF80040FFF747FE79E691
:10B060000123237076E600BFB0570020B1570020BF
:10B07000B4570020883B0020C100080031684B1CF9
:10B080005A4202F0070203F0070358BF53423360ED
:10B09000002206236846CDE9002225F81170CDE98B
:10B0A0000222CDE904228DF80030FFF71FFE9BE657
:10B0B00031684B1C5A4202F0070203F0070358BFE5
:10B0C00053423360002206236846CDE9002225F86A
:10B0D0001170CDE90222CDE904228DF80030FFF78E
:10B0E00005FE63E631684B1C5A4202F0070203F08A
:10B0F000070358BF53423360002206236846CDE958
:10B10000002225F81170CDE90222CDE904228DF844
:10B110000030FFF7EBFDFDE631684B1C5A4202F0B0
:10B12000070203F0070358BF53423360002206238F
:10B130006846CDE9002225F81170CDE90222CDE95B
:10B1400004228DF80030FFF7D1FDC5E631684B1CB5
:10B150005A4202F0070203F0070358BF534233601C
:10B16000002206236846CDE9002225F81170CDE9BA
:10B170000222CDE904228DF80030FFF7B7FD8DE6FD
:10B1800031684B1C5A4202F0070203F0070358BF14
:10B1900053423360002206236846CDE9002225F899
:10B1A0001170CDE90222CDE904228DF80030FFF7BD
:10B1B0009DFD55E631684B1C5A4202F0070203F030
:10B1C000070358BF53423360002206236846CDE987
:10B1D000002225F81170CDE90222CDE904228DF874
:10B1E0000030FFF783FD1DE6144BC340D9077FF500
:10B1F000F9ADF9E5114BC340DF077FF5D5ADD5E5D6
:10B200000E4BC340DA077FF50BAE0BE60B4BC3408A
:10B21000D9077FF55FAE5FE6084BC340DF077FF5D8
:10B220003BAE3BE6054BC340DA077FF571AE71E6F6
:10B23000024BC340DB077FF511AE11E6C1000800E9
:10B24000074B1A7802B9704710B50446FEF794F917
:10B25000204601F01BFC2046BDE81040FDF7C4BFAE
:10B26000CE5700202DE9F043294B1F7885B027B930
:10B27000284B1F7005B0BDE8F0834FF6FF70FEF756
:10B2800051FF04210DF102030DEB0106ADF8021090
:10B2900002AA002506210446CDE901550396FEF7D2
:10B2A00063FE07280346E3D04FF6FF78C1464FF010
:10B2B000FF360BE0052B16D1FEF734FF0DF102032C
:10B2C00002AA06210446FEF74FFE03462046002B45
:10B2D000F0D1019BAB4224BFA1461D46B3423CBF07
:10B2E000A0461E46E8E74FF6FF739C4209D10A4B81
:10B2F0000A4A1D60074BA2F800901F7005B0BDE818
:10B30000F083044B00271F7005B0BDE8F08300BF39
:10B31000CE570020D0570020B8570020CC5700202F
:10B320002DE9F043054687B08088FEF785FB2B7832
:10B330006880083B032B19D8DFE803F06A5902281C
:10B340005F4C237843B14FF6FF70FEF7EBFE4FF6EC
:10B35000FF739842064679D05A4B1B7833B15A4B4B
:10B36000AA881B889A4201D1FFF77CFF574E337899
:10B370004BB1574F002457F824302846984733786C
:10B3800001349C42F7DB07B0BDE8F0834C4B1A78E0
:10B39000002AEBD00024E846214618224B4E1C70B0
:10B3A00040461DF002FCAA68029233780D224FF04D
:10B3B000FF318DF800202A7BCDF802108DF80C208B
:10B3C000002BE0D0424F57F8243028469847337876
:10B3D00001349C42F7DB002BD5D0002457F82430F1
:10B3E00040469847337801349C42F7DBCBE76B7AD1
:10B3F000002BBBD137490A68002AB7D0E8688242DF
:10B40000B4D135480B600268EB60013A0260ADE7E9
:10B410006B7A93B92F490A6812B1E86882420FD05B
:10B42000284B1B78002BA1D0274BAA881B889A4257
:10B430009CD12B7A062B99D196E7012B96D1EFE779
:10B44000214AA8880B60EB6010808FE7FEF76CFE46
:10B45000B04281D14FF00009E8461C4E84F80090BC
:10B460004946182240461DF0A0FB33780C214FF0CE
:10B47000FF328DF80010CDF802209BB1144F57F821
:10B48000293028469847337809F101099945F6DBB8
:10B4900043B1002457F824304046984733780134AC
:10B4A0009C42F7DB074B1B78002B3FF46CAF064A3E
:10B4B000AB8812889A427FF466AFFFF7D3FE62E74B
:10B4C000BC570020D0570020CC570020CF57002079
:10B4D000C0570020D4570020B857002078B1F8B5E5
:10B4E000074E337853B1074F0546002457F82430F0
:10B4F00028469847337801349C42F7DBF8BD704703
:10B50000CF570020C0570020F8B5074E337853B10D
:10B51000064F0546002457F82430284698473378CC
:10B5200001349C42F7DBF8BDCF570020C057002004
:10B53000F8B5074E337853B1064F0546002457F847
:10B54000243028469847337801349C42F7DBF8BD15
:10B55000CF570020C057002038B5FEF7CFFCD0B938
:10B56000FEF72AFFB8B901F053FAA0B900F0ACFB1E
:10B5700088B9FDF701FE70B9FDF720FF58B9074AF9
:10B580000749084B084C106001224FF6FF75087000
:10B590001A70258038BD032038BD00BFD457002065
:10B5A000D0570020CE570020CC5700200A4B1B78E4
:10B5B0007BB10A4A1378022B09D810B4591C084CE5
:10B5C000117044F8230000205DF8044B70470420FC
:10B5D00070470820704700BFCE570020CF5700208B
:10B5E000C0570020034B1B780BB101F06DBA082047
:10B5F000704700BFCE57002008B5054B1B782BB114
:10B6000001F0A8FA082808BF112008BD082008BDCD
:10B61000CE57002009B101F09BBA704738B51A4BDC
:10B620001B7853B371B305460C46FCF7A9F830B349
:10B63000A0F102032278B3FA83F35B0963F30002FB
:10B6400022702846FEF72AF94FF6FF73C01A2278B7
:10B6500018BF012060F3C30222702846FCF7AAF845
:10B66000237860F3410323702846FCF7BBF8237866
:10B6700060F382032370002038BD082038BD43F2F8
:10B68000020038BD0E2038BDCE570020034B1B787A
:10B690000BB1FEF713BA0820704700BFCE57002049
:10B6A000F0B5224E337887B0002B3BD0204D0123DC
:10B6B0004FF6FF702B70FEF735FD4FF6FF77B8425F
:10B6C000044628D100241B4E2C70214618226846BF
:10B6D0001DF06BFA33780C214FF0FF328DF800101B
:10B6E000CDF8022043B1144D55F8243068469847F0
:10B6F000337801349C42F7DB0025284607B0F0BDC3
:10B700002046FEF7DBF9054640B92046FEF70AFD64
:10B71000B8420446F1D03378002BF1D103252846F6
:10B7200007B0F0BD0825284607B0F0BDCE57002071
:10B73000BC570020CF570020C05700202DE9F04F04
:10B74000334C247887B0002C36D082464FF6FF70F9
:10B75000984601928946FEF7E5FC0421ADF80A10EF
:10B760000DF10A0304AA002503AE06210446CDE923
:10B7700003550596FEF7F8FB072840D04FF6FF77F4
:10B78000BB464FF0FF3668B1052819D12046FEF7B9
:10B79000C9FC0DF10A0304AA06210446FEF7E4FBE6
:10B7A0000028F1D1039BAB4224BFA3461D46B34200
:10B7B0003CBF1E462746E9E7082007B0BDE8F08FEA
:10B7C0004FF6FF739C421ED1A3451AD0A7420CBF6F
:10B7D00005200020BAF1000F01D0AAF800B0B9F19D
:10B7E000000F01D0C9F80050019B03B11F80B8F1D0
:10B7F000000FE2D0C8F8006007B0BDE8F08F052068
:10B80000DBE70520E6E7032007B0BDE8F08F00BFC7
:10B81000CE570020354B1B78002B38D02DE9F04156
:10B82000334B344E054693E8030088B033786C46BA
:10B8300084E8030013B3DFF8C880D8F8006016BBB3
:10B840002D4B2E4F1A883B68AA4224D05A1C20D078
:10B850000133214628462A4A3B60FEF701FC98B195
:10B860003B680022013B11283B60C8F800200AD049
:10B87000862809D0072818BF032005E0FFF7F2FC4F
:10B880003378002BD7D1112008B0BDE8F081082013
:10B8900070471320F8E7002BDAD01822314602A8AF
:10B8A0001DF083F9174C082328468DF80830FEF761
:10B8B000C3F89DF818302278ADF80A0066F300034B
:10B8C0000621ADF80C508DF8116005968DF81830F2
:10B8D0008DF8101042B10C4D55F8263002A898474B
:10B8E000237801369E42F7DB0020CDE7CE570020BB
:10B8F00034A40400D0570020CC570020B8570020B3
:10B90000D4570020CF570020C057002070B4DDE985
:10B91000034570B169B163B105FB04F6964208D8DE
:10B920003CB135B1C0E90013C0E90245002070BC4C
:10B930007047072070BC7047F8B5002840D00368F6
:10B940000646002B3CD04068002839D0B368002B55
:10B9500036D000250F46FF2429460EE0FF2C19BFE4
:10B960002B1B013301232C469F422AD00135B3689B
:10B97000EDB29D42294623D2706803F015FCBFF357
:10B980005F8F0028EAD0FF2C18D0A54216D9336863
:10B9900083B17068E3B268B1FF2B0BD0BFF35F8F48
:10B9A000214603F01BFC28B17068BFF35F8F21466E
:10B9B00003F00AFC0134E3B2AB42E8D3FF24D5E73D
:10B9C000FF242046F8BD00BFA8B102689AB14268C2
:10B9D0008AB1FF2938B50D460BD00446BFF35F8FFF
:10B9E000104603F0FBFB20B1E368206803FB050071
:10B9F00038BD002038BD0020704700BF78B1026814
:10BA00006AB142685AB1FF2938B50D4606D00446DE
:10BA1000BFF35F8F104603F0E1FB08B938BD7047F4
:10BA20006068BFF35F8F2946BDE8384003F0CCBBA8
:10BA30007EDF70477FDF704785DF704786DF7047A6
:10BA40002DE9F04F9A4B05881978044689B02846AD
:10BA50000022FBF705FF637913F0040300F08680F2
:10BA600005F58077BFB238466B4601220721FEF705
:10BA7000C1FD804680B3002707232846CDE9027721
:10BA8000CDF810808DF80830ADF80A50CDE9057773
:10BA90000797FDF703FF02AEADF80C00304600F04B
:10BAA00069FE627923888DF8117012F0040F14BFBB
:10BAB0000121022102221846ADF80A308DF810103B
:10BAC0008DF80820FDF7EAFEADF80C00304600F0D6
:10BAD00051FE09B0BDE8F08F2846FDF7DFFE4FF6B6
